{
  "abi": [
    {
      "inputs": [],
      "stateMutability": "nonpayable",
      "type": "constructor"
    },
    {
      "inputs": [
        {
          "internalType": "string",
          "name": "_title",
          "type": "string"
        },
        {
          "internalType": "string",
          "name": "_publisher",
          "type": "string"
        },
        {
          "internalType": "uint256",
          "name": "_length",
          "type": "uint256"
        },
        {
          "internalType": "string[]",
          "name": "_writers",
          "type": "string[]"
        },
        {
          "internalType": "string",
          "name": "_genre",
          "type": "string"
        },
        {
          "internalType": "uint256",
          "name": "_date",
          "type": "uint256"
        },
        {
          "internalType": "string",
          "name": "_album",
          "type": "string"
        },
        {
          "internalType": "string",
          "name": "_rating",
          "type": "string"
        }
      ],
      "name": "retrieveData",
      "outputs": [],
      "stateMutability": "nonpayable",
      "type": "function"
    }
  ],
  "devdoc": {
    "kind": "dev",
    "methods": {},
    "version": 1
  },
  "evm": {
    "assembly": "    /* \"Media.sol\":121:764  contract Media {... */\n  mstore(0x40, 0x80)\n    /* \"Media.sol\":309:332  constructor() public {} */\n  callvalue\n  dup1\n  iszero\n  tag_1\n  jumpi\n  0x00\n  dup1\n  revert\ntag_1:\n  pop\n    /* \"Media.sol\":121:764  contract Media {... */\n  dataSize(sub_0)\n  dup1\n  dataOffset(sub_0)\n  0x00\n  codecopy\n  0x00\n  return\nstop\n\nsub_0: assembly {\n        /* \"Media.sol\":121:764  contract Media {... */\n      mstore(0x40, 0x80)\n      callvalue\n      dup1\n      iszero\n      tag_1\n      jumpi\n      0x00\n      dup1\n      revert\n    tag_1:\n      pop\n      jumpi(tag_2, lt(calldatasize, 0x04))\n      shr(0xe0, calldataload(0x00))\n      dup1\n      0x8617860e\n      eq\n      tag_3\n      jumpi\n    tag_2:\n      0x00\n      dup1\n      revert\n        /* \"Media.sol\":340:761  function retrieveData(string memory _title, string memory _publisher, uint _length, string[] memory _writers, string memory _genre, uint256 _date, string memory _album, string memory _rating) public {... */\n    tag_3:\n      tag_4\n      0x04\n      dup1\n      calldatasize\n      sub\n      dup2\n      add\n      swap1\n      tag_5\n      swap2\n      swap1\n      tag_6\n      jump\t// in\n    tag_5:\n      tag_7\n      jump\t// in\n    tag_4:\n      stop\n    tag_7:\n        /* \"Media.sol\":558:564  _title */\n      dup8\n        /* \"Media.sol\":550:555  title */\n      0x00\n        /* \"Media.sol\":550:564  title = _title */\n      swap1\n      dup1\n      mload\n      swap1\n      0x20\n      add\n      swap1\n      tag_9\n      swap3\n      swap2\n      swap1\n      tag_10\n      jump\t// in\n    tag_9:\n      pop\n        /* \"Media.sol\":587:597  _publisher */\n      dup7\n        /* \"Media.sol\":575:584  publisher */\n      0x01\n        /* \"Media.sol\":575:597  publisher = _publisher */\n      swap1\n      dup1\n      mload\n      swap1\n      0x20\n      add\n      swap1\n      tag_11\n      swap3\n      swap2\n      swap1\n      tag_10\n      jump\t// in\n    tag_11:\n      pop\n        /* \"Media.sol\":617:624  _length */\n      dup6\n        /* \"Media.sol\":608:614  length */\n      0x02\n        /* \"Media.sol\":608:624  length = _length */\n      dup2\n      swap1\n      sstore\n      pop\n        /* \"Media.sol\":645:653  _writers */\n      dup5\n        /* \"Media.sol\":635:642  writers */\n      0x03\n        /* \"Media.sol\":635:653  writers = _writers */\n      swap1\n      dup1\n      mload\n      swap1\n      0x20\n      add\n      swap1\n      tag_12\n      swap3\n      swap2\n      swap1\n      tag_13\n      jump\t// in\n    tag_12:\n      pop\n        /* \"Media.sol\":672:678  _genre */\n      dup4\n        /* \"Media.sol\":664:669  genre */\n      0x04\n        /* \"Media.sol\":664:678  genre = _genre */\n      swap1\n      dup1\n      mload\n      swap1\n      0x20\n      add\n      swap1\n      tag_14\n      swap3\n      swap2\n      swap1\n      tag_10\n      jump\t// in\n    tag_14:\n      pop\n        /* \"Media.sol\":696:701  _date */\n      dup3\n        /* \"Media.sol\":689:693  date */\n      0x05\n        /* \"Media.sol\":689:701  date = _date */\n      dup2\n      swap1\n      sstore\n      pop\n        /* \"Media.sol\":720:726  _album */\n      dup2\n        /* \"Media.sol\":712:717  album */\n      0x06\n        /* \"Media.sol\":712:726  album = _album */\n      swap1\n      dup1\n      mload\n      swap1\n      0x20\n      add\n      swap1\n      tag_15\n      swap3\n      swap2\n      swap1\n      tag_10\n      jump\t// in\n    tag_15:\n      pop\n        /* \"Media.sol\":746:753  _rating */\n      dup1\n        /* \"Media.sol\":737:743  rating */\n      0x07\n        /* \"Media.sol\":737:753  rating = _rating */\n      swap1\n      dup1\n      mload\n      swap1\n      0x20\n      add\n      swap1\n      tag_16\n      swap3\n      swap2\n      swap1\n      tag_10\n      jump\t// in\n    tag_16:\n      pop\n        /* \"Media.sol\":340:761  function retrieveData(string memory _title, string memory _publisher, uint _length, string[] memory _writers, string memory _genre, uint256 _date, string memory _album, string memory _rating) public {... */\n      pop\n      pop\n      pop\n      pop\n      pop\n      pop\n      pop\n      pop\n      jump\t// out\n    tag_10:\n      dup3\n      dup1\n      sload\n      tag_17\n      swap1\n      tag_18\n      jump\t// in\n    tag_17:\n      swap1\n      0x00\n      mstore\n      keccak256(0x00, 0x20)\n      swap1\n      0x1f\n      add\n      0x20\n      swap1\n      div\n      dup2\n      add\n      swap3\n      dup3\n      tag_20\n      jumpi\n      0x00\n      dup6\n      sstore\n      jump(tag_19)\n    tag_20:\n      dup3\n      0x1f\n      lt\n      tag_21\n      jumpi\n      dup1\n      mload\n      not(0xff)\n      and\n      dup4\n      dup1\n      add\n      or\n      dup6\n      sstore\n      jump(tag_19)\n    tag_21:\n      dup3\n      dup1\n      add\n      0x01\n      add\n      dup6\n      sstore\n      dup3\n      iszero\n      tag_19\n      jumpi\n      swap2\n      dup3\n      add\n    tag_22:\n      dup3\n      dup2\n      gt\n      iszero\n      tag_23\n      jumpi\n      dup3\n      mload\n      dup3\n      sstore\n      swap2\n      0x20\n      add\n      swap2\n      swap1\n      0x01\n      add\n      swap1\n      jump(tag_22)\n    tag_23:\n    tag_19:\n      pop\n      swap1\n      pop\n      tag_24\n      swap2\n      swap1\n      tag_25\n      jump\t// in\n    tag_24:\n      pop\n      swap1\n      jump\t// out\n    tag_13:\n      dup3\n      dup1\n      sload\n      dup3\n      dup3\n      sstore\n      swap1\n      0x00\n      mstore\n      keccak256(0x00, 0x20)\n      swap1\n      dup2\n      add\n      swap3\n      dup3\n      iszero\n      tag_26\n      jumpi\n      swap2\n      0x20\n      mul\n      dup3\n      add\n    tag_27:\n      dup3\n      dup2\n      gt\n      iszero\n      tag_28\n      jumpi\n      dup3\n      mload\n      dup3\n      swap1\n      dup1\n      mload\n      swap1\n      0x20\n      add\n      swap1\n      tag_29\n      swap3\n      swap2\n      swap1\n      tag_10\n      jump\t// in\n    tag_29:\n      pop\n      swap2\n      0x20\n      add\n      swap2\n      swap1\n      0x01\n      add\n      swap1\n      jump(tag_27)\n    tag_28:\n    tag_26:\n      pop\n      swap1\n      pop\n      tag_30\n      swap2\n      swap1\n      tag_31\n      jump\t// in\n    tag_30:\n      pop\n      swap1\n      jump\t// out\n    tag_25:\n    tag_32:\n      dup1\n      dup3\n      gt\n      iszero\n      tag_33\n      jumpi\n      0x00\n      dup2\n      0x00\n      swap1\n      sstore\n      pop\n      0x01\n      add\n      jump(tag_32)\n    tag_33:\n      pop\n      swap1\n      jump\t// out\n    tag_31:\n    tag_34:\n      dup1\n      dup3\n      gt\n      iszero\n      tag_35\n      jumpi\n      0x00\n      dup2\n      dup2\n      tag_36\n      swap2\n      swap1\n      tag_37\n      jump\t// in\n    tag_36:\n      pop\n      0x01\n      add\n      jump(tag_34)\n    tag_35:\n      pop\n      swap1\n      jump\t// out\n    tag_37:\n      pop\n      dup1\n      sload\n      tag_38\n      swap1\n      tag_18\n      jump\t// in\n    tag_38:\n      0x00\n      dup3\n      sstore\n      dup1\n      0x1f\n      lt\n      tag_40\n      jumpi\n      pop\n      jump(tag_39)\n    tag_40:\n      0x1f\n      add\n      0x20\n      swap1\n      div\n      swap1\n      0x00\n      mstore\n      keccak256(0x00, 0x20)\n      swap1\n      dup2\n      add\n      swap1\n      tag_41\n      swap2\n      swap1\n      tag_25\n      jump\t// in\n    tag_41:\n    tag_39:\n      pop\n      jump\t// out\n        /* \"#utility.yul\":7:82   */\n    tag_42:\n        /* \"#utility.yul\":40:46   */\n      0x00\n        /* \"#utility.yul\":73:75   */\n      0x40\n        /* \"#utility.yul\":67:76   */\n      mload\n        /* \"#utility.yul\":57:76   */\n      swap1\n      pop\n        /* \"#utility.yul\":7:82   */\n      swap1\n      jump\t// out\n        /* \"#utility.yul\":88:205   */\n    tag_43:\n        /* \"#utility.yul\":197:198   */\n      0x00\n        /* \"#utility.yul\":194:195   */\n      dup1\n        /* \"#utility.yul\":187:199   */\n      revert\n        /* \"#utility.yul\":211:328   */\n    tag_44:\n        /* \"#utility.yul\":320:321   */\n      0x00\n        /* \"#utility.yul\":317:318   */\n      dup1\n        /* \"#utility.yul\":310:322   */\n      revert\n        /* \"#utility.yul\":334:451   */\n    tag_45:\n        /* \"#utility.yul\":443:444   */\n      0x00\n        /* \"#utility.yul\":440:441   */\n      dup1\n        /* \"#utility.yul\":433:445   */\n      revert\n        /* \"#utility.yul\":457:574   */\n    tag_46:\n        /* \"#utility.yul\":566:567   */\n      0x00\n        /* \"#utility.yul\":563:564   */\n      dup1\n        /* \"#utility.yul\":556:568   */\n      revert\n        /* \"#utility.yul\":580:682   */\n    tag_47:\n        /* \"#utility.yul\":621:627   */\n      0x00\n        /* \"#utility.yul\":672:674   */\n      0x1f\n        /* \"#utility.yul\":668:675   */\n      not\n        /* \"#utility.yul\":663:665   */\n      0x1f\n        /* \"#utility.yul\":656:661   */\n      dup4\n        /* \"#utility.yul\":652:666   */\n      add\n        /* \"#utility.yul\":648:676   */\n      and\n        /* \"#utility.yul\":638:676   */\n      swap1\n      pop\n        /* \"#utility.yul\":580:682   */\n      swap2\n      swap1\n      pop\n      jump\t// out\n        /* \"#utility.yul\":688:868   */\n    tag_48:\n        /* \"#utility.yul\":736:813   */\n      0x4e487b7100000000000000000000000000000000000000000000000000000000\n        /* \"#utility.yul\":733:734   */\n      0x00\n        /* \"#utility.yul\":726:814   */\n      mstore\n        /* \"#utility.yul\":833:837   */\n      0x41\n        /* \"#utility.yul\":830:831   */\n      0x04\n        /* \"#utility.yul\":823:838   */\n      mstore\n        /* \"#utility.yul\":857:861   */\n      0x24\n        /* \"#utility.yul\":854:855   */\n      0x00\n        /* \"#utility.yul\":847:862   */\n      revert\n        /* \"#utility.yul\":874:1155   */\n    tag_49:\n        /* \"#utility.yul\":957:984   */\n      tag_72\n        /* \"#utility.yul\":979:983   */\n      dup3\n        /* \"#utility.yul\":957:984   */\n      tag_47\n      jump\t// in\n    tag_72:\n        /* \"#utility.yul\":949:955   */\n      dup2\n        /* \"#utility.yul\":945:985   */\n      add\n        /* \"#utility.yul\":1087:1093   */\n      dup2\n        /* \"#utility.yul\":1075:1085   */\n      dup2\n        /* \"#utility.yul\":1072:1094   */\n      lt\n        /* \"#utility.yul\":1051:1069   */\n      0xffffffffffffffff\n        /* \"#utility.yul\":1039:1049   */\n      dup3\n        /* \"#utility.yul\":1036:1070   */\n      gt\n        /* \"#utility.yul\":1033:1095   */\n      or\n        /* \"#utility.yul\":1030:1118   */\n      iszero\n      tag_73\n      jumpi\n        /* \"#utility.yul\":1098:1116   */\n      tag_74\n      tag_48\n      jump\t// in\n    tag_74:\n        /* \"#utility.yul\":1030:1118   */\n    tag_73:\n        /* \"#utility.yul\":1138:1148   */\n      dup1\n        /* \"#utility.yul\":1134:1136   */\n      0x40\n        /* \"#utility.yul\":1127:1149   */\n      mstore\n        /* \"#utility.yul\":917:1155   */\n      pop\n        /* \"#utility.yul\":874:1155   */\n      pop\n      pop\n      jump\t// out\n        /* \"#utility.yul\":1161:1290   */\n    tag_50:\n        /* \"#utility.yul\":1195:1201   */\n      0x00\n        /* \"#utility.yul\":1222:1242   */\n      tag_76\n      tag_42\n      jump\t// in\n    tag_76:\n        /* \"#utility.yul\":1212:1242   */\n      swap1\n      pop\n        /* \"#utility.yul\":1251:1284   */\n      tag_77\n        /* \"#utility.yul\":1279:1283   */\n      dup3\n        /* \"#utility.yul\":1271:1277   */\n      dup3\n        /* \"#utility.yul\":1251:1284   */\n      tag_49\n      jump\t// in\n    tag_77:\n        /* \"#utility.yul\":1161:1290   */\n      swap2\n      swap1\n      pop\n      jump\t// out\n        /* \"#utility.yul\":1296:1604   */\n    tag_51:\n        /* \"#utility.yul\":1358:1362   */\n      0x00\n        /* \"#utility.yul\":1448:1466   */\n      0xffffffffffffffff\n        /* \"#utility.yul\":1440:1446   */\n      dup3\n        /* \"#utility.yul\":1437:1467   */\n      gt\n        /* \"#utility.yul\":1434:1490   */\n      iszero\n      tag_79\n      jumpi\n        /* \"#utility.yul\":1470:1488   */\n      tag_80\n      tag_48\n      jump\t// in\n    tag_80:\n        /* \"#utility.yul\":1434:1490   */\n    tag_79:\n        /* \"#utility.yul\":1508:1537   */\n      tag_81\n        /* \"#utility.yul\":1530:1536   */\n      dup3\n        /* \"#utility.yul\":1508:1537   */\n      tag_47\n      jump\t// in\n    tag_81:\n        /* \"#utility.yul\":1500:1537   */\n      swap1\n      pop\n        /* \"#utility.yul\":1592:1596   */\n      0x20\n        /* \"#utility.yul\":1586:1590   */\n      dup2\n        /* \"#utility.yul\":1582:1597   */\n      add\n        /* \"#utility.yul\":1574:1597   */\n      swap1\n      pop\n        /* \"#utility.yul\":1296:1604   */\n      swap2\n      swap1\n      pop\n      jump\t// out\n        /* \"#utility.yul\":1610:1764   */\n    tag_52:\n        /* \"#utility.yul\":1694:1700   */\n      dup3\n        /* \"#utility.yul\":1689:1692   */\n      dup2\n        /* \"#utility.yul\":1684:1687   */\n      dup4\n        /* \"#utility.yul\":1671:1701   */\n      calldatacopy\n        /* \"#utility.yul\":1756:1757   */\n      0x00\n        /* \"#utility.yul\":1747:1753   */\n      dup4\n        /* \"#utility.yul\":1742:1745   */\n      dup4\n        /* \"#utility.yul\":1738:1754   */\n      add\n        /* \"#utility.yul\":1731:1758   */\n      mstore\n        /* \"#utility.yul\":1610:1764   */\n      pop\n      pop\n      pop\n      jump\t// out\n        /* \"#utility.yul\":1770:2182   */\n    tag_53:\n        /* \"#utility.yul\":1848:1853   */\n      0x00\n        /* \"#utility.yul\":1873:1939   */\n      tag_84\n        /* \"#utility.yul\":1889:1938   */\n      tag_85\n        /* \"#utility.yul\":1931:1937   */\n      dup5\n        /* \"#utility.yul\":1889:1938   */\n      tag_51\n      jump\t// in\n    tag_85:\n        /* \"#utility.yul\":1873:1939   */\n      tag_50\n      jump\t// in\n    tag_84:\n        /* \"#utility.yul\":1864:1939   */\n      swap1\n      pop\n        /* \"#utility.yul\":1962:1968   */\n      dup3\n        /* \"#utility.yul\":1955:1960   */\n      dup2\n        /* \"#utility.yul\":1948:1969   */\n      mstore\n        /* \"#utility.yul\":2000:2004   */\n      0x20\n        /* \"#utility.yul\":1993:1998   */\n      dup2\n        /* \"#utility.yul\":1989:2005   */\n      add\n        /* \"#utility.yul\":2038:2041   */\n      dup5\n        /* \"#utility.yul\":2029:2035   */\n      dup5\n        /* \"#utility.yul\":2024:2027   */\n      dup5\n        /* \"#utility.yul\":2020:2036   */\n      add\n        /* \"#utility.yul\":2017:2042   */\n      gt\n        /* \"#utility.yul\":2014:2126   */\n      iszero\n      tag_86\n      jumpi\n        /* \"#utility.yul\":2045:2124   */\n      tag_87\n      tag_46\n      jump\t// in\n    tag_87:\n        /* \"#utility.yul\":2014:2126   */\n    tag_86:\n        /* \"#utility.yul\":2135:2176   */\n      tag_88\n        /* \"#utility.yul\":2169:2175   */\n      dup5\n        /* \"#utility.yul\":2164:2167   */\n      dup3\n        /* \"#utility.yul\":2159:2162   */\n      dup6\n        /* \"#utility.yul\":2135:2176   */\n      tag_52\n      jump\t// in\n    tag_88:\n        /* \"#utility.yul\":1854:2182   */\n      pop\n        /* \"#utility.yul\":1770:2182   */\n      swap4\n      swap3\n      pop\n      pop\n      pop\n      jump\t// out\n        /* \"#utility.yul\":2202:2542   */\n    tag_54:\n        /* \"#utility.yul\":2258:2263   */\n      0x00\n        /* \"#utility.yul\":2307:2310   */\n      dup3\n        /* \"#utility.yul\":2300:2304   */\n      0x1f\n        /* \"#utility.yul\":2292:2298   */\n      dup4\n        /* \"#utility.yul\":2288:2305   */\n      add\n        /* \"#utility.yul\":2284:2311   */\n      slt\n        /* \"#utility.yul\":2274:2396   */\n      tag_90\n      jumpi\n        /* \"#utility.yul\":2315:2394   */\n      tag_91\n      tag_45\n      jump\t// in\n    tag_91:\n        /* \"#utility.yul\":2274:2396   */\n    tag_90:\n        /* \"#utility.yul\":2432:2438   */\n      dup2\n        /* \"#utility.yul\":2419:2439   */\n      calldataload\n        /* \"#utility.yul\":2457:2536   */\n      tag_92\n        /* \"#utility.yul\":2532:2535   */\n      dup5\n        /* \"#utility.yul\":2524:2530   */\n      dup3\n        /* \"#utility.yul\":2517:2521   */\n      0x20\n        /* \"#utility.yul\":2509:2515   */\n      dup7\n        /* \"#utility.yul\":2505:2522   */\n      add\n        /* \"#utility.yul\":2457:2536   */\n      tag_53\n      jump\t// in\n    tag_92:\n        /* \"#utility.yul\":2448:2536   */\n      swap2\n      pop\n        /* \"#utility.yul\":2264:2542   */\n      pop\n        /* \"#utility.yul\":2202:2542   */\n      swap3\n      swap2\n      pop\n      pop\n      jump\t// out\n        /* \"#utility.yul\":2548:2625   */\n    tag_55:\n        /* \"#utility.yul\":2585:2592   */\n      0x00\n        /* \"#utility.yul\":2614:2619   */\n      dup2\n        /* \"#utility.yul\":2603:2619   */\n      swap1\n      pop\n        /* \"#utility.yul\":2548:2625   */\n      swap2\n      swap1\n      pop\n      jump\t// out\n        /* \"#utility.yul\":2631:2753   */\n    tag_56:\n        /* \"#utility.yul\":2704:2728   */\n      tag_95\n        /* \"#utility.yul\":2722:2727   */\n      dup2\n        /* \"#utility.yul\":2704:2728   */\n      tag_55\n      jump\t// in\n    tag_95:\n        /* \"#utility.yul\":2697:2702   */\n      dup2\n        /* \"#utility.yul\":2694:2729   */\n      eq\n        /* \"#utility.yul\":2684:2747   */\n      tag_96\n      jumpi\n        /* \"#utility.yul\":2743:2744   */\n      0x00\n        /* \"#utility.yul\":2740:2741   */\n      dup1\n        /* \"#utility.yul\":2733:2745   */\n      revert\n        /* \"#utility.yul\":2684:2747   */\n    tag_96:\n        /* \"#utility.yul\":2631:2753   */\n      pop\n      jump\t// out\n        /* \"#utility.yul\":2759:2898   */\n    tag_57:\n        /* \"#utility.yul\":2805:2810   */\n      0x00\n        /* \"#utility.yul\":2843:2849   */\n      dup2\n        /* \"#utility.yul\":2830:2850   */\n      calldataload\n        /* \"#utility.yul\":2821:2850   */\n      swap1\n      pop\n        /* \"#utility.yul\":2859:2892   */\n      tag_98\n        /* \"#utility.yul\":2886:2891   */\n      dup2\n        /* \"#utility.yul\":2859:2892   */\n      tag_56\n      jump\t// in\n    tag_98:\n        /* \"#utility.yul\":2759:2898   */\n      swap3\n      swap2\n      pop\n      pop\n      jump\t// out\n        /* \"#utility.yul\":2904:3225   */\n    tag_58:\n        /* \"#utility.yul\":2991:2995   */\n      0x00\n        /* \"#utility.yul\":3081:3099   */\n      0xffffffffffffffff\n        /* \"#utility.yul\":3073:3079   */\n      dup3\n        /* \"#utility.yul\":3070:3100   */\n      gt\n        /* \"#utility.yul\":3067:3123   */\n      iszero\n      tag_100\n      jumpi\n        /* \"#utility.yul\":3103:3121   */\n      tag_101\n      tag_48\n      jump\t// in\n    tag_101:\n        /* \"#utility.yul\":3067:3123   */\n    tag_100:\n        /* \"#utility.yul\":3153:3157   */\n      0x20\n        /* \"#utility.yul\":3145:3151   */\n      dup3\n        /* \"#utility.yul\":3141:3158   */\n      mul\n        /* \"#utility.yul\":3133:3158   */\n      swap1\n      pop\n        /* \"#utility.yul\":3213:3217   */\n      0x20\n        /* \"#utility.yul\":3207:3211   */\n      dup2\n        /* \"#utility.yul\":3203:3218   */\n      add\n        /* \"#utility.yul\":3195:3218   */\n      swap1\n      pop\n        /* \"#utility.yul\":2904:3225   */\n      swap2\n      swap1\n      pop\n      jump\t// out\n        /* \"#utility.yul\":3231:3348   */\n    tag_59:\n        /* \"#utility.yul\":3340:3341   */\n      0x00\n        /* \"#utility.yul\":3337:3338   */\n      dup1\n        /* \"#utility.yul\":3330:3342   */\n      revert\n        /* \"#utility.yul\":3370:4315   */\n    tag_60:\n        /* \"#utility.yul\":3476:3481   */\n      0x00\n        /* \"#utility.yul\":3501:3592   */\n      tag_104\n        /* \"#utility.yul\":3517:3591   */\n      tag_105\n        /* \"#utility.yul\":3584:3590   */\n      dup5\n        /* \"#utility.yul\":3517:3591   */\n      tag_58\n      jump\t// in\n    tag_105:\n        /* \"#utility.yul\":3501:3592   */\n      tag_50\n      jump\t// in\n    tag_104:\n        /* \"#utility.yul\":3492:3592   */\n      swap1\n      pop\n        /* \"#utility.yul\":3612:3617   */\n      dup1\n        /* \"#utility.yul\":3641:3647   */\n      dup4\n        /* \"#utility.yul\":3634:3639   */\n      dup3\n        /* \"#utility.yul\":3627:3648   */\n      mstore\n        /* \"#utility.yul\":3675:3679   */\n      0x20\n        /* \"#utility.yul\":3668:3673   */\n      dup3\n        /* \"#utility.yul\":3664:3680   */\n      add\n        /* \"#utility.yul\":3657:3680   */\n      swap1\n      pop\n        /* \"#utility.yul\":3728:3732   */\n      0x20\n        /* \"#utility.yul\":3720:3726   */\n      dup5\n        /* \"#utility.yul\":3716:3733   */\n      mul\n        /* \"#utility.yul\":3708:3714   */\n      dup4\n        /* \"#utility.yul\":3704:3734   */\n      add\n        /* \"#utility.yul\":3757:3760   */\n      dup6\n        /* \"#utility.yul\":3749:3755   */\n      dup2\n        /* \"#utility.yul\":3746:3761   */\n      gt\n        /* \"#utility.yul\":3743:3865   */\n      iszero\n      tag_106\n      jumpi\n        /* \"#utility.yul\":3776:3855   */\n      tag_107\n      tag_59\n      jump\t// in\n    tag_107:\n        /* \"#utility.yul\":3743:3865   */\n    tag_106:\n        /* \"#utility.yul\":3891:3897   */\n      dup4\n        /* \"#utility.yul\":3874:4309   */\n    tag_108:\n        /* \"#utility.yul\":3908:3914   */\n      dup2\n        /* \"#utility.yul\":3903:3906   */\n      dup2\n        /* \"#utility.yul\":3900:3915   */\n      lt\n        /* \"#utility.yul\":3874:4309   */\n      iszero\n      tag_110\n      jumpi\n        /* \"#utility.yul\":3997:4000   */\n      dup1\n        /* \"#utility.yul\":3984:4001   */\n      calldataload\n        /* \"#utility.yul\":4033:4051   */\n      0xffffffffffffffff\n        /* \"#utility.yul\":4020:4031   */\n      dup2\n        /* \"#utility.yul\":4017:4052   */\n      gt\n        /* \"#utility.yul\":4014:4136   */\n      iszero\n      tag_111\n      jumpi\n        /* \"#utility.yul\":4055:4134   */\n      tag_112\n      tag_45\n      jump\t// in\n    tag_112:\n        /* \"#utility.yul\":4014:4136   */\n    tag_111:\n        /* \"#utility.yul\":4179:4190   */\n      dup1\n        /* \"#utility.yul\":4171:4177   */\n      dup7\n        /* \"#utility.yul\":4167:4191   */\n      add\n        /* \"#utility.yul\":4217:4264   */\n      tag_113\n        /* \"#utility.yul\":4260:4263   */\n      dup10\n        /* \"#utility.yul\":4248:4258   */\n      dup3\n        /* \"#utility.yul\":4217:4264   */\n      tag_54\n      jump\t// in\n    tag_113:\n        /* \"#utility.yul\":4212:4215   */\n      dup6\n        /* \"#utility.yul\":4205:4265   */\n      mstore\n        /* \"#utility.yul\":4294:4298   */\n      0x20\n        /* \"#utility.yul\":4289:4292   */\n      dup6\n        /* \"#utility.yul\":4285:4299   */\n      add\n        /* \"#utility.yul\":4278:4299   */\n      swap5\n      pop\n        /* \"#utility.yul\":3950:4309   */\n      pop\n      pop\n        /* \"#utility.yul\":3934:3938   */\n      0x20\n        /* \"#utility.yul\":3929:3932   */\n      dup2\n        /* \"#utility.yul\":3925:3939   */\n      add\n        /* \"#utility.yul\":3918:3939   */\n      swap1\n      pop\n        /* \"#utility.yul\":3874:4309   */\n      jump(tag_108)\n    tag_110:\n        /* \"#utility.yul\":3878:3899   */\n      pop\n        /* \"#utility.yul\":3482:4315   */\n      pop\n      pop\n        /* \"#utility.yul\":3370:4315   */\n      swap4\n      swap3\n      pop\n      pop\n      pop\n      jump\t// out\n        /* \"#utility.yul\":4337:4727   */\n    tag_61:\n        /* \"#utility.yul\":4418:4423   */\n      0x00\n        /* \"#utility.yul\":4467:4470   */\n      dup3\n        /* \"#utility.yul\":4460:4464   */\n      0x1f\n        /* \"#utility.yul\":4452:4458   */\n      dup4\n        /* \"#utility.yul\":4448:4465   */\n      add\n        /* \"#utility.yul\":4444:4471   */\n      slt\n        /* \"#utility.yul\":4434:4556   */\n      tag_115\n      jumpi\n        /* \"#utility.yul\":4475:4554   */\n      tag_116\n      tag_45\n      jump\t// in\n    tag_116:\n        /* \"#utility.yul\":4434:4556   */\n    tag_115:\n        /* \"#utility.yul\":4592:4598   */\n      dup2\n        /* \"#utility.yul\":4579:4599   */\n      calldataload\n        /* \"#utility.yul\":4617:4721   */\n      tag_117\n        /* \"#utility.yul\":4717:4720   */\n      dup5\n        /* \"#utility.yul\":4709:4715   */\n      dup3\n        /* \"#utility.yul\":4702:4706   */\n      0x20\n        /* \"#utility.yul\":4694:4700   */\n      dup7\n        /* \"#utility.yul\":4690:4707   */\n      add\n        /* \"#utility.yul\":4617:4721   */\n      tag_60\n      jump\t// in\n    tag_117:\n        /* \"#utility.yul\":4608:4721   */\n      swap2\n      pop\n        /* \"#utility.yul\":4424:4727   */\n      pop\n        /* \"#utility.yul\":4337:4727   */\n      swap3\n      swap2\n      pop\n      pop\n      jump\t// out\n        /* \"#utility.yul\":4733:7212   */\n    tag_6:\n        /* \"#utility.yul\":4940:4946   */\n      0x00\n        /* \"#utility.yul\":4948:4954   */\n      dup1\n        /* \"#utility.yul\":4956:4962   */\n      0x00\n        /* \"#utility.yul\":4964:4970   */\n      dup1\n        /* \"#utility.yul\":4972:4978   */\n      0x00\n        /* \"#utility.yul\":4980:4986   */\n      dup1\n        /* \"#utility.yul\":4988:4994   */\n      0x00\n        /* \"#utility.yul\":4996:5002   */\n      dup1\n        /* \"#utility.yul\":5045:5048   */\n      0x0100\n        /* \"#utility.yul\":5033:5042   */\n      dup10\n        /* \"#utility.yul\":5024:5031   */\n      dup12\n        /* \"#utility.yul\":5020:5043   */\n      sub\n        /* \"#utility.yul\":5016:5049   */\n      slt\n        /* \"#utility.yul\":5013:5133   */\n      iszero\n      tag_119\n      jumpi\n        /* \"#utility.yul\":5052:5131   */\n      tag_120\n      tag_43\n      jump\t// in\n    tag_120:\n        /* \"#utility.yul\":5013:5133   */\n    tag_119:\n        /* \"#utility.yul\":5200:5201   */\n      0x00\n        /* \"#utility.yul\":5189:5198   */\n      dup10\n        /* \"#utility.yul\":5185:5202   */\n      add\n        /* \"#utility.yul\":5172:5203   */\n      calldataload\n        /* \"#utility.yul\":5230:5248   */\n      0xffffffffffffffff\n        /* \"#utility.yul\":5222:5228   */\n      dup2\n        /* \"#utility.yul\":5219:5249   */\n      gt\n        /* \"#utility.yul\":5216:5333   */\n      iszero\n      tag_121\n      jumpi\n        /* \"#utility.yul\":5252:5331   */\n      tag_122\n      tag_44\n      jump\t// in\n    tag_122:\n        /* \"#utility.yul\":5216:5333   */\n    tag_121:\n        /* \"#utility.yul\":5357:5420   */\n      tag_123\n        /* \"#utility.yul\":5412:5419   */\n      dup12\n        /* \"#utility.yul\":5403:5409   */\n      dup3\n        /* \"#utility.yul\":5392:5401   */\n      dup13\n        /* \"#utility.yul\":5388:5410   */\n      add\n        /* \"#utility.yul\":5357:5420   */\n      tag_54\n      jump\t// in\n    tag_123:\n        /* \"#utility.yul\":5347:5420   */\n      swap9\n      pop\n        /* \"#utility.yul\":5143:5430   */\n      pop\n        /* \"#utility.yul\":5497:5499   */\n      0x20\n        /* \"#utility.yul\":5486:5495   */\n      dup10\n        /* \"#utility.yul\":5482:5500   */\n      add\n        /* \"#utility.yul\":5469:5501   */\n      calldataload\n        /* \"#utility.yul\":5528:5546   */\n      0xffffffffffffffff\n        /* \"#utility.yul\":5520:5526   */\n      dup2\n        /* \"#utility.yul\":5517:5547   */\n      gt\n        /* \"#utility.yul\":5514:5631   */\n      iszero\n      tag_124\n      jumpi\n        /* \"#utility.yul\":5550:5629   */\n      tag_125\n      tag_44\n      jump\t// in\n    tag_125:\n        /* \"#utility.yul\":5514:5631   */\n    tag_124:\n        /* \"#utility.yul\":5655:5718   */\n      tag_126\n        /* \"#utility.yul\":5710:5717   */\n      dup12\n        /* \"#utility.yul\":5701:5707   */\n      dup3\n        /* \"#utility.yul\":5690:5699   */\n      dup13\n        /* \"#utility.yul\":5686:5708   */\n      add\n        /* \"#utility.yul\":5655:5718   */\n      tag_54\n      jump\t// in\n    tag_126:\n        /* \"#utility.yul\":5645:5718   */\n      swap8\n      pop\n        /* \"#utility.yul\":5440:5728   */\n      pop\n        /* \"#utility.yul\":5767:5769   */\n      0x40\n        /* \"#utility.yul\":5793:5846   */\n      tag_127\n        /* \"#utility.yul\":5838:5845   */\n      dup12\n        /* \"#utility.yul\":5829:5835   */\n      dup3\n        /* \"#utility.yul\":5818:5827   */\n      dup13\n        /* \"#utility.yul\":5814:5836   */\n      add\n        /* \"#utility.yul\":5793:5846   */\n      tag_57\n      jump\t// in\n    tag_127:\n        /* \"#utility.yul\":5783:5846   */\n      swap7\n      pop\n        /* \"#utility.yul\":5738:5856   */\n      pop\n        /* \"#utility.yul\":5923:5925   */\n      0x60\n        /* \"#utility.yul\":5912:5921   */\n      dup10\n        /* \"#utility.yul\":5908:5926   */\n      add\n        /* \"#utility.yul\":5895:5927   */\n      calldataload\n        /* \"#utility.yul\":5954:5972   */\n      0xffffffffffffffff\n        /* \"#utility.yul\":5946:5952   */\n      dup2\n        /* \"#utility.yul\":5943:5973   */\n      gt\n        /* \"#utility.yul\":5940:6057   */\n      iszero\n      tag_128\n      jumpi\n        /* \"#utility.yul\":5976:6055   */\n      tag_129\n      tag_44\n      jump\t// in\n    tag_129:\n        /* \"#utility.yul\":5940:6057   */\n    tag_128:\n        /* \"#utility.yul\":6081:6169   */\n      tag_130\n        /* \"#utility.yul\":6161:6168   */\n      dup12\n        /* \"#utility.yul\":6152:6158   */\n      dup3\n        /* \"#utility.yul\":6141:6150   */\n      dup13\n        /* \"#utility.yul\":6137:6159   */\n      add\n        /* \"#utility.yul\":6081:6169   */\n      tag_61\n      jump\t// in\n    tag_130:\n        /* \"#utility.yul\":6071:6169   */\n      swap6\n      pop\n        /* \"#utility.yul\":5866:6179   */\n      pop\n        /* \"#utility.yul\":6246:6249   */\n      0x80\n        /* \"#utility.yul\":6235:6244   */\n      dup10\n        /* \"#utility.yul\":6231:6250   */\n      add\n        /* \"#utility.yul\":6218:6251   */\n      calldataload\n        /* \"#utility.yul\":6278:6296   */\n      0xffffffffffffffff\n        /* \"#utility.yul\":6270:6276   */\n      dup2\n        /* \"#utility.yul\":6267:6297   */\n      gt\n        /* \"#utility.yul\":6264:6381   */\n      iszero\n      tag_131\n      jumpi\n        /* \"#utility.yul\":6300:6379   */\n      tag_132\n      tag_44\n      jump\t// in\n    tag_132:\n        /* \"#utility.yul\":6264:6381   */\n    tag_131:\n        /* \"#utility.yul\":6405:6468   */\n      tag_133\n        /* \"#utility.yul\":6460:6467   */\n      dup12\n        /* \"#utility.yul\":6451:6457   */\n      dup3\n        /* \"#utility.yul\":6440:6449   */\n      dup13\n        /* \"#utility.yul\":6436:6458   */\n      add\n        /* \"#utility.yul\":6405:6468   */\n      tag_54\n      jump\t// in\n    tag_133:\n        /* \"#utility.yul\":6395:6468   */\n      swap5\n      pop\n        /* \"#utility.yul\":6189:6478   */\n      pop\n        /* \"#utility.yul\":6517:6520   */\n      0xa0\n        /* \"#utility.yul\":6544:6597   */\n      tag_134\n        /* \"#utility.yul\":6589:6596   */\n      dup12\n        /* \"#utility.yul\":6580:6586   */\n      dup3\n        /* \"#utility.yul\":6569:6578   */\n      dup13\n        /* \"#utility.yul\":6565:6587   */\n      add\n        /* \"#utility.yul\":6544:6597   */\n      tag_57\n      jump\t// in\n    tag_134:\n        /* \"#utility.yul\":6534:6597   */\n      swap4\n      pop\n        /* \"#utility.yul\":6488:6607   */\n      pop\n        /* \"#utility.yul\":6674:6677   */\n      0xc0\n        /* \"#utility.yul\":6663:6672   */\n      dup10\n        /* \"#utility.yul\":6659:6678   */\n      add\n        /* \"#utility.yul\":6646:6679   */\n      calldataload\n        /* \"#utility.yul\":6706:6724   */\n      0xffffffffffffffff\n        /* \"#utility.yul\":6698:6704   */\n      dup2\n        /* \"#utility.yul\":6695:6725   */\n      gt\n        /* \"#utility.yul\":6692:6809   */\n      iszero\n      tag_135\n      jumpi\n        /* \"#utility.yul\":6728:6807   */\n      tag_136\n      tag_44\n      jump\t// in\n    tag_136:\n        /* \"#utility.yul\":6692:6809   */\n    tag_135:\n        /* \"#utility.yul\":6833:6896   */\n      tag_137\n        /* \"#utility.yul\":6888:6895   */\n      dup12\n        /* \"#utility.yul\":6879:6885   */\n      dup3\n        /* \"#utility.yul\":6868:6877   */\n      dup13\n        /* \"#utility.yul\":6864:6886   */\n      add\n        /* \"#utility.yul\":6833:6896   */\n      tag_54\n      jump\t// in\n    tag_137:\n        /* \"#utility.yul\":6823:6896   */\n      swap3\n      pop\n        /* \"#utility.yul\":6617:6906   */\n      pop\n        /* \"#utility.yul\":6973:6976   */\n      0xe0\n        /* \"#utility.yul\":6962:6971   */\n      dup10\n        /* \"#utility.yul\":6958:6977   */\n      add\n        /* \"#utility.yul\":6945:6978   */\n      calldataload\n        /* \"#utility.yul\":7005:7023   */\n      0xffffffffffffffff\n        /* \"#utility.yul\":6997:7003   */\n      dup2\n        /* \"#utility.yul\":6994:7024   */\n      gt\n        /* \"#utility.yul\":6991:7108   */\n      iszero\n      tag_138\n      jumpi\n        /* \"#utility.yul\":7027:7106   */\n      tag_139\n      tag_44\n      jump\t// in\n    tag_139:\n        /* \"#utility.yul\":6991:7108   */\n    tag_138:\n        /* \"#utility.yul\":7132:7195   */\n      tag_140\n        /* \"#utility.yul\":7187:7194   */\n      dup12\n        /* \"#utility.yul\":7178:7184   */\n      dup3\n        /* \"#utility.yul\":7167:7176   */\n      dup13\n        /* \"#utility.yul\":7163:7185   */\n      add\n        /* \"#utility.yul\":7132:7195   */\n      tag_54\n      jump\t// in\n    tag_140:\n        /* \"#utility.yul\":7122:7195   */\n      swap2\n      pop\n        /* \"#utility.yul\":6916:7205   */\n      pop\n        /* \"#utility.yul\":4733:7212   */\n      swap3\n      swap6\n      swap9\n      pop\n      swap3\n      swap6\n      swap9\n      swap1\n      swap4\n      swap7\n      pop\n      jump\t// out\n        /* \"#utility.yul\":7218:7398   */\n    tag_62:\n        /* \"#utility.yul\":7266:7343   */\n      0x4e487b7100000000000000000000000000000000000000000000000000000000\n        /* \"#utility.yul\":7263:7264   */\n      0x00\n        /* \"#utility.yul\":7256:7344   */\n      mstore\n        /* \"#utility.yul\":7363:7367   */\n      0x22\n        /* \"#utility.yul\":7360:7361   */\n      0x04\n        /* \"#utility.yul\":7353:7368   */\n      mstore\n        /* \"#utility.yul\":7387:7391   */\n      0x24\n        /* \"#utility.yul\":7384:7385   */\n      0x00\n        /* \"#utility.yul\":7377:7392   */\n      revert\n        /* \"#utility.yul\":7404:7724   */\n    tag_18:\n        /* \"#utility.yul\":7448:7454   */\n      0x00\n        /* \"#utility.yul\":7485:7486   */\n      0x02\n        /* \"#utility.yul\":7479:7483   */\n      dup3\n        /* \"#utility.yul\":7475:7487   */\n      div\n        /* \"#utility.yul\":7465:7487   */\n      swap1\n      pop\n        /* \"#utility.yul\":7532:7533   */\n      0x01\n        /* \"#utility.yul\":7526:7530   */\n      dup3\n        /* \"#utility.yul\":7522:7534   */\n      and\n        /* \"#utility.yul\":7553:7571   */\n      dup1\n        /* \"#utility.yul\":7543:7624   */\n      tag_143\n      jumpi\n        /* \"#utility.yul\":7609:7613   */\n      0x7f\n        /* \"#utility.yul\":7601:7607   */\n      dup3\n        /* \"#utility.yul\":7597:7614   */\n      and\n        /* \"#utility.yul\":7587:7614   */\n      swap2\n      pop\n        /* \"#utility.yul\":7543:7624   */\n    tag_143:\n        /* \"#utility.yul\":7671:7673   */\n      0x20\n        /* \"#utility.yul\":7663:7669   */\n      dup3\n        /* \"#utility.yul\":7660:7674   */\n      lt\n        /* \"#utility.yul\":7640:7658   */\n      dup2\n        /* \"#utility.yul\":7637:7675   */\n      eq\n        /* \"#utility.yul\":7634:7718   */\n      iszero\n      tag_144\n      jumpi\n        /* \"#utility.yul\":7690:7708   */\n      tag_145\n      tag_62\n      jump\t// in\n    tag_145:\n        /* \"#utility.yul\":7634:7718   */\n    tag_144:\n        /* \"#utility.yul\":7455:7724   */\n      pop\n        /* \"#utility.yul\":7404:7724   */\n      swap2\n      swap1\n      pop\n      jump\t// out\n\n    auxdata: 0xa26469706673582212209c49203acbe9a28b39e04a8dd64e0e7aa89acc54fed0ad367f3638ce6690104b64736f6c63430008090033\n}\n",
    "bytecode": {
      "linkReferences": {},
      "object": "608060405234801561001057600080fd5b506106c0806100206000396000f3fe608060405234801561001057600080fd5b506004361061002b5760003560e01c80638617860e14610030575b600080fd5b61004a600480360381019061004591906104cb565b61004c565b005b87600090805190602001906100629291906100ee565b5086600190805190602001906100799291906100ee565b50856002819055508460039080519060200190610097929190610174565b5083600490805190602001906100ae9291906100ee565b508260058190555081600690805190602001906100cc9291906100ee565b5080600790805190602001906100e39291906100ee565b505050505050505050565b8280546100fa90610658565b90600052602060002090601f01602090048101928261011c5760008555610163565b82601f1061013557805160ff1916838001178555610163565b82800160010185558215610163579182015b82811115610162578251825591602001919060010190610147565b5b50905061017091906101d4565b5090565b8280548282559060005260206000209081019282156101c3579160200282015b828111156101c25782518290805190602001906101b29291906100ee565b5091602001919060010190610194565b5b5090506101d091906101f1565b5090565b5b808211156101ed5760008160009055506001016101d5565b5090565b5b8082111561021157600081816102089190610215565b506001016101f2565b5090565b50805461022190610658565b6000825580601f106102335750610252565b601f01602090049060005260206000209081019061025191906101d4565b5b50565b6000604051905090565b600080fd5b600080fd5b600080fd5b600080fd5b6000601f19601f8301169050919050565b7f4e487b7100000000000000000000000000000000000000000000000000000000600052604160045260246000fd5b6102bc82610273565b810181811067ffffffffffffffff821117156102db576102da610284565b5b80604052505050565b60006102ee610255565b90506102fa82826102b3565b919050565b600067ffffffffffffffff82111561031a57610319610284565b5b61032382610273565b9050602081019050919050565b82818337600083830152505050565b600061035261034d846102ff565b6102e4565b90508281526020810184848401111561036e5761036d61026e565b5b610379848285610330565b509392505050565b600082601f83011261039657610395610269565b5b81356103a684826020860161033f565b91505092915050565b6000819050919050565b6103c2816103af565b81146103cd57600080fd5b50565b6000813590506103df816103b9565b92915050565b600067ffffffffffffffff821115610400576103ff610284565b5b602082029050602081019050919050565b600080fd5b6000610429610424846103e5565b6102e4565b9050808382526020820190506020840283018581111561044c5761044b610411565b5b835b8181101561049357803567ffffffffffffffff81111561047157610470610269565b5b80860161047e8982610381565b8552602085019450505060208101905061044e565b5050509392505050565b600082601f8301126104b2576104b1610269565b5b81356104c2848260208601610416565b91505092915050565b600080600080600080600080610100898b0312156104ec576104eb61025f565b5b600089013567ffffffffffffffff81111561050a57610509610264565b5b6105168b828c01610381565b985050602089013567ffffffffffffffff81111561053757610536610264565b5b6105438b828c01610381565b97505060406105548b828c016103d0565b965050606089013567ffffffffffffffff81111561057557610574610264565b5b6105818b828c0161049d565b955050608089013567ffffffffffffffff8111156105a2576105a1610264565b5b6105ae8b828c01610381565b94505060a06105bf8b828c016103d0565b93505060c089013567ffffffffffffffff8111156105e0576105df610264565b5b6105ec8b828c01610381565b92505060e089013567ffffffffffffffff81111561060d5761060c610264565b5b6106198b828c01610381565b9150509295985092959890939650565b7f4e487b7100000000000000000000000000000000000000000000000000000000600052602260045260246000fd5b6000600282049050600182168061067057607f821691505b6020821081141561068457610683610629565b5b5091905056fea26469706673582212209c49203acbe9a28b39e04a8dd64e0e7aa89acc54fed0ad367f3638ce6690104b64736f6c63430008090033",
      "opcodes": "PUSH1 0x80 PUSH1 0x40 MSTORE CALLVALUE DUP1 ISZERO PUSH2 0x10 JUMPI PUSH1 0x0 DUP1 REVERT JUMPDEST POP PUSH2 0x6C0 DUP1 PUSH2 0x20 PUSH1 0x0 CODECOPY PUSH1 0x0 RETURN INVALID PUSH1 0x80 PUSH1 0x40 MSTORE CALLVALUE DUP1 ISZERO PUSH2 0x10 JUMPI PUSH1 0x0 DUP1 REVERT JUMPDEST POP PUSH1 0x4 CALLDATASIZE LT PUSH2 0x2B JUMPI PUSH1 0x0 CALLDATALOAD PUSH1 0xE0 SHR DUP1 PUSH4 0x8617860E EQ PUSH2 0x30 JUMPI JUMPDEST PUSH1 0x0 DUP1 REVERT JUMPDEST PUSH2 0x4A PUSH1 0x4 DUP1 CALLDATASIZE SUB DUP2 ADD SWAP1 PUSH2 0x45 SWAP2 SWAP1 PUSH2 0x4CB JUMP JUMPDEST PUSH2 0x4C JUMP JUMPDEST STOP JUMPDEST DUP8 PUSH1 0x0 SWAP1 DUP1 MLOAD SWAP1 PUSH1 0x20 ADD SWAP1 PUSH2 0x62 SWAP3 SWAP2 SWAP1 PUSH2 0xEE JUMP JUMPDEST POP DUP7 PUSH1 0x1 SWAP1 DUP1 MLOAD SWAP1 PUSH1 0x20 ADD SWAP1 PUSH2 0x79 SWAP3 SWAP2 SWAP1 PUSH2 0xEE JUMP JUMPDEST POP DUP6 PUSH1 0x2 DUP2 SWAP1 SSTORE POP DUP5 PUSH1 0x3 SWAP1 DUP1 MLOAD SWAP1 PUSH1 0x20 ADD SWAP1 PUSH2 0x97 SWAP3 SWAP2 SWAP1 PUSH2 0x174 JUMP JUMPDEST POP DUP4 PUSH1 0x4 SWAP1 DUP1 MLOAD SWAP1 PUSH1 0x20 ADD SWAP1 PUSH2 0xAE SWAP3 SWAP2 SWAP1 PUSH2 0xEE JUMP JUMPDEST POP DUP3 PUSH1 0x5 DUP2 SWAP1 SSTORE POP DUP2 PUSH1 0x6 SWAP1 DUP1 MLOAD SWAP1 PUSH1 0x20 ADD SWAP1 PUSH2 0xCC SWAP3 SWAP2 SWAP1 PUSH2 0xEE JUMP JUMPDEST POP DUP1 PUSH1 0x7 SWAP1 DUP1 MLOAD SWAP1 PUSH1 0x20 ADD SWAP1 PUSH2 0xE3 SWAP3 SWAP2 SWAP1 PUSH2 0xEE JUMP JUMPDEST POP POP POP POP POP POP POP POP POP JUMP JUMPDEST DUP3 DUP1 SLOAD PUSH2 0xFA SWAP1 PUSH2 0x658 JUMP JUMPDEST SWAP1 PUSH1 0x0 MSTORE PUSH1 0x20 PUSH1 0x0 KECCAK256 SWAP1 PUSH1 0x1F ADD PUSH1 0x20 SWAP1 DIV DUP2 ADD SWAP3 DUP3 PUSH2 0x11C JUMPI PUSH1 0x0 DUP6 SSTORE PUSH2 0x163 JUMP JUMPDEST DUP3 PUSH1 0x1F LT PUSH2 0x135 JUMPI DUP1 MLOAD PUSH1 0xFF NOT AND DUP4 DUP1 ADD OR DUP6 SSTORE PUSH2 0x163 JUMP JUMPDEST DUP3 DUP1 ADD PUSH1 0x1 ADD DUP6 SSTORE DUP3 ISZERO PUSH2 0x163 JUMPI SWAP2 DUP3 ADD JUMPDEST DUP3 DUP2 GT ISZERO PUSH2 0x162 JUMPI DUP3 MLOAD DUP3 SSTORE SWAP2 PUSH1 0x20 ADD SWAP2 SWAP1 PUSH1 0x1 ADD SWAP1 PUSH2 0x147 JUMP JUMPDEST JUMPDEST POP SWAP1 POP PUSH2 0x170 SWAP2 SWAP1 PUSH2 0x1D4 JUMP JUMPDEST POP SWAP1 JUMP JUMPDEST DUP3 DUP1 SLOAD DUP3 DUP3 SSTORE SWAP1 PUSH1 0x0 MSTORE PUSH1 0x20 PUSH1 0x0 KECCAK256 SWAP1 DUP2 ADD SWAP3 DUP3 ISZERO PUSH2 0x1C3 JUMPI SWAP2 PUSH1 0x20 MUL DUP3 ADD JUMPDEST DUP3 DUP2 GT ISZERO PUSH2 0x1C2 JUMPI DUP3 MLOAD DUP3 SWAP1 DUP1 MLOAD SWAP1 PUSH1 0x20 ADD SWAP1 PUSH2 0x1B2 SWAP3 SWAP2 SWAP1 PUSH2 0xEE JUMP JUMPDEST POP SWAP2 PUSH1 0x20 ADD SWAP2 SWAP1 PUSH1 0x1 ADD SWAP1 PUSH2 0x194 JUMP JUMPDEST JUMPDEST POP SWAP1 POP PUSH2 0x1D0 SWAP2 SWAP1 PUSH2 0x1F1 JUMP JUMPDEST POP SWAP1 JUMP JUMPDEST JUMPDEST DUP1 DUP3 GT ISZERO PUSH2 0x1ED JUMPI PUSH1 0x0 DUP2 PUSH1 0x0 SWAP1 SSTORE POP PUSH1 0x1 ADD PUSH2 0x1D5 JUMP JUMPDEST POP SWAP1 JUMP JUMPDEST JUMPDEST DUP1 DUP3 GT ISZERO PUSH2 0x211 JUMPI PUSH1 0x0 DUP2 DUP2 PUSH2 0x208 SWAP2 SWAP1 PUSH2 0x215 JUMP JUMPDEST POP PUSH1 0x1 ADD PUSH2 0x1F2 JUMP JUMPDEST POP SWAP1 JUMP JUMPDEST POP DUP1 SLOAD PUSH2 0x221 SWAP1 PUSH2 0x658 JUMP JUMPDEST PUSH1 0x0 DUP3 SSTORE DUP1 PUSH1 0x1F LT PUSH2 0x233 JUMPI POP PUSH2 0x252 JUMP JUMPDEST PUSH1 0x1F ADD PUSH1 0x20 SWAP1 DIV SWAP1 PUSH1 0x0 MSTORE PUSH1 0x20 PUSH1 0x0 KECCAK256 SWAP1 DUP2 ADD SWAP1 PUSH2 0x251 SWAP2 SWAP1 PUSH2 0x1D4 JUMP JUMPDEST JUMPDEST POP JUMP JUMPDEST PUSH1 0x0 PUSH1 0x40 MLOAD SWAP1 POP SWAP1 JUMP JUMPDEST PUSH1 0x0 DUP1 REVERT JUMPDEST PUSH1 0x0 DUP1 REVERT JUMPDEST PUSH1 0x0 DUP1 REVERT JUMPDEST PUSH1 0x0 DUP1 REVERT JUMPDEST PUSH1 0x0 PUSH1 0x1F NOT PUSH1 0x1F DUP4 ADD AND SWAP1 POP SWAP2 SWAP1 POP JUMP JUMPDEST PUSH32 0x4E487B7100000000000000000000000000000000000000000000000000000000 PUSH1 0x0 MSTORE PUSH1 0x41 PUSH1 0x4 MSTORE PUSH1 0x24 PUSH1 0x0 REVERT JUMPDEST PUSH2 0x2BC DUP3 PUSH2 0x273 JUMP JUMPDEST DUP2 ADD DUP2 DUP2 LT PUSH8 0xFFFFFFFFFFFFFFFF DUP3 GT OR ISZERO PUSH2 0x2DB JUMPI PUSH2 0x2DA PUSH2 0x284 JUMP JUMPDEST JUMPDEST DUP1 PUSH1 0x40 MSTORE POP POP POP JUMP JUMPDEST PUSH1 0x0 PUSH2 0x2EE PUSH2 0x255 JUMP JUMPDEST SWAP1 POP PUSH2 0x2FA DUP3 DUP3 PUSH2 0x2B3 JUMP JUMPDEST SWAP2 SWAP1 POP JUMP JUMPDEST PUSH1 0x0 PUSH8 0xFFFFFFFFFFFFFFFF DUP3 GT ISZERO PUSH2 0x31A JUMPI PUSH2 0x319 PUSH2 0x284 JUMP JUMPDEST JUMPDEST PUSH2 0x323 DUP3 PUSH2 0x273 JUMP JUMPDEST SWAP1 POP PUSH1 0x20 DUP2 ADD SWAP1 POP SWAP2 SWAP1 POP JUMP JUMPDEST DUP3 DUP2 DUP4 CALLDATACOPY PUSH1 0x0 DUP4 DUP4 ADD MSTORE POP POP POP JUMP JUMPDEST PUSH1 0x0 PUSH2 0x352 PUSH2 0x34D DUP5 PUSH2 0x2FF JUMP JUMPDEST PUSH2 0x2E4 JUMP JUMPDEST SWAP1 POP DUP3 DUP2 MSTORE PUSH1 0x20 DUP2 ADD DUP5 DUP5 DUP5 ADD GT ISZERO PUSH2 0x36E JUMPI PUSH2 0x36D PUSH2 0x26E JUMP JUMPDEST JUMPDEST PUSH2 0x379 DUP5 DUP3 DUP6 PUSH2 0x330 JUMP JUMPDEST POP SWAP4 SWAP3 POP POP POP JUMP JUMPDEST PUSH1 0x0 DUP3 PUSH1 0x1F DUP4 ADD SLT PUSH2 0x396 JUMPI PUSH2 0x395 PUSH2 0x269 JUMP JUMPDEST JUMPDEST DUP2 CALLDATALOAD PUSH2 0x3A6 DUP5 DUP3 PUSH1 0x20 DUP7 ADD PUSH2 0x33F JUMP JUMPDEST SWAP2 POP POP SWAP3 SWAP2 POP POP JUMP JUMPDEST PUSH1 0x0 DUP2 SWAP1 POP SWAP2 SWAP1 POP JUMP JUMPDEST PUSH2 0x3C2 DUP2 PUSH2 0x3AF JUMP JUMPDEST DUP2 EQ PUSH2 0x3CD JUMPI PUSH1 0x0 DUP1 REVERT JUMPDEST POP JUMP JUMPDEST PUSH1 0x0 DUP2 CALLDATALOAD SWAP1 POP PUSH2 0x3DF DUP2 PUSH2 0x3B9 JUMP JUMPDEST SWAP3 SWAP2 POP POP JUMP JUMPDEST PUSH1 0x0 PUSH8 0xFFFFFFFFFFFFFFFF DUP3 GT ISZERO PUSH2 0x400 JUMPI PUSH2 0x3FF PUSH2 0x284 JUMP JUMPDEST JUMPDEST PUSH1 0x20 DUP3 MUL SWAP1 POP PUSH1 0x20 DUP2 ADD SWAP1 POP SWAP2 SWAP1 POP JUMP JUMPDEST PUSH1 0x0 DUP1 REVERT JUMPDEST PUSH1 0x0 PUSH2 0x429 PUSH2 0x424 DUP5 PUSH2 0x3E5 JUMP JUMPDEST PUSH2 0x2E4 JUMP JUMPDEST SWAP1 POP DUP1 DUP4 DUP3 MSTORE PUSH1 0x20 DUP3 ADD SWAP1 POP PUSH1 0x20 DUP5 MUL DUP4 ADD DUP6 DUP2 GT ISZERO PUSH2 0x44C JUMPI PUSH2 0x44B PUSH2 0x411 JUMP JUMPDEST JUMPDEST DUP4 JUMPDEST DUP2 DUP2 LT ISZERO PUSH2 0x493 JUMPI DUP1 CALLDATALOAD PUSH8 0xFFFFFFFFFFFFFFFF DUP2 GT ISZERO PUSH2 0x471 JUMPI PUSH2 0x470 PUSH2 0x269 JUMP JUMPDEST JUMPDEST DUP1 DUP7 ADD PUSH2 0x47E DUP10 DUP3 PUSH2 0x381 JUMP JUMPDEST DUP6 MSTORE PUSH1 0x20 DUP6 ADD SWAP5 POP POP POP PUSH1 0x20 DUP2 ADD SWAP1 POP PUSH2 0x44E JUMP JUMPDEST POP POP POP SWAP4 SWAP3 POP POP POP JUMP JUMPDEST PUSH1 0x0 DUP3 PUSH1 0x1F DUP4 ADD SLT PUSH2 0x4B2 JUMPI PUSH2 0x4B1 PUSH2 0x269 JUMP JUMPDEST JUMPDEST DUP2 CALLDATALOAD PUSH2 0x4C2 DUP5 DUP3 PUSH1 0x20 DUP7 ADD PUSH2 0x416 JUMP JUMPDEST SWAP2 POP POP SWAP3 SWAP2 POP POP JUMP JUMPDEST PUSH1 0x0 DUP1 PUSH1 0x0 DUP1 PUSH1 0x0 DUP1 PUSH1 0x0 DUP1 PUSH2 0x100 DUP10 DUP12 SUB SLT ISZERO PUSH2 0x4EC JUMPI PUSH2 0x4EB PUSH2 0x25F JUMP JUMPDEST JUMPDEST PUSH1 0x0 DUP10 ADD CALLDATALOAD PUSH8 0xFFFFFFFFFFFFFFFF DUP2 GT ISZERO PUSH2 0x50A JUMPI PUSH2 0x509 PUSH2 0x264 JUMP JUMPDEST JUMPDEST PUSH2 0x516 DUP12 DUP3 DUP13 ADD PUSH2 0x381 JUMP JUMPDEST SWAP9 POP POP PUSH1 0x20 DUP10 ADD CALLDATALOAD PUSH8 0xFFFFFFFFFFFFFFFF DUP2 GT ISZERO PUSH2 0x537 JUMPI PUSH2 0x536 PUSH2 0x264 JUMP JUMPDEST JUMPDEST PUSH2 0x543 DUP12 DUP3 DUP13 ADD PUSH2 0x381 JUMP JUMPDEST SWAP8 POP POP PUSH1 0x40 PUSH2 0x554 DUP12 DUP3 DUP13 ADD PUSH2 0x3D0 JUMP JUMPDEST SWAP7 POP POP PUSH1 0x60 DUP10 ADD CALLDATALOAD PUSH8 0xFFFFFFFFFFFFFFFF DUP2 GT ISZERO PUSH2 0x575 JUMPI PUSH2 0x574 PUSH2 0x264 JUMP JUMPDEST JUMPDEST PUSH2 0x581 DUP12 DUP3 DUP13 ADD PUSH2 0x49D JUMP JUMPDEST SWAP6 POP POP PUSH1 0x80 DUP10 ADD CALLDATALOAD PUSH8 0xFFFFFFFFFFFFFFFF DUP2 GT ISZERO PUSH2 0x5A2 JUMPI PUSH2 0x5A1 PUSH2 0x264 JUMP JUMPDEST JUMPDEST PUSH2 0x5AE DUP12 DUP3 DUP13 ADD PUSH2 0x381 JUMP JUMPDEST SWAP5 POP POP PUSH1 0xA0 PUSH2 0x5BF DUP12 DUP3 DUP13 ADD PUSH2 0x3D0 JUMP JUMPDEST SWAP4 POP POP PUSH1 0xC0 DUP10 ADD CALLDATALOAD PUSH8 0xFFFFFFFFFFFFFFFF DUP2 GT ISZERO PUSH2 0x5E0 JUMPI PUSH2 0x5DF PUSH2 0x264 JUMP JUMPDEST JUMPDEST PUSH2 0x5EC DUP12 DUP3 DUP13 ADD PUSH2 0x381 JUMP JUMPDEST SWAP3 POP POP PUSH1 0xE0 DUP10 ADD CALLDATALOAD PUSH8 0xFFFFFFFFFFFFFFFF DUP2 GT ISZERO PUSH2 0x60D JUMPI PUSH2 0x60C PUSH2 0x264 JUMP JUMPDEST JUMPDEST PUSH2 0x619 DUP12 DUP3 DUP13 ADD PUSH2 0x381 JUMP JUMPDEST SWAP2 POP POP SWAP3 SWAP6 SWAP9 POP SWAP3 SWAP6 SWAP9 SWAP1 SWAP4 SWAP7 POP JUMP JUMPDEST PUSH32 0x4E487B7100000000000000000000000000000000000000000000000000000000 PUSH1 0x0 MSTORE PUSH1 0x22 PUSH1 0x4 MSTORE PUSH1 0x24 PUSH1 0x0 REVERT JUMPDEST PUSH1 0x0 PUSH1 0x2 DUP3 DIV SWAP1 POP PUSH1 0x1 DUP3 AND DUP1 PUSH2 0x670 JUMPI PUSH1 0x7F DUP3 AND SWAP2 POP JUMPDEST PUSH1 0x20 DUP3 LT DUP2 EQ ISZERO PUSH2 0x684 JUMPI PUSH2 0x683 PUSH2 0x629 JUMP JUMPDEST JUMPDEST POP SWAP2 SWAP1 POP JUMP INVALID LOG2 PUSH5 0x6970667358 0x22 SLT KECCAK256 SWAP13 0x49 KECCAK256 GASPRICE 0xCB 0xE9 LOG2 DUP12 CODECOPY 0xE0 0x4A DUP14 0xD6 0x4E 0xE PUSH27 0xA89ACC54FED0AD367F3638CE6690104B64736F6C63430008090033 "
    },
    "gasEstimates": {
      "creation": {
        "codeDepositCost": "345600",
        "executionCost": "380",
        "totalCost": "345980"
      },
      "external": {
        "retrieveData(string,string,uint256,string[],string,uint256,string,string)": "infinite"
      }
    },
    "methodIdentifiers": {
      "retrieveData(string,string,uint256,string[],string,uint256,string,string)": "8617860e"
    }
  },
  "storageLayout": {
    "storage": [
      {
        "astId": 4,
        "contract": "Media.sol:Media",
        "label": "title",
        "offset": 0,
        "slot": "0",
        "type": "t_string_storage"
      },
      {
        "astId": 6,
        "contract": "Media.sol:Media",
        "label": "publisher",
        "offset": 0,
        "slot": "1",
        "type": "t_string_storage"
      },
      {
        "astId": 8,
        "contract": "Media.sol:Media",
        "label": "length",
        "offset": 0,
        "slot": "2",
        "type": "t_uint256"
      },
      {
        "astId": 11,
        "contract": "Media.sol:Media",
        "label": "writers",
        "offset": 0,
        "slot": "3",
        "type": "t_array(t_string_storage)dyn_storage"
      },
      {
        "astId": 13,
        "contract": "Media.sol:Media",
        "label": "genre",
        "offset": 0,
        "slot": "4",
        "type": "t_string_storage"
      },
      {
        "astId": 15,
        "contract": "Media.sol:Media",
        "label": "date",
        "offset": 0,
        "slot": "5",
        "type": "t_uint256"
      },
      {
        "astId": 17,
        "contract": "Media.sol:Media",
        "label": "album",
        "offset": 0,
        "slot": "6",
        "type": "t_string_storage"
      },
      {
        "astId": 19,
        "contract": "Media.sol:Media",
        "label": "rating",
        "offset": 0,
        "slot": "7",
        "type": "t_string_storage"
      }
    ],
    "types": {
      "t_array(t_string_storage)dyn_storage": {
        "base": "t_string_storage",
        "encoding": "dynamic_array",
        "label": "string[]",
        "numberOfBytes": "32"
      },
      "t_string_storage": {
        "encoding": "bytes",
        "label": "string",
        "numberOfBytes": "32"
      },
      "t_uint256": {
        "encoding": "inplace",
        "label": "uint256",
        "numberOfBytes": "32"
      }
    }
  },
  "userdoc": {
    "kind": "user",
    "methods": {},
    "version": 1
  }
}