{
  "abi": [
    {
      "inputs": [
        {
          "internalType": "uint256",
          "name": "_ID",
          "type": "uint256"
        }
      ],
      "stateMutability": "nonpayable",
      "type": "constructor"
    },
    {
      "anonymous": false,
      "inputs": [
        {
          "indexed": true,
          "internalType": "address",
          "name": "from",
          "type": "address"
        },
        {
          "indexed": true,
          "internalType": "address",
          "name": "to",
          "type": "address"
        },
        {
          "indexed": false,
          "internalType": "uint256",
          "name": "amount",
          "type": "uint256"
        },
        {
          "indexed": false,
          "internalType": "string",
          "name": "message",
          "type": "string"
        },
        {
          "indexed": false,
          "internalType": "uint256",
          "name": "nonce",
          "type": "uint256"
        }
      ],
      "name": "Connect",
      "type": "event"
    },
    {
      "anonymous": false,
      "inputs": [
        {
          "indexed": true,
          "internalType": "address",
          "name": "from",
          "type": "address"
        },
        {
          "indexed": true,
          "internalType": "address",
          "name": "to",
          "type": "address"
        },
        {
          "indexed": false,
          "internalType": "uint256",
          "name": "amount",
          "type": "uint256"
        },
        {
          "indexed": false,
          "internalType": "string",
          "name": "message",
          "type": "string"
        },
        {
          "indexed": false,
          "internalType": "uint256",
          "name": "nonce",
          "type": "uint256"
        },
        {
          "indexed": false,
          "internalType": "bytes",
          "name": "signature",
          "type": "bytes"
        }
      ],
      "name": "Verify",
      "type": "event"
    },
    {
      "inputs": [],
      "name": "evaluateTrust",
      "outputs": [
        {
          "internalType": "uint256",
          "name": "",
          "type": "uint256"
        }
      ],
      "stateMutability": "pure",
      "type": "function"
    },
    {
      "inputs": [
        {
          "internalType": "bytes32",
          "name": "_ethSignedMessageHash",
          "type": "bytes32"
        },
        {
          "internalType": "bytes",
          "name": "_signature",
          "type": "bytes"
        }
      ],
      "name": "recoverSigner",
      "outputs": [
        {
          "internalType": "address",
          "name": "",
          "type": "address"
        }
      ],
      "stateMutability": "pure",
      "type": "function"
    },
    {
      "inputs": [
        {
          "internalType": "contract Vehicle",
          "name": "vehicle",
          "type": "address"
        },
        {
          "internalType": "address",
          "name": "_to",
          "type": "address"
        },
        {
          "internalType": "uint256",
          "name": "_amount",
          "type": "uint256"
        },
        {
          "internalType": "string",
          "name": "_message",
          "type": "string"
        },
        {
          "internalType": "uint256",
          "name": "_nonce",
          "type": "uint256"
        },
        {
          "internalType": "bytes",
          "name": "signature",
          "type": "bytes"
        },
        {
          "internalType": "uint256",
          "name": "_distance",
          "type": "uint256"
        }
      ],
      "name": "registerVehicle",
      "outputs": [
        {
          "internalType": "bool",
          "name": "",
          "type": "bool"
        }
      ],
      "stateMutability": "nonpayable",
      "type": "function"
    },
    {
      "inputs": [
        {
          "internalType": "uint256",
          "name": "_longitude",
          "type": "uint256"
        },
        {
          "internalType": "uint256",
          "name": "_latitude",
          "type": "uint256"
        }
      ],
      "name": "retrieveLocation",
      "outputs": [],
      "stateMutability": "nonpayable",
      "type": "function"
    },
    {
      "inputs": [
        {
          "internalType": "bytes",
          "name": "sig",
          "type": "bytes"
        }
      ],
      "name": "splitSignature",
      "outputs": [
        {
          "internalType": "bytes32",
          "name": "r",
          "type": "bytes32"
        },
        {
          "internalType": "bytes32",
          "name": "s",
          "type": "bytes32"
        },
        {
          "internalType": "uint8",
          "name": "v",
          "type": "uint8"
        }
      ],
      "stateMutability": "pure",
      "type": "function"
    },
    {
      "inputs": [
        {
          "internalType": "address",
          "name": "_signer",
          "type": "address"
        },
        {
          "internalType": "address",
          "name": "_to",
          "type": "address"
        },
        {
          "internalType": "uint256",
          "name": "_amount",
          "type": "uint256"
        },
        {
          "internalType": "string",
          "name": "_message",
          "type": "string"
        },
        {
          "internalType": "uint256",
          "name": "_nonce",
          "type": "uint256"
        },
        {
          "internalType": "bytes",
          "name": "signature",
          "type": "bytes"
        }
      ],
      "name": "verifySignature",
      "outputs": [
        {
          "internalType": "bool",
          "name": "",
          "type": "bool"
        }
      ],
      "stateMutability": "payable",
      "type": "function"
    }
  ],
  "devdoc": {
    "kind": "dev",
    "methods": {},
    "version": 1
  },
  "evm": {
    "assembly": "    /* \"RSU.sol\":146:3067  contract RSU {... */\n  mstore(0x40, 0x80)\n    /* \"RSU.sol\":617:791  constructor(uint _ID) public {... */\n  callvalue\n  dup1\n  iszero\n  tag_1\n  jumpi\n  0x00\n  dup1\n  revert\ntag_1:\n  pop\n  mload(0x40)\n  sub(codesize, bytecodeSize)\n  dup1\n  bytecodeSize\n  dup4\n  codecopy\n  dup2\n  dup2\n  add\n  0x40\n  mstore\n  dup2\n  add\n  swap1\n  tag_2\n  swap2\n  swap1\n  tag_3\n  jump\t// in\ntag_2:\n    /* \"RSU.sol\":666:676  msg.sender */\n  caller\n    /* \"RSU.sol\":657:663  sender */\n  0x00\n  dup1\n    /* \"RSU.sol\":657:676  sender = msg.sender */\n  0x0100\n  exp\n  dup2\n  sload\n  dup2\n  0xffffffffffffffffffffffffffffffffffffffff\n  mul\n  not\n  and\n  swap1\n  dup4\n  0xffffffffffffffffffffffffffffffffffffffff\n  and\n  mul\n  or\n  swap1\n  sstore\n  pop\n    /* \"RSU.sol\":692:695  _ID */\n  dup1\n    /* \"RSU.sol\":687:689  ID */\n  0x01\n    /* \"RSU.sol\":687:695  ID = _ID */\n  dup2\n  swap1\n  sstore\n  pop\n    /* \"RSU.sol\":714:715  0 */\n  0x00\n    /* \"RSU.sol\":706:711  txNum */\n  0x05\n    /* \"RSU.sol\":706:715  txNum = 0 */\n  dup2\n  swap1\n  sstore\n  pop\n    /* \"RSU.sol\":737:738  0 */\n  0x00\n    /* \"RSU.sol\":726:734  endorsed */\n  0x06\n    /* \"RSU.sol\":726:738  endorsed = 0 */\n  dup2\n  swap1\n  sstore\n  pop\n    /* \"RSU.sol\":759:760  0 */\n  0x00\n    /* \"RSU.sol\":749:756  flagged */\n  0x07\n    /* \"RSU.sol\":749:760  flagged = 0 */\n  dup2\n  swap1\n  sstore\n  pop\n    /* \"RSU.sol\":782:783  0 */\n  0x00\n    /* \"RSU.sol\":771:779  validNum */\n  0x08\n    /* \"RSU.sol\":771:783  validNum = 0 */\n  dup2\n  swap1\n  sstore\n  pop\n    /* \"RSU.sol\":617:791  constructor(uint _ID) public {... */\n  pop\n    /* \"RSU.sol\":146:3067  contract RSU {... */\n  jump(tag_6)\n    /* \"#utility.yul\":88:205   */\ntag_8:\n    /* \"#utility.yul\":197:198   */\n  0x00\n    /* \"#utility.yul\":194:195   */\n  dup1\n    /* \"#utility.yul\":187:199   */\n  revert\n    /* \"#utility.yul\":334:411   */\ntag_10:\n    /* \"#utility.yul\":371:378   */\n  0x00\n    /* \"#utility.yul\":400:405   */\n  dup2\n    /* \"#utility.yul\":389:405   */\n  swap1\n  pop\n    /* \"#utility.yul\":334:411   */\n  swap2\n  swap1\n  pop\n  jump\t// out\n    /* \"#utility.yul\":417:539   */\ntag_11:\n    /* \"#utility.yul\":490:514   */\n  tag_19\n    /* \"#utility.yul\":508:513   */\n  dup2\n    /* \"#utility.yul\":490:514   */\n  tag_10\n  jump\t// in\ntag_19:\n    /* \"#utility.yul\":483:488   */\n  dup2\n    /* \"#utility.yul\":480:515   */\n  eq\n    /* \"#utility.yul\":470:533   */\n  tag_20\n  jumpi\n    /* \"#utility.yul\":529:530   */\n  0x00\n    /* \"#utility.yul\":526:527   */\n  dup1\n    /* \"#utility.yul\":519:531   */\n  revert\n    /* \"#utility.yul\":470:533   */\ntag_20:\n    /* \"#utility.yul\":417:539   */\n  pop\n  jump\t// out\n    /* \"#utility.yul\":545:688   */\ntag_12:\n    /* \"#utility.yul\":602:607   */\n  0x00\n    /* \"#utility.yul\":633:639   */\n  dup2\n    /* \"#utility.yul\":627:640   */\n  mload\n    /* \"#utility.yul\":618:640   */\n  swap1\n  pop\n    /* \"#utility.yul\":649:682   */\n  tag_22\n    /* \"#utility.yul\":676:681   */\n  dup2\n    /* \"#utility.yul\":649:682   */\n  tag_11\n  jump\t// in\ntag_22:\n    /* \"#utility.yul\":545:688   */\n  swap3\n  swap2\n  pop\n  pop\n  jump\t// out\n    /* \"#utility.yul\":694:1045   */\ntag_3:\n    /* \"#utility.yul\":764:770   */\n  0x00\n    /* \"#utility.yul\":813:815   */\n  0x20\n    /* \"#utility.yul\":801:810   */\n  dup3\n    /* \"#utility.yul\":792:799   */\n  dup5\n    /* \"#utility.yul\":788:811   */\n  sub\n    /* \"#utility.yul\":784:816   */\n  slt\n    /* \"#utility.yul\":781:900   */\n  iszero\n  tag_24\n  jumpi\n    /* \"#utility.yul\":819:898   */\n  tag_25\n  tag_8\n  jump\t// in\ntag_25:\n    /* \"#utility.yul\":781:900   */\ntag_24:\n    /* \"#utility.yul\":939:940   */\n  0x00\n    /* \"#utility.yul\":964:1028   */\n  tag_26\n    /* \"#utility.yul\":1020:1027   */\n  dup5\n    /* \"#utility.yul\":1011:1017   */\n  dup3\n    /* \"#utility.yul\":1000:1009   */\n  dup6\n    /* \"#utility.yul\":996:1018   */\n  add\n    /* \"#utility.yul\":964:1028   */\n  tag_12\n  jump\t// in\ntag_26:\n    /* \"#utility.yul\":954:1028   */\n  swap2\n  pop\n    /* \"#utility.yul\":910:1038   */\n  pop\n    /* \"#utility.yul\":694:1045   */\n  swap3\n  swap2\n  pop\n  pop\n  jump\t// out\n    /* \"RSU.sol\":146:3067  contract RSU {... */\ntag_6:\n  dataSize(sub_0)\n  dup1\n  dataOffset(sub_0)\n  0x00\n  codecopy\n  0x00\n  return\nstop\n\nsub_0: assembly {\n        /* \"RSU.sol\":146:3067  contract RSU {... */\n      mstore(0x40, 0x80)\n      jumpi(tag_1, lt(calldatasize, 0x04))\n      shr(0xe0, calldataload(0x00))\n      dup1\n      0x524f685b\n      eq\n      tag_2\n      jumpi\n      dup1\n      0x5f92576f\n      eq\n      tag_3\n      jumpi\n      dup1\n      0x81a77211\n      eq\n      tag_4\n      jumpi\n      dup1\n      0x8b52a81e\n      eq\n      tag_5\n      jumpi\n      dup1\n      0x97aba7f9\n      eq\n      tag_6\n      jumpi\n      dup1\n      0xa7bb5803\n      eq\n      tag_7\n      jumpi\n    tag_1:\n      0x00\n      dup1\n      revert\n        /* \"RSU.sol\":1817:2341  function verifySignature(address _signer, address _to, uint _amount, string memory _message, uint _nonce, bytes memory signature) public payable returns (bool) {... */\n    tag_2:\n      tag_8\n      0x04\n      dup1\n      calldatasize\n      sub\n      dup2\n      add\n      swap1\n      tag_9\n      swap2\n      swap1\n      tag_10\n      jump\t// in\n    tag_9:\n      tag_11\n      jump\t// in\n    tag_8:\n      mload(0x40)\n      tag_12\n      swap2\n      swap1\n      tag_13\n      jump\t// in\n    tag_12:\n      mload(0x40)\n      dup1\n      swap2\n      sub\n      swap1\n      return\n        /* \"RSU.sol\":2978:3040  function evaluateTrust() public pure returns (uint) {... */\n    tag_3:\n      callvalue\n      dup1\n      iszero\n      tag_14\n      jumpi\n      0x00\n      dup1\n      revert\n    tag_14:\n      pop\n      tag_15\n      tag_16\n      jump\t// in\n    tag_15:\n      mload(0x40)\n      tag_17\n      swap2\n      swap1\n      tag_18\n      jump\t// in\n    tag_17:\n      mload(0x40)\n      dup1\n      swap2\n      sub\n      swap1\n      return\n        /* \"RSU.sol\":1054:1759  function registerVehicle(Vehicle vehicle, address _to, uint _amount, string memory _message, uint _nonce, bytes memory signature, uint _distance) public withinDistance(_distance) returns (bool) {... */\n    tag_4:\n      callvalue\n      dup1\n      iszero\n      tag_19\n      jumpi\n      0x00\n      dup1\n      revert\n    tag_19:\n      pop\n      tag_20\n      0x04\n      dup1\n      calldatasize\n      sub\n      dup2\n      add\n      swap1\n      tag_21\n      swap2\n      swap1\n      tag_22\n      jump\t// in\n    tag_21:\n      tag_23\n      jump\t// in\n    tag_20:\n      mload(0x40)\n      tag_24\n      swap2\n      swap1\n      tag_13\n      jump\t// in\n    tag_24:\n      mload(0x40)\n      dup1\n      swap2\n      sub\n      swap1\n      return\n        /* \"RSU.sol\":908:1046  function retrieveLocation(uint _longitude, uint _latitude) public {... */\n    tag_5:\n      callvalue\n      dup1\n      iszero\n      tag_25\n      jumpi\n      0x00\n      dup1\n      revert\n    tag_25:\n      pop\n      tag_26\n      0x04\n      dup1\n      calldatasize\n      sub\n      dup2\n      add\n      swap1\n      tag_27\n      swap2\n      swap1\n      tag_28\n      jump\t// in\n    tag_27:\n      tag_29\n      jump\t// in\n    tag_26:\n      stop\n        /* \"RSU.sol\":2349:2596  function recoverSigner(bytes32 _ethSignedMessageHash, bytes memory _signature) public pure returns (address) {... */\n    tag_6:\n      callvalue\n      dup1\n      iszero\n      tag_30\n      jumpi\n      0x00\n      dup1\n      revert\n    tag_30:\n      pop\n      tag_31\n      0x04\n      dup1\n      calldatasize\n      sub\n      dup2\n      add\n      swap1\n      tag_32\n      swap2\n      swap1\n      tag_33\n      jump\t// in\n    tag_32:\n      tag_34\n      jump\t// in\n    tag_31:\n      mload(0x40)\n      tag_35\n      swap2\n      swap1\n      tag_36\n      jump\t// in\n    tag_35:\n      mload(0x40)\n      dup1\n      swap2\n      sub\n      swap1\n      return\n        /* \"RSU.sol\":2607:2970  function splitSignature(bytes memory sig) public pure returns (bytes32 r, bytes32 s,uint8 v) {... */\n    tag_7:\n      callvalue\n      dup1\n      iszero\n      tag_37\n      jumpi\n      0x00\n      dup1\n      revert\n    tag_37:\n      pop\n      tag_38\n      0x04\n      dup1\n      calldatasize\n      sub\n      dup2\n      add\n      swap1\n      tag_39\n      swap2\n      swap1\n      tag_40\n      jump\t// in\n    tag_39:\n      tag_41\n      jump\t// in\n    tag_38:\n      mload(0x40)\n      tag_42\n      swap4\n      swap3\n      swap2\n      swap1\n      tag_43\n      jump\t// in\n    tag_42:\n      mload(0x40)\n      dup1\n      swap2\n      sub\n      swap1\n      return\n        /* \"RSU.sol\":1817:2341  function verifySignature(address _signer, address _to, uint _amount, string memory _message, uint _nonce, bytes memory signature) public payable returns (bool) {... */\n    tag_11:\n        /* \"RSU.sol\":1971:1975  bool */\n      0x00\n        /* \"RSU.sol\":2009:2012  _to */\n      dup6\n        /* \"RSU.sol\":1993:2051  Verify(_signer, _to, _amount, _message, _nonce, signature) */\n      0xffffffffffffffffffffffffffffffffffffffff\n      and\n        /* \"RSU.sol\":2000:2007  _signer */\n      dup8\n        /* \"RSU.sol\":1993:2051  Verify(_signer, _to, _amount, _message, _nonce, signature) */\n      0xffffffffffffffffffffffffffffffffffffffff\n      and\n      0x4b1f0b953401e89b9bae9f9364e94a9ca1573e110dfc7a85a1144622234927c4\n        /* \"RSU.sol\":2014:2021  _amount */\n      dup8\n        /* \"RSU.sol\":2023:2031  _message */\n      dup8\n        /* \"RSU.sol\":2033:2039  _nonce */\n      dup8\n        /* \"RSU.sol\":2041:2050  signature */\n      dup8\n        /* \"RSU.sol\":1993:2051  Verify(_signer, _to, _amount, _message, _nonce, signature) */\n      mload(0x40)\n      tag_45\n      swap5\n      swap4\n      swap3\n      swap2\n      swap1\n      tag_46\n      jump\t// in\n    tag_45:\n      mload(0x40)\n      dup1\n      swap2\n      sub\n      swap1\n      log3\n        /* \"RSU.sol\":2062:2081  bytes32 messageHash */\n      0x00\n        /* \"RSU.sol\":2084:2102  registeredVehicles */\n      0x09\n        /* \"RSU.sol\":2084:2107  registeredVehicles[_to] */\n      0x00\n        /* \"RSU.sol\":2103:2106  _to */\n      dup9\n        /* \"RSU.sol\":2084:2107  registeredVehicles[_to] */\n      0xffffffffffffffffffffffffffffffffffffffff\n      and\n      0xffffffffffffffffffffffffffffffffffffffff\n      and\n      dup2\n      mstore\n      0x20\n      add\n      swap1\n      dup2\n      mstore\n      0x20\n      add\n      0x00\n      keccak256\n      0x00\n      swap1\n      sload\n      swap1\n      0x0100\n      exp\n      swap1\n      div\n      0xffffffffffffffffffffffffffffffffffffffff\n      and\n        /* \"RSU.sol\":2084:2122  registeredVehicles[_to].getMessageHash */\n      0xffffffffffffffffffffffffffffffffffffffff\n      and\n      0xa35f8a40\n        /* \"RSU.sol\":2123:2126  _to */\n      dup9\n        /* \"RSU.sol\":2128:2135  _amount */\n      dup9\n        /* \"RSU.sol\":2137:2145  _message */\n      dup9\n        /* \"RSU.sol\":2147:2153  _nonce */\n      dup9\n        /* \"RSU.sol\":2084:2154  registeredVehicles[_to].getMessageHash(_to, _amount, _message, _nonce) */\n      mload(0x40)\n      dup6\n      0xffffffff\n      and\n      0xe0\n      shl\n      dup2\n      mstore\n      0x04\n      add\n      tag_47\n      swap5\n      swap4\n      swap3\n      swap2\n      swap1\n      tag_48\n      jump\t// in\n    tag_47:\n      0x20\n      mload(0x40)\n      dup1\n      dup4\n      sub\n      dup2\n      0x00\n      dup8\n      dup1\n      extcodesize\n      iszero\n      dup1\n      iszero\n      tag_49\n      jumpi\n      0x00\n      dup1\n      revert\n    tag_49:\n      pop\n      gas\n      call\n      iszero\n      dup1\n      iszero\n      tag_51\n      jumpi\n      returndatasize\n      0x00\n      dup1\n      returndatacopy\n      revert(0x00, returndatasize)\n    tag_51:\n      pop\n      pop\n      pop\n      pop\n      mload(0x40)\n      returndatasize\n      not(0x1f)\n      0x1f\n      dup3\n      add\n      and\n      dup3\n      add\n      dup1\n      0x40\n      mstore\n      pop\n      dup2\n      add\n      swap1\n      tag_52\n      swap2\n      swap1\n      tag_53\n      jump\t// in\n    tag_52:\n        /* \"RSU.sol\":2062:2154  bytes32 messageHash = registeredVehicles[_to].getMessageHash(_to, _amount, _message, _nonce) */\n      swap1\n      pop\n        /* \"RSU.sol\":2165:2193  bytes32 ethSignedMessageHash */\n      0x00\n        /* \"RSU.sol\":2196:2214  registeredVehicles */\n      0x09\n        /* \"RSU.sol\":2196:2219  registeredVehicles[_to] */\n      0x00\n        /* \"RSU.sol\":2215:2218  _to */\n      dup10\n        /* \"RSU.sol\":2196:2219  registeredVehicles[_to] */\n      0xffffffffffffffffffffffffffffffffffffffff\n      and\n      0xffffffffffffffffffffffffffffffffffffffff\n      and\n      dup2\n      mstore\n      0x20\n      add\n      swap1\n      dup2\n      mstore\n      0x20\n      add\n      0x00\n      keccak256\n      0x00\n      swap1\n      sload\n      swap1\n      0x0100\n      exp\n      swap1\n      div\n      0xffffffffffffffffffffffffffffffffffffffff\n      and\n        /* \"RSU.sol\":2196:2243  registeredVehicles[_to].getEthSignedMessageHash */\n      0xffffffffffffffffffffffffffffffffffffffff\n      and\n      0xfa540801\n        /* \"RSU.sol\":2244:2255  messageHash */\n      dup4\n        /* \"RSU.sol\":2196:2256  registeredVehicles[_to].getEthSignedMessageHash(messageHash) */\n      mload(0x40)\n      dup3\n      0xffffffff\n      and\n      0xe0\n      shl\n      dup2\n      mstore\n      0x04\n      add\n      tag_54\n      swap2\n      swap1\n      tag_55\n      jump\t// in\n    tag_54:\n      0x20\n      mload(0x40)\n      dup1\n      dup4\n      sub\n      dup2\n      0x00\n      dup8\n      dup1\n      extcodesize\n      iszero\n      dup1\n      iszero\n      tag_56\n      jumpi\n      0x00\n      dup1\n      revert\n    tag_56:\n      pop\n      gas\n      call\n      iszero\n      dup1\n      iszero\n      tag_58\n      jumpi\n      returndatasize\n      0x00\n      dup1\n      returndatacopy\n      revert(0x00, returndatasize)\n    tag_58:\n      pop\n      pop\n      pop\n      pop\n      mload(0x40)\n      returndatasize\n      not(0x1f)\n      0x1f\n      dup3\n      add\n      and\n      dup3\n      add\n      dup1\n      0x40\n      mstore\n      pop\n      dup2\n      add\n      swap1\n      tag_59\n      swap2\n      swap1\n      tag_53\n      jump\t// in\n    tag_59:\n        /* \"RSU.sol\":2165:2256  bytes32 ethSignedMessageHash = registeredVehicles[_to].getEthSignedMessageHash(messageHash) */\n      swap1\n      pop\n        /* \"RSU.sol\":2326:2333  _signer */\n      dup9\n        /* \"RSU.sol\":2276:2333  recoverSigner(ethSignedMessageHash, signature) == _signer */\n      0xffffffffffffffffffffffffffffffffffffffff\n      and\n        /* \"RSU.sol\":2276:2322  recoverSigner(ethSignedMessageHash, signature) */\n      tag_60\n        /* \"RSU.sol\":2290:2310  ethSignedMessageHash */\n      dup3\n        /* \"RSU.sol\":2312:2321  signature */\n      dup7\n        /* \"RSU.sol\":2276:2289  recoverSigner */\n      tag_34\n        /* \"RSU.sol\":2276:2322  recoverSigner(ethSignedMessageHash, signature) */\n      jump\t// in\n    tag_60:\n        /* \"RSU.sol\":2276:2333  recoverSigner(ethSignedMessageHash, signature) == _signer */\n      0xffffffffffffffffffffffffffffffffffffffff\n      and\n      eq\n        /* \"RSU.sol\":2269:2333  return recoverSigner(ethSignedMessageHash, signature) == _signer */\n      swap3\n      pop\n      pop\n      pop\n        /* \"RSU.sol\":1817:2341  function verifySignature(address _signer, address _to, uint _amount, string memory _message, uint _nonce, bytes memory signature) public payable returns (bool) {... */\n      swap7\n      swap6\n      pop\n      pop\n      pop\n      pop\n      pop\n      pop\n      jump\t// out\n        /* \"RSU.sol\":2978:3040  function evaluateTrust() public pure returns (uint) {... */\n    tag_16:\n        /* \"RSU.sol\":3024:3028  uint */\n      0x00\n        /* \"RSU.sol\":2978:3040  function evaluateTrust() public pure returns (uint) {... */\n      swap1\n      jump\t// out\n        /* \"RSU.sol\":1054:1759  function registerVehicle(Vehicle vehicle, address _to, uint _amount, string memory _message, uint _nonce, bytes memory signature, uint _distance) public withinDistance(_distance) returns (bool) {... */\n    tag_23:\n        /* \"RSU.sol\":1242:1246  bool */\n      0x00\n        /* \"RSU.sol\":1222:1231  _distance */\n      dup2\n        /* \"RSU.sol\":870:879  _distance */\n      dup1\n        /* \"RSU.sol\":858:866  distance */\n      sload(0x04)\n        /* \"RSU.sol\":858:879  distance <= _distance */\n      gt\n      iszero\n        /* \"RSU.sol\":850:880  require(distance <= _distance) */\n      tag_63\n      jumpi\n      0x00\n      dup1\n      revert\n    tag_63:\n        /* \"RSU.sol\":1259:1270  bool result */\n      0x00\n        /* \"RSU.sol\":1291:1295  this */\n      address\n        /* \"RSU.sol\":1291:1311  this.verifySignature */\n      0xffffffffffffffffffffffffffffffffffffffff\n      and\n      0x524f685b\n        /* \"RSU.sol\":1320:1327  vehicle */\n      dup12\n        /* \"RSU.sol\":1330:1333  _to */\n      dup12\n        /* \"RSU.sol\":1335:1342  _amount */\n      dup12\n        /* \"RSU.sol\":1344:1352  _message */\n      dup12\n        /* \"RSU.sol\":1354:1360  _nonce */\n      dup12\n        /* \"RSU.sol\":1362:1371  signature */\n      dup12\n        /* \"RSU.sol\":1291:1372  this.verifySignature(address(vehicle), _to, _amount, _message, _nonce, signature) */\n      mload(0x40)\n      dup8\n      0xffffffff\n      and\n      0xe0\n      shl\n      dup2\n      mstore\n      0x04\n      add\n      tag_65\n      swap7\n      swap6\n      swap5\n      swap4\n      swap3\n      swap2\n      swap1\n      tag_66\n      jump\t// in\n    tag_65:\n      0x20\n      mload(0x40)\n      dup1\n      dup4\n      sub\n      dup2\n      0x00\n      dup8\n      dup1\n      extcodesize\n      iszero\n      dup1\n      iszero\n      tag_67\n      jumpi\n      0x00\n      dup1\n      revert\n    tag_67:\n      pop\n      gas\n      call\n      iszero\n      dup1\n      iszero\n      tag_69\n      jumpi\n      returndatasize\n      0x00\n      dup1\n      returndatacopy\n      revert(0x00, returndatasize)\n    tag_69:\n      pop\n      pop\n      pop\n      pop\n      mload(0x40)\n      returndatasize\n      not(0x1f)\n      0x1f\n      dup3\n      add\n      and\n      dup3\n      add\n      dup1\n      0x40\n      mstore\n      pop\n      dup2\n      add\n      swap1\n      tag_70\n      swap2\n      swap1\n      tag_71\n      jump\t// in\n    tag_70:\n        /* \"RSU.sol\":1282:1372  result = this.verifySignature(address(vehicle), _to, _amount, _message, _nonce, signature) */\n      swap1\n      pop\n        /* \"RSU.sol\":1387:1393  result */\n      dup1\n        /* \"RSU.sol\":1383:1729  if (result) {... */\n      iszero\n      tag_72\n      jumpi\n        /* \"RSU.sol\":1435:1438  _to */\n      dup9\n        /* \"RSU.sol\":1415:1466  Connect(msg.sender, _to, _amount, _message, _nonce) */\n      0xffffffffffffffffffffffffffffffffffffffff\n      and\n        /* \"RSU.sol\":1423:1433  msg.sender */\n      caller\n        /* \"RSU.sol\":1415:1466  Connect(msg.sender, _to, _amount, _message, _nonce) */\n      0xffffffffffffffffffffffffffffffffffffffff\n      and\n      0x2438dda936916df59ce988b38486cd61d296543c05ef5253a82e5a1ef485148b\n        /* \"RSU.sol\":1440:1447  _amount */\n      dup11\n        /* \"RSU.sol\":1449:1457  _message */\n      dup11\n        /* \"RSU.sol\":1459:1465  _nonce */\n      dup11\n        /* \"RSU.sol\":1415:1466  Connect(msg.sender, _to, _amount, _message, _nonce) */\n      mload(0x40)\n      tag_73\n      swap4\n      swap3\n      swap2\n      swap1\n      tag_74\n      jump\t// in\n    tag_73:\n      mload(0x40)\n      dup1\n      swap2\n      sub\n      swap1\n      log3\n        /* \"RSU.sol\":1481:1507  address[] memory receivers */\n      0x00\n        /* \"RSU.sol\":1510:1517  vehicle */\n      dup11\n        /* \"RSU.sol\":1510:1530  vehicle.getReceivers */\n      0xffffffffffffffffffffffffffffffffffffffff\n      and\n      0xe061646b\n        /* \"RSU.sol\":1510:1532  vehicle.getReceivers() */\n      mload(0x40)\n      dup2\n      0xffffffff\n      and\n      0xe0\n      shl\n      dup2\n      mstore\n      0x04\n      add\n      0x00\n      mload(0x40)\n      dup1\n      dup4\n      sub\n      dup2\n      dup7\n      dup1\n      extcodesize\n      iszero\n      dup1\n      iszero\n      tag_75\n      jumpi\n      0x00\n      dup1\n      revert\n    tag_75:\n      pop\n      gas\n      staticcall\n      iszero\n      dup1\n      iszero\n      tag_77\n      jumpi\n      returndatasize\n      0x00\n      dup1\n      returndatacopy\n      revert(0x00, returndatasize)\n    tag_77:\n      pop\n      pop\n      pop\n      pop\n      mload(0x40)\n      returndatasize\n      0x00\n      dup3\n      returndatacopy\n      returndatasize\n      not(0x1f)\n      0x1f\n      dup3\n      add\n      and\n      dup3\n      add\n      dup1\n      0x40\n      mstore\n      pop\n      dup2\n      add\n      swap1\n      tag_78\n      swap2\n      swap1\n      tag_79\n      jump\t// in\n    tag_78:\n        /* \"RSU.sol\":1481:1532  address[] memory receivers = vehicle.getReceivers() */\n      swap1\n      pop\n        /* \"RSU.sol\":1577:1587  msg.sender */\n      caller\n        /* \"RSU.sol\":1547:1556  receivers */\n      dup2\n        /* \"RSU.sol\":1557:1566  receivers */\n      dup3\n        /* \"RSU.sol\":1557:1573  receivers.length */\n      mload\n        /* \"RSU.sol\":1547:1574  receivers[receivers.length] */\n      dup2\n      mload\n      dup2\n      lt\n      tag_80\n      jumpi\n      tag_81\n      tag_82\n      jump\t// in\n    tag_81:\n    tag_80:\n      0x20\n      mul\n      0x20\n      add\n      add\n        /* \"RSU.sol\":1547:1587  receivers[receivers.length] = msg.sender */\n      swap1\n      0xffffffffffffffffffffffffffffffffffffffff\n      and\n      swap1\n      dup2\n      0xffffffffffffffffffffffffffffffffffffffff\n      and\n      dup2\n      mstore\n      pop\n      pop\n        /* \"RSU.sol\":1602:1609  vehicle */\n      dup11\n        /* \"RSU.sol\":1602:1625  vehicle.setConnectedRSU */\n      0xffffffffffffffffffffffffffffffffffffffff\n      and\n      0xb4250922\n        /* \"RSU.sol\":1626:1636  msg.sender */\n      caller\n        /* \"RSU.sol\":1638:1642  this */\n      address\n        /* \"RSU.sol\":1602:1643  vehicle.setConnectedRSU(msg.sender, this) */\n      mload(0x40)\n      dup4\n      0xffffffff\n      and\n      0xe0\n      shl\n      dup2\n      mstore\n      0x04\n      add\n      tag_83\n      swap3\n      swap2\n      swap1\n      tag_84\n      jump\t// in\n    tag_83:\n      0x00\n      mload(0x40)\n      dup1\n      dup4\n      sub\n      dup2\n      0x00\n      dup8\n      dup1\n      extcodesize\n      iszero\n      dup1\n      iszero\n      tag_85\n      jumpi\n      0x00\n      dup1\n      revert\n    tag_85:\n      pop\n      gas\n      call\n      iszero\n      dup1\n      iszero\n      tag_87\n      jumpi\n      returndatasize\n      0x00\n      dup1\n      returndatacopy\n      revert(0x00, returndatasize)\n    tag_87:\n      pop\n      pop\n      pop\n      pop\n        /* \"RSU.sol\":1684:1691  vehicle */\n      dup11\n        /* \"RSU.sol\":1658:1676  registeredVehicles */\n      0x09\n        /* \"RSU.sol\":1658:1681  registeredVehicles[_to] */\n      0x00\n        /* \"RSU.sol\":1677:1680  _to */\n      dup13\n        /* \"RSU.sol\":1658:1681  registeredVehicles[_to] */\n      0xffffffffffffffffffffffffffffffffffffffff\n      and\n      0xffffffffffffffffffffffffffffffffffffffff\n      and\n      dup2\n      mstore\n      0x20\n      add\n      swap1\n      dup2\n      mstore\n      0x20\n      add\n      0x00\n      keccak256\n      0x00\n        /* \"RSU.sol\":1658:1691  registeredVehicles[_to] = vehicle */\n      0x0100\n      exp\n      dup2\n      sload\n      dup2\n      0xffffffffffffffffffffffffffffffffffffffff\n      mul\n      not\n      and\n      swap1\n      dup4\n      0xffffffffffffffffffffffffffffffffffffffff\n      and\n      mul\n      or\n      swap1\n      sstore\n      pop\n        /* \"RSU.sol\":1713:1717  true */\n      0x01\n        /* \"RSU.sol\":1706:1717  return true */\n      swap4\n      pop\n      pop\n      pop\n      jump(tag_64)\n        /* \"RSU.sol\":1383:1729  if (result) {... */\n    tag_72:\n        /* \"RSU.sol\":1746:1751  false */\n      0x00\n        /* \"RSU.sol\":1739:1751  return false */\n      swap3\n      pop\n      pop\n        /* \"RSU.sol\":891:892  _ */\n    tag_64:\n        /* \"RSU.sol\":1054:1759  function registerVehicle(Vehicle vehicle, address _to, uint _amount, string memory _message, uint _nonce, bytes memory signature, uint _distance) public withinDistance(_distance) returns (bool) {... */\n      pop\n      swap8\n      swap7\n      pop\n      pop\n      pop\n      pop\n      pop\n      pop\n      pop\n      jump\t// out\n        /* \"RSU.sol\":908:1046  function retrieveLocation(uint _longitude, uint _latitude) public {... */\n    tag_29:\n        /* \"RSU.sol\":997:1007  _longitude */\n      dup2\n        /* \"RSU.sol\":985:994  longitude */\n      0x02\n        /* \"RSU.sol\":985:1007  longitude = _longitude */\n      dup2\n      swap1\n      sstore\n      pop\n        /* \"RSU.sol\":1029:1038  _latitude */\n      dup1\n        /* \"RSU.sol\":1018:1026  latitude */\n      0x03\n        /* \"RSU.sol\":1018:1038  latitude = _latitude */\n      dup2\n      swap1\n      sstore\n      pop\n        /* \"RSU.sol\":908:1046  function retrieveLocation(uint _longitude, uint _latitude) public {... */\n      pop\n      pop\n      jump\t// out\n        /* \"RSU.sol\":2349:2596  function recoverSigner(bytes32 _ethSignedMessageHash, bytes memory _signature) public pure returns (address) {... */\n    tag_34:\n        /* \"RSU.sol\":2449:2456  address */\n      0x00\n        /* \"RSU.sol\":2470:2479  bytes32 r */\n      dup1\n        /* \"RSU.sol\":2481:2490  bytes32 s */\n      0x00\n        /* \"RSU.sol\":2492:2499  uint8 v */\n      dup1\n        /* \"RSU.sol\":2503:2529  splitSignature(_signature) */\n      tag_90\n        /* \"RSU.sol\":2518:2528  _signature */\n      dup6\n        /* \"RSU.sol\":2503:2517  splitSignature */\n      tag_41\n        /* \"RSU.sol\":2503:2529  splitSignature(_signature) */\n      jump\t// in\n    tag_90:\n        /* \"RSU.sol\":2469:2529  (bytes32 r, bytes32 s, uint8 v) = splitSignature(_signature) */\n      swap3\n      pop\n      swap3\n      pop\n      swap3\n      pop\n        /* \"RSU.sol\":2547:2588  ecrecover(_ethSignedMessageHash, v, r, s) */\n      0x01\n        /* \"RSU.sol\":2557:2578  _ethSignedMessageHash */\n      dup7\n        /* \"RSU.sol\":2580:2581  v */\n      dup3\n        /* \"RSU.sol\":2583:2584  r */\n      dup6\n        /* \"RSU.sol\":2586:2587  s */\n      dup6\n        /* \"RSU.sol\":2547:2588  ecrecover(_ethSignedMessageHash, v, r, s) */\n      mload(0x40)\n      0x00\n      dup2\n      mstore\n      0x20\n      add\n      0x40\n      mstore\n      mload(0x40)\n      tag_91\n      swap5\n      swap4\n      swap3\n      swap2\n      swap1\n      tag_92\n      jump\t// in\n    tag_91:\n      0x20\n      mload(0x40)\n      0x20\n      dup2\n      sub\n      swap1\n      dup1\n      dup5\n      sub\n      swap1\n      dup6\n      gas\n      staticcall\n      iszero\n      dup1\n      iszero\n      tag_94\n      jumpi\n      returndatasize\n      0x00\n      dup1\n      returndatacopy\n      revert(0x00, returndatasize)\n    tag_94:\n      pop\n      pop\n      pop\n      mload(sub(mload(0x40), 0x20))\n        /* \"RSU.sol\":2540:2588  return ecrecover(_ethSignedMessageHash, v, r, s) */\n      swap4\n      pop\n      pop\n      pop\n      pop\n        /* \"RSU.sol\":2349:2596  function recoverSigner(bytes32 _ethSignedMessageHash, bytes memory _signature) public pure returns (address) {... */\n      swap3\n      swap2\n      pop\n      pop\n      jump\t// out\n        /* \"RSU.sol\":2607:2970  function splitSignature(bytes memory sig) public pure returns (bytes32 r, bytes32 s,uint8 v) {... */\n    tag_41:\n        /* \"RSU.sol\":2670:2679  bytes32 r */\n      0x00\n        /* \"RSU.sol\":2681:2690  bytes32 s */\n      dup1\n        /* \"RSU.sol\":2691:2698  uint8 v */\n      0x00\n        /* \"RSU.sol\":2733:2735  65 */\n      0x41\n        /* \"RSU.sol\":2719:2722  sig */\n      dup5\n        /* \"RSU.sol\":2719:2729  sig.length */\n      mload\n        /* \"RSU.sol\":2719:2735  sig.length == 65 */\n      eq\n        /* \"RSU.sol\":2711:2764  require(sig.length == 65, \"invalid signature length\") */\n      tag_96\n      jumpi\n      mload(0x40)\n      0x08c379a000000000000000000000000000000000000000000000000000000000\n      dup2\n      mstore\n      0x04\n      add\n      tag_97\n      swap1\n      tag_98\n      jump\t// in\n    tag_97:\n      mload(0x40)\n      dup1\n      swap2\n      sub\n      swap1\n      revert\n    tag_96:\n        /* \"RSU.sol\":2821:2823  32 */\n      0x20\n        /* \"RSU.sol\":2816:2819  sig */\n      dup5\n        /* \"RSU.sol\":2812:2824  add(sig, 32) */\n      add\n        /* \"RSU.sol\":2806:2825  mload(add(sig, 32)) */\n      mload\n        /* \"RSU.sol\":2801:2825  r := mload(add(sig, 32)) */\n      swap3\n      pop\n        /* \"RSU.sol\":2859:2861  64 */\n      0x40\n        /* \"RSU.sol\":2854:2857  sig */\n      dup5\n        /* \"RSU.sol\":2850:2862  add(sig, 64) */\n      add\n        /* \"RSU.sol\":2844:2863  mload(add(sig, 64)) */\n      mload\n        /* \"RSU.sol\":2839:2863  s := mload(add(sig, 64)) */\n      swap2\n      pop\n        /* \"RSU.sol\":2905:2907  96 */\n      0x60\n        /* \"RSU.sol\":2900:2903  sig */\n      dup5\n        /* \"RSU.sol\":2896:2908  add(sig, 96) */\n      add\n        /* \"RSU.sol\":2890:2909  mload(add(sig, 96)) */\n      mload\n        /* \"RSU.sol\":2887:2888  0 */\n      0x00\n        /* \"RSU.sol\":2882:2910  byte(0, mload(add(sig, 96))) */\n      byte\n        /* \"RSU.sol\":2877:2910  v := byte(0, mload(add(sig, 96))) */\n      swap1\n      pop\n        /* \"RSU.sol\":2607:2970  function splitSignature(bytes memory sig) public pure returns (bytes32 r, bytes32 s,uint8 v) {... */\n      swap2\n      swap4\n      swap1\n      swap3\n      pop\n      jump\t// out\n        /* \"#utility.yul\":7:82   */\n    tag_99:\n        /* \"#utility.yul\":40:46   */\n      0x00\n        /* \"#utility.yul\":73:75   */\n      0x40\n        /* \"#utility.yul\":67:76   */\n      mload\n        /* \"#utility.yul\":57:76   */\n      swap1\n      pop\n        /* \"#utility.yul\":7:82   */\n      swap1\n      jump\t// out\n        /* \"#utility.yul\":88:205   */\n    tag_100:\n        /* \"#utility.yul\":197:198   */\n      0x00\n        /* \"#utility.yul\":194:195   */\n      dup1\n        /* \"#utility.yul\":187:199   */\n      revert\n        /* \"#utility.yul\":211:328   */\n    tag_101:\n        /* \"#utility.yul\":320:321   */\n      0x00\n        /* \"#utility.yul\":317:318   */\n      dup1\n        /* \"#utility.yul\":310:322   */\n      revert\n        /* \"#utility.yul\":334:460   */\n    tag_102:\n        /* \"#utility.yul\":371:378   */\n      0x00\n        /* \"#utility.yul\":411:453   */\n      0xffffffffffffffffffffffffffffffffffffffff\n        /* \"#utility.yul\":404:409   */\n      dup3\n        /* \"#utility.yul\":400:454   */\n      and\n        /* \"#utility.yul\":389:454   */\n      swap1\n      pop\n        /* \"#utility.yul\":334:460   */\n      swap2\n      swap1\n      pop\n      jump\t// out\n        /* \"#utility.yul\":466:562   */\n    tag_103:\n        /* \"#utility.yul\":503:510   */\n      0x00\n        /* \"#utility.yul\":532:556   */\n      tag_163\n        /* \"#utility.yul\":550:555   */\n      dup3\n        /* \"#utility.yul\":532:556   */\n      tag_102\n      jump\t// in\n    tag_163:\n        /* \"#utility.yul\":521:556   */\n      swap1\n      pop\n        /* \"#utility.yul\":466:562   */\n      swap2\n      swap1\n      pop\n      jump\t// out\n        /* \"#utility.yul\":568:690   */\n    tag_104:\n        /* \"#utility.yul\":641:665   */\n      tag_165\n        /* \"#utility.yul\":659:664   */\n      dup2\n        /* \"#utility.yul\":641:665   */\n      tag_103\n      jump\t// in\n    tag_165:\n        /* \"#utility.yul\":634:639   */\n      dup2\n        /* \"#utility.yul\":631:666   */\n      eq\n        /* \"#utility.yul\":621:684   */\n      tag_166\n      jumpi\n        /* \"#utility.yul\":680:681   */\n      0x00\n        /* \"#utility.yul\":677:678   */\n      dup1\n        /* \"#utility.yul\":670:682   */\n      revert\n        /* \"#utility.yul\":621:684   */\n    tag_166:\n        /* \"#utility.yul\":568:690   */\n      pop\n      jump\t// out\n        /* \"#utility.yul\":696:835   */\n    tag_105:\n        /* \"#utility.yul\":742:747   */\n      0x00\n        /* \"#utility.yul\":780:786   */\n      dup2\n        /* \"#utility.yul\":767:787   */\n      calldataload\n        /* \"#utility.yul\":758:787   */\n      swap1\n      pop\n        /* \"#utility.yul\":796:829   */\n      tag_168\n        /* \"#utility.yul\":823:828   */\n      dup2\n        /* \"#utility.yul\":796:829   */\n      tag_104\n      jump\t// in\n    tag_168:\n        /* \"#utility.yul\":696:835   */\n      swap3\n      swap2\n      pop\n      pop\n      jump\t// out\n        /* \"#utility.yul\":841:918   */\n    tag_106:\n        /* \"#utility.yul\":878:885   */\n      0x00\n        /* \"#utility.yul\":907:912   */\n      dup2\n        /* \"#utility.yul\":896:912   */\n      swap1\n      pop\n        /* \"#utility.yul\":841:918   */\n      swap2\n      swap1\n      pop\n      jump\t// out\n        /* \"#utility.yul\":924:1046   */\n    tag_107:\n        /* \"#utility.yul\":997:1021   */\n      tag_171\n        /* \"#utility.yul\":1015:1020   */\n      dup2\n        /* \"#utility.yul\":997:1021   */\n      tag_106\n      jump\t// in\n    tag_171:\n        /* \"#utility.yul\":990:995   */\n      dup2\n        /* \"#utility.yul\":987:1022   */\n      eq\n        /* \"#utility.yul\":977:1040   */\n      tag_172\n      jumpi\n        /* \"#utility.yul\":1036:1037   */\n      0x00\n        /* \"#utility.yul\":1033:1034   */\n      dup1\n        /* \"#utility.yul\":1026:1038   */\n      revert\n        /* \"#utility.yul\":977:1040   */\n    tag_172:\n        /* \"#utility.yul\":924:1046   */\n      pop\n      jump\t// out\n        /* \"#utility.yul\":1052:1191   */\n    tag_108:\n        /* \"#utility.yul\":1098:1103   */\n      0x00\n        /* \"#utility.yul\":1136:1142   */\n      dup2\n        /* \"#utility.yul\":1123:1143   */\n      calldataload\n        /* \"#utility.yul\":1114:1143   */\n      swap1\n      pop\n        /* \"#utility.yul\":1152:1185   */\n      tag_174\n        /* \"#utility.yul\":1179:1184   */\n      dup2\n        /* \"#utility.yul\":1152:1185   */\n      tag_107\n      jump\t// in\n    tag_174:\n        /* \"#utility.yul\":1052:1191   */\n      swap3\n      swap2\n      pop\n      pop\n      jump\t// out\n        /* \"#utility.yul\":1197:1314   */\n    tag_109:\n        /* \"#utility.yul\":1306:1307   */\n      0x00\n        /* \"#utility.yul\":1303:1304   */\n      dup1\n        /* \"#utility.yul\":1296:1308   */\n      revert\n        /* \"#utility.yul\":1320:1437   */\n    tag_110:\n        /* \"#utility.yul\":1429:1430   */\n      0x00\n        /* \"#utility.yul\":1426:1427   */\n      dup1\n        /* \"#utility.yul\":1419:1431   */\n      revert\n        /* \"#utility.yul\":1443:1545   */\n    tag_111:\n        /* \"#utility.yul\":1484:1490   */\n      0x00\n        /* \"#utility.yul\":1535:1537   */\n      0x1f\n        /* \"#utility.yul\":1531:1538   */\n      not\n        /* \"#utility.yul\":1526:1528   */\n      0x1f\n        /* \"#utility.yul\":1519:1524   */\n      dup4\n        /* \"#utility.yul\":1515:1529   */\n      add\n        /* \"#utility.yul\":1511:1539   */\n      and\n        /* \"#utility.yul\":1501:1539   */\n      swap1\n      pop\n        /* \"#utility.yul\":1443:1545   */\n      swap2\n      swap1\n      pop\n      jump\t// out\n        /* \"#utility.yul\":1551:1731   */\n    tag_112:\n        /* \"#utility.yul\":1599:1676   */\n      0x4e487b7100000000000000000000000000000000000000000000000000000000\n        /* \"#utility.yul\":1596:1597   */\n      0x00\n        /* \"#utility.yul\":1589:1677   */\n      mstore\n        /* \"#utility.yul\":1696:1700   */\n      0x41\n        /* \"#utility.yul\":1693:1694   */\n      0x04\n        /* \"#utility.yul\":1686:1701   */\n      mstore\n        /* \"#utility.yul\":1720:1724   */\n      0x24\n        /* \"#utility.yul\":1717:1718   */\n      0x00\n        /* \"#utility.yul\":1710:1725   */\n      revert\n        /* \"#utility.yul\":1737:2018   */\n    tag_113:\n        /* \"#utility.yul\":1820:1847   */\n      tag_180\n        /* \"#utility.yul\":1842:1846   */\n      dup3\n        /* \"#utility.yul\":1820:1847   */\n      tag_111\n      jump\t// in\n    tag_180:\n        /* \"#utility.yul\":1812:1818   */\n      dup2\n        /* \"#utility.yul\":1808:1848   */\n      add\n        /* \"#utility.yul\":1950:1956   */\n      dup2\n        /* \"#utility.yul\":1938:1948   */\n      dup2\n        /* \"#utility.yul\":1935:1957   */\n      lt\n        /* \"#utility.yul\":1914:1932   */\n      0xffffffffffffffff\n        /* \"#utility.yul\":1902:1912   */\n      dup3\n        /* \"#utility.yul\":1899:1933   */\n      gt\n        /* \"#utility.yul\":1896:1958   */\n      or\n        /* \"#utility.yul\":1893:1981   */\n      iszero\n      tag_181\n      jumpi\n        /* \"#utility.yul\":1961:1979   */\n      tag_182\n      tag_112\n      jump\t// in\n    tag_182:\n        /* \"#utility.yul\":1893:1981   */\n    tag_181:\n        /* \"#utility.yul\":2001:2011   */\n      dup1\n        /* \"#utility.yul\":1997:1999   */\n      0x40\n        /* \"#utility.yul\":1990:2012   */\n      mstore\n        /* \"#utility.yul\":1780:2018   */\n      pop\n        /* \"#utility.yul\":1737:2018   */\n      pop\n      pop\n      jump\t// out\n        /* \"#utility.yul\":2024:2153   */\n    tag_114:\n        /* \"#utility.yul\":2058:2064   */\n      0x00\n        /* \"#utility.yul\":2085:2105   */\n      tag_184\n      tag_99\n      jump\t// in\n    tag_184:\n        /* \"#utility.yul\":2075:2105   */\n      swap1\n      pop\n        /* \"#utility.yul\":2114:2147   */\n      tag_185\n        /* \"#utility.yul\":2142:2146   */\n      dup3\n        /* \"#utility.yul\":2134:2140   */\n      dup3\n        /* \"#utility.yul\":2114:2147   */\n      tag_113\n      jump\t// in\n    tag_185:\n        /* \"#utility.yul\":2024:2153   */\n      swap2\n      swap1\n      pop\n      jump\t// out\n        /* \"#utility.yul\":2159:2467   */\n    tag_115:\n        /* \"#utility.yul\":2221:2225   */\n      0x00\n        /* \"#utility.yul\":2311:2329   */\n      0xffffffffffffffff\n        /* \"#utility.yul\":2303:2309   */\n      dup3\n        /* \"#utility.yul\":2300:2330   */\n      gt\n        /* \"#utility.yul\":2297:2353   */\n      iszero\n      tag_187\n      jumpi\n        /* \"#utility.yul\":2333:2351   */\n      tag_188\n      tag_112\n      jump\t// in\n    tag_188:\n        /* \"#utility.yul\":2297:2353   */\n    tag_187:\n        /* \"#utility.yul\":2371:2400   */\n      tag_189\n        /* \"#utility.yul\":2393:2399   */\n      dup3\n        /* \"#utility.yul\":2371:2400   */\n      tag_111\n      jump\t// in\n    tag_189:\n        /* \"#utility.yul\":2363:2400   */\n      swap1\n      pop\n        /* \"#utility.yul\":2455:2459   */\n      0x20\n        /* \"#utility.yul\":2449:2453   */\n      dup2\n        /* \"#utility.yul\":2445:2460   */\n      add\n        /* \"#utility.yul\":2437:2460   */\n      swap1\n      pop\n        /* \"#utility.yul\":2159:2467   */\n      swap2\n      swap1\n      pop\n      jump\t// out\n        /* \"#utility.yul\":2473:2627   */\n    tag_116:\n        /* \"#utility.yul\":2557:2563   */\n      dup3\n        /* \"#utility.yul\":2552:2555   */\n      dup2\n        /* \"#utility.yul\":2547:2550   */\n      dup4\n        /* \"#utility.yul\":2534:2564   */\n      calldatacopy\n        /* \"#utility.yul\":2619:2620   */\n      0x00\n        /* \"#utility.yul\":2610:2616   */\n      dup4\n        /* \"#utility.yul\":2605:2608   */\n      dup4\n        /* \"#utility.yul\":2601:2617   */\n      add\n        /* \"#utility.yul\":2594:2621   */\n      mstore\n        /* \"#utility.yul\":2473:2627   */\n      pop\n      pop\n      pop\n      jump\t// out\n        /* \"#utility.yul\":2633:3045   */\n    tag_117:\n        /* \"#utility.yul\":2711:2716   */\n      0x00\n        /* \"#utility.yul\":2736:2802   */\n      tag_192\n        /* \"#utility.yul\":2752:2801   */\n      tag_193\n        /* \"#utility.yul\":2794:2800   */\n      dup5\n        /* \"#utility.yul\":2752:2801   */\n      tag_115\n      jump\t// in\n    tag_193:\n        /* \"#utility.yul\":2736:2802   */\n      tag_114\n      jump\t// in\n    tag_192:\n        /* \"#utility.yul\":2727:2802   */\n      swap1\n      pop\n        /* \"#utility.yul\":2825:2831   */\n      dup3\n        /* \"#utility.yul\":2818:2823   */\n      dup2\n        /* \"#utility.yul\":2811:2832   */\n      mstore\n        /* \"#utility.yul\":2863:2867   */\n      0x20\n        /* \"#utility.yul\":2856:2861   */\n      dup2\n        /* \"#utility.yul\":2852:2868   */\n      add\n        /* \"#utility.yul\":2901:2904   */\n      dup5\n        /* \"#utility.yul\":2892:2898   */\n      dup5\n        /* \"#utility.yul\":2887:2890   */\n      dup5\n        /* \"#utility.yul\":2883:2899   */\n      add\n        /* \"#utility.yul\":2880:2905   */\n      gt\n        /* \"#utility.yul\":2877:2989   */\n      iszero\n      tag_194\n      jumpi\n        /* \"#utility.yul\":2908:2987   */\n      tag_195\n      tag_110\n      jump\t// in\n    tag_195:\n        /* \"#utility.yul\":2877:2989   */\n    tag_194:\n        /* \"#utility.yul\":2998:3039   */\n      tag_196\n        /* \"#utility.yul\":3032:3038   */\n      dup5\n        /* \"#utility.yul\":3027:3030   */\n      dup3\n        /* \"#utility.yul\":3022:3025   */\n      dup6\n        /* \"#utility.yul\":2998:3039   */\n      tag_116\n      jump\t// in\n    tag_196:\n        /* \"#utility.yul\":2717:3045   */\n      pop\n        /* \"#utility.yul\":2633:3045   */\n      swap4\n      swap3\n      pop\n      pop\n      pop\n      jump\t// out\n        /* \"#utility.yul\":3065:3405   */\n    tag_118:\n        /* \"#utility.yul\":3121:3126   */\n      0x00\n        /* \"#utility.yul\":3170:3173   */\n      dup3\n        /* \"#utility.yul\":3163:3167   */\n      0x1f\n        /* \"#utility.yul\":3155:3161   */\n      dup4\n        /* \"#utility.yul\":3151:3168   */\n      add\n        /* \"#utility.yul\":3147:3174   */\n      slt\n        /* \"#utility.yul\":3137:3259   */\n      tag_198\n      jumpi\n        /* \"#utility.yul\":3178:3257   */\n      tag_199\n      tag_109\n      jump\t// in\n    tag_199:\n        /* \"#utility.yul\":3137:3259   */\n    tag_198:\n        /* \"#utility.yul\":3295:3301   */\n      dup2\n        /* \"#utility.yul\":3282:3302   */\n      calldataload\n        /* \"#utility.yul\":3320:3399   */\n      tag_200\n        /* \"#utility.yul\":3395:3398   */\n      dup5\n        /* \"#utility.yul\":3387:3393   */\n      dup3\n        /* \"#utility.yul\":3380:3384   */\n      0x20\n        /* \"#utility.yul\":3372:3378   */\n      dup7\n        /* \"#utility.yul\":3368:3385   */\n      add\n        /* \"#utility.yul\":3320:3399   */\n      tag_117\n      jump\t// in\n    tag_200:\n        /* \"#utility.yul\":3311:3399   */\n      swap2\n      pop\n        /* \"#utility.yul\":3127:3405   */\n      pop\n        /* \"#utility.yul\":3065:3405   */\n      swap3\n      swap2\n      pop\n      pop\n      jump\t// out\n        /* \"#utility.yul\":3411:3718   */\n    tag_119:\n        /* \"#utility.yul\":3472:3476   */\n      0x00\n        /* \"#utility.yul\":3562:3580   */\n      0xffffffffffffffff\n        /* \"#utility.yul\":3554:3560   */\n      dup3\n        /* \"#utility.yul\":3551:3581   */\n      gt\n        /* \"#utility.yul\":3548:3604   */\n      iszero\n      tag_202\n      jumpi\n        /* \"#utility.yul\":3584:3602   */\n      tag_203\n      tag_112\n      jump\t// in\n    tag_203:\n        /* \"#utility.yul\":3548:3604   */\n    tag_202:\n        /* \"#utility.yul\":3622:3651   */\n      tag_204\n        /* \"#utility.yul\":3644:3650   */\n      dup3\n        /* \"#utility.yul\":3622:3651   */\n      tag_111\n      jump\t// in\n    tag_204:\n        /* \"#utility.yul\":3614:3651   */\n      swap1\n      pop\n        /* \"#utility.yul\":3706:3710   */\n      0x20\n        /* \"#utility.yul\":3700:3704   */\n      dup2\n        /* \"#utility.yul\":3696:3711   */\n      add\n        /* \"#utility.yul\":3688:3711   */\n      swap1\n      pop\n        /* \"#utility.yul\":3411:3718   */\n      swap2\n      swap1\n      pop\n      jump\t// out\n        /* \"#utility.yul\":3724:4134   */\n    tag_120:\n        /* \"#utility.yul\":3801:3806   */\n      0x00\n        /* \"#utility.yul\":3826:3891   */\n      tag_206\n        /* \"#utility.yul\":3842:3890   */\n      tag_207\n        /* \"#utility.yul\":3883:3889   */\n      dup5\n        /* \"#utility.yul\":3842:3890   */\n      tag_119\n      jump\t// in\n    tag_207:\n        /* \"#utility.yul\":3826:3891   */\n      tag_114\n      jump\t// in\n    tag_206:\n        /* \"#utility.yul\":3817:3891   */\n      swap1\n      pop\n        /* \"#utility.yul\":3914:3920   */\n      dup3\n        /* \"#utility.yul\":3907:3912   */\n      dup2\n        /* \"#utility.yul\":3900:3921   */\n      mstore\n        /* \"#utility.yul\":3952:3956   */\n      0x20\n        /* \"#utility.yul\":3945:3950   */\n      dup2\n        /* \"#utility.yul\":3941:3957   */\n      add\n        /* \"#utility.yul\":3990:3993   */\n      dup5\n        /* \"#utility.yul\":3981:3987   */\n      dup5\n        /* \"#utility.yul\":3976:3979   */\n      dup5\n        /* \"#utility.yul\":3972:3988   */\n      add\n        /* \"#utility.yul\":3969:3994   */\n      gt\n        /* \"#utility.yul\":3966:4078   */\n      iszero\n      tag_208\n      jumpi\n        /* \"#utility.yul\":3997:4076   */\n      tag_209\n      tag_110\n      jump\t// in\n    tag_209:\n        /* \"#utility.yul\":3966:4078   */\n    tag_208:\n        /* \"#utility.yul\":4087:4128   */\n      tag_210\n        /* \"#utility.yul\":4121:4127   */\n      dup5\n        /* \"#utility.yul\":4116:4119   */\n      dup3\n        /* \"#utility.yul\":4111:4114   */\n      dup6\n        /* \"#utility.yul\":4087:4128   */\n      tag_116\n      jump\t// in\n    tag_210:\n        /* \"#utility.yul\":3807:4134   */\n      pop\n        /* \"#utility.yul\":3724:4134   */\n      swap4\n      swap3\n      pop\n      pop\n      pop\n      jump\t// out\n        /* \"#utility.yul\":4153:4491   */\n    tag_121:\n        /* \"#utility.yul\":4208:4213   */\n      0x00\n        /* \"#utility.yul\":4257:4260   */\n      dup3\n        /* \"#utility.yul\":4250:4254   */\n      0x1f\n        /* \"#utility.yul\":4242:4248   */\n      dup4\n        /* \"#utility.yul\":4238:4255   */\n      add\n        /* \"#utility.yul\":4234:4261   */\n      slt\n        /* \"#utility.yul\":4224:4346   */\n      tag_212\n      jumpi\n        /* \"#utility.yul\":4265:4344   */\n      tag_213\n      tag_109\n      jump\t// in\n    tag_213:\n        /* \"#utility.yul\":4224:4346   */\n    tag_212:\n        /* \"#utility.yul\":4382:4388   */\n      dup2\n        /* \"#utility.yul\":4369:4389   */\n      calldataload\n        /* \"#utility.yul\":4407:4485   */\n      tag_214\n        /* \"#utility.yul\":4481:4484   */\n      dup5\n        /* \"#utility.yul\":4473:4479   */\n      dup3\n        /* \"#utility.yul\":4466:4470   */\n      0x20\n        /* \"#utility.yul\":4458:4464   */\n      dup7\n        /* \"#utility.yul\":4454:4471   */\n      add\n        /* \"#utility.yul\":4407:4485   */\n      tag_120\n      jump\t// in\n    tag_214:\n        /* \"#utility.yul\":4398:4485   */\n      swap2\n      pop\n        /* \"#utility.yul\":4214:4491   */\n      pop\n        /* \"#utility.yul\":4153:4491   */\n      swap3\n      swap2\n      pop\n      pop\n      jump\t// out\n        /* \"#utility.yul\":4497:5912   */\n    tag_10:\n        /* \"#utility.yul\":4620:4626   */\n      0x00\n        /* \"#utility.yul\":4628:4634   */\n      dup1\n        /* \"#utility.yul\":4636:4642   */\n      0x00\n        /* \"#utility.yul\":4644:4650   */\n      dup1\n        /* \"#utility.yul\":4652:4658   */\n      0x00\n        /* \"#utility.yul\":4660:4666   */\n      dup1\n        /* \"#utility.yul\":4709:4712   */\n      0xc0\n        /* \"#utility.yul\":4697:4706   */\n      dup8\n        /* \"#utility.yul\":4688:4695   */\n      dup10\n        /* \"#utility.yul\":4684:4707   */\n      sub\n        /* \"#utility.yul\":4680:4713   */\n      slt\n        /* \"#utility.yul\":4677:4797   */\n      iszero\n      tag_216\n      jumpi\n        /* \"#utility.yul\":4716:4795   */\n      tag_217\n      tag_100\n      jump\t// in\n    tag_217:\n        /* \"#utility.yul\":4677:4797   */\n    tag_216:\n        /* \"#utility.yul\":4836:4837   */\n      0x00\n        /* \"#utility.yul\":4861:4914   */\n      tag_218\n        /* \"#utility.yul\":4906:4913   */\n      dup10\n        /* \"#utility.yul\":4897:4903   */\n      dup3\n        /* \"#utility.yul\":4886:4895   */\n      dup11\n        /* \"#utility.yul\":4882:4904   */\n      add\n        /* \"#utility.yul\":4861:4914   */\n      tag_105\n      jump\t// in\n    tag_218:\n        /* \"#utility.yul\":4851:4914   */\n      swap7\n      pop\n        /* \"#utility.yul\":4807:4924   */\n      pop\n        /* \"#utility.yul\":4963:4965   */\n      0x20\n        /* \"#utility.yul\":4989:5042   */\n      tag_219\n        /* \"#utility.yul\":5034:5041   */\n      dup10\n        /* \"#utility.yul\":5025:5031   */\n      dup3\n        /* \"#utility.yul\":5014:5023   */\n      dup11\n        /* \"#utility.yul\":5010:5032   */\n      add\n        /* \"#utility.yul\":4989:5042   */\n      tag_105\n      jump\t// in\n    tag_219:\n        /* \"#utility.yul\":4979:5042   */\n      swap6\n      pop\n        /* \"#utility.yul\":4934:5052   */\n      pop\n        /* \"#utility.yul\":5091:5093   */\n      0x40\n        /* \"#utility.yul\":5117:5170   */\n      tag_220\n        /* \"#utility.yul\":5162:5169   */\n      dup10\n        /* \"#utility.yul\":5153:5159   */\n      dup3\n        /* \"#utility.yul\":5142:5151   */\n      dup11\n        /* \"#utility.yul\":5138:5160   */\n      add\n        /* \"#utility.yul\":5117:5170   */\n      tag_108\n      jump\t// in\n    tag_220:\n        /* \"#utility.yul\":5107:5170   */\n      swap5\n      pop\n        /* \"#utility.yul\":5062:5180   */\n      pop\n        /* \"#utility.yul\":5247:5249   */\n      0x60\n        /* \"#utility.yul\":5236:5245   */\n      dup8\n        /* \"#utility.yul\":5232:5250   */\n      add\n        /* \"#utility.yul\":5219:5251   */\n      calldataload\n        /* \"#utility.yul\":5278:5296   */\n      0xffffffffffffffff\n        /* \"#utility.yul\":5270:5276   */\n      dup2\n        /* \"#utility.yul\":5267:5297   */\n      gt\n        /* \"#utility.yul\":5264:5381   */\n      iszero\n      tag_221\n      jumpi\n        /* \"#utility.yul\":5300:5379   */\n      tag_222\n      tag_101\n      jump\t// in\n    tag_222:\n        /* \"#utility.yul\":5264:5381   */\n    tag_221:\n        /* \"#utility.yul\":5405:5468   */\n      tag_223\n        /* \"#utility.yul\":5460:5467   */\n      dup10\n        /* \"#utility.yul\":5451:5457   */\n      dup3\n        /* \"#utility.yul\":5440:5449   */\n      dup11\n        /* \"#utility.yul\":5436:5458   */\n      add\n        /* \"#utility.yul\":5405:5468   */\n      tag_118\n      jump\t// in\n    tag_223:\n        /* \"#utility.yul\":5395:5468   */\n      swap4\n      pop\n        /* \"#utility.yul\":5190:5478   */\n      pop\n        /* \"#utility.yul\":5517:5520   */\n      0x80\n        /* \"#utility.yul\":5544:5597   */\n      tag_224\n        /* \"#utility.yul\":5589:5596   */\n      dup10\n        /* \"#utility.yul\":5580:5586   */\n      dup3\n        /* \"#utility.yul\":5569:5578   */\n      dup11\n        /* \"#utility.yul\":5565:5587   */\n      add\n        /* \"#utility.yul\":5544:5597   */\n      tag_108\n      jump\t// in\n    tag_224:\n        /* \"#utility.yul\":5534:5597   */\n      swap3\n      pop\n        /* \"#utility.yul\":5488:5607   */\n      pop\n        /* \"#utility.yul\":5674:5677   */\n      0xa0\n        /* \"#utility.yul\":5663:5672   */\n      dup8\n        /* \"#utility.yul\":5659:5678   */\n      add\n        /* \"#utility.yul\":5646:5679   */\n      calldataload\n        /* \"#utility.yul\":5706:5724   */\n      0xffffffffffffffff\n        /* \"#utility.yul\":5698:5704   */\n      dup2\n        /* \"#utility.yul\":5695:5725   */\n      gt\n        /* \"#utility.yul\":5692:5809   */\n      iszero\n      tag_225\n      jumpi\n        /* \"#utility.yul\":5728:5807   */\n      tag_226\n      tag_101\n      jump\t// in\n    tag_226:\n        /* \"#utility.yul\":5692:5809   */\n    tag_225:\n        /* \"#utility.yul\":5833:5895   */\n      tag_227\n        /* \"#utility.yul\":5887:5894   */\n      dup10\n        /* \"#utility.yul\":5878:5884   */\n      dup3\n        /* \"#utility.yul\":5867:5876   */\n      dup11\n        /* \"#utility.yul\":5863:5885   */\n      add\n        /* \"#utility.yul\":5833:5895   */\n      tag_121\n      jump\t// in\n    tag_227:\n        /* \"#utility.yul\":5823:5895   */\n      swap2\n      pop\n        /* \"#utility.yul\":5617:5905   */\n      pop\n        /* \"#utility.yul\":4497:5912   */\n      swap3\n      swap6\n      pop\n      swap3\n      swap6\n      pop\n      swap3\n      swap6\n      jump\t// out\n        /* \"#utility.yul\":5918:6008   */\n    tag_122:\n        /* \"#utility.yul\":5952:5959   */\n      0x00\n        /* \"#utility.yul\":5995:6000   */\n      dup2\n        /* \"#utility.yul\":5988:6001   */\n      iszero\n        /* \"#utility.yul\":5981:6002   */\n      iszero\n        /* \"#utility.yul\":5970:6002   */\n      swap1\n      pop\n        /* \"#utility.yul\":5918:6008   */\n      swap2\n      swap1\n      pop\n      jump\t// out\n        /* \"#utility.yul\":6014:6123   */\n    tag_123:\n        /* \"#utility.yul\":6095:6116   */\n      tag_230\n        /* \"#utility.yul\":6110:6115   */\n      dup2\n        /* \"#utility.yul\":6095:6116   */\n      tag_122\n      jump\t// in\n    tag_230:\n        /* \"#utility.yul\":6090:6093   */\n      dup3\n        /* \"#utility.yul\":6083:6117   */\n      mstore\n        /* \"#utility.yul\":6014:6123   */\n      pop\n      pop\n      jump\t// out\n        /* \"#utility.yul\":6129:6339   */\n    tag_13:\n        /* \"#utility.yul\":6216:6220   */\n      0x00\n        /* \"#utility.yul\":6254:6256   */\n      0x20\n        /* \"#utility.yul\":6243:6252   */\n      dup3\n        /* \"#utility.yul\":6239:6257   */\n      add\n        /* \"#utility.yul\":6231:6257   */\n      swap1\n      pop\n        /* \"#utility.yul\":6267:6332   */\n      tag_232\n        /* \"#utility.yul\":6329:6330   */\n      0x00\n        /* \"#utility.yul\":6318:6327   */\n      dup4\n        /* \"#utility.yul\":6314:6331   */\n      add\n        /* \"#utility.yul\":6305:6311   */\n      dup5\n        /* \"#utility.yul\":6267:6332   */\n      tag_123\n      jump\t// in\n    tag_232:\n        /* \"#utility.yul\":6129:6339   */\n      swap3\n      swap2\n      pop\n      pop\n      jump\t// out\n        /* \"#utility.yul\":6345:6463   */\n    tag_124:\n        /* \"#utility.yul\":6432:6456   */\n      tag_234\n        /* \"#utility.yul\":6450:6455   */\n      dup2\n        /* \"#utility.yul\":6432:6456   */\n      tag_106\n      jump\t// in\n    tag_234:\n        /* \"#utility.yul\":6427:6430   */\n      dup3\n        /* \"#utility.yul\":6420:6457   */\n      mstore\n        /* \"#utility.yul\":6345:6463   */\n      pop\n      pop\n      jump\t// out\n        /* \"#utility.yul\":6469:6691   */\n    tag_18:\n        /* \"#utility.yul\":6562:6566   */\n      0x00\n        /* \"#utility.yul\":6600:6602   */\n      0x20\n        /* \"#utility.yul\":6589:6598   */\n      dup3\n        /* \"#utility.yul\":6585:6603   */\n      add\n        /* \"#utility.yul\":6577:6603   */\n      swap1\n      pop\n        /* \"#utility.yul\":6613:6684   */\n      tag_236\n        /* \"#utility.yul\":6681:6682   */\n      0x00\n        /* \"#utility.yul\":6670:6679   */\n      dup4\n        /* \"#utility.yul\":6666:6683   */\n      add\n        /* \"#utility.yul\":6657:6663   */\n      dup5\n        /* \"#utility.yul\":6613:6684   */\n      tag_124\n      jump\t// in\n    tag_236:\n        /* \"#utility.yul\":6469:6691   */\n      swap3\n      swap2\n      pop\n      pop\n      jump\t// out\n        /* \"#utility.yul\":6697:6808   */\n    tag_125:\n        /* \"#utility.yul\":6749:6756   */\n      0x00\n        /* \"#utility.yul\":6778:6802   */\n      tag_238\n        /* \"#utility.yul\":6796:6801   */\n      dup3\n        /* \"#utility.yul\":6778:6802   */\n      tag_103\n      jump\t// in\n    tag_238:\n        /* \"#utility.yul\":6767:6802   */\n      swap1\n      pop\n        /* \"#utility.yul\":6697:6808   */\n      swap2\n      swap1\n      pop\n      jump\t// out\n        /* \"#utility.yul\":6814:6966   */\n    tag_126:\n        /* \"#utility.yul\":6902:6941   */\n      tag_240\n        /* \"#utility.yul\":6935:6940   */\n      dup2\n        /* \"#utility.yul\":6902:6941   */\n      tag_125\n      jump\t// in\n    tag_240:\n        /* \"#utility.yul\":6895:6900   */\n      dup2\n        /* \"#utility.yul\":6892:6942   */\n      eq\n        /* \"#utility.yul\":6882:6960   */\n      tag_241\n      jumpi\n        /* \"#utility.yul\":6956:6957   */\n      0x00\n        /* \"#utility.yul\":6953:6954   */\n      dup1\n        /* \"#utility.yul\":6946:6958   */\n      revert\n        /* \"#utility.yul\":6882:6960   */\n    tag_241:\n        /* \"#utility.yul\":6814:6966   */\n      pop\n      jump\t// out\n        /* \"#utility.yul\":6972:7141   */\n    tag_127:\n        /* \"#utility.yul\":7033:7038   */\n      0x00\n        /* \"#utility.yul\":7071:7077   */\n      dup2\n        /* \"#utility.yul\":7058:7078   */\n      calldataload\n        /* \"#utility.yul\":7049:7078   */\n      swap1\n      pop\n        /* \"#utility.yul\":7087:7135   */\n      tag_243\n        /* \"#utility.yul\":7129:7134   */\n      dup2\n        /* \"#utility.yul\":7087:7135   */\n      tag_126\n      jump\t// in\n    tag_243:\n        /* \"#utility.yul\":6972:7141   */\n      swap3\n      swap2\n      pop\n      pop\n      jump\t// out\n        /* \"#utility.yul\":7147:8738   */\n    tag_22:\n        /* \"#utility.yul\":7294:7300   */\n      0x00\n        /* \"#utility.yul\":7302:7308   */\n      dup1\n        /* \"#utility.yul\":7310:7316   */\n      0x00\n        /* \"#utility.yul\":7318:7324   */\n      dup1\n        /* \"#utility.yul\":7326:7332   */\n      0x00\n        /* \"#utility.yul\":7334:7340   */\n      dup1\n        /* \"#utility.yul\":7342:7348   */\n      0x00\n        /* \"#utility.yul\":7391:7394   */\n      0xe0\n        /* \"#utility.yul\":7379:7388   */\n      dup9\n        /* \"#utility.yul\":7370:7377   */\n      dup11\n        /* \"#utility.yul\":7366:7389   */\n      sub\n        /* \"#utility.yul\":7362:7395   */\n      slt\n        /* \"#utility.yul\":7359:7479   */\n      iszero\n      tag_245\n      jumpi\n        /* \"#utility.yul\":7398:7477   */\n      tag_246\n      tag_100\n      jump\t// in\n    tag_246:\n        /* \"#utility.yul\":7359:7479   */\n    tag_245:\n        /* \"#utility.yul\":7518:7519   */\n      0x00\n        /* \"#utility.yul\":7543:7611   */\n      tag_247\n        /* \"#utility.yul\":7603:7610   */\n      dup11\n        /* \"#utility.yul\":7594:7600   */\n      dup3\n        /* \"#utility.yul\":7583:7592   */\n      dup12\n        /* \"#utility.yul\":7579:7601   */\n      add\n        /* \"#utility.yul\":7543:7611   */\n      tag_127\n      jump\t// in\n    tag_247:\n        /* \"#utility.yul\":7533:7611   */\n      swap8\n      pop\n        /* \"#utility.yul\":7489:7621   */\n      pop\n        /* \"#utility.yul\":7660:7662   */\n      0x20\n        /* \"#utility.yul\":7686:7739   */\n      tag_248\n        /* \"#utility.yul\":7731:7738   */\n      dup11\n        /* \"#utility.yul\":7722:7728   */\n      dup3\n        /* \"#utility.yul\":7711:7720   */\n      dup12\n        /* \"#utility.yul\":7707:7729   */\n      add\n        /* \"#utility.yul\":7686:7739   */\n      tag_105\n      jump\t// in\n    tag_248:\n        /* \"#utility.yul\":7676:7739   */\n      swap7\n      pop\n        /* \"#utility.yul\":7631:7749   */\n      pop\n        /* \"#utility.yul\":7788:7790   */\n      0x40\n        /* \"#utility.yul\":7814:7867   */\n      tag_249\n        /* \"#utility.yul\":7859:7866   */\n      dup11\n        /* \"#utility.yul\":7850:7856   */\n      dup3\n        /* \"#utility.yul\":7839:7848   */\n      dup12\n        /* \"#utility.yul\":7835:7857   */\n      add\n        /* \"#utility.yul\":7814:7867   */\n      tag_108\n      jump\t// in\n    tag_249:\n        /* \"#utility.yul\":7804:7867   */\n      swap6\n      pop\n        /* \"#utility.yul\":7759:7877   */\n      pop\n        /* \"#utility.yul\":7944:7946   */\n      0x60\n        /* \"#utility.yul\":7933:7942   */\n      dup9\n        /* \"#utility.yul\":7929:7947   */\n      add\n        /* \"#utility.yul\":7916:7948   */\n      calldataload\n        /* \"#utility.yul\":7975:7993   */\n      0xffffffffffffffff\n        /* \"#utility.yul\":7967:7973   */\n      dup2\n        /* \"#utility.yul\":7964:7994   */\n      gt\n        /* \"#utility.yul\":7961:8078   */\n      iszero\n      tag_250\n      jumpi\n        /* \"#utility.yul\":7997:8076   */\n      tag_251\n      tag_101\n      jump\t// in\n    tag_251:\n        /* \"#utility.yul\":7961:8078   */\n    tag_250:\n        /* \"#utility.yul\":8102:8165   */\n      tag_252\n        /* \"#utility.yul\":8157:8164   */\n      dup11\n        /* \"#utility.yul\":8148:8154   */\n      dup3\n        /* \"#utility.yul\":8137:8146   */\n      dup12\n        /* \"#utility.yul\":8133:8155   */\n      add\n        /* \"#utility.yul\":8102:8165   */\n      tag_118\n      jump\t// in\n    tag_252:\n        /* \"#utility.yul\":8092:8165   */\n      swap5\n      pop\n        /* \"#utility.yul\":7887:8175   */\n      pop\n        /* \"#utility.yul\":8214:8217   */\n      0x80\n        /* \"#utility.yul\":8241:8294   */\n      tag_253\n        /* \"#utility.yul\":8286:8293   */\n      dup11\n        /* \"#utility.yul\":8277:8283   */\n      dup3\n        /* \"#utility.yul\":8266:8275   */\n      dup12\n        /* \"#utility.yul\":8262:8284   */\n      add\n        /* \"#utility.yul\":8241:8294   */\n      tag_108\n      jump\t// in\n    tag_253:\n        /* \"#utility.yul\":8231:8294   */\n      swap4\n      pop\n        /* \"#utility.yul\":8185:8304   */\n      pop\n        /* \"#utility.yul\":8371:8374   */\n      0xa0\n        /* \"#utility.yul\":8360:8369   */\n      dup9\n        /* \"#utility.yul\":8356:8375   */\n      add\n        /* \"#utility.yul\":8343:8376   */\n      calldataload\n        /* \"#utility.yul\":8403:8421   */\n      0xffffffffffffffff\n        /* \"#utility.yul\":8395:8401   */\n      dup2\n        /* \"#utility.yul\":8392:8422   */\n      gt\n        /* \"#utility.yul\":8389:8506   */\n      iszero\n      tag_254\n      jumpi\n        /* \"#utility.yul\":8425:8504   */\n      tag_255\n      tag_101\n      jump\t// in\n    tag_255:\n        /* \"#utility.yul\":8389:8506   */\n    tag_254:\n        /* \"#utility.yul\":8530:8592   */\n      tag_256\n        /* \"#utility.yul\":8584:8591   */\n      dup11\n        /* \"#utility.yul\":8575:8581   */\n      dup3\n        /* \"#utility.yul\":8564:8573   */\n      dup12\n        /* \"#utility.yul\":8560:8582   */\n      add\n        /* \"#utility.yul\":8530:8592   */\n      tag_121\n      jump\t// in\n    tag_256:\n        /* \"#utility.yul\":8520:8592   */\n      swap3\n      pop\n        /* \"#utility.yul\":8314:8602   */\n      pop\n        /* \"#utility.yul\":8641:8644   */\n      0xc0\n        /* \"#utility.yul\":8668:8721   */\n      tag_257\n        /* \"#utility.yul\":8713:8720   */\n      dup11\n        /* \"#utility.yul\":8704:8710   */\n      dup3\n        /* \"#utility.yul\":8693:8702   */\n      dup12\n        /* \"#utility.yul\":8689:8711   */\n      add\n        /* \"#utility.yul\":8668:8721   */\n      tag_108\n      jump\t// in\n    tag_257:\n        /* \"#utility.yul\":8658:8721   */\n      swap2\n      pop\n        /* \"#utility.yul\":8612:8731   */\n      pop\n        /* \"#utility.yul\":7147:8738   */\n      swap3\n      swap6\n      swap9\n      swap2\n      swap5\n      swap8\n      pop\n      swap3\n      swap6\n      pop\n      jump\t// out\n        /* \"#utility.yul\":8744:9218   */\n    tag_28:\n        /* \"#utility.yul\":8812:8818   */\n      0x00\n        /* \"#utility.yul\":8820:8826   */\n      dup1\n        /* \"#utility.yul\":8869:8871   */\n      0x40\n        /* \"#utility.yul\":8857:8866   */\n      dup4\n        /* \"#utility.yul\":8848:8855   */\n      dup6\n        /* \"#utility.yul\":8844:8867   */\n      sub\n        /* \"#utility.yul\":8840:8872   */\n      slt\n        /* \"#utility.yul\":8837:8956   */\n      iszero\n      tag_259\n      jumpi\n        /* \"#utility.yul\":8875:8954   */\n      tag_260\n      tag_100\n      jump\t// in\n    tag_260:\n        /* \"#utility.yul\":8837:8956   */\n    tag_259:\n        /* \"#utility.yul\":8995:8996   */\n      0x00\n        /* \"#utility.yul\":9020:9073   */\n      tag_261\n        /* \"#utility.yul\":9065:9072   */\n      dup6\n        /* \"#utility.yul\":9056:9062   */\n      dup3\n        /* \"#utility.yul\":9045:9054   */\n      dup7\n        /* \"#utility.yul\":9041:9063   */\n      add\n        /* \"#utility.yul\":9020:9073   */\n      tag_108\n      jump\t// in\n    tag_261:\n        /* \"#utility.yul\":9010:9073   */\n      swap3\n      pop\n        /* \"#utility.yul\":8966:9083   */\n      pop\n        /* \"#utility.yul\":9122:9124   */\n      0x20\n        /* \"#utility.yul\":9148:9201   */\n      tag_262\n        /* \"#utility.yul\":9193:9200   */\n      dup6\n        /* \"#utility.yul\":9184:9190   */\n      dup3\n        /* \"#utility.yul\":9173:9182   */\n      dup7\n        /* \"#utility.yul\":9169:9191   */\n      add\n        /* \"#utility.yul\":9148:9201   */\n      tag_108\n      jump\t// in\n    tag_262:\n        /* \"#utility.yul\":9138:9201   */\n      swap2\n      pop\n        /* \"#utility.yul\":9093:9211   */\n      pop\n        /* \"#utility.yul\":8744:9218   */\n      swap3\n      pop\n      swap3\n      swap1\n      pop\n      jump\t// out\n        /* \"#utility.yul\":9224:9301   */\n    tag_128:\n        /* \"#utility.yul\":9261:9268   */\n      0x00\n        /* \"#utility.yul\":9290:9295   */\n      dup2\n        /* \"#utility.yul\":9279:9295   */\n      swap1\n      pop\n        /* \"#utility.yul\":9224:9301   */\n      swap2\n      swap1\n      pop\n      jump\t// out\n        /* \"#utility.yul\":9307:9429   */\n    tag_129:\n        /* \"#utility.yul\":9380:9404   */\n      tag_265\n        /* \"#utility.yul\":9398:9403   */\n      dup2\n        /* \"#utility.yul\":9380:9404   */\n      tag_128\n      jump\t// in\n    tag_265:\n        /* \"#utility.yul\":9373:9378   */\n      dup2\n        /* \"#utility.yul\":9370:9405   */\n      eq\n        /* \"#utility.yul\":9360:9423   */\n      tag_266\n      jumpi\n        /* \"#utility.yul\":9419:9420   */\n      0x00\n        /* \"#utility.yul\":9416:9417   */\n      dup1\n        /* \"#utility.yul\":9409:9421   */\n      revert\n        /* \"#utility.yul\":9360:9423   */\n    tag_266:\n        /* \"#utility.yul\":9307:9429   */\n      pop\n      jump\t// out\n        /* \"#utility.yul\":9435:9574   */\n    tag_130:\n        /* \"#utility.yul\":9481:9486   */\n      0x00\n        /* \"#utility.yul\":9519:9525   */\n      dup2\n        /* \"#utility.yul\":9506:9526   */\n      calldataload\n        /* \"#utility.yul\":9497:9526   */\n      swap1\n      pop\n        /* \"#utility.yul\":9535:9568   */\n      tag_268\n        /* \"#utility.yul\":9562:9567   */\n      dup2\n        /* \"#utility.yul\":9535:9568   */\n      tag_129\n      jump\t// in\n    tag_268:\n        /* \"#utility.yul\":9435:9574   */\n      swap3\n      swap2\n      pop\n      pop\n      jump\t// out\n        /* \"#utility.yul\":9580:10232   */\n    tag_33:\n        /* \"#utility.yul\":9657:9663   */\n      0x00\n        /* \"#utility.yul\":9665:9671   */\n      dup1\n        /* \"#utility.yul\":9714:9716   */\n      0x40\n        /* \"#utility.yul\":9702:9711   */\n      dup4\n        /* \"#utility.yul\":9693:9700   */\n      dup6\n        /* \"#utility.yul\":9689:9712   */\n      sub\n        /* \"#utility.yul\":9685:9717   */\n      slt\n        /* \"#utility.yul\":9682:9801   */\n      iszero\n      tag_270\n      jumpi\n        /* \"#utility.yul\":9720:9799   */\n      tag_271\n      tag_100\n      jump\t// in\n    tag_271:\n        /* \"#utility.yul\":9682:9801   */\n    tag_270:\n        /* \"#utility.yul\":9840:9841   */\n      0x00\n        /* \"#utility.yul\":9865:9918   */\n      tag_272\n        /* \"#utility.yul\":9910:9917   */\n      dup6\n        /* \"#utility.yul\":9901:9907   */\n      dup3\n        /* \"#utility.yul\":9890:9899   */\n      dup7\n        /* \"#utility.yul\":9886:9908   */\n      add\n        /* \"#utility.yul\":9865:9918   */\n      tag_130\n      jump\t// in\n    tag_272:\n        /* \"#utility.yul\":9855:9918   */\n      swap3\n      pop\n        /* \"#utility.yul\":9811:9928   */\n      pop\n        /* \"#utility.yul\":9995:9997   */\n      0x20\n        /* \"#utility.yul\":9984:9993   */\n      dup4\n        /* \"#utility.yul\":9980:9998   */\n      add\n        /* \"#utility.yul\":9967:9999   */\n      calldataload\n        /* \"#utility.yul\":10026:10044   */\n      0xffffffffffffffff\n        /* \"#utility.yul\":10018:10024   */\n      dup2\n        /* \"#utility.yul\":10015:10045   */\n      gt\n        /* \"#utility.yul\":10012:10129   */\n      iszero\n      tag_273\n      jumpi\n        /* \"#utility.yul\":10048:10127   */\n      tag_274\n      tag_101\n      jump\t// in\n    tag_274:\n        /* \"#utility.yul\":10012:10129   */\n    tag_273:\n        /* \"#utility.yul\":10153:10215   */\n      tag_275\n        /* \"#utility.yul\":10207:10214   */\n      dup6\n        /* \"#utility.yul\":10198:10204   */\n      dup3\n        /* \"#utility.yul\":10187:10196   */\n      dup7\n        /* \"#utility.yul\":10183:10205   */\n      add\n        /* \"#utility.yul\":10153:10215   */\n      tag_121\n      jump\t// in\n    tag_275:\n        /* \"#utility.yul\":10143:10215   */\n      swap2\n      pop\n        /* \"#utility.yul\":9938:10225   */\n      pop\n        /* \"#utility.yul\":9580:10232   */\n      swap3\n      pop\n      swap3\n      swap1\n      pop\n      jump\t// out\n        /* \"#utility.yul\":10238:10356   */\n    tag_131:\n        /* \"#utility.yul\":10325:10349   */\n      tag_277\n        /* \"#utility.yul\":10343:10348   */\n      dup2\n        /* \"#utility.yul\":10325:10349   */\n      tag_103\n      jump\t// in\n    tag_277:\n        /* \"#utility.yul\":10320:10323   */\n      dup3\n        /* \"#utility.yul\":10313:10350   */\n      mstore\n        /* \"#utility.yul\":10238:10356   */\n      pop\n      pop\n      jump\t// out\n        /* \"#utility.yul\":10362:10584   */\n    tag_36:\n        /* \"#utility.yul\":10455:10459   */\n      0x00\n        /* \"#utility.yul\":10493:10495   */\n      0x20\n        /* \"#utility.yul\":10482:10491   */\n      dup3\n        /* \"#utility.yul\":10478:10496   */\n      add\n        /* \"#utility.yul\":10470:10496   */\n      swap1\n      pop\n        /* \"#utility.yul\":10506:10577   */\n      tag_279\n        /* \"#utility.yul\":10574:10575   */\n      0x00\n        /* \"#utility.yul\":10563:10572   */\n      dup4\n        /* \"#utility.yul\":10559:10576   */\n      add\n        /* \"#utility.yul\":10550:10556   */\n      dup5\n        /* \"#utility.yul\":10506:10577   */\n      tag_131\n      jump\t// in\n    tag_279:\n        /* \"#utility.yul\":10362:10584   */\n      swap3\n      swap2\n      pop\n      pop\n      jump\t// out\n        /* \"#utility.yul\":10590:11097   */\n    tag_40:\n        /* \"#utility.yul\":10658:10664   */\n      0x00\n        /* \"#utility.yul\":10707:10709   */\n      0x20\n        /* \"#utility.yul\":10695:10704   */\n      dup3\n        /* \"#utility.yul\":10686:10693   */\n      dup5\n        /* \"#utility.yul\":10682:10705   */\n      sub\n        /* \"#utility.yul\":10678:10710   */\n      slt\n        /* \"#utility.yul\":10675:10794   */\n      iszero\n      tag_281\n      jumpi\n        /* \"#utility.yul\":10713:10792   */\n      tag_282\n      tag_100\n      jump\t// in\n    tag_282:\n        /* \"#utility.yul\":10675:10794   */\n    tag_281:\n        /* \"#utility.yul\":10861:10862   */\n      0x00\n        /* \"#utility.yul\":10850:10859   */\n      dup3\n        /* \"#utility.yul\":10846:10863   */\n      add\n        /* \"#utility.yul\":10833:10864   */\n      calldataload\n        /* \"#utility.yul\":10891:10909   */\n      0xffffffffffffffff\n        /* \"#utility.yul\":10883:10889   */\n      dup2\n        /* \"#utility.yul\":10880:10910   */\n      gt\n        /* \"#utility.yul\":10877:10994   */\n      iszero\n      tag_283\n      jumpi\n        /* \"#utility.yul\":10913:10992   */\n      tag_284\n      tag_101\n      jump\t// in\n    tag_284:\n        /* \"#utility.yul\":10877:10994   */\n    tag_283:\n        /* \"#utility.yul\":11018:11080   */\n      tag_285\n        /* \"#utility.yul\":11072:11079   */\n      dup5\n        /* \"#utility.yul\":11063:11069   */\n      dup3\n        /* \"#utility.yul\":11052:11061   */\n      dup6\n        /* \"#utility.yul\":11048:11070   */\n      add\n        /* \"#utility.yul\":11018:11080   */\n      tag_121\n      jump\t// in\n    tag_285:\n        /* \"#utility.yul\":11008:11080   */\n      swap2\n      pop\n        /* \"#utility.yul\":10804:11090   */\n      pop\n        /* \"#utility.yul\":10590:11097   */\n      swap3\n      swap2\n      pop\n      pop\n      jump\t// out\n        /* \"#utility.yul\":11103:11221   */\n    tag_132:\n        /* \"#utility.yul\":11190:11214   */\n      tag_287\n        /* \"#utility.yul\":11208:11213   */\n      dup2\n        /* \"#utility.yul\":11190:11214   */\n      tag_128\n      jump\t// in\n    tag_287:\n        /* \"#utility.yul\":11185:11188   */\n      dup3\n        /* \"#utility.yul\":11178:11215   */\n      mstore\n        /* \"#utility.yul\":11103:11221   */\n      pop\n      pop\n      jump\t// out\n        /* \"#utility.yul\":11227:11313   */\n    tag_133:\n        /* \"#utility.yul\":11262:11269   */\n      0x00\n        /* \"#utility.yul\":11302:11306   */\n      0xff\n        /* \"#utility.yul\":11295:11300   */\n      dup3\n        /* \"#utility.yul\":11291:11307   */\n      and\n        /* \"#utility.yul\":11280:11307   */\n      swap1\n      pop\n        /* \"#utility.yul\":11227:11313   */\n      swap2\n      swap1\n      pop\n      jump\t// out\n        /* \"#utility.yul\":11319:11431   */\n    tag_134:\n        /* \"#utility.yul\":11402:11424   */\n      tag_290\n        /* \"#utility.yul\":11418:11423   */\n      dup2\n        /* \"#utility.yul\":11402:11424   */\n      tag_133\n      jump\t// in\n    tag_290:\n        /* \"#utility.yul\":11397:11400   */\n      dup3\n        /* \"#utility.yul\":11390:11425   */\n      mstore\n        /* \"#utility.yul\":11319:11431   */\n      pop\n      pop\n      jump\t// out\n        /* \"#utility.yul\":11437:11871   */\n    tag_43:\n        /* \"#utility.yul\":11582:11586   */\n      0x00\n        /* \"#utility.yul\":11620:11622   */\n      0x60\n        /* \"#utility.yul\":11609:11618   */\n      dup3\n        /* \"#utility.yul\":11605:11623   */\n      add\n        /* \"#utility.yul\":11597:11623   */\n      swap1\n      pop\n        /* \"#utility.yul\":11633:11704   */\n      tag_292\n        /* \"#utility.yul\":11701:11702   */\n      0x00\n        /* \"#utility.yul\":11690:11699   */\n      dup4\n        /* \"#utility.yul\":11686:11703   */\n      add\n        /* \"#utility.yul\":11677:11683   */\n      dup7\n        /* \"#utility.yul\":11633:11704   */\n      tag_132\n      jump\t// in\n    tag_292:\n        /* \"#utility.yul\":11714:11786   */\n      tag_293\n        /* \"#utility.yul\":11782:11784   */\n      0x20\n        /* \"#utility.yul\":11771:11780   */\n      dup4\n        /* \"#utility.yul\":11767:11785   */\n      add\n        /* \"#utility.yul\":11758:11764   */\n      dup6\n        /* \"#utility.yul\":11714:11786   */\n      tag_132\n      jump\t// in\n    tag_293:\n        /* \"#utility.yul\":11796:11864   */\n      tag_294\n        /* \"#utility.yul\":11860:11862   */\n      0x40\n        /* \"#utility.yul\":11849:11858   */\n      dup4\n        /* \"#utility.yul\":11845:11863   */\n      add\n        /* \"#utility.yul\":11836:11842   */\n      dup5\n        /* \"#utility.yul\":11796:11864   */\n      tag_134\n      jump\t// in\n    tag_294:\n        /* \"#utility.yul\":11437:11871   */\n      swap5\n      swap4\n      pop\n      pop\n      pop\n      pop\n      jump\t// out\n        /* \"#utility.yul\":11877:11976   */\n    tag_135:\n        /* \"#utility.yul\":11929:11935   */\n      0x00\n        /* \"#utility.yul\":11963:11968   */\n      dup2\n        /* \"#utility.yul\":11957:11969   */\n      mload\n        /* \"#utility.yul\":11947:11969   */\n      swap1\n      pop\n        /* \"#utility.yul\":11877:11976   */\n      swap2\n      swap1\n      pop\n      jump\t// out\n        /* \"#utility.yul\":11982:12151   */\n    tag_136:\n        /* \"#utility.yul\":12066:12077   */\n      0x00\n        /* \"#utility.yul\":12100:12106   */\n      dup3\n        /* \"#utility.yul\":12095:12098   */\n      dup3\n        /* \"#utility.yul\":12088:12107   */\n      mstore\n        /* \"#utility.yul\":12140:12144   */\n      0x20\n        /* \"#utility.yul\":12135:12138   */\n      dup3\n        /* \"#utility.yul\":12131:12145   */\n      add\n        /* \"#utility.yul\":12116:12145   */\n      swap1\n      pop\n        /* \"#utility.yul\":11982:12151   */\n      swap3\n      swap2\n      pop\n      pop\n      jump\t// out\n        /* \"#utility.yul\":12157:12464   */\n    tag_137:\n        /* \"#utility.yul\":12225:12226   */\n      0x00\n        /* \"#utility.yul\":12235:12348   */\n    tag_298:\n        /* \"#utility.yul\":12249:12255   */\n      dup4\n        /* \"#utility.yul\":12246:12247   */\n      dup2\n        /* \"#utility.yul\":12243:12256   */\n      lt\n        /* \"#utility.yul\":12235:12348   */\n      iszero\n      tag_300\n      jumpi\n        /* \"#utility.yul\":12334:12335   */\n      dup1\n        /* \"#utility.yul\":12329:12332   */\n      dup3\n        /* \"#utility.yul\":12325:12336   */\n      add\n        /* \"#utility.yul\":12319:12337   */\n      mload\n        /* \"#utility.yul\":12315:12316   */\n      dup2\n        /* \"#utility.yul\":12310:12313   */\n      dup5\n        /* \"#utility.yul\":12306:12317   */\n      add\n        /* \"#utility.yul\":12299:12338   */\n      mstore\n        /* \"#utility.yul\":12271:12273   */\n      0x20\n        /* \"#utility.yul\":12268:12269   */\n      dup2\n        /* \"#utility.yul\":12264:12274   */\n      add\n        /* \"#utility.yul\":12259:12274   */\n      swap1\n      pop\n        /* \"#utility.yul\":12235:12348   */\n      jump(tag_298)\n    tag_300:\n        /* \"#utility.yul\":12366:12372   */\n      dup4\n        /* \"#utility.yul\":12363:12364   */\n      dup2\n        /* \"#utility.yul\":12360:12373   */\n      gt\n        /* \"#utility.yul\":12357:12458   */\n      iszero\n      tag_301\n      jumpi\n        /* \"#utility.yul\":12446:12447   */\n      0x00\n        /* \"#utility.yul\":12437:12443   */\n      dup5\n        /* \"#utility.yul\":12432:12435   */\n      dup5\n        /* \"#utility.yul\":12428:12444   */\n      add\n        /* \"#utility.yul\":12421:12448   */\n      mstore\n        /* \"#utility.yul\":12357:12458   */\n    tag_301:\n        /* \"#utility.yul\":12206:12464   */\n      pop\n        /* \"#utility.yul\":12157:12464   */\n      pop\n      pop\n      pop\n      jump\t// out\n        /* \"#utility.yul\":12470:12834   */\n    tag_138:\n        /* \"#utility.yul\":12558:12561   */\n      0x00\n        /* \"#utility.yul\":12586:12625   */\n      tag_303\n        /* \"#utility.yul\":12619:12624   */\n      dup3\n        /* \"#utility.yul\":12586:12625   */\n      tag_135\n      jump\t// in\n    tag_303:\n        /* \"#utility.yul\":12641:12712   */\n      tag_304\n        /* \"#utility.yul\":12705:12711   */\n      dup2\n        /* \"#utility.yul\":12700:12703   */\n      dup6\n        /* \"#utility.yul\":12641:12712   */\n      tag_136\n      jump\t// in\n    tag_304:\n        /* \"#utility.yul\":12634:12712   */\n      swap4\n      pop\n        /* \"#utility.yul\":12721:12773   */\n      tag_305\n        /* \"#utility.yul\":12766:12772   */\n      dup2\n        /* \"#utility.yul\":12761:12764   */\n      dup6\n        /* \"#utility.yul\":12754:12758   */\n      0x20\n        /* \"#utility.yul\":12747:12752   */\n      dup7\n        /* \"#utility.yul\":12743:12759   */\n      add\n        /* \"#utility.yul\":12721:12773   */\n      tag_137\n      jump\t// in\n    tag_305:\n        /* \"#utility.yul\":12798:12827   */\n      tag_306\n        /* \"#utility.yul\":12820:12826   */\n      dup2\n        /* \"#utility.yul\":12798:12827   */\n      tag_111\n      jump\t// in\n    tag_306:\n        /* \"#utility.yul\":12793:12796   */\n      dup5\n        /* \"#utility.yul\":12789:12828   */\n      add\n        /* \"#utility.yul\":12782:12828   */\n      swap2\n      pop\n        /* \"#utility.yul\":12562:12834   */\n      pop\n        /* \"#utility.yul\":12470:12834   */\n      swap3\n      swap2\n      pop\n      pop\n      jump\t// out\n        /* \"#utility.yul\":12840:12938   */\n    tag_139:\n        /* \"#utility.yul\":12891:12897   */\n      0x00\n        /* \"#utility.yul\":12925:12930   */\n      dup2\n        /* \"#utility.yul\":12919:12931   */\n      mload\n        /* \"#utility.yul\":12909:12931   */\n      swap1\n      pop\n        /* \"#utility.yul\":12840:12938   */\n      swap2\n      swap1\n      pop\n      jump\t// out\n        /* \"#utility.yul\":12944:13112   */\n    tag_140:\n        /* \"#utility.yul\":13027:13038   */\n      0x00\n        /* \"#utility.yul\":13061:13067   */\n      dup3\n        /* \"#utility.yul\":13056:13059   */\n      dup3\n        /* \"#utility.yul\":13049:13068   */\n      mstore\n        /* \"#utility.yul\":13101:13105   */\n      0x20\n        /* \"#utility.yul\":13096:13099   */\n      dup3\n        /* \"#utility.yul\":13092:13106   */\n      add\n        /* \"#utility.yul\":13077:13106   */\n      swap1\n      pop\n        /* \"#utility.yul\":12944:13112   */\n      swap3\n      swap2\n      pop\n      pop\n      jump\t// out\n        /* \"#utility.yul\":13118:13478   */\n    tag_141:\n        /* \"#utility.yul\":13204:13207   */\n      0x00\n        /* \"#utility.yul\":13232:13270   */\n      tag_310\n        /* \"#utility.yul\":13264:13269   */\n      dup3\n        /* \"#utility.yul\":13232:13270   */\n      tag_139\n      jump\t// in\n    tag_310:\n        /* \"#utility.yul\":13286:13356   */\n      tag_311\n        /* \"#utility.yul\":13349:13355   */\n      dup2\n        /* \"#utility.yul\":13344:13347   */\n      dup6\n        /* \"#utility.yul\":13286:13356   */\n      tag_140\n      jump\t// in\n    tag_311:\n        /* \"#utility.yul\":13279:13356   */\n      swap4\n      pop\n        /* \"#utility.yul\":13365:13417   */\n      tag_312\n        /* \"#utility.yul\":13410:13416   */\n      dup2\n        /* \"#utility.yul\":13405:13408   */\n      dup6\n        /* \"#utility.yul\":13398:13402   */\n      0x20\n        /* \"#utility.yul\":13391:13396   */\n      dup7\n        /* \"#utility.yul\":13387:13403   */\n      add\n        /* \"#utility.yul\":13365:13417   */\n      tag_137\n      jump\t// in\n    tag_312:\n        /* \"#utility.yul\":13442:13471   */\n      tag_313\n        /* \"#utility.yul\":13464:13470   */\n      dup2\n        /* \"#utility.yul\":13442:13471   */\n      tag_111\n      jump\t// in\n    tag_313:\n        /* \"#utility.yul\":13437:13440   */\n      dup5\n        /* \"#utility.yul\":13433:13472   */\n      add\n        /* \"#utility.yul\":13426:13472   */\n      swap2\n      pop\n        /* \"#utility.yul\":13208:13478   */\n      pop\n        /* \"#utility.yul\":13118:13478   */\n      swap3\n      swap2\n      pop\n      pop\n      jump\t// out\n        /* \"#utility.yul\":13484:14215   */\n    tag_46:\n        /* \"#utility.yul\":13699:13703   */\n      0x00\n        /* \"#utility.yul\":13737:13740   */\n      0x80\n        /* \"#utility.yul\":13726:13735   */\n      dup3\n        /* \"#utility.yul\":13722:13741   */\n      add\n        /* \"#utility.yul\":13714:13741   */\n      swap1\n      pop\n        /* \"#utility.yul\":13751:13822   */\n      tag_315\n        /* \"#utility.yul\":13819:13820   */\n      0x00\n        /* \"#utility.yul\":13808:13817   */\n      dup4\n        /* \"#utility.yul\":13804:13821   */\n      add\n        /* \"#utility.yul\":13795:13801   */\n      dup8\n        /* \"#utility.yul\":13751:13822   */\n      tag_124\n      jump\t// in\n    tag_315:\n        /* \"#utility.yul\":13869:13878   */\n      dup2\n        /* \"#utility.yul\":13863:13867   */\n      dup2\n        /* \"#utility.yul\":13859:13879   */\n      sub\n        /* \"#utility.yul\":13854:13856   */\n      0x20\n        /* \"#utility.yul\":13843:13852   */\n      dup4\n        /* \"#utility.yul\":13839:13857   */\n      add\n        /* \"#utility.yul\":13832:13880   */\n      mstore\n        /* \"#utility.yul\":13897:13975   */\n      tag_316\n        /* \"#utility.yul\":13970:13974   */\n      dup2\n        /* \"#utility.yul\":13961:13967   */\n      dup7\n        /* \"#utility.yul\":13897:13975   */\n      tag_138\n      jump\t// in\n    tag_316:\n        /* \"#utility.yul\":13889:13975   */\n      swap1\n      pop\n        /* \"#utility.yul\":13985:14057   */\n      tag_317\n        /* \"#utility.yul\":14053:14055   */\n      0x40\n        /* \"#utility.yul\":14042:14051   */\n      dup4\n        /* \"#utility.yul\":14038:14056   */\n      add\n        /* \"#utility.yul\":14029:14035   */\n      dup6\n        /* \"#utility.yul\":13985:14057   */\n      tag_124\n      jump\t// in\n    tag_317:\n        /* \"#utility.yul\":14104:14113   */\n      dup2\n        /* \"#utility.yul\":14098:14102   */\n      dup2\n        /* \"#utility.yul\":14094:14114   */\n      sub\n        /* \"#utility.yul\":14089:14091   */\n      0x60\n        /* \"#utility.yul\":14078:14087   */\n      dup4\n        /* \"#utility.yul\":14074:14092   */\n      add\n        /* \"#utility.yul\":14067:14115   */\n      mstore\n        /* \"#utility.yul\":14132:14208   */\n      tag_318\n        /* \"#utility.yul\":14203:14207   */\n      dup2\n        /* \"#utility.yul\":14194:14200   */\n      dup5\n        /* \"#utility.yul\":14132:14208   */\n      tag_141\n      jump\t// in\n    tag_318:\n        /* \"#utility.yul\":14124:14208   */\n      swap1\n      pop\n        /* \"#utility.yul\":13484:14215   */\n      swap6\n      swap5\n      pop\n      pop\n      pop\n      pop\n      pop\n      jump\t// out\n        /* \"#utility.yul\":14221:14865   */\n    tag_48:\n        /* \"#utility.yul\":14418:14422   */\n      0x00\n        /* \"#utility.yul\":14456:14459   */\n      0x80\n        /* \"#utility.yul\":14445:14454   */\n      dup3\n        /* \"#utility.yul\":14441:14460   */\n      add\n        /* \"#utility.yul\":14433:14460   */\n      swap1\n      pop\n        /* \"#utility.yul\":14470:14541   */\n      tag_320\n        /* \"#utility.yul\":14538:14539   */\n      0x00\n        /* \"#utility.yul\":14527:14536   */\n      dup4\n        /* \"#utility.yul\":14523:14540   */\n      add\n        /* \"#utility.yul\":14514:14520   */\n      dup8\n        /* \"#utility.yul\":14470:14541   */\n      tag_131\n      jump\t// in\n    tag_320:\n        /* \"#utility.yul\":14551:14623   */\n      tag_321\n        /* \"#utility.yul\":14619:14621   */\n      0x20\n        /* \"#utility.yul\":14608:14617   */\n      dup4\n        /* \"#utility.yul\":14604:14622   */\n      add\n        /* \"#utility.yul\":14595:14601   */\n      dup7\n        /* \"#utility.yul\":14551:14623   */\n      tag_124\n      jump\t// in\n    tag_321:\n        /* \"#utility.yul\":14670:14679   */\n      dup2\n        /* \"#utility.yul\":14664:14668   */\n      dup2\n        /* \"#utility.yul\":14660:14680   */\n      sub\n        /* \"#utility.yul\":14655:14657   */\n      0x40\n        /* \"#utility.yul\":14644:14653   */\n      dup4\n        /* \"#utility.yul\":14640:14658   */\n      add\n        /* \"#utility.yul\":14633:14681   */\n      mstore\n        /* \"#utility.yul\":14698:14776   */\n      tag_322\n        /* \"#utility.yul\":14771:14775   */\n      dup2\n        /* \"#utility.yul\":14762:14768   */\n      dup6\n        /* \"#utility.yul\":14698:14776   */\n      tag_138\n      jump\t// in\n    tag_322:\n        /* \"#utility.yul\":14690:14776   */\n      swap1\n      pop\n        /* \"#utility.yul\":14786:14858   */\n      tag_323\n        /* \"#utility.yul\":14854:14856   */\n      0x60\n        /* \"#utility.yul\":14843:14852   */\n      dup4\n        /* \"#utility.yul\":14839:14857   */\n      add\n        /* \"#utility.yul\":14830:14836   */\n      dup5\n        /* \"#utility.yul\":14786:14858   */\n      tag_124\n      jump\t// in\n    tag_323:\n        /* \"#utility.yul\":14221:14865   */\n      swap6\n      swap5\n      pop\n      pop\n      pop\n      pop\n      pop\n      jump\t// out\n        /* \"#utility.yul\":14871:15014   */\n    tag_142:\n        /* \"#utility.yul\":14928:14933   */\n      0x00\n        /* \"#utility.yul\":14959:14965   */\n      dup2\n        /* \"#utility.yul\":14953:14966   */\n      mload\n        /* \"#utility.yul\":14944:14966   */\n      swap1\n      pop\n        /* \"#utility.yul\":14975:15008   */\n      tag_325\n        /* \"#utility.yul\":15002:15007   */\n      dup2\n        /* \"#utility.yul\":14975:15008   */\n      tag_129\n      jump\t// in\n    tag_325:\n        /* \"#utility.yul\":14871:15014   */\n      swap3\n      swap2\n      pop\n      pop\n      jump\t// out\n        /* \"#utility.yul\":15020:15371   */\n    tag_53:\n        /* \"#utility.yul\":15090:15096   */\n      0x00\n        /* \"#utility.yul\":15139:15141   */\n      0x20\n        /* \"#utility.yul\":15127:15136   */\n      dup3\n        /* \"#utility.yul\":15118:15125   */\n      dup5\n        /* \"#utility.yul\":15114:15137   */\n      sub\n        /* \"#utility.yul\":15110:15142   */\n      slt\n        /* \"#utility.yul\":15107:15226   */\n      iszero\n      tag_327\n      jumpi\n        /* \"#utility.yul\":15145:15224   */\n      tag_328\n      tag_100\n      jump\t// in\n    tag_328:\n        /* \"#utility.yul\":15107:15226   */\n    tag_327:\n        /* \"#utility.yul\":15265:15266   */\n      0x00\n        /* \"#utility.yul\":15290:15354   */\n      tag_329\n        /* \"#utility.yul\":15346:15353   */\n      dup5\n        /* \"#utility.yul\":15337:15343   */\n      dup3\n        /* \"#utility.yul\":15326:15335   */\n      dup6\n        /* \"#utility.yul\":15322:15344   */\n      add\n        /* \"#utility.yul\":15290:15354   */\n      tag_142\n      jump\t// in\n    tag_329:\n        /* \"#utility.yul\":15280:15354   */\n      swap2\n      pop\n        /* \"#utility.yul\":15236:15364   */\n      pop\n        /* \"#utility.yul\":15020:15371   */\n      swap3\n      swap2\n      pop\n      pop\n      jump\t// out\n        /* \"#utility.yul\":15377:15599   */\n    tag_55:\n        /* \"#utility.yul\":15470:15474   */\n      0x00\n        /* \"#utility.yul\":15508:15510   */\n      0x20\n        /* \"#utility.yul\":15497:15506   */\n      dup3\n        /* \"#utility.yul\":15493:15511   */\n      add\n        /* \"#utility.yul\":15485:15511   */\n      swap1\n      pop\n        /* \"#utility.yul\":15521:15592   */\n      tag_331\n        /* \"#utility.yul\":15589:15590   */\n      0x00\n        /* \"#utility.yul\":15578:15587   */\n      dup4\n        /* \"#utility.yul\":15574:15591   */\n      add\n        /* \"#utility.yul\":15565:15571   */\n      dup5\n        /* \"#utility.yul\":15521:15592   */\n      tag_132\n      jump\t// in\n    tag_331:\n        /* \"#utility.yul\":15377:15599   */\n      swap3\n      swap2\n      pop\n      pop\n      jump\t// out\n        /* \"#utility.yul\":15605:16558   */\n    tag_66:\n        /* \"#utility.yul\":15876:15880   */\n      0x00\n        /* \"#utility.yul\":15914:15917   */\n      0xc0\n        /* \"#utility.yul\":15903:15912   */\n      dup3\n        /* \"#utility.yul\":15899:15918   */\n      add\n        /* \"#utility.yul\":15891:15918   */\n      swap1\n      pop\n        /* \"#utility.yul\":15928:15999   */\n      tag_333\n        /* \"#utility.yul\":15996:15997   */\n      0x00\n        /* \"#utility.yul\":15985:15994   */\n      dup4\n        /* \"#utility.yul\":15981:15998   */\n      add\n        /* \"#utility.yul\":15972:15978   */\n      dup10\n        /* \"#utility.yul\":15928:15999   */\n      tag_131\n      jump\t// in\n    tag_333:\n        /* \"#utility.yul\":16009:16081   */\n      tag_334\n        /* \"#utility.yul\":16077:16079   */\n      0x20\n        /* \"#utility.yul\":16066:16075   */\n      dup4\n        /* \"#utility.yul\":16062:16080   */\n      add\n        /* \"#utility.yul\":16053:16059   */\n      dup9\n        /* \"#utility.yul\":16009:16081   */\n      tag_131\n      jump\t// in\n    tag_334:\n        /* \"#utility.yul\":16091:16163   */\n      tag_335\n        /* \"#utility.yul\":16159:16161   */\n      0x40\n        /* \"#utility.yul\":16148:16157   */\n      dup4\n        /* \"#utility.yul\":16144:16162   */\n      add\n        /* \"#utility.yul\":16135:16141   */\n      dup8\n        /* \"#utility.yul\":16091:16163   */\n      tag_124\n      jump\t// in\n    tag_335:\n        /* \"#utility.yul\":16210:16219   */\n      dup2\n        /* \"#utility.yul\":16204:16208   */\n      dup2\n        /* \"#utility.yul\":16200:16220   */\n      sub\n        /* \"#utility.yul\":16195:16197   */\n      0x60\n        /* \"#utility.yul\":16184:16193   */\n      dup4\n        /* \"#utility.yul\":16180:16198   */\n      add\n        /* \"#utility.yul\":16173:16221   */\n      mstore\n        /* \"#utility.yul\":16238:16316   */\n      tag_336\n        /* \"#utility.yul\":16311:16315   */\n      dup2\n        /* \"#utility.yul\":16302:16308   */\n      dup7\n        /* \"#utility.yul\":16238:16316   */\n      tag_138\n      jump\t// in\n    tag_336:\n        /* \"#utility.yul\":16230:16316   */\n      swap1\n      pop\n        /* \"#utility.yul\":16326:16399   */\n      tag_337\n        /* \"#utility.yul\":16394:16397   */\n      0x80\n        /* \"#utility.yul\":16383:16392   */\n      dup4\n        /* \"#utility.yul\":16379:16398   */\n      add\n        /* \"#utility.yul\":16370:16376   */\n      dup6\n        /* \"#utility.yul\":16326:16399   */\n      tag_124\n      jump\t// in\n    tag_337:\n        /* \"#utility.yul\":16447:16456   */\n      dup2\n        /* \"#utility.yul\":16441:16445   */\n      dup2\n        /* \"#utility.yul\":16437:16457   */\n      sub\n        /* \"#utility.yul\":16431:16434   */\n      0xa0\n        /* \"#utility.yul\":16420:16429   */\n      dup4\n        /* \"#utility.yul\":16416:16435   */\n      add\n        /* \"#utility.yul\":16409:16458   */\n      mstore\n        /* \"#utility.yul\":16475:16551   */\n      tag_338\n        /* \"#utility.yul\":16546:16550   */\n      dup2\n        /* \"#utility.yul\":16537:16543   */\n      dup5\n        /* \"#utility.yul\":16475:16551   */\n      tag_141\n      jump\t// in\n    tag_338:\n        /* \"#utility.yul\":16467:16551   */\n      swap1\n      pop\n        /* \"#utility.yul\":15605:16558   */\n      swap8\n      swap7\n      pop\n      pop\n      pop\n      pop\n      pop\n      pop\n      pop\n      jump\t// out\n        /* \"#utility.yul\":16564:16680   */\n    tag_143:\n        /* \"#utility.yul\":16634:16655   */\n      tag_340\n        /* \"#utility.yul\":16649:16654   */\n      dup2\n        /* \"#utility.yul\":16634:16655   */\n      tag_122\n      jump\t// in\n    tag_340:\n        /* \"#utility.yul\":16627:16632   */\n      dup2\n        /* \"#utility.yul\":16624:16656   */\n      eq\n        /* \"#utility.yul\":16614:16674   */\n      tag_341\n      jumpi\n        /* \"#utility.yul\":16670:16671   */\n      0x00\n        /* \"#utility.yul\":16667:16668   */\n      dup1\n        /* \"#utility.yul\":16660:16672   */\n      revert\n        /* \"#utility.yul\":16614:16674   */\n    tag_341:\n        /* \"#utility.yul\":16564:16680   */\n      pop\n      jump\t// out\n        /* \"#utility.yul\":16686:16823   */\n    tag_144:\n        /* \"#utility.yul\":16740:16745   */\n      0x00\n        /* \"#utility.yul\":16771:16777   */\n      dup2\n        /* \"#utility.yul\":16765:16778   */\n      mload\n        /* \"#utility.yul\":16756:16778   */\n      swap1\n      pop\n        /* \"#utility.yul\":16787:16817   */\n      tag_343\n        /* \"#utility.yul\":16811:16816   */\n      dup2\n        /* \"#utility.yul\":16787:16817   */\n      tag_143\n      jump\t// in\n    tag_343:\n        /* \"#utility.yul\":16686:16823   */\n      swap3\n      swap2\n      pop\n      pop\n      jump\t// out\n        /* \"#utility.yul\":16829:17174   */\n    tag_71:\n        /* \"#utility.yul\":16896:16902   */\n      0x00\n        /* \"#utility.yul\":16945:16947   */\n      0x20\n        /* \"#utility.yul\":16933:16942   */\n      dup3\n        /* \"#utility.yul\":16924:16931   */\n      dup5\n        /* \"#utility.yul\":16920:16943   */\n      sub\n        /* \"#utility.yul\":16916:16948   */\n      slt\n        /* \"#utility.yul\":16913:17032   */\n      iszero\n      tag_345\n      jumpi\n        /* \"#utility.yul\":16951:17030   */\n      tag_346\n      tag_100\n      jump\t// in\n    tag_346:\n        /* \"#utility.yul\":16913:17032   */\n    tag_345:\n        /* \"#utility.yul\":17071:17072   */\n      0x00\n        /* \"#utility.yul\":17096:17157   */\n      tag_347\n        /* \"#utility.yul\":17149:17156   */\n      dup5\n        /* \"#utility.yul\":17140:17146   */\n      dup3\n        /* \"#utility.yul\":17129:17138   */\n      dup6\n        /* \"#utility.yul\":17125:17147   */\n      add\n        /* \"#utility.yul\":17096:17157   */\n      tag_144\n      jump\t// in\n    tag_347:\n        /* \"#utility.yul\":17086:17157   */\n      swap2\n      pop\n        /* \"#utility.yul\":17042:17167   */\n      pop\n        /* \"#utility.yul\":16829:17174   */\n      swap3\n      swap2\n      pop\n      pop\n      jump\t// out\n        /* \"#utility.yul\":17180:17713   */\n    tag_74:\n        /* \"#utility.yul\":17349:17353   */\n      0x00\n        /* \"#utility.yul\":17387:17389   */\n      0x60\n        /* \"#utility.yul\":17376:17385   */\n      dup3\n        /* \"#utility.yul\":17372:17390   */\n      add\n        /* \"#utility.yul\":17364:17390   */\n      swap1\n      pop\n        /* \"#utility.yul\":17400:17471   */\n      tag_349\n        /* \"#utility.yul\":17468:17469   */\n      0x00\n        /* \"#utility.yul\":17457:17466   */\n      dup4\n        /* \"#utility.yul\":17453:17470   */\n      add\n        /* \"#utility.yul\":17444:17450   */\n      dup7\n        /* \"#utility.yul\":17400:17471   */\n      tag_124\n      jump\t// in\n    tag_349:\n        /* \"#utility.yul\":17518:17527   */\n      dup2\n        /* \"#utility.yul\":17512:17516   */\n      dup2\n        /* \"#utility.yul\":17508:17528   */\n      sub\n        /* \"#utility.yul\":17503:17505   */\n      0x20\n        /* \"#utility.yul\":17492:17501   */\n      dup4\n        /* \"#utility.yul\":17488:17506   */\n      add\n        /* \"#utility.yul\":17481:17529   */\n      mstore\n        /* \"#utility.yul\":17546:17624   */\n      tag_350\n        /* \"#utility.yul\":17619:17623   */\n      dup2\n        /* \"#utility.yul\":17610:17616   */\n      dup6\n        /* \"#utility.yul\":17546:17624   */\n      tag_138\n      jump\t// in\n    tag_350:\n        /* \"#utility.yul\":17538:17624   */\n      swap1\n      pop\n        /* \"#utility.yul\":17634:17706   */\n      tag_351\n        /* \"#utility.yul\":17702:17704   */\n      0x40\n        /* \"#utility.yul\":17691:17700   */\n      dup4\n        /* \"#utility.yul\":17687:17705   */\n      add\n        /* \"#utility.yul\":17678:17684   */\n      dup5\n        /* \"#utility.yul\":17634:17706   */\n      tag_124\n      jump\t// in\n    tag_351:\n        /* \"#utility.yul\":17180:17713   */\n      swap5\n      swap4\n      pop\n      pop\n      pop\n      pop\n      jump\t// out\n        /* \"#utility.yul\":17719:18030   */\n    tag_145:\n        /* \"#utility.yul\":17796:17800   */\n      0x00\n        /* \"#utility.yul\":17886:17904   */\n      0xffffffffffffffff\n        /* \"#utility.yul\":17878:17884   */\n      dup3\n        /* \"#utility.yul\":17875:17905   */\n      gt\n        /* \"#utility.yul\":17872:17928   */\n      iszero\n      tag_353\n      jumpi\n        /* \"#utility.yul\":17908:17926   */\n      tag_354\n      tag_112\n      jump\t// in\n    tag_354:\n        /* \"#utility.yul\":17872:17928   */\n    tag_353:\n        /* \"#utility.yul\":17958:17962   */\n      0x20\n        /* \"#utility.yul\":17950:17956   */\n      dup3\n        /* \"#utility.yul\":17946:17963   */\n      mul\n        /* \"#utility.yul\":17938:17963   */\n      swap1\n      pop\n        /* \"#utility.yul\":18018:18022   */\n      0x20\n        /* \"#utility.yul\":18012:18016   */\n      dup2\n        /* \"#utility.yul\":18008:18023   */\n      add\n        /* \"#utility.yul\":18000:18023   */\n      swap1\n      pop\n        /* \"#utility.yul\":17719:18030   */\n      swap2\n      swap1\n      pop\n      jump\t// out\n        /* \"#utility.yul\":18036:18153   */\n    tag_146:\n        /* \"#utility.yul\":18145:18146   */\n      0x00\n        /* \"#utility.yul\":18142:18143   */\n      dup1\n        /* \"#utility.yul\":18135:18147   */\n      revert\n        /* \"#utility.yul\":18159:18302   */\n    tag_147:\n        /* \"#utility.yul\":18216:18221   */\n      0x00\n        /* \"#utility.yul\":18247:18253   */\n      dup2\n        /* \"#utility.yul\":18241:18254   */\n      mload\n        /* \"#utility.yul\":18232:18254   */\n      swap1\n      pop\n        /* \"#utility.yul\":18263:18296   */\n      tag_357\n        /* \"#utility.yul\":18290:18295   */\n      dup2\n        /* \"#utility.yul\":18263:18296   */\n      tag_104\n      jump\t// in\n    tag_357:\n        /* \"#utility.yul\":18159:18302   */\n      swap3\n      swap2\n      pop\n      pop\n      jump\t// out\n        /* \"#utility.yul\":18325:19057   */\n    tag_148:\n        /* \"#utility.yul\":18432:18437   */\n      0x00\n        /* \"#utility.yul\":18457:18538   */\n      tag_359\n        /* \"#utility.yul\":18473:18537   */\n      tag_360\n        /* \"#utility.yul\":18530:18536   */\n      dup5\n        /* \"#utility.yul\":18473:18537   */\n      tag_145\n      jump\t// in\n    tag_360:\n        /* \"#utility.yul\":18457:18538   */\n      tag_114\n      jump\t// in\n    tag_359:\n        /* \"#utility.yul\":18448:18538   */\n      swap1\n      pop\n        /* \"#utility.yul\":18558:18563   */\n      dup1\n        /* \"#utility.yul\":18587:18593   */\n      dup4\n        /* \"#utility.yul\":18580:18585   */\n      dup3\n        /* \"#utility.yul\":18573:18594   */\n      mstore\n        /* \"#utility.yul\":18621:18625   */\n      0x20\n        /* \"#utility.yul\":18614:18619   */\n      dup3\n        /* \"#utility.yul\":18610:18626   */\n      add\n        /* \"#utility.yul\":18603:18626   */\n      swap1\n      pop\n        /* \"#utility.yul\":18674:18678   */\n      0x20\n        /* \"#utility.yul\":18666:18672   */\n      dup5\n        /* \"#utility.yul\":18662:18679   */\n      mul\n        /* \"#utility.yul\":18654:18660   */\n      dup4\n        /* \"#utility.yul\":18650:18680   */\n      add\n        /* \"#utility.yul\":18703:18706   */\n      dup6\n        /* \"#utility.yul\":18695:18701   */\n      dup2\n        /* \"#utility.yul\":18692:18707   */\n      gt\n        /* \"#utility.yul\":18689:18811   */\n      iszero\n      tag_361\n      jumpi\n        /* \"#utility.yul\":18722:18801   */\n      tag_362\n      tag_146\n      jump\t// in\n    tag_362:\n        /* \"#utility.yul\":18689:18811   */\n    tag_361:\n        /* \"#utility.yul\":18837:18843   */\n      dup4\n        /* \"#utility.yul\":18820:19051   */\n    tag_363:\n        /* \"#utility.yul\":18854:18860   */\n      dup2\n        /* \"#utility.yul\":18849:18852   */\n      dup2\n        /* \"#utility.yul\":18846:18861   */\n      lt\n        /* \"#utility.yul\":18820:19051   */\n      iszero\n      tag_365\n      jumpi\n        /* \"#utility.yul\":18929:18932   */\n      dup1\n        /* \"#utility.yul\":18958:19006   */\n      tag_366\n        /* \"#utility.yul\":19002:19005   */\n      dup9\n        /* \"#utility.yul\":18990:19000   */\n      dup3\n        /* \"#utility.yul\":18958:19006   */\n      tag_147\n      jump\t// in\n    tag_366:\n        /* \"#utility.yul\":18953:18956   */\n      dup5\n        /* \"#utility.yul\":18946:19007   */\n      mstore\n        /* \"#utility.yul\":19036:19040   */\n      0x20\n        /* \"#utility.yul\":19031:19034   */\n      dup5\n        /* \"#utility.yul\":19027:19041   */\n      add\n        /* \"#utility.yul\":19020:19041   */\n      swap4\n      pop\n        /* \"#utility.yul\":18896:19051   */\n      pop\n        /* \"#utility.yul\":18880:18884   */\n      0x20\n        /* \"#utility.yul\":18875:18878   */\n      dup2\n        /* \"#utility.yul\":18871:18885   */\n      add\n        /* \"#utility.yul\":18864:18885   */\n      swap1\n      pop\n        /* \"#utility.yul\":18820:19051   */\n      jump(tag_363)\n    tag_365:\n        /* \"#utility.yul\":18824:18845   */\n      pop\n        /* \"#utility.yul\":18438:19057   */\n      pop\n      pop\n        /* \"#utility.yul\":18325:19057   */\n      swap4\n      swap3\n      pop\n      pop\n      pop\n      jump\t// out\n        /* \"#utility.yul\":19080:19465   */\n    tag_149:\n        /* \"#utility.yul\":19162:19167   */\n      0x00\n        /* \"#utility.yul\":19211:19214   */\n      dup3\n        /* \"#utility.yul\":19204:19208   */\n      0x1f\n        /* \"#utility.yul\":19196:19202   */\n      dup4\n        /* \"#utility.yul\":19192:19209   */\n      add\n        /* \"#utility.yul\":19188:19215   */\n      slt\n        /* \"#utility.yul\":19178:19300   */\n      tag_368\n      jumpi\n        /* \"#utility.yul\":19219:19298   */\n      tag_369\n      tag_109\n      jump\t// in\n    tag_369:\n        /* \"#utility.yul\":19178:19300   */\n    tag_368:\n        /* \"#utility.yul\":19329:19335   */\n      dup2\n        /* \"#utility.yul\":19323:19336   */\n      mload\n        /* \"#utility.yul\":19354:19459   */\n      tag_370\n        /* \"#utility.yul\":19455:19458   */\n      dup5\n        /* \"#utility.yul\":19447:19453   */\n      dup3\n        /* \"#utility.yul\":19440:19444   */\n      0x20\n        /* \"#utility.yul\":19432:19438   */\n      dup7\n        /* \"#utility.yul\":19428:19445   */\n      add\n        /* \"#utility.yul\":19354:19459   */\n      tag_148\n      jump\t// in\n    tag_370:\n        /* \"#utility.yul\":19345:19459   */\n      swap2\n      pop\n        /* \"#utility.yul\":19168:19465   */\n      pop\n        /* \"#utility.yul\":19080:19465   */\n      swap3\n      swap2\n      pop\n      pop\n      jump\t// out\n        /* \"#utility.yul\":19471:20025   */\n    tag_79:\n        /* \"#utility.yul\":19566:19572   */\n      0x00\n        /* \"#utility.yul\":19615:19617   */\n      0x20\n        /* \"#utility.yul\":19603:19612   */\n      dup3\n        /* \"#utility.yul\":19594:19601   */\n      dup5\n        /* \"#utility.yul\":19590:19613   */\n      sub\n        /* \"#utility.yul\":19586:19618   */\n      slt\n        /* \"#utility.yul\":19583:19702   */\n      iszero\n      tag_372\n      jumpi\n        /* \"#utility.yul\":19621:19700   */\n      tag_373\n      tag_100\n      jump\t// in\n    tag_373:\n        /* \"#utility.yul\":19583:19702   */\n    tag_372:\n        /* \"#utility.yul\":19762:19763   */\n      0x00\n        /* \"#utility.yul\":19751:19760   */\n      dup3\n        /* \"#utility.yul\":19747:19764   */\n      add\n        /* \"#utility.yul\":19741:19765   */\n      mload\n        /* \"#utility.yul\":19792:19810   */\n      0xffffffffffffffff\n        /* \"#utility.yul\":19784:19790   */\n      dup2\n        /* \"#utility.yul\":19781:19811   */\n      gt\n        /* \"#utility.yul\":19778:19895   */\n      iszero\n      tag_374\n      jumpi\n        /* \"#utility.yul\":19814:19893   */\n      tag_375\n      tag_101\n      jump\t// in\n    tag_375:\n        /* \"#utility.yul\":19778:19895   */\n    tag_374:\n        /* \"#utility.yul\":19919:20008   */\n      tag_376\n        /* \"#utility.yul\":20000:20007   */\n      dup5\n        /* \"#utility.yul\":19991:19997   */\n      dup3\n        /* \"#utility.yul\":19980:19989   */\n      dup6\n        /* \"#utility.yul\":19976:19998   */\n      add\n        /* \"#utility.yul\":19919:20008   */\n      tag_149\n      jump\t// in\n    tag_376:\n        /* \"#utility.yul\":19909:20008   */\n      swap2\n      pop\n        /* \"#utility.yul\":19712:20018   */\n      pop\n        /* \"#utility.yul\":19471:20025   */\n      swap3\n      swap2\n      pop\n      pop\n      jump\t// out\n        /* \"#utility.yul\":20031:20211   */\n    tag_82:\n        /* \"#utility.yul\":20079:20156   */\n      0x4e487b7100000000000000000000000000000000000000000000000000000000\n        /* \"#utility.yul\":20076:20077   */\n      0x00\n        /* \"#utility.yul\":20069:20157   */\n      mstore\n        /* \"#utility.yul\":20176:20180   */\n      0x32\n        /* \"#utility.yul\":20173:20174   */\n      0x04\n        /* \"#utility.yul\":20166:20181   */\n      mstore\n        /* \"#utility.yul\":20200:20204   */\n      0x24\n        /* \"#utility.yul\":20197:20198   */\n      0x00\n        /* \"#utility.yul\":20190:20205   */\n      revert\n        /* \"#utility.yul\":20217:20277   */\n    tag_150:\n        /* \"#utility.yul\":20245:20248   */\n      0x00\n        /* \"#utility.yul\":20266:20271   */\n      dup2\n        /* \"#utility.yul\":20259:20271   */\n      swap1\n      pop\n        /* \"#utility.yul\":20217:20277   */\n      swap2\n      swap1\n      pop\n      jump\t// out\n        /* \"#utility.yul\":20283:20425   */\n    tag_151:\n        /* \"#utility.yul\":20333:20342   */\n      0x00\n        /* \"#utility.yul\":20366:20419   */\n      tag_380\n        /* \"#utility.yul\":20384:20418   */\n      tag_381\n        /* \"#utility.yul\":20393:20417   */\n      tag_382\n        /* \"#utility.yul\":20411:20416   */\n      dup5\n        /* \"#utility.yul\":20393:20417   */\n      tag_102\n      jump\t// in\n    tag_382:\n        /* \"#utility.yul\":20384:20418   */\n      tag_150\n      jump\t// in\n    tag_381:\n        /* \"#utility.yul\":20366:20419   */\n      tag_102\n      jump\t// in\n    tag_380:\n        /* \"#utility.yul\":20353:20419   */\n      swap1\n      pop\n        /* \"#utility.yul\":20283:20425   */\n      swap2\n      swap1\n      pop\n      jump\t// out\n        /* \"#utility.yul\":20431:20557   */\n    tag_152:\n        /* \"#utility.yul\":20481:20490   */\n      0x00\n        /* \"#utility.yul\":20514:20551   */\n      tag_384\n        /* \"#utility.yul\":20545:20550   */\n      dup3\n        /* \"#utility.yul\":20514:20551   */\n      tag_151\n      jump\t// in\n    tag_384:\n        /* \"#utility.yul\":20501:20551   */\n      swap1\n      pop\n        /* \"#utility.yul\":20431:20557   */\n      swap2\n      swap1\n      pop\n      jump\t// out\n        /* \"#utility.yul\":20563:20700   */\n    tag_153:\n        /* \"#utility.yul\":20624:20633   */\n      0x00\n        /* \"#utility.yul\":20657:20694   */\n      tag_386\n        /* \"#utility.yul\":20688:20693   */\n      dup3\n        /* \"#utility.yul\":20657:20694   */\n      tag_152\n      jump\t// in\n    tag_386:\n        /* \"#utility.yul\":20644:20694   */\n      swap1\n      pop\n        /* \"#utility.yul\":20563:20700   */\n      swap2\n      swap1\n      pop\n      jump\t// out\n        /* \"#utility.yul\":20706:20859   */\n    tag_154:\n        /* \"#utility.yul\":20804:20852   */\n      tag_388\n        /* \"#utility.yul\":20846:20851   */\n      dup2\n        /* \"#utility.yul\":20804:20852   */\n      tag_153\n      jump\t// in\n    tag_388:\n        /* \"#utility.yul\":20799:20802   */\n      dup3\n        /* \"#utility.yul\":20792:20853   */\n      mstore\n        /* \"#utility.yul\":20706:20859   */\n      pop\n      pop\n      jump\t// out\n        /* \"#utility.yul\":20865:21219   */\n    tag_84:\n        /* \"#utility.yul\":20997:21001   */\n      0x00\n        /* \"#utility.yul\":21035:21037   */\n      0x40\n        /* \"#utility.yul\":21024:21033   */\n      dup3\n        /* \"#utility.yul\":21020:21038   */\n      add\n        /* \"#utility.yul\":21012:21038   */\n      swap1\n      pop\n        /* \"#utility.yul\":21048:21119   */\n      tag_390\n        /* \"#utility.yul\":21116:21117   */\n      0x00\n        /* \"#utility.yul\":21105:21114   */\n      dup4\n        /* \"#utility.yul\":21101:21118   */\n      add\n        /* \"#utility.yul\":21092:21098   */\n      dup6\n        /* \"#utility.yul\":21048:21119   */\n      tag_131\n      jump\t// in\n    tag_390:\n        /* \"#utility.yul\":21129:21212   */\n      tag_391\n        /* \"#utility.yul\":21208:21210   */\n      0x20\n        /* \"#utility.yul\":21197:21206   */\n      dup4\n        /* \"#utility.yul\":21193:21211   */\n      add\n        /* \"#utility.yul\":21184:21190   */\n      dup5\n        /* \"#utility.yul\":21129:21212   */\n      tag_154\n      jump\t// in\n    tag_391:\n        /* \"#utility.yul\":20865:21219   */\n      swap4\n      swap3\n      pop\n      pop\n      pop\n      jump\t// out\n        /* \"#utility.yul\":21225:21770   */\n    tag_92:\n        /* \"#utility.yul\":21398:21402   */\n      0x00\n        /* \"#utility.yul\":21436:21439   */\n      0x80\n        /* \"#utility.yul\":21425:21434   */\n      dup3\n        /* \"#utility.yul\":21421:21440   */\n      add\n        /* \"#utility.yul\":21413:21440   */\n      swap1\n      pop\n        /* \"#utility.yul\":21450:21521   */\n      tag_393\n        /* \"#utility.yul\":21518:21519   */\n      0x00\n        /* \"#utility.yul\":21507:21516   */\n      dup4\n        /* \"#utility.yul\":21503:21520   */\n      add\n        /* \"#utility.yul\":21494:21500   */\n      dup8\n        /* \"#utility.yul\":21450:21521   */\n      tag_132\n      jump\t// in\n    tag_393:\n        /* \"#utility.yul\":21531:21599   */\n      tag_394\n        /* \"#utility.yul\":21595:21597   */\n      0x20\n        /* \"#utility.yul\":21584:21593   */\n      dup4\n        /* \"#utility.yul\":21580:21598   */\n      add\n        /* \"#utility.yul\":21571:21577   */\n      dup7\n        /* \"#utility.yul\":21531:21599   */\n      tag_134\n      jump\t// in\n    tag_394:\n        /* \"#utility.yul\":21609:21681   */\n      tag_395\n        /* \"#utility.yul\":21677:21679   */\n      0x40\n        /* \"#utility.yul\":21666:21675   */\n      dup4\n        /* \"#utility.yul\":21662:21680   */\n      add\n        /* \"#utility.yul\":21653:21659   */\n      dup6\n        /* \"#utility.yul\":21609:21681   */\n      tag_132\n      jump\t// in\n    tag_395:\n        /* \"#utility.yul\":21691:21763   */\n      tag_396\n        /* \"#utility.yul\":21759:21761   */\n      0x60\n        /* \"#utility.yul\":21748:21757   */\n      dup4\n        /* \"#utility.yul\":21744:21762   */\n      add\n        /* \"#utility.yul\":21735:21741   */\n      dup5\n        /* \"#utility.yul\":21691:21763   */\n      tag_132\n      jump\t// in\n    tag_396:\n        /* \"#utility.yul\":21225:21770   */\n      swap6\n      swap5\n      pop\n      pop\n      pop\n      pop\n      pop\n      jump\t// out\n        /* \"#utility.yul\":21776:21950   */\n    tag_155:\n        /* \"#utility.yul\":21916:21942   */\n      0x696e76616c6964207369676e6174757265206c656e6774680000000000000000\n        /* \"#utility.yul\":21912:21913   */\n      0x00\n        /* \"#utility.yul\":21904:21910   */\n      dup3\n        /* \"#utility.yul\":21900:21914   */\n      add\n        /* \"#utility.yul\":21893:21943   */\n      mstore\n        /* \"#utility.yul\":21776:21950   */\n      pop\n      jump\t// out\n        /* \"#utility.yul\":21956:22322   */\n    tag_156:\n        /* \"#utility.yul\":22098:22101   */\n      0x00\n        /* \"#utility.yul\":22119:22186   */\n      tag_399\n        /* \"#utility.yul\":22183:22185   */\n      0x18\n        /* \"#utility.yul\":22178:22181   */\n      dup4\n        /* \"#utility.yul\":22119:22186   */\n      tag_136\n      jump\t// in\n    tag_399:\n        /* \"#utility.yul\":22112:22186   */\n      swap2\n      pop\n        /* \"#utility.yul\":22195:22288   */\n      tag_400\n        /* \"#utility.yul\":22284:22287   */\n      dup3\n        /* \"#utility.yul\":22195:22288   */\n      tag_155\n      jump\t// in\n    tag_400:\n        /* \"#utility.yul\":22313:22315   */\n      0x20\n        /* \"#utility.yul\":22308:22311   */\n      dup3\n        /* \"#utility.yul\":22304:22316   */\n      add\n        /* \"#utility.yul\":22297:22316   */\n      swap1\n      pop\n        /* \"#utility.yul\":21956:22322   */\n      swap2\n      swap1\n      pop\n      jump\t// out\n        /* \"#utility.yul\":22328:22747   */\n    tag_98:\n        /* \"#utility.yul\":22494:22498   */\n      0x00\n        /* \"#utility.yul\":22532:22534   */\n      0x20\n        /* \"#utility.yul\":22521:22530   */\n      dup3\n        /* \"#utility.yul\":22517:22535   */\n      add\n        /* \"#utility.yul\":22509:22535   */\n      swap1\n      pop\n        /* \"#utility.yul\":22581:22590   */\n      dup2\n        /* \"#utility.yul\":22575:22579   */\n      dup2\n        /* \"#utility.yul\":22571:22591   */\n      sub\n        /* \"#utility.yul\":22567:22568   */\n      0x00\n        /* \"#utility.yul\":22556:22565   */\n      dup4\n        /* \"#utility.yul\":22552:22569   */\n      add\n        /* \"#utility.yul\":22545:22592   */\n      mstore\n        /* \"#utility.yul\":22609:22740   */\n      tag_402\n        /* \"#utility.yul\":22735:22739   */\n      dup2\n        /* \"#utility.yul\":22609:22740   */\n      tag_156\n      jump\t// in\n    tag_402:\n        /* \"#utility.yul\":22601:22740   */\n      swap1\n      pop\n        /* \"#utility.yul\":22328:22747   */\n      swap2\n      swap1\n      pop\n      jump\t// out\n\n    auxdata: 0xa264697066735822122087c9abaa722961fa806f229910afefe5fecfca84b224b7229b8b6b23e9a49d9464736f6c63430008090033\n}\n",
    "bytecode": {
      "linkReferences": {},
      "object": "60806040523480156200001157600080fd5b506040516200154f3803806200154f8339818101604052810190620000379190620000e5565b336000806101000a81548173ffffffffffffffffffffffffffffffffffffffff021916908373ffffffffffffffffffffffffffffffffffffffff1602179055508060018190555060006005819055506000600681905550600060078190555060006008819055505062000117565b600080fd5b6000819050919050565b620000bf81620000aa565b8114620000cb57600080fd5b50565b600081519050620000df81620000b4565b92915050565b600060208284031215620000fe57620000fd620000a5565b5b60006200010e84828501620000ce565b91505092915050565b61142880620001276000396000f3fe6080604052600436106100555760003560e01c8063524f685b1461005a5780635f92576f1461008a57806381a77211146100b55780638b52a81e146100f257806397aba7f91461011b578063a7bb580314610158575b600080fd5b610074600480360381019061006f9190610aa1565b610197565b6040516100819190610b81565b60405180910390f35b34801561009657600080fd5b5061009f61042c565b6040516100ac9190610bab565b60405180910390f35b3480156100c157600080fd5b506100dc60048036038101906100d79190610c04565b610431565b6040516100e99190610b81565b60405180910390f35b3480156100fe57600080fd5b5061011960048036038101906101149190610cde565b610729565b005b34801561012757600080fd5b50610142600480360381019061013d9190610d54565b61073b565b60405161014f9190610dbf565b60405180910390f35b34801561016457600080fd5b5061017f600480360381019061017a9190610dda565b6107aa565b60405161018e93929190610e4e565b60405180910390f35b60008573ffffffffffffffffffffffffffffffffffffffff168773ffffffffffffffffffffffffffffffffffffffff167f4b1f0b953401e89b9bae9f9364e94a9ca1573e110dfc7a85a1144622234927c4878787876040516101fc9493929190610f62565b60405180910390a36000600960008873ffffffffffffffffffffffffffffffffffffffff1673ffffffffffffffffffffffffffffffffffffffff16815260200190815260200160002060009054906101000a900473ffffffffffffffffffffffffffffffffffffffff1673ffffffffffffffffffffffffffffffffffffffff1663a35f8a40888888886040518563ffffffff1660e01b81526004016102a49493929190610fb5565b602060405180830381600087803b1580156102be57600080fd5b505af11580156102d2573d6000803e3d6000fd5b505050506040513d601f19601f820116820180604052508101906102f69190611016565b90506000600960008973ffffffffffffffffffffffffffffffffffffffff1673ffffffffffffffffffffffffffffffffffffffff16815260200190815260200160002060009054906101000a900473ffffffffffffffffffffffffffffffffffffffff1673ffffffffffffffffffffffffffffffffffffffff1663fa540801836040518263ffffffff1660e01b81526004016103929190611043565b602060405180830381600087803b1580156103ac57600080fd5b505af11580156103c0573d6000803e3d6000fd5b505050506040513d601f19601f820116820180604052508101906103e49190611016565b90508873ffffffffffffffffffffffffffffffffffffffff16610407828661073b565b73ffffffffffffffffffffffffffffffffffffffff1614925050509695505050505050565b600090565b60008180600454111561044357600080fd5b60003073ffffffffffffffffffffffffffffffffffffffff1663524f685b8b8b8b8b8b8b6040518763ffffffff1660e01b81526004016104889695949392919061105e565b602060405180830381600087803b1580156104a257600080fd5b505af11580156104b6573d6000803e3d6000fd5b505050506040513d601f19601f820116820180604052508101906104da91906110f9565b90508015610717578873ffffffffffffffffffffffffffffffffffffffff163373ffffffffffffffffffffffffffffffffffffffff167f2438dda936916df59ce988b38486cd61d296543c05ef5253a82e5a1ef485148b8a8a8a60405161054393929190611126565b60405180910390a360008a73ffffffffffffffffffffffffffffffffffffffff1663e061646b6040518163ffffffff1660e01b815260040160006040518083038186803b15801561059357600080fd5b505afa1580156105a7573d6000803e3d6000fd5b505050506040513d6000823e3d601f19601f820116820180604052508101906105d09190611241565b905033818251815181106105e7576105e661128a565b5b602002602001019073ffffffffffffffffffffffffffffffffffffffff16908173ffffffffffffffffffffffffffffffffffffffff16815250508a73ffffffffffffffffffffffffffffffffffffffff1663b425092233306040518363ffffffff1660e01b815260040161065c929190611318565b600060405180830381600087803b15801561067657600080fd5b505af115801561068a573d6000803e3d6000fd5b505050508a600960008c73ffffffffffffffffffffffffffffffffffffffff1673ffffffffffffffffffffffffffffffffffffffff16815260200190815260200160002060006101000a81548173ffffffffffffffffffffffffffffffffffffffff021916908373ffffffffffffffffffffffffffffffffffffffff16021790555060019350505061071d565b60009250505b50979650505050505050565b81600281905550806003819055505050565b60008060008061074a856107aa565b925092509250600186828585604051600081526020016040526040516107739493929190611341565b6020604051602081039080840390855afa158015610795573d6000803e3d6000fd5b50505060206040510351935050505092915050565b600080600060418451146107f3576040517f08c379a00000000000000000000000000000000000000000000000000000000081526004016107ea906113d2565b60405180910390fd5b6020840151925060408401519150606084015160001a90509193909250565b6000604051905090565b600080fd5b600080fd5b600073ffffffffffffffffffffffffffffffffffffffff82169050919050565b600061085182610826565b9050919050565b61086181610846565b811461086c57600080fd5b50565b60008135905061087e81610858565b92915050565b6000819050919050565b61089781610884565b81146108a257600080fd5b50565b6000813590506108b48161088e565b92915050565b600080fd5b600080fd5b6000601f19601f8301169050919050565b7f4e487b7100000000000000000000000000000000000000000000000000000000600052604160045260246000fd5b61090d826108c4565b810181811067ffffffffffffffff8211171561092c5761092b6108d5565b5b80604052505050565b600061093f610812565b905061094b8282610904565b919050565b600067ffffffffffffffff82111561096b5761096a6108d5565b5b610974826108c4565b9050602081019050919050565b82818337600083830152505050565b60006109a361099e84610950565b610935565b9050828152602081018484840111156109bf576109be6108bf565b5b6109ca848285610981565b509392505050565b600082601f8301126109e7576109e66108ba565b5b81356109f7848260208601610990565b91505092915050565b600067ffffffffffffffff821115610a1b57610a1a6108d5565b5b610a24826108c4565b9050602081019050919050565b6000610a44610a3f84610a00565b610935565b905082815260208101848484011115610a6057610a5f6108bf565b5b610a6b848285610981565b509392505050565b600082601f830112610a8857610a876108ba565b5b8135610a98848260208601610a31565b91505092915050565b60008060008060008060c08789031215610abe57610abd61081c565b5b6000610acc89828a0161086f565b9650506020610add89828a0161086f565b9550506040610aee89828a016108a5565b945050606087013567ffffffffffffffff811115610b0f57610b0e610821565b5b610b1b89828a016109d2565b9350506080610b2c89828a016108a5565b92505060a087013567ffffffffffffffff811115610b4d57610b4c610821565b5b610b5989828a01610a73565b9150509295509295509295565b60008115159050919050565b610b7b81610b66565b82525050565b6000602082019050610b966000830184610b72565b92915050565b610ba581610884565b82525050565b6000602082019050610bc06000830184610b9c565b92915050565b6000610bd182610846565b9050919050565b610be181610bc6565b8114610bec57600080fd5b50565b600081359050610bfe81610bd8565b92915050565b600080600080600080600060e0888a031215610c2357610c2261081c565b5b6000610c318a828b01610bef565b9750506020610c428a828b0161086f565b9650506040610c538a828b016108a5565b955050606088013567ffffffffffffffff811115610c7457610c73610821565b5b610c808a828b016109d2565b9450506080610c918a828b016108a5565b93505060a088013567ffffffffffffffff811115610cb257610cb1610821565b5b610cbe8a828b01610a73565b92505060c0610ccf8a828b016108a5565b91505092959891949750929550565b60008060408385031215610cf557610cf461081c565b5b6000610d03858286016108a5565b9250506020610d14858286016108a5565b9150509250929050565b6000819050919050565b610d3181610d1e565b8114610d3c57600080fd5b50565b600081359050610d4e81610d28565b92915050565b60008060408385031215610d6b57610d6a61081c565b5b6000610d7985828601610d3f565b925050602083013567ffffffffffffffff811115610d9a57610d99610821565b5b610da685828601610a73565b9150509250929050565b610db981610846565b82525050565b6000602082019050610dd46000830184610db0565b92915050565b600060208284031215610df057610def61081c565b5b600082013567ffffffffffffffff811115610e0e57610e0d610821565b5b610e1a84828501610a73565b91505092915050565b610e2c81610d1e565b82525050565b600060ff82169050919050565b610e4881610e32565b82525050565b6000606082019050610e636000830186610e23565b610e706020830185610e23565b610e7d6040830184610e3f565b949350505050565b600081519050919050565b600082825260208201905092915050565b60005b83811015610ebf578082015181840152602081019050610ea4565b83811115610ece576000848401525b50505050565b6000610edf82610e85565b610ee98185610e90565b9350610ef9818560208601610ea1565b610f02816108c4565b840191505092915050565b600081519050919050565b600082825260208201905092915050565b6000610f3482610f0d565b610f3e8185610f18565b9350610f4e818560208601610ea1565b610f57816108c4565b840191505092915050565b6000608082019050610f776000830187610b9c565b8181036020830152610f898186610ed4565b9050610f986040830185610b9c565b8181036060830152610faa8184610f29565b905095945050505050565b6000608082019050610fca6000830187610db0565b610fd76020830186610b9c565b8181036040830152610fe98185610ed4565b9050610ff86060830184610b9c565b95945050505050565b60008151905061101081610d28565b92915050565b60006020828403121561102c5761102b61081c565b5b600061103a84828501611001565b91505092915050565b60006020820190506110586000830184610e23565b92915050565b600060c0820190506110736000830189610db0565b6110806020830188610db0565b61108d6040830187610b9c565b818103606083015261109f8186610ed4565b90506110ae6080830185610b9c565b81810360a08301526110c08184610f29565b9050979650505050505050565b6110d681610b66565b81146110e157600080fd5b50565b6000815190506110f3816110cd565b92915050565b60006020828403121561110f5761110e61081c565b5b600061111d848285016110e4565b91505092915050565b600060608201905061113b6000830186610b9c565b818103602083015261114d8185610ed4565b905061115c6040830184610b9c565b949350505050565b600067ffffffffffffffff82111561117f5761117e6108d5565b5b602082029050602081019050919050565b600080fd5b6000815190506111a481610858565b92915050565b60006111bd6111b884611164565b610935565b905080838252602082019050602084028301858111156111e0576111df611190565b5b835b8181101561120957806111f58882611195565b8452602084019350506020810190506111e2565b5050509392505050565b600082601f830112611228576112276108ba565b5b81516112388482602086016111aa565b91505092915050565b6000602082840312156112575761125661081c565b5b600082015167ffffffffffffffff81111561127557611274610821565b5b61128184828501611213565b91505092915050565b7f4e487b7100000000000000000000000000000000000000000000000000000000600052603260045260246000fd5b6000819050919050565b60006112de6112d96112d484610826565b6112b9565b610826565b9050919050565b60006112f0826112c3565b9050919050565b6000611302826112e5565b9050919050565b611312816112f7565b82525050565b600060408201905061132d6000830185610db0565b61133a6020830184611309565b9392505050565b60006080820190506113566000830187610e23565b6113636020830186610e3f565b6113706040830185610e23565b61137d6060830184610e23565b95945050505050565b7f696e76616c6964207369676e6174757265206c656e6774680000000000000000600082015250565b60006113bc601883610e90565b91506113c782611386565b602082019050919050565b600060208201905081810360008301526113eb816113af565b905091905056fea264697066735822122087c9abaa722961fa806f229910afefe5fecfca84b224b7229b8b6b23e9a49d9464736f6c63430008090033",
      "opcodes": "PUSH1 0x80 PUSH1 0x40 MSTORE CALLVALUE DUP1 ISZERO PUSH3 0x11 JUMPI PUSH1 0x0 DUP1 REVERT JUMPDEST POP PUSH1 0x40 MLOAD PUSH3 0x154F CODESIZE SUB DUP1 PUSH3 0x154F DUP4 CODECOPY DUP2 DUP2 ADD PUSH1 0x40 MSTORE DUP2 ADD SWAP1 PUSH3 0x37 SWAP2 SWAP1 PUSH3 0xE5 JUMP JUMPDEST CALLER PUSH1 0x0 DUP1 PUSH2 0x100 EXP DUP2 SLOAD DUP2 PUSH20 0xFFFFFFFFFFFFFFFFFFFFFFFFFFFFFFFFFFFFFFFF MUL NOT AND SWAP1 DUP4 PUSH20 0xFFFFFFFFFFFFFFFFFFFFFFFFFFFFFFFFFFFFFFFF AND MUL OR SWAP1 SSTORE POP DUP1 PUSH1 0x1 DUP2 SWAP1 SSTORE POP PUSH1 0x0 PUSH1 0x5 DUP2 SWAP1 SSTORE POP PUSH1 0x0 PUSH1 0x6 DUP2 SWAP1 SSTORE POP PUSH1 0x0 PUSH1 0x7 DUP2 SWAP1 SSTORE POP PUSH1 0x0 PUSH1 0x8 DUP2 SWAP1 SSTORE POP POP PUSH3 0x117 JUMP JUMPDEST PUSH1 0x0 DUP1 REVERT JUMPDEST PUSH1 0x0 DUP2 SWAP1 POP SWAP2 SWAP1 POP JUMP JUMPDEST PUSH3 0xBF DUP2 PUSH3 0xAA JUMP JUMPDEST DUP2 EQ PUSH3 0xCB JUMPI PUSH1 0x0 DUP1 REVERT JUMPDEST POP JUMP JUMPDEST PUSH1 0x0 DUP2 MLOAD SWAP1 POP PUSH3 0xDF DUP2 PUSH3 0xB4 JUMP JUMPDEST SWAP3 SWAP2 POP POP JUMP JUMPDEST PUSH1 0x0 PUSH1 0x20 DUP3 DUP5 SUB SLT ISZERO PUSH3 0xFE JUMPI PUSH3 0xFD PUSH3 0xA5 JUMP JUMPDEST JUMPDEST PUSH1 0x0 PUSH3 0x10E DUP5 DUP3 DUP6 ADD PUSH3 0xCE JUMP JUMPDEST SWAP2 POP POP SWAP3 SWAP2 POP POP JUMP JUMPDEST PUSH2 0x1428 DUP1 PUSH3 0x127 PUSH1 0x0 CODECOPY PUSH1 0x0 RETURN INVALID PUSH1 0x80 PUSH1 0x40 MSTORE PUSH1 0x4 CALLDATASIZE LT PUSH2 0x55 JUMPI PUSH1 0x0 CALLDATALOAD PUSH1 0xE0 SHR DUP1 PUSH4 0x524F685B EQ PUSH2 0x5A JUMPI DUP1 PUSH4 0x5F92576F EQ PUSH2 0x8A JUMPI DUP1 PUSH4 0x81A77211 EQ PUSH2 0xB5 JUMPI DUP1 PUSH4 0x8B52A81E EQ PUSH2 0xF2 JUMPI DUP1 PUSH4 0x97ABA7F9 EQ PUSH2 0x11B JUMPI DUP1 PUSH4 0xA7BB5803 EQ PUSH2 0x158 JUMPI JUMPDEST PUSH1 0x0 DUP1 REVERT JUMPDEST PUSH2 0x74 PUSH1 0x4 DUP1 CALLDATASIZE SUB DUP2 ADD SWAP1 PUSH2 0x6F SWAP2 SWAP1 PUSH2 0xAA1 JUMP JUMPDEST PUSH2 0x197 JUMP JUMPDEST PUSH1 0x40 MLOAD PUSH2 0x81 SWAP2 SWAP1 PUSH2 0xB81 JUMP JUMPDEST PUSH1 0x40 MLOAD DUP1 SWAP2 SUB SWAP1 RETURN JUMPDEST CALLVALUE DUP1 ISZERO PUSH2 0x96 JUMPI PUSH1 0x0 DUP1 REVERT JUMPDEST POP PUSH2 0x9F PUSH2 0x42C JUMP JUMPDEST PUSH1 0x40 MLOAD PUSH2 0xAC SWAP2 SWAP1 PUSH2 0xBAB JUMP JUMPDEST PUSH1 0x40 MLOAD DUP1 SWAP2 SUB SWAP1 RETURN JUMPDEST CALLVALUE DUP1 ISZERO PUSH2 0xC1 JUMPI PUSH1 0x0 DUP1 REVERT JUMPDEST POP PUSH2 0xDC PUSH1 0x4 DUP1 CALLDATASIZE SUB DUP2 ADD SWAP1 PUSH2 0xD7 SWAP2 SWAP1 PUSH2 0xC04 JUMP JUMPDEST PUSH2 0x431 JUMP JUMPDEST PUSH1 0x40 MLOAD PUSH2 0xE9 SWAP2 SWAP1 PUSH2 0xB81 JUMP JUMPDEST PUSH1 0x40 MLOAD DUP1 SWAP2 SUB SWAP1 RETURN JUMPDEST CALLVALUE DUP1 ISZERO PUSH2 0xFE JUMPI PUSH1 0x0 DUP1 REVERT JUMPDEST POP PUSH2 0x119 PUSH1 0x4 DUP1 CALLDATASIZE SUB DUP2 ADD SWAP1 PUSH2 0x114 SWAP2 SWAP1 PUSH2 0xCDE JUMP JUMPDEST PUSH2 0x729 JUMP JUMPDEST STOP JUMPDEST CALLVALUE DUP1 ISZERO PUSH2 0x127 JUMPI PUSH1 0x0 DUP1 REVERT JUMPDEST POP PUSH2 0x142 PUSH1 0x4 DUP1 CALLDATASIZE SUB DUP2 ADD SWAP1 PUSH2 0x13D SWAP2 SWAP1 PUSH2 0xD54 JUMP JUMPDEST PUSH2 0x73B JUMP JUMPDEST PUSH1 0x40 MLOAD PUSH2 0x14F SWAP2 SWAP1 PUSH2 0xDBF JUMP JUMPDEST PUSH1 0x40 MLOAD DUP1 SWAP2 SUB SWAP1 RETURN JUMPDEST CALLVALUE DUP1 ISZERO PUSH2 0x164 JUMPI PUSH1 0x0 DUP1 REVERT JUMPDEST POP PUSH2 0x17F PUSH1 0x4 DUP1 CALLDATASIZE SUB DUP2 ADD SWAP1 PUSH2 0x17A SWAP2 SWAP1 PUSH2 0xDDA JUMP JUMPDEST PUSH2 0x7AA JUMP JUMPDEST PUSH1 0x40 MLOAD PUSH2 0x18E SWAP4 SWAP3 SWAP2 SWAP1 PUSH2 0xE4E JUMP JUMPDEST PUSH1 0x40 MLOAD DUP1 SWAP2 SUB SWAP1 RETURN JUMPDEST PUSH1 0x0 DUP6 PUSH20 0xFFFFFFFFFFFFFFFFFFFFFFFFFFFFFFFFFFFFFFFF AND DUP8 PUSH20 0xFFFFFFFFFFFFFFFFFFFFFFFFFFFFFFFFFFFFFFFF AND PUSH32 0x4B1F0B953401E89B9BAE9F9364E94A9CA1573E110DFC7A85A1144622234927C4 DUP8 DUP8 DUP8 DUP8 PUSH1 0x40 MLOAD PUSH2 0x1FC SWAP5 SWAP4 SWAP3 SWAP2 SWAP1 PUSH2 0xF62 JUMP JUMPDEST PUSH1 0x40 MLOAD DUP1 SWAP2 SUB SWAP1 LOG3 PUSH1 0x0 PUSH1 0x9 PUSH1 0x0 DUP9 PUSH20 0xFFFFFFFFFFFFFFFFFFFFFFFFFFFFFFFFFFFFFFFF AND PUSH20 0xFFFFFFFFFFFFFFFFFFFFFFFFFFFFFFFFFFFFFFFF AND DUP2 MSTORE PUSH1 0x20 ADD SWAP1 DUP2 MSTORE PUSH1 0x20 ADD PUSH1 0x0 KECCAK256 PUSH1 0x0 SWAP1 SLOAD SWAP1 PUSH2 0x100 EXP SWAP1 DIV PUSH20 0xFFFFFFFFFFFFFFFFFFFFFFFFFFFFFFFFFFFFFFFF AND PUSH20 0xFFFFFFFFFFFFFFFFFFFFFFFFFFFFFFFFFFFFFFFF AND PUSH4 0xA35F8A40 DUP9 DUP9 DUP9 DUP9 PUSH1 0x40 MLOAD DUP6 PUSH4 0xFFFFFFFF AND PUSH1 0xE0 SHL DUP2 MSTORE PUSH1 0x4 ADD PUSH2 0x2A4 SWAP5 SWAP4 SWAP3 SWAP2 SWAP1 PUSH2 0xFB5 JUMP JUMPDEST PUSH1 0x20 PUSH1 0x40 MLOAD DUP1 DUP4 SUB DUP2 PUSH1 0x0 DUP8 DUP1 EXTCODESIZE ISZERO DUP1 ISZERO PUSH2 0x2BE JUMPI PUSH1 0x0 DUP1 REVERT JUMPDEST POP GAS CALL ISZERO DUP1 ISZERO PUSH2 0x2D2 JUMPI RETURNDATASIZE PUSH1 0x0 DUP1 RETURNDATACOPY RETURNDATASIZE PUSH1 0x0 REVERT JUMPDEST POP POP POP POP PUSH1 0x40 MLOAD RETURNDATASIZE PUSH1 0x1F NOT PUSH1 0x1F DUP3 ADD AND DUP3 ADD DUP1 PUSH1 0x40 MSTORE POP DUP2 ADD SWAP1 PUSH2 0x2F6 SWAP2 SWAP1 PUSH2 0x1016 JUMP JUMPDEST SWAP1 POP PUSH1 0x0 PUSH1 0x9 PUSH1 0x0 DUP10 PUSH20 0xFFFFFFFFFFFFFFFFFFFFFFFFFFFFFFFFFFFFFFFF AND PUSH20 0xFFFFFFFFFFFFFFFFFFFFFFFFFFFFFFFFFFFFFFFF AND DUP2 MSTORE PUSH1 0x20 ADD SWAP1 DUP2 MSTORE PUSH1 0x20 ADD PUSH1 0x0 KECCAK256 PUSH1 0x0 SWAP1 SLOAD SWAP1 PUSH2 0x100 EXP SWAP1 DIV PUSH20 0xFFFFFFFFFFFFFFFFFFFFFFFFFFFFFFFFFFFFFFFF AND PUSH20 0xFFFFFFFFFFFFFFFFFFFFFFFFFFFFFFFFFFFFFFFF AND PUSH4 0xFA540801 DUP4 PUSH1 0x40 MLOAD DUP3 PUSH4 0xFFFFFFFF AND PUSH1 0xE0 SHL DUP2 MSTORE PUSH1 0x4 ADD PUSH2 0x392 SWAP2 SWAP1 PUSH2 0x1043 JUMP JUMPDEST PUSH1 0x20 PUSH1 0x40 MLOAD DUP1 DUP4 SUB DUP2 PUSH1 0x0 DUP8 DUP1 EXTCODESIZE ISZERO DUP1 ISZERO PUSH2 0x3AC JUMPI PUSH1 0x0 DUP1 REVERT JUMPDEST POP GAS CALL ISZERO DUP1 ISZERO PUSH2 0x3C0 JUMPI RETURNDATASIZE PUSH1 0x0 DUP1 RETURNDATACOPY RETURNDATASIZE PUSH1 0x0 REVERT JUMPDEST POP POP POP POP PUSH1 0x40 MLOAD RETURNDATASIZE PUSH1 0x1F NOT PUSH1 0x1F DUP3 ADD AND DUP3 ADD DUP1 PUSH1 0x40 MSTORE POP DUP2 ADD SWAP1 PUSH2 0x3E4 SWAP2 SWAP1 PUSH2 0x1016 JUMP JUMPDEST SWAP1 POP DUP9 PUSH20 0xFFFFFFFFFFFFFFFFFFFFFFFFFFFFFFFFFFFFFFFF AND PUSH2 0x407 DUP3 DUP7 PUSH2 0x73B JUMP JUMPDEST PUSH20 0xFFFFFFFFFFFFFFFFFFFFFFFFFFFFFFFFFFFFFFFF AND EQ SWAP3 POP POP POP SWAP7 SWAP6 POP POP POP POP POP POP JUMP JUMPDEST PUSH1 0x0 SWAP1 JUMP JUMPDEST PUSH1 0x0 DUP2 DUP1 PUSH1 0x4 SLOAD GT ISZERO PUSH2 0x443 JUMPI PUSH1 0x0 DUP1 REVERT JUMPDEST PUSH1 0x0 ADDRESS PUSH20 0xFFFFFFFFFFFFFFFFFFFFFFFFFFFFFFFFFFFFFFFF AND PUSH4 0x524F685B DUP12 DUP12 DUP12 DUP12 DUP12 DUP12 PUSH1 0x40 MLOAD DUP8 PUSH4 0xFFFFFFFF AND PUSH1 0xE0 SHL DUP2 MSTORE PUSH1 0x4 ADD PUSH2 0x488 SWAP7 SWAP6 SWAP5 SWAP4 SWAP3 SWAP2 SWAP1 PUSH2 0x105E JUMP JUMPDEST PUSH1 0x20 PUSH1 0x40 MLOAD DUP1 DUP4 SUB DUP2 PUSH1 0x0 DUP8 DUP1 EXTCODESIZE ISZERO DUP1 ISZERO PUSH2 0x4A2 JUMPI PUSH1 0x0 DUP1 REVERT JUMPDEST POP GAS CALL ISZERO DUP1 ISZERO PUSH2 0x4B6 JUMPI RETURNDATASIZE PUSH1 0x0 DUP1 RETURNDATACOPY RETURNDATASIZE PUSH1 0x0 REVERT JUMPDEST POP POP POP POP PUSH1 0x40 MLOAD RETURNDATASIZE PUSH1 0x1F NOT PUSH1 0x1F DUP3 ADD AND DUP3 ADD DUP1 PUSH1 0x40 MSTORE POP DUP2 ADD SWAP1 PUSH2 0x4DA SWAP2 SWAP1 PUSH2 0x10F9 JUMP JUMPDEST SWAP1 POP DUP1 ISZERO PUSH2 0x717 JUMPI DUP9 PUSH20 0xFFFFFFFFFFFFFFFFFFFFFFFFFFFFFFFFFFFFFFFF AND CALLER PUSH20 0xFFFFFFFFFFFFFFFFFFFFFFFFFFFFFFFFFFFFFFFF AND PUSH32 0x2438DDA936916DF59CE988B38486CD61D296543C05EF5253A82E5A1EF485148B DUP11 DUP11 DUP11 PUSH1 0x40 MLOAD PUSH2 0x543 SWAP4 SWAP3 SWAP2 SWAP1 PUSH2 0x1126 JUMP JUMPDEST PUSH1 0x40 MLOAD DUP1 SWAP2 SUB SWAP1 LOG3 PUSH1 0x0 DUP11 PUSH20 0xFFFFFFFFFFFFFFFFFFFFFFFFFFFFFFFFFFFFFFFF AND PUSH4 0xE061646B PUSH1 0x40 MLOAD DUP2 PUSH4 0xFFFFFFFF AND PUSH1 0xE0 SHL DUP2 MSTORE PUSH1 0x4 ADD PUSH1 0x0 PUSH1 0x40 MLOAD DUP1 DUP4 SUB DUP2 DUP7 DUP1 EXTCODESIZE ISZERO DUP1 ISZERO PUSH2 0x593 JUMPI PUSH1 0x0 DUP1 REVERT JUMPDEST POP GAS STATICCALL ISZERO DUP1 ISZERO PUSH2 0x5A7 JUMPI RETURNDATASIZE PUSH1 0x0 DUP1 RETURNDATACOPY RETURNDATASIZE PUSH1 0x0 REVERT JUMPDEST POP POP POP POP PUSH1 0x40 MLOAD RETURNDATASIZE PUSH1 0x0 DUP3 RETURNDATACOPY RETURNDATASIZE PUSH1 0x1F NOT PUSH1 0x1F DUP3 ADD AND DUP3 ADD DUP1 PUSH1 0x40 MSTORE POP DUP2 ADD SWAP1 PUSH2 0x5D0 SWAP2 SWAP1 PUSH2 0x1241 JUMP JUMPDEST SWAP1 POP CALLER DUP2 DUP3 MLOAD DUP2 MLOAD DUP2 LT PUSH2 0x5E7 JUMPI PUSH2 0x5E6 PUSH2 0x128A JUMP JUMPDEST JUMPDEST PUSH1 0x20 MUL PUSH1 0x20 ADD ADD SWAP1 PUSH20 0xFFFFFFFFFFFFFFFFFFFFFFFFFFFFFFFFFFFFFFFF AND SWAP1 DUP2 PUSH20 0xFFFFFFFFFFFFFFFFFFFFFFFFFFFFFFFFFFFFFFFF AND DUP2 MSTORE POP POP DUP11 PUSH20 0xFFFFFFFFFFFFFFFFFFFFFFFFFFFFFFFFFFFFFFFF AND PUSH4 0xB4250922 CALLER ADDRESS PUSH1 0x40 MLOAD DUP4 PUSH4 0xFFFFFFFF AND PUSH1 0xE0 SHL DUP2 MSTORE PUSH1 0x4 ADD PUSH2 0x65C SWAP3 SWAP2 SWAP1 PUSH2 0x1318 JUMP JUMPDEST PUSH1 0x0 PUSH1 0x40 MLOAD DUP1 DUP4 SUB DUP2 PUSH1 0x0 DUP8 DUP1 EXTCODESIZE ISZERO DUP1 ISZERO PUSH2 0x676 JUMPI PUSH1 0x0 DUP1 REVERT JUMPDEST POP GAS CALL ISZERO DUP1 ISZERO PUSH2 0x68A JUMPI RETURNDATASIZE PUSH1 0x0 DUP1 RETURNDATACOPY RETURNDATASIZE PUSH1 0x0 REVERT JUMPDEST POP POP POP POP DUP11 PUSH1 0x9 PUSH1 0x0 DUP13 PUSH20 0xFFFFFFFFFFFFFFFFFFFFFFFFFFFFFFFFFFFFFFFF AND PUSH20 0xFFFFFFFFFFFFFFFFFFFFFFFFFFFFFFFFFFFFFFFF AND DUP2 MSTORE PUSH1 0x20 ADD SWAP1 DUP2 MSTORE PUSH1 0x20 ADD PUSH1 0x0 KECCAK256 PUSH1 0x0 PUSH2 0x100 EXP DUP2 SLOAD DUP2 PUSH20 0xFFFFFFFFFFFFFFFFFFFFFFFFFFFFFFFFFFFFFFFF MUL NOT AND SWAP1 DUP4 PUSH20 0xFFFFFFFFFFFFFFFFFFFFFFFFFFFFFFFFFFFFFFFF AND MUL OR SWAP1 SSTORE POP PUSH1 0x1 SWAP4 POP POP POP PUSH2 0x71D JUMP JUMPDEST PUSH1 0x0 SWAP3 POP POP JUMPDEST POP SWAP8 SWAP7 POP POP POP POP POP POP POP JUMP JUMPDEST DUP2 PUSH1 0x2 DUP2 SWAP1 SSTORE POP DUP1 PUSH1 0x3 DUP2 SWAP1 SSTORE POP POP POP JUMP JUMPDEST PUSH1 0x0 DUP1 PUSH1 0x0 DUP1 PUSH2 0x74A DUP6 PUSH2 0x7AA JUMP JUMPDEST SWAP3 POP SWAP3 POP SWAP3 POP PUSH1 0x1 DUP7 DUP3 DUP6 DUP6 PUSH1 0x40 MLOAD PUSH1 0x0 DUP2 MSTORE PUSH1 0x20 ADD PUSH1 0x40 MSTORE PUSH1 0x40 MLOAD PUSH2 0x773 SWAP5 SWAP4 SWAP3 SWAP2 SWAP1 PUSH2 0x1341 JUMP JUMPDEST PUSH1 0x20 PUSH1 0x40 MLOAD PUSH1 0x20 DUP2 SUB SWAP1 DUP1 DUP5 SUB SWAP1 DUP6 GAS STATICCALL ISZERO DUP1 ISZERO PUSH2 0x795 JUMPI RETURNDATASIZE PUSH1 0x0 DUP1 RETURNDATACOPY RETURNDATASIZE PUSH1 0x0 REVERT JUMPDEST POP POP POP PUSH1 0x20 PUSH1 0x40 MLOAD SUB MLOAD SWAP4 POP POP POP POP SWAP3 SWAP2 POP POP JUMP JUMPDEST PUSH1 0x0 DUP1 PUSH1 0x0 PUSH1 0x41 DUP5 MLOAD EQ PUSH2 0x7F3 JUMPI PUSH1 0x40 MLOAD PUSH32 0x8C379A000000000000000000000000000000000000000000000000000000000 DUP2 MSTORE PUSH1 0x4 ADD PUSH2 0x7EA SWAP1 PUSH2 0x13D2 JUMP JUMPDEST PUSH1 0x40 MLOAD DUP1 SWAP2 SUB SWAP1 REVERT JUMPDEST PUSH1 0x20 DUP5 ADD MLOAD SWAP3 POP PUSH1 0x40 DUP5 ADD MLOAD SWAP2 POP PUSH1 0x60 DUP5 ADD MLOAD PUSH1 0x0 BYTE SWAP1 POP SWAP2 SWAP4 SWAP1 SWAP3 POP JUMP JUMPDEST PUSH1 0x0 PUSH1 0x40 MLOAD SWAP1 POP SWAP1 JUMP JUMPDEST PUSH1 0x0 DUP1 REVERT JUMPDEST PUSH1 0x0 DUP1 REVERT JUMPDEST PUSH1 0x0 PUSH20 0xFFFFFFFFFFFFFFFFFFFFFFFFFFFFFFFFFFFFFFFF DUP3 AND SWAP1 POP SWAP2 SWAP1 POP JUMP JUMPDEST PUSH1 0x0 PUSH2 0x851 DUP3 PUSH2 0x826 JUMP JUMPDEST SWAP1 POP SWAP2 SWAP1 POP JUMP JUMPDEST PUSH2 0x861 DUP2 PUSH2 0x846 JUMP JUMPDEST DUP2 EQ PUSH2 0x86C JUMPI PUSH1 0x0 DUP1 REVERT JUMPDEST POP JUMP JUMPDEST PUSH1 0x0 DUP2 CALLDATALOAD SWAP1 POP PUSH2 0x87E DUP2 PUSH2 0x858 JUMP JUMPDEST SWAP3 SWAP2 POP POP JUMP JUMPDEST PUSH1 0x0 DUP2 SWAP1 POP SWAP2 SWAP1 POP JUMP JUMPDEST PUSH2 0x897 DUP2 PUSH2 0x884 JUMP JUMPDEST DUP2 EQ PUSH2 0x8A2 JUMPI PUSH1 0x0 DUP1 REVERT JUMPDEST POP JUMP JUMPDEST PUSH1 0x0 DUP2 CALLDATALOAD SWAP1 POP PUSH2 0x8B4 DUP2 PUSH2 0x88E JUMP JUMPDEST SWAP3 SWAP2 POP POP JUMP JUMPDEST PUSH1 0x0 DUP1 REVERT JUMPDEST PUSH1 0x0 DUP1 REVERT JUMPDEST PUSH1 0x0 PUSH1 0x1F NOT PUSH1 0x1F DUP4 ADD AND SWAP1 POP SWAP2 SWAP1 POP JUMP JUMPDEST PUSH32 0x4E487B7100000000000000000000000000000000000000000000000000000000 PUSH1 0x0 MSTORE PUSH1 0x41 PUSH1 0x4 MSTORE PUSH1 0x24 PUSH1 0x0 REVERT JUMPDEST PUSH2 0x90D DUP3 PUSH2 0x8C4 JUMP JUMPDEST DUP2 ADD DUP2 DUP2 LT PUSH8 0xFFFFFFFFFFFFFFFF DUP3 GT OR ISZERO PUSH2 0x92C JUMPI PUSH2 0x92B PUSH2 0x8D5 JUMP JUMPDEST JUMPDEST DUP1 PUSH1 0x40 MSTORE POP POP POP JUMP JUMPDEST PUSH1 0x0 PUSH2 0x93F PUSH2 0x812 JUMP JUMPDEST SWAP1 POP PUSH2 0x94B DUP3 DUP3 PUSH2 0x904 JUMP JUMPDEST SWAP2 SWAP1 POP JUMP JUMPDEST PUSH1 0x0 PUSH8 0xFFFFFFFFFFFFFFFF DUP3 GT ISZERO PUSH2 0x96B JUMPI PUSH2 0x96A PUSH2 0x8D5 JUMP JUMPDEST JUMPDEST PUSH2 0x974 DUP3 PUSH2 0x8C4 JUMP JUMPDEST SWAP1 POP PUSH1 0x20 DUP2 ADD SWAP1 POP SWAP2 SWAP1 POP JUMP JUMPDEST DUP3 DUP2 DUP4 CALLDATACOPY PUSH1 0x0 DUP4 DUP4 ADD MSTORE POP POP POP JUMP JUMPDEST PUSH1 0x0 PUSH2 0x9A3 PUSH2 0x99E DUP5 PUSH2 0x950 JUMP JUMPDEST PUSH2 0x935 JUMP JUMPDEST SWAP1 POP DUP3 DUP2 MSTORE PUSH1 0x20 DUP2 ADD DUP5 DUP5 DUP5 ADD GT ISZERO PUSH2 0x9BF JUMPI PUSH2 0x9BE PUSH2 0x8BF JUMP JUMPDEST JUMPDEST PUSH2 0x9CA DUP5 DUP3 DUP6 PUSH2 0x981 JUMP JUMPDEST POP SWAP4 SWAP3 POP POP POP JUMP JUMPDEST PUSH1 0x0 DUP3 PUSH1 0x1F DUP4 ADD SLT PUSH2 0x9E7 JUMPI PUSH2 0x9E6 PUSH2 0x8BA JUMP JUMPDEST JUMPDEST DUP2 CALLDATALOAD PUSH2 0x9F7 DUP5 DUP3 PUSH1 0x20 DUP7 ADD PUSH2 0x990 JUMP JUMPDEST SWAP2 POP POP SWAP3 SWAP2 POP POP JUMP JUMPDEST PUSH1 0x0 PUSH8 0xFFFFFFFFFFFFFFFF DUP3 GT ISZERO PUSH2 0xA1B JUMPI PUSH2 0xA1A PUSH2 0x8D5 JUMP JUMPDEST JUMPDEST PUSH2 0xA24 DUP3 PUSH2 0x8C4 JUMP JUMPDEST SWAP1 POP PUSH1 0x20 DUP2 ADD SWAP1 POP SWAP2 SWAP1 POP JUMP JUMPDEST PUSH1 0x0 PUSH2 0xA44 PUSH2 0xA3F DUP5 PUSH2 0xA00 JUMP JUMPDEST PUSH2 0x935 JUMP JUMPDEST SWAP1 POP DUP3 DUP2 MSTORE PUSH1 0x20 DUP2 ADD DUP5 DUP5 DUP5 ADD GT ISZERO PUSH2 0xA60 JUMPI PUSH2 0xA5F PUSH2 0x8BF JUMP JUMPDEST JUMPDEST PUSH2 0xA6B DUP5 DUP3 DUP6 PUSH2 0x981 JUMP JUMPDEST POP SWAP4 SWAP3 POP POP POP JUMP JUMPDEST PUSH1 0x0 DUP3 PUSH1 0x1F DUP4 ADD SLT PUSH2 0xA88 JUMPI PUSH2 0xA87 PUSH2 0x8BA JUMP JUMPDEST JUMPDEST DUP2 CALLDATALOAD PUSH2 0xA98 DUP5 DUP3 PUSH1 0x20 DUP7 ADD PUSH2 0xA31 JUMP JUMPDEST SWAP2 POP POP SWAP3 SWAP2 POP POP JUMP JUMPDEST PUSH1 0x0 DUP1 PUSH1 0x0 DUP1 PUSH1 0x0 DUP1 PUSH1 0xC0 DUP8 DUP10 SUB SLT ISZERO PUSH2 0xABE JUMPI PUSH2 0xABD PUSH2 0x81C JUMP JUMPDEST JUMPDEST PUSH1 0x0 PUSH2 0xACC DUP10 DUP3 DUP11 ADD PUSH2 0x86F JUMP JUMPDEST SWAP7 POP POP PUSH1 0x20 PUSH2 0xADD DUP10 DUP3 DUP11 ADD PUSH2 0x86F JUMP JUMPDEST SWAP6 POP POP PUSH1 0x40 PUSH2 0xAEE DUP10 DUP3 DUP11 ADD PUSH2 0x8A5 JUMP JUMPDEST SWAP5 POP POP PUSH1 0x60 DUP8 ADD CALLDATALOAD PUSH8 0xFFFFFFFFFFFFFFFF DUP2 GT ISZERO PUSH2 0xB0F JUMPI PUSH2 0xB0E PUSH2 0x821 JUMP JUMPDEST JUMPDEST PUSH2 0xB1B DUP10 DUP3 DUP11 ADD PUSH2 0x9D2 JUMP JUMPDEST SWAP4 POP POP PUSH1 0x80 PUSH2 0xB2C DUP10 DUP3 DUP11 ADD PUSH2 0x8A5 JUMP JUMPDEST SWAP3 POP POP PUSH1 0xA0 DUP8 ADD CALLDATALOAD PUSH8 0xFFFFFFFFFFFFFFFF DUP2 GT ISZERO PUSH2 0xB4D JUMPI PUSH2 0xB4C PUSH2 0x821 JUMP JUMPDEST JUMPDEST PUSH2 0xB59 DUP10 DUP3 DUP11 ADD PUSH2 0xA73 JUMP JUMPDEST SWAP2 POP POP SWAP3 SWAP6 POP SWAP3 SWAP6 POP SWAP3 SWAP6 JUMP JUMPDEST PUSH1 0x0 DUP2 ISZERO ISZERO SWAP1 POP SWAP2 SWAP1 POP JUMP JUMPDEST PUSH2 0xB7B DUP2 PUSH2 0xB66 JUMP JUMPDEST DUP3 MSTORE POP POP JUMP JUMPDEST PUSH1 0x0 PUSH1 0x20 DUP3 ADD SWAP1 POP PUSH2 0xB96 PUSH1 0x0 DUP4 ADD DUP5 PUSH2 0xB72 JUMP JUMPDEST SWAP3 SWAP2 POP POP JUMP JUMPDEST PUSH2 0xBA5 DUP2 PUSH2 0x884 JUMP JUMPDEST DUP3 MSTORE POP POP JUMP JUMPDEST PUSH1 0x0 PUSH1 0x20 DUP3 ADD SWAP1 POP PUSH2 0xBC0 PUSH1 0x0 DUP4 ADD DUP5 PUSH2 0xB9C JUMP JUMPDEST SWAP3 SWAP2 POP POP JUMP JUMPDEST PUSH1 0x0 PUSH2 0xBD1 DUP3 PUSH2 0x846 JUMP JUMPDEST SWAP1 POP SWAP2 SWAP1 POP JUMP JUMPDEST PUSH2 0xBE1 DUP2 PUSH2 0xBC6 JUMP JUMPDEST DUP2 EQ PUSH2 0xBEC JUMPI PUSH1 0x0 DUP1 REVERT JUMPDEST POP JUMP JUMPDEST PUSH1 0x0 DUP2 CALLDATALOAD SWAP1 POP PUSH2 0xBFE DUP2 PUSH2 0xBD8 JUMP JUMPDEST SWAP3 SWAP2 POP POP JUMP JUMPDEST PUSH1 0x0 DUP1 PUSH1 0x0 DUP1 PUSH1 0x0 DUP1 PUSH1 0x0 PUSH1 0xE0 DUP9 DUP11 SUB SLT ISZERO PUSH2 0xC23 JUMPI PUSH2 0xC22 PUSH2 0x81C JUMP JUMPDEST JUMPDEST PUSH1 0x0 PUSH2 0xC31 DUP11 DUP3 DUP12 ADD PUSH2 0xBEF JUMP JUMPDEST SWAP8 POP POP PUSH1 0x20 PUSH2 0xC42 DUP11 DUP3 DUP12 ADD PUSH2 0x86F JUMP JUMPDEST SWAP7 POP POP PUSH1 0x40 PUSH2 0xC53 DUP11 DUP3 DUP12 ADD PUSH2 0x8A5 JUMP JUMPDEST SWAP6 POP POP PUSH1 0x60 DUP9 ADD CALLDATALOAD PUSH8 0xFFFFFFFFFFFFFFFF DUP2 GT ISZERO PUSH2 0xC74 JUMPI PUSH2 0xC73 PUSH2 0x821 JUMP JUMPDEST JUMPDEST PUSH2 0xC80 DUP11 DUP3 DUP12 ADD PUSH2 0x9D2 JUMP JUMPDEST SWAP5 POP POP PUSH1 0x80 PUSH2 0xC91 DUP11 DUP3 DUP12 ADD PUSH2 0x8A5 JUMP JUMPDEST SWAP4 POP POP PUSH1 0xA0 DUP9 ADD CALLDATALOAD PUSH8 0xFFFFFFFFFFFFFFFF DUP2 GT ISZERO PUSH2 0xCB2 JUMPI PUSH2 0xCB1 PUSH2 0x821 JUMP JUMPDEST JUMPDEST PUSH2 0xCBE DUP11 DUP3 DUP12 ADD PUSH2 0xA73 JUMP JUMPDEST SWAP3 POP POP PUSH1 0xC0 PUSH2 0xCCF DUP11 DUP3 DUP12 ADD PUSH2 0x8A5 JUMP JUMPDEST SWAP2 POP POP SWAP3 SWAP6 SWAP9 SWAP2 SWAP5 SWAP8 POP SWAP3 SWAP6 POP JUMP JUMPDEST PUSH1 0x0 DUP1 PUSH1 0x40 DUP4 DUP6 SUB SLT ISZERO PUSH2 0xCF5 JUMPI PUSH2 0xCF4 PUSH2 0x81C JUMP JUMPDEST JUMPDEST PUSH1 0x0 PUSH2 0xD03 DUP6 DUP3 DUP7 ADD PUSH2 0x8A5 JUMP JUMPDEST SWAP3 POP POP PUSH1 0x20 PUSH2 0xD14 DUP6 DUP3 DUP7 ADD PUSH2 0x8A5 JUMP JUMPDEST SWAP2 POP POP SWAP3 POP SWAP3 SWAP1 POP JUMP JUMPDEST PUSH1 0x0 DUP2 SWAP1 POP SWAP2 SWAP1 POP JUMP JUMPDEST PUSH2 0xD31 DUP2 PUSH2 0xD1E JUMP JUMPDEST DUP2 EQ PUSH2 0xD3C JUMPI PUSH1 0x0 DUP1 REVERT JUMPDEST POP JUMP JUMPDEST PUSH1 0x0 DUP2 CALLDATALOAD SWAP1 POP PUSH2 0xD4E DUP2 PUSH2 0xD28 JUMP JUMPDEST SWAP3 SWAP2 POP POP JUMP JUMPDEST PUSH1 0x0 DUP1 PUSH1 0x40 DUP4 DUP6 SUB SLT ISZERO PUSH2 0xD6B JUMPI PUSH2 0xD6A PUSH2 0x81C JUMP JUMPDEST JUMPDEST PUSH1 0x0 PUSH2 0xD79 DUP6 DUP3 DUP7 ADD PUSH2 0xD3F JUMP JUMPDEST SWAP3 POP POP PUSH1 0x20 DUP4 ADD CALLDATALOAD PUSH8 0xFFFFFFFFFFFFFFFF DUP2 GT ISZERO PUSH2 0xD9A JUMPI PUSH2 0xD99 PUSH2 0x821 JUMP JUMPDEST JUMPDEST PUSH2 0xDA6 DUP6 DUP3 DUP7 ADD PUSH2 0xA73 JUMP JUMPDEST SWAP2 POP POP SWAP3 POP SWAP3 SWAP1 POP JUMP JUMPDEST PUSH2 0xDB9 DUP2 PUSH2 0x846 JUMP JUMPDEST DUP3 MSTORE POP POP JUMP JUMPDEST PUSH1 0x0 PUSH1 0x20 DUP3 ADD SWAP1 POP PUSH2 0xDD4 PUSH1 0x0 DUP4 ADD DUP5 PUSH2 0xDB0 JUMP JUMPDEST SWAP3 SWAP2 POP POP JUMP JUMPDEST PUSH1 0x0 PUSH1 0x20 DUP3 DUP5 SUB SLT ISZERO PUSH2 0xDF0 JUMPI PUSH2 0xDEF PUSH2 0x81C JUMP JUMPDEST JUMPDEST PUSH1 0x0 DUP3 ADD CALLDATALOAD PUSH8 0xFFFFFFFFFFFFFFFF DUP2 GT ISZERO PUSH2 0xE0E JUMPI PUSH2 0xE0D PUSH2 0x821 JUMP JUMPDEST JUMPDEST PUSH2 0xE1A DUP5 DUP3 DUP6 ADD PUSH2 0xA73 JUMP JUMPDEST SWAP2 POP POP SWAP3 SWAP2 POP POP JUMP JUMPDEST PUSH2 0xE2C DUP2 PUSH2 0xD1E JUMP JUMPDEST DUP3 MSTORE POP POP JUMP JUMPDEST PUSH1 0x0 PUSH1 0xFF DUP3 AND SWAP1 POP SWAP2 SWAP1 POP JUMP JUMPDEST PUSH2 0xE48 DUP2 PUSH2 0xE32 JUMP JUMPDEST DUP3 MSTORE POP POP JUMP JUMPDEST PUSH1 0x0 PUSH1 0x60 DUP3 ADD SWAP1 POP PUSH2 0xE63 PUSH1 0x0 DUP4 ADD DUP7 PUSH2 0xE23 JUMP JUMPDEST PUSH2 0xE70 PUSH1 0x20 DUP4 ADD DUP6 PUSH2 0xE23 JUMP JUMPDEST PUSH2 0xE7D PUSH1 0x40 DUP4 ADD DUP5 PUSH2 0xE3F JUMP JUMPDEST SWAP5 SWAP4 POP POP POP POP JUMP JUMPDEST PUSH1 0x0 DUP2 MLOAD SWAP1 POP SWAP2 SWAP1 POP JUMP JUMPDEST PUSH1 0x0 DUP3 DUP3 MSTORE PUSH1 0x20 DUP3 ADD SWAP1 POP SWAP3 SWAP2 POP POP JUMP JUMPDEST PUSH1 0x0 JUMPDEST DUP4 DUP2 LT ISZERO PUSH2 0xEBF JUMPI DUP1 DUP3 ADD MLOAD DUP2 DUP5 ADD MSTORE PUSH1 0x20 DUP2 ADD SWAP1 POP PUSH2 0xEA4 JUMP JUMPDEST DUP4 DUP2 GT ISZERO PUSH2 0xECE JUMPI PUSH1 0x0 DUP5 DUP5 ADD MSTORE JUMPDEST POP POP POP POP JUMP JUMPDEST PUSH1 0x0 PUSH2 0xEDF DUP3 PUSH2 0xE85 JUMP JUMPDEST PUSH2 0xEE9 DUP2 DUP6 PUSH2 0xE90 JUMP JUMPDEST SWAP4 POP PUSH2 0xEF9 DUP2 DUP6 PUSH1 0x20 DUP7 ADD PUSH2 0xEA1 JUMP JUMPDEST PUSH2 0xF02 DUP2 PUSH2 0x8C4 JUMP JUMPDEST DUP5 ADD SWAP2 POP POP SWAP3 SWAP2 POP POP JUMP JUMPDEST PUSH1 0x0 DUP2 MLOAD SWAP1 POP SWAP2 SWAP1 POP JUMP JUMPDEST PUSH1 0x0 DUP3 DUP3 MSTORE PUSH1 0x20 DUP3 ADD SWAP1 POP SWAP3 SWAP2 POP POP JUMP JUMPDEST PUSH1 0x0 PUSH2 0xF34 DUP3 PUSH2 0xF0D JUMP JUMPDEST PUSH2 0xF3E DUP2 DUP6 PUSH2 0xF18 JUMP JUMPDEST SWAP4 POP PUSH2 0xF4E DUP2 DUP6 PUSH1 0x20 DUP7 ADD PUSH2 0xEA1 JUMP JUMPDEST PUSH2 0xF57 DUP2 PUSH2 0x8C4 JUMP JUMPDEST DUP5 ADD SWAP2 POP POP SWAP3 SWAP2 POP POP JUMP JUMPDEST PUSH1 0x0 PUSH1 0x80 DUP3 ADD SWAP1 POP PUSH2 0xF77 PUSH1 0x0 DUP4 ADD DUP8 PUSH2 0xB9C JUMP JUMPDEST DUP2 DUP2 SUB PUSH1 0x20 DUP4 ADD MSTORE PUSH2 0xF89 DUP2 DUP7 PUSH2 0xED4 JUMP JUMPDEST SWAP1 POP PUSH2 0xF98 PUSH1 0x40 DUP4 ADD DUP6 PUSH2 0xB9C JUMP JUMPDEST DUP2 DUP2 SUB PUSH1 0x60 DUP4 ADD MSTORE PUSH2 0xFAA DUP2 DUP5 PUSH2 0xF29 JUMP JUMPDEST SWAP1 POP SWAP6 SWAP5 POP POP POP POP POP JUMP JUMPDEST PUSH1 0x0 PUSH1 0x80 DUP3 ADD SWAP1 POP PUSH2 0xFCA PUSH1 0x0 DUP4 ADD DUP8 PUSH2 0xDB0 JUMP JUMPDEST PUSH2 0xFD7 PUSH1 0x20 DUP4 ADD DUP7 PUSH2 0xB9C JUMP JUMPDEST DUP2 DUP2 SUB PUSH1 0x40 DUP4 ADD MSTORE PUSH2 0xFE9 DUP2 DUP6 PUSH2 0xED4 JUMP JUMPDEST SWAP1 POP PUSH2 0xFF8 PUSH1 0x60 DUP4 ADD DUP5 PUSH2 0xB9C JUMP JUMPDEST SWAP6 SWAP5 POP POP POP POP POP JUMP JUMPDEST PUSH1 0x0 DUP2 MLOAD SWAP1 POP PUSH2 0x1010 DUP2 PUSH2 0xD28 JUMP JUMPDEST SWAP3 SWAP2 POP POP JUMP JUMPDEST PUSH1 0x0 PUSH1 0x20 DUP3 DUP5 SUB SLT ISZERO PUSH2 0x102C JUMPI PUSH2 0x102B PUSH2 0x81C JUMP JUMPDEST JUMPDEST PUSH1 0x0 PUSH2 0x103A DUP5 DUP3 DUP6 ADD PUSH2 0x1001 JUMP JUMPDEST SWAP2 POP POP SWAP3 SWAP2 POP POP JUMP JUMPDEST PUSH1 0x0 PUSH1 0x20 DUP3 ADD SWAP1 POP PUSH2 0x1058 PUSH1 0x0 DUP4 ADD DUP5 PUSH2 0xE23 JUMP JUMPDEST SWAP3 SWAP2 POP POP JUMP JUMPDEST PUSH1 0x0 PUSH1 0xC0 DUP3 ADD SWAP1 POP PUSH2 0x1073 PUSH1 0x0 DUP4 ADD DUP10 PUSH2 0xDB0 JUMP JUMPDEST PUSH2 0x1080 PUSH1 0x20 DUP4 ADD DUP9 PUSH2 0xDB0 JUMP JUMPDEST PUSH2 0x108D PUSH1 0x40 DUP4 ADD DUP8 PUSH2 0xB9C JUMP JUMPDEST DUP2 DUP2 SUB PUSH1 0x60 DUP4 ADD MSTORE PUSH2 0x109F DUP2 DUP7 PUSH2 0xED4 JUMP JUMPDEST SWAP1 POP PUSH2 0x10AE PUSH1 0x80 DUP4 ADD DUP6 PUSH2 0xB9C JUMP JUMPDEST DUP2 DUP2 SUB PUSH1 0xA0 DUP4 ADD MSTORE PUSH2 0x10C0 DUP2 DUP5 PUSH2 0xF29 JUMP JUMPDEST SWAP1 POP SWAP8 SWAP7 POP POP POP POP POP POP POP JUMP JUMPDEST PUSH2 0x10D6 DUP2 PUSH2 0xB66 JUMP JUMPDEST DUP2 EQ PUSH2 0x10E1 JUMPI PUSH1 0x0 DUP1 REVERT JUMPDEST POP JUMP JUMPDEST PUSH1 0x0 DUP2 MLOAD SWAP1 POP PUSH2 0x10F3 DUP2 PUSH2 0x10CD JUMP JUMPDEST SWAP3 SWAP2 POP POP JUMP JUMPDEST PUSH1 0x0 PUSH1 0x20 DUP3 DUP5 SUB SLT ISZERO PUSH2 0x110F JUMPI PUSH2 0x110E PUSH2 0x81C JUMP JUMPDEST JUMPDEST PUSH1 0x0 PUSH2 0x111D DUP5 DUP3 DUP6 ADD PUSH2 0x10E4 JUMP JUMPDEST SWAP2 POP POP SWAP3 SWAP2 POP POP JUMP JUMPDEST PUSH1 0x0 PUSH1 0x60 DUP3 ADD SWAP1 POP PUSH2 0x113B PUSH1 0x0 DUP4 ADD DUP7 PUSH2 0xB9C JUMP JUMPDEST DUP2 DUP2 SUB PUSH1 0x20 DUP4 ADD MSTORE PUSH2 0x114D DUP2 DUP6 PUSH2 0xED4 JUMP JUMPDEST SWAP1 POP PUSH2 0x115C PUSH1 0x40 DUP4 ADD DUP5 PUSH2 0xB9C JUMP JUMPDEST SWAP5 SWAP4 POP POP POP POP JUMP JUMPDEST PUSH1 0x0 PUSH8 0xFFFFFFFFFFFFFFFF DUP3 GT ISZERO PUSH2 0x117F JUMPI PUSH2 0x117E PUSH2 0x8D5 JUMP JUMPDEST JUMPDEST PUSH1 0x20 DUP3 MUL SWAP1 POP PUSH1 0x20 DUP2 ADD SWAP1 POP SWAP2 SWAP1 POP JUMP JUMPDEST PUSH1 0x0 DUP1 REVERT JUMPDEST PUSH1 0x0 DUP2 MLOAD SWAP1 POP PUSH2 0x11A4 DUP2 PUSH2 0x858 JUMP JUMPDEST SWAP3 SWAP2 POP POP JUMP JUMPDEST PUSH1 0x0 PUSH2 0x11BD PUSH2 0x11B8 DUP5 PUSH2 0x1164 JUMP JUMPDEST PUSH2 0x935 JUMP JUMPDEST SWAP1 POP DUP1 DUP4 DUP3 MSTORE PUSH1 0x20 DUP3 ADD SWAP1 POP PUSH1 0x20 DUP5 MUL DUP4 ADD DUP6 DUP2 GT ISZERO PUSH2 0x11E0 JUMPI PUSH2 0x11DF PUSH2 0x1190 JUMP JUMPDEST JUMPDEST DUP4 JUMPDEST DUP2 DUP2 LT ISZERO PUSH2 0x1209 JUMPI DUP1 PUSH2 0x11F5 DUP9 DUP3 PUSH2 0x1195 JUMP JUMPDEST DUP5 MSTORE PUSH1 0x20 DUP5 ADD SWAP4 POP POP PUSH1 0x20 DUP2 ADD SWAP1 POP PUSH2 0x11E2 JUMP JUMPDEST POP POP POP SWAP4 SWAP3 POP POP POP JUMP JUMPDEST PUSH1 0x0 DUP3 PUSH1 0x1F DUP4 ADD SLT PUSH2 0x1228 JUMPI PUSH2 0x1227 PUSH2 0x8BA JUMP JUMPDEST JUMPDEST DUP2 MLOAD PUSH2 0x1238 DUP5 DUP3 PUSH1 0x20 DUP7 ADD PUSH2 0x11AA JUMP JUMPDEST SWAP2 POP POP SWAP3 SWAP2 POP POP JUMP JUMPDEST PUSH1 0x0 PUSH1 0x20 DUP3 DUP5 SUB SLT ISZERO PUSH2 0x1257 JUMPI PUSH2 0x1256 PUSH2 0x81C JUMP JUMPDEST JUMPDEST PUSH1 0x0 DUP3 ADD MLOAD PUSH8 0xFFFFFFFFFFFFFFFF DUP2 GT ISZERO PUSH2 0x1275 JUMPI PUSH2 0x1274 PUSH2 0x821 JUMP JUMPDEST JUMPDEST PUSH2 0x1281 DUP5 DUP3 DUP6 ADD PUSH2 0x1213 JUMP JUMPDEST SWAP2 POP POP SWAP3 SWAP2 POP POP JUMP JUMPDEST PUSH32 0x4E487B7100000000000000000000000000000000000000000000000000000000 PUSH1 0x0 MSTORE PUSH1 0x32 PUSH1 0x4 MSTORE PUSH1 0x24 PUSH1 0x0 REVERT JUMPDEST PUSH1 0x0 DUP2 SWAP1 POP SWAP2 SWAP1 POP JUMP JUMPDEST PUSH1 0x0 PUSH2 0x12DE PUSH2 0x12D9 PUSH2 0x12D4 DUP5 PUSH2 0x826 JUMP JUMPDEST PUSH2 0x12B9 JUMP JUMPDEST PUSH2 0x826 JUMP JUMPDEST SWAP1 POP SWAP2 SWAP1 POP JUMP JUMPDEST PUSH1 0x0 PUSH2 0x12F0 DUP3 PUSH2 0x12C3 JUMP JUMPDEST SWAP1 POP SWAP2 SWAP1 POP JUMP JUMPDEST PUSH1 0x0 PUSH2 0x1302 DUP3 PUSH2 0x12E5 JUMP JUMPDEST SWAP1 POP SWAP2 SWAP1 POP JUMP JUMPDEST PUSH2 0x1312 DUP2 PUSH2 0x12F7 JUMP JUMPDEST DUP3 MSTORE POP POP JUMP JUMPDEST PUSH1 0x0 PUSH1 0x40 DUP3 ADD SWAP1 POP PUSH2 0x132D PUSH1 0x0 DUP4 ADD DUP6 PUSH2 0xDB0 JUMP JUMPDEST PUSH2 0x133A PUSH1 0x20 DUP4 ADD DUP5 PUSH2 0x1309 JUMP JUMPDEST SWAP4 SWAP3 POP POP POP JUMP JUMPDEST PUSH1 0x0 PUSH1 0x80 DUP3 ADD SWAP1 POP PUSH2 0x1356 PUSH1 0x0 DUP4 ADD DUP8 PUSH2 0xE23 JUMP JUMPDEST PUSH2 0x1363 PUSH1 0x20 DUP4 ADD DUP7 PUSH2 0xE3F JUMP JUMPDEST PUSH2 0x1370 PUSH1 0x40 DUP4 ADD DUP6 PUSH2 0xE23 JUMP JUMPDEST PUSH2 0x137D PUSH1 0x60 DUP4 ADD DUP5 PUSH2 0xE23 JUMP JUMPDEST SWAP6 SWAP5 POP POP POP POP POP JUMP JUMPDEST PUSH32 0x696E76616C6964207369676E6174757265206C656E6774680000000000000000 PUSH1 0x0 DUP3 ADD MSTORE POP JUMP JUMPDEST PUSH1 0x0 PUSH2 0x13BC PUSH1 0x18 DUP4 PUSH2 0xE90 JUMP JUMPDEST SWAP2 POP PUSH2 0x13C7 DUP3 PUSH2 0x1386 JUMP JUMPDEST PUSH1 0x20 DUP3 ADD SWAP1 POP SWAP2 SWAP1 POP JUMP JUMPDEST PUSH1 0x0 PUSH1 0x20 DUP3 ADD SWAP1 POP DUP2 DUP2 SUB PUSH1 0x0 DUP4 ADD MSTORE PUSH2 0x13EB DUP2 PUSH2 0x13AF JUMP JUMPDEST SWAP1 POP SWAP2 SWAP1 POP JUMP INVALID LOG2 PUSH5 0x6970667358 0x22 SLT KECCAK256 DUP8 0xC9 0xAB 0xAA PUSH19 0x2961FA806F229910AFEFE5FECFCA84B224B722 SWAP12 DUP12 PUSH12 0x23E9A49D9464736F6C634300 ADDMOD MULMOD STOP CALLER "
    },
    "gasEstimates": {
      "creation": {
        "codeDepositCost": "1032000",
        "executionCost": "infinite",
        "totalCost": "infinite"
      },
      "external": {
        "evaluateTrust()": "329",
        "recoverSigner(bytes32,bytes)": "infinite",
        "registerVehicle(address,address,uint256,string,uint256,bytes,uint256)": "infinite",
        "retrieveLocation(uint256,uint256)": "infinite",
        "splitSignature(bytes)": "infinite",
        "verifySignature(address,address,uint256,string,uint256,bytes)": "infinite"
      }
    },
    "methodIdentifiers": {
      "evaluateTrust()": "5f92576f",
      "recoverSigner(bytes32,bytes)": "97aba7f9",
      "registerVehicle(address,address,uint256,string,uint256,bytes,uint256)": "81a77211",
      "retrieveLocation(uint256,uint256)": "8b52a81e",
      "splitSignature(bytes)": "a7bb5803",
      "verifySignature(address,address,uint256,string,uint256,bytes)": "524f685b"
    }
  },
  "storageLayout": {
    "storage": [
      {
        "astId": 172,
        "contract": "RSU.sol:RSU",
        "label": "sender",
        "offset": 0,
        "slot": "0",
        "type": "t_address"
      },
      {
        "astId": 174,
        "contract": "RSU.sol:RSU",
        "label": "ID",
        "offset": 0,
        "slot": "1",
        "type": "t_uint256"
      },
      {
        "astId": 176,
        "contract": "RSU.sol:RSU",
        "label": "longitude",
        "offset": 0,
        "slot": "2",
        "type": "t_uint256"
      },
      {
        "astId": 178,
        "contract": "RSU.sol:RSU",
        "label": "latitude",
        "offset": 0,
        "slot": "3",
        "type": "t_uint256"
      },
      {
        "astId": 180,
        "contract": "RSU.sol:RSU",
        "label": "distance",
        "offset": 0,
        "slot": "4",
        "type": "t_uint256"
      },
      {
        "astId": 182,
        "contract": "RSU.sol:RSU",
        "label": "txNum",
        "offset": 0,
        "slot": "5",
        "type": "t_int256"
      },
      {
        "astId": 184,
        "contract": "RSU.sol:RSU",
        "label": "endorsed",
        "offset": 0,
        "slot": "6",
        "type": "t_int256"
      },
      {
        "astId": 186,
        "contract": "RSU.sol:RSU",
        "label": "flagged",
        "offset": 0,
        "slot": "7",
        "type": "t_int256"
      },
      {
        "astId": 188,
        "contract": "RSU.sol:RSU",
        "label": "validNum",
        "offset": 0,
        "slot": "8",
        "type": "t_int256"
      },
      {
        "astId": 193,
        "contract": "RSU.sol:RSU",
        "label": "registeredVehicles",
        "offset": 0,
        "slot": "9",
        "type": "t_mapping(t_address,t_contract(Vehicle)888)"
      }
    ],
    "types": {
      "t_address": {
        "encoding": "inplace",
        "label": "address",
        "numberOfBytes": "20"
      },
      "t_contract(Vehicle)888": {
        "encoding": "inplace",
        "label": "contract Vehicle",
        "numberOfBytes": "20"
      },
      "t_int256": {
        "encoding": "inplace",
        "label": "int256",
        "numberOfBytes": "32"
      },
      "t_mapping(t_address,t_contract(Vehicle)888)": {
        "encoding": "mapping",
        "key": "t_address",
        "label": "mapping(address => contract Vehicle)",
        "numberOfBytes": "32",
        "value": "t_contract(Vehicle)888"
      },
      "t_uint256": {
        "encoding": "inplace",
        "label": "uint256",
        "numberOfBytes": "32"
      }
    }
  },
  "userdoc": {
    "kind": "user",
    "methods": {},
    "version": 1
  }
}