{
  "abi": [
    {
      "inputs": [
        {
          "internalType": "uint256",
          "name": "_VIN",
          "type": "uint256"
        },
        {
          "internalType": "uint256",
          "name": "_vID",
          "type": "uint256"
        },
        {
          "internalType": "string",
          "name": "_vName",
          "type": "string"
        }
      ],
      "stateMutability": "nonpayable",
      "type": "constructor"
    },
    {
      "anonymous": false,
      "inputs": [
        {
          "indexed": true,
          "internalType": "address",
          "name": "from",
          "type": "address"
        },
        {
          "indexed": true,
          "internalType": "address",
          "name": "to",
          "type": "address"
        },
        {
          "indexed": false,
          "internalType": "uint256",
          "name": "amount",
          "type": "uint256"
        },
        {
          "indexed": false,
          "internalType": "string",
          "name": "message",
          "type": "string"
        },
        {
          "indexed": false,
          "internalType": "uint256",
          "name": "nonce",
          "type": "uint256"
        }
      ],
      "name": "Critical",
      "type": "event"
    },
    {
      "anonymous": false,
      "inputs": [
        {
          "indexed": false,
          "internalType": "bytes32",
          "name": "messageHash",
          "type": "bytes32"
        }
      ],
      "name": "Signed",
      "type": "event"
    },
    {
      "inputs": [
        {
          "internalType": "address",
          "name": "",
          "type": "address"
        }
      ],
      "name": "connectedRSUs",
      "outputs": [
        {
          "internalType": "contract RSU",
          "name": "",
          "type": "address"
        }
      ],
      "stateMutability": "view",
      "type": "function"
    },
    {
      "inputs": [
        {
          "internalType": "bytes32",
          "name": "_messageHash",
          "type": "bytes32"
        }
      ],
      "name": "getEthSignedMessageHash",
      "outputs": [
        {
          "internalType": "bytes32",
          "name": "",
          "type": "bytes32"
        }
      ],
      "stateMutability": "payable",
      "type": "function"
    },
    {
      "inputs": [
        {
          "internalType": "address",
          "name": "_receiver",
          "type": "address"
        },
        {
          "internalType": "uint256",
          "name": "_amount",
          "type": "uint256"
        },
        {
          "internalType": "string",
          "name": "_message",
          "type": "string"
        },
        {
          "internalType": "uint256",
          "name": "_nonce",
          "type": "uint256"
        }
      ],
      "name": "getMessageHash",
      "outputs": [
        {
          "internalType": "bytes32",
          "name": "",
          "type": "bytes32"
        }
      ],
      "stateMutability": "payable",
      "type": "function"
    },
    {
      "inputs": [],
      "name": "getReceivers",
      "outputs": [
        {
          "internalType": "address[]",
          "name": "",
          "type": "address[]"
        }
      ],
      "stateMutability": "view",
      "type": "function"
    },
    {
      "inputs": [
        {
          "internalType": "address[]",
          "name": "_receivers",
          "type": "address[]"
        },
        {
          "internalType": "uint256",
          "name": "_amount",
          "type": "uint256"
        },
        {
          "internalType": "string",
          "name": "_message",
          "type": "string"
        },
        {
          "internalType": "uint256",
          "name": "_nonce",
          "type": "uint256"
        },
        {
          "internalType": "bytes",
          "name": "signature",
          "type": "bytes"
        }
      ],
      "name": "getSignatureEvaluation",
      "outputs": [
        {
          "internalType": "address[]",
          "name": "",
          "type": "address[]"
        }
      ],
      "stateMutability": "payable",
      "type": "function"
    },
    {
      "inputs": [
        {
          "internalType": "uint256",
          "name": "",
          "type": "uint256"
        }
      ],
      "name": "receivers",
      "outputs": [
        {
          "internalType": "address",
          "name": "",
          "type": "address"
        }
      ],
      "stateMutability": "view",
      "type": "function"
    },
    {
      "inputs": [
        {
          "internalType": "uint256",
          "name": "_longitude",
          "type": "uint256"
        },
        {
          "internalType": "uint256",
          "name": "_latitude",
          "type": "uint256"
        }
      ],
      "name": "retrieveLocation",
      "outputs": [],
      "stateMutability": "nonpayable",
      "type": "function"
    },
    {
      "inputs": [
        {
          "internalType": "contract Provider[]",
          "name": "_providers",
          "type": "address[]"
        }
      ],
      "name": "retrieveProviders",
      "outputs": [],
      "stateMutability": "nonpayable",
      "type": "function"
    },
    {
      "inputs": [],
      "name": "selectProvider",
      "outputs": [],
      "stateMutability": "view",
      "type": "function"
    },
    {
      "inputs": [],
      "name": "sender",
      "outputs": [
        {
          "internalType": "address",
          "name": "",
          "type": "address"
        }
      ],
      "stateMutability": "view",
      "type": "function"
    },
    {
      "inputs": [
        {
          "internalType": "address",
          "name": "",
          "type": "address"
        }
      ],
      "name": "serviceProviders",
      "outputs": [
        {
          "internalType": "contract Provider",
          "name": "",
          "type": "address"
        }
      ],
      "stateMutability": "view",
      "type": "function"
    },
    {
      "inputs": [
        {
          "internalType": "address",
          "name": "_address",
          "type": "address"
        },
        {
          "internalType": "contract RSU",
          "name": "rsu",
          "type": "address"
        }
      ],
      "name": "setConnectedRSU",
      "outputs": [],
      "stateMutability": "nonpayable",
      "type": "function"
    }
  ],
  "devdoc": {
    "kind": "dev",
    "methods": {},
    "version": 1
  },
  "evm": {
    "assembly": "    /* \"Vehicle.sol\":168:3240  contract Vehicle {... */\n  mstore(0x40, 0x80)\n    /* \"Vehicle.sol\":948:1236  constructor(uint _VIN, uint _vID, string memory _vName) public {... */\n  callvalue\n  dup1\n  iszero\n  tag_1\n  jumpi\n  0x00\n  dup1\n  revert\ntag_1:\n  pop\n  mload(0x40)\n  sub(codesize, bytecodeSize)\n  dup1\n  bytecodeSize\n  dup4\n  codecopy\n  dup2\n  dup2\n  add\n  0x40\n  mstore\n  dup2\n  add\n  swap1\n  tag_2\n  swap2\n  swap1\n  tag_3\n  jump\t// in\ntag_2:\n    /* \"Vehicle.sol\":1031:1041  msg.sender */\n  caller\n    /* \"Vehicle.sol\":1022:1028  sender */\n  0x00\n  dup1\n    /* \"Vehicle.sol\":1022:1041  sender = msg.sender */\n  0x0100\n  exp\n  dup2\n  sload\n  dup2\n  0xffffffffffffffffffffffffffffffffffffffff\n  mul\n  not\n  and\n  swap1\n  dup4\n  0xffffffffffffffffffffffffffffffffffffffff\n  and\n  mul\n  or\n  swap1\n  sstore\n  pop\n    /* \"Vehicle.sol\":1058:1062  _VIN */\n  dup3\n    /* \"Vehicle.sol\":1052:1055  VIN */\n  0x08\n    /* \"Vehicle.sol\":1052:1062  VIN = _VIN */\n  dup2\n  swap1\n  sstore\n  pop\n    /* \"Vehicle.sol\":1079:1083  _vID */\n  dup2\n    /* \"Vehicle.sol\":1073:1076  vID */\n  0x09\n    /* \"Vehicle.sol\":1073:1083  vID = _vID */\n  dup2\n  swap1\n  sstore\n  pop\n    /* \"Vehicle.sol\":1102:1108  _vName */\n  dup1\n    /* \"Vehicle.sol\":1094:1099  vName */\n  0x0a\n    /* \"Vehicle.sol\":1094:1108  vName = _vName */\n  swap1\n  dup1\n  mload\n  swap1\n  0x20\n  add\n  swap1\n  tag_6\n  swap3\n  swap2\n  swap1\n  tag_7\n  jump\t// in\ntag_6:\n  pop\n    /* \"Vehicle.sol\":1128:1140  State.PARKED */\n  0x00\n    /* \"Vehicle.sol\":1119:1125  status */\n  0x0b\n  0x00\n    /* \"Vehicle.sol\":1119:1140  status = State.PARKED */\n  0x0100\n  exp\n  dup2\n  sload\n  dup2\n  0xff\n  mul\n  not\n  and\n  swap1\n  dup4\n  0x03\n  dup2\n  gt\n  iszero\n  tag_8\n  jumpi\n  tag_9\n  tag_10\n  jump\t// in\ntag_9:\ntag_8:\n  mul\n  or\n  swap1\n  sstore\n  pop\n    /* \"Vehicle.sol\":1159:1160  0 */\n  0x00\n    /* \"Vehicle.sol\":1151:1156  txNum */\n  0x0d\n    /* \"Vehicle.sol\":1151:1160  txNum = 0 */\n  dup2\n  swap1\n  sstore\n  pop\n    /* \"Vehicle.sol\":1182:1183  0 */\n  0x00\n    /* \"Vehicle.sol\":1171:1179  endorsed */\n  0x0e\n    /* \"Vehicle.sol\":1171:1183  endorsed = 0 */\n  dup2\n  swap1\n  sstore\n  pop\n    /* \"Vehicle.sol\":1204:1205  0 */\n  0x00\n    /* \"Vehicle.sol\":1194:1201  flagged */\n  0x0f\n    /* \"Vehicle.sol\":1194:1205  flagged = 0 */\n  dup2\n  swap1\n  sstore\n  pop\n    /* \"Vehicle.sol\":1227:1228  0 */\n  0x00\n    /* \"Vehicle.sol\":1216:1224  validNum */\n  0x10\n    /* \"Vehicle.sol\":1216:1228  validNum = 0 */\n  dup2\n  swap1\n  sstore\n  pop\n    /* \"Vehicle.sol\":948:1236  constructor(uint _VIN, uint _vID, string memory _vName) public {... */\n  pop\n  pop\n  pop\n    /* \"Vehicle.sol\":168:3240  contract Vehicle {... */\n  jump(tag_11)\ntag_7:\n  dup3\n  dup1\n  sload\n  tag_12\n  swap1\n  tag_13\n  jump\t// in\ntag_12:\n  swap1\n  0x00\n  mstore\n  keccak256(0x00, 0x20)\n  swap1\n  0x1f\n  add\n  0x20\n  swap1\n  div\n  dup2\n  add\n  swap3\n  dup3\n  tag_15\n  jumpi\n  0x00\n  dup6\n  sstore\n  jump(tag_14)\ntag_15:\n  dup3\n  0x1f\n  lt\n  tag_16\n  jumpi\n  dup1\n  mload\n  not(0xff)\n  and\n  dup4\n  dup1\n  add\n  or\n  dup6\n  sstore\n  jump(tag_14)\ntag_16:\n  dup3\n  dup1\n  add\n  0x01\n  add\n  dup6\n  sstore\n  dup3\n  iszero\n  tag_14\n  jumpi\n  swap2\n  dup3\n  add\ntag_17:\n  dup3\n  dup2\n  gt\n  iszero\n  tag_18\n  jumpi\n  dup3\n  mload\n  dup3\n  sstore\n  swap2\n  0x20\n  add\n  swap2\n  swap1\n  0x01\n  add\n  swap1\n  jump(tag_17)\ntag_18:\ntag_14:\n  pop\n  swap1\n  pop\n  tag_19\n  swap2\n  swap1\n  tag_20\n  jump\t// in\ntag_19:\n  pop\n  swap1\n  jump\t// out\ntag_20:\ntag_21:\n  dup1\n  dup3\n  gt\n  iszero\n  tag_22\n  jumpi\n  0x00\n  dup2\n  0x00\n  swap1\n  sstore\n  pop\n  0x01\n  add\n  jump(tag_21)\ntag_22:\n  pop\n  swap1\n  jump\t// out\n    /* \"#utility.yul\":7:82   */\ntag_23:\n    /* \"#utility.yul\":40:46   */\n  0x00\n    /* \"#utility.yul\":73:75   */\n  0x40\n    /* \"#utility.yul\":67:76   */\n  mload\n    /* \"#utility.yul\":57:76   */\n  swap1\n  pop\n    /* \"#utility.yul\":7:82   */\n  swap1\n  jump\t// out\n    /* \"#utility.yul\":88:205   */\ntag_24:\n    /* \"#utility.yul\":197:198   */\n  0x00\n    /* \"#utility.yul\":194:195   */\n  dup1\n    /* \"#utility.yul\":187:199   */\n  revert\n    /* \"#utility.yul\":211:328   */\ntag_25:\n    /* \"#utility.yul\":320:321   */\n  0x00\n    /* \"#utility.yul\":317:318   */\n  dup1\n    /* \"#utility.yul\":310:322   */\n  revert\n    /* \"#utility.yul\":334:411   */\ntag_26:\n    /* \"#utility.yul\":371:378   */\n  0x00\n    /* \"#utility.yul\":400:405   */\n  dup2\n    /* \"#utility.yul\":389:405   */\n  swap1\n  pop\n    /* \"#utility.yul\":334:411   */\n  swap2\n  swap1\n  pop\n  jump\t// out\n    /* \"#utility.yul\":417:539   */\ntag_27:\n    /* \"#utility.yul\":490:514   */\n  tag_46\n    /* \"#utility.yul\":508:513   */\n  dup2\n    /* \"#utility.yul\":490:514   */\n  tag_26\n  jump\t// in\ntag_46:\n    /* \"#utility.yul\":483:488   */\n  dup2\n    /* \"#utility.yul\":480:515   */\n  eq\n    /* \"#utility.yul\":470:533   */\n  tag_47\n  jumpi\n    /* \"#utility.yul\":529:530   */\n  0x00\n    /* \"#utility.yul\":526:527   */\n  dup1\n    /* \"#utility.yul\":519:531   */\n  revert\n    /* \"#utility.yul\":470:533   */\ntag_47:\n    /* \"#utility.yul\":417:539   */\n  pop\n  jump\t// out\n    /* \"#utility.yul\":545:688   */\ntag_28:\n    /* \"#utility.yul\":602:607   */\n  0x00\n    /* \"#utility.yul\":633:639   */\n  dup2\n    /* \"#utility.yul\":627:640   */\n  mload\n    /* \"#utility.yul\":618:640   */\n  swap1\n  pop\n    /* \"#utility.yul\":649:682   */\n  tag_49\n    /* \"#utility.yul\":676:681   */\n  dup2\n    /* \"#utility.yul\":649:682   */\n  tag_27\n  jump\t// in\ntag_49:\n    /* \"#utility.yul\":545:688   */\n  swap3\n  swap2\n  pop\n  pop\n  jump\t// out\n    /* \"#utility.yul\":694:811   */\ntag_29:\n    /* \"#utility.yul\":803:804   */\n  0x00\n    /* \"#utility.yul\":800:801   */\n  dup1\n    /* \"#utility.yul\":793:805   */\n  revert\n    /* \"#utility.yul\":817:934   */\ntag_30:\n    /* \"#utility.yul\":926:927   */\n  0x00\n    /* \"#utility.yul\":923:924   */\n  dup1\n    /* \"#utility.yul\":916:928   */\n  revert\n    /* \"#utility.yul\":940:1042   */\ntag_31:\n    /* \"#utility.yul\":981:987   */\n  0x00\n    /* \"#utility.yul\":1032:1034   */\n  0x1f\n    /* \"#utility.yul\":1028:1035   */\n  not\n    /* \"#utility.yul\":1023:1025   */\n  0x1f\n    /* \"#utility.yul\":1016:1021   */\n  dup4\n    /* \"#utility.yul\":1012:1026   */\n  add\n    /* \"#utility.yul\":1008:1036   */\n  and\n    /* \"#utility.yul\":998:1036   */\n  swap1\n  pop\n    /* \"#utility.yul\":940:1042   */\n  swap2\n  swap1\n  pop\n  jump\t// out\n    /* \"#utility.yul\":1048:1228   */\ntag_32:\n    /* \"#utility.yul\":1096:1173   */\n  0x4e487b7100000000000000000000000000000000000000000000000000000000\n    /* \"#utility.yul\":1093:1094   */\n  0x00\n    /* \"#utility.yul\":1086:1174   */\n  mstore\n    /* \"#utility.yul\":1193:1197   */\n  0x41\n    /* \"#utility.yul\":1190:1191   */\n  0x04\n    /* \"#utility.yul\":1183:1198   */\n  mstore\n    /* \"#utility.yul\":1217:1221   */\n  0x24\n    /* \"#utility.yul\":1214:1215   */\n  0x00\n    /* \"#utility.yul\":1207:1222   */\n  revert\n    /* \"#utility.yul\":1234:1515   */\ntag_33:\n    /* \"#utility.yul\":1317:1344   */\n  tag_55\n    /* \"#utility.yul\":1339:1343   */\n  dup3\n    /* \"#utility.yul\":1317:1344   */\n  tag_31\n  jump\t// in\ntag_55:\n    /* \"#utility.yul\":1309:1315   */\n  dup2\n    /* \"#utility.yul\":1305:1345   */\n  add\n    /* \"#utility.yul\":1447:1453   */\n  dup2\n    /* \"#utility.yul\":1435:1445   */\n  dup2\n    /* \"#utility.yul\":1432:1454   */\n  lt\n    /* \"#utility.yul\":1411:1429   */\n  0xffffffffffffffff\n    /* \"#utility.yul\":1399:1409   */\n  dup3\n    /* \"#utility.yul\":1396:1430   */\n  gt\n    /* \"#utility.yul\":1393:1455   */\n  or\n    /* \"#utility.yul\":1390:1478   */\n  iszero\n  tag_56\n  jumpi\n    /* \"#utility.yul\":1458:1476   */\n  tag_57\n  tag_32\n  jump\t// in\ntag_57:\n    /* \"#utility.yul\":1390:1478   */\ntag_56:\n    /* \"#utility.yul\":1498:1508   */\n  dup1\n    /* \"#utility.yul\":1494:1496   */\n  0x40\n    /* \"#utility.yul\":1487:1509   */\n  mstore\n    /* \"#utility.yul\":1277:1515   */\n  pop\n    /* \"#utility.yul\":1234:1515   */\n  pop\n  pop\n  jump\t// out\n    /* \"#utility.yul\":1521:1650   */\ntag_34:\n    /* \"#utility.yul\":1555:1561   */\n  0x00\n    /* \"#utility.yul\":1582:1602   */\n  tag_59\n  tag_23\n  jump\t// in\ntag_59:\n    /* \"#utility.yul\":1572:1602   */\n  swap1\n  pop\n    /* \"#utility.yul\":1611:1644   */\n  tag_60\n    /* \"#utility.yul\":1639:1643   */\n  dup3\n    /* \"#utility.yul\":1631:1637   */\n  dup3\n    /* \"#utility.yul\":1611:1644   */\n  tag_33\n  jump\t// in\ntag_60:\n    /* \"#utility.yul\":1521:1650   */\n  swap2\n  swap1\n  pop\n  jump\t// out\n    /* \"#utility.yul\":1656:1964   */\ntag_35:\n    /* \"#utility.yul\":1718:1722   */\n  0x00\n    /* \"#utility.yul\":1808:1826   */\n  0xffffffffffffffff\n    /* \"#utility.yul\":1800:1806   */\n  dup3\n    /* \"#utility.yul\":1797:1827   */\n  gt\n    /* \"#utility.yul\":1794:1850   */\n  iszero\n  tag_62\n  jumpi\n    /* \"#utility.yul\":1830:1848   */\n  tag_63\n  tag_32\n  jump\t// in\ntag_63:\n    /* \"#utility.yul\":1794:1850   */\ntag_62:\n    /* \"#utility.yul\":1868:1897   */\n  tag_64\n    /* \"#utility.yul\":1890:1896   */\n  dup3\n    /* \"#utility.yul\":1868:1897   */\n  tag_31\n  jump\t// in\ntag_64:\n    /* \"#utility.yul\":1860:1897   */\n  swap1\n  pop\n    /* \"#utility.yul\":1952:1956   */\n  0x20\n    /* \"#utility.yul\":1946:1950   */\n  dup2\n    /* \"#utility.yul\":1942:1957   */\n  add\n    /* \"#utility.yul\":1934:1957   */\n  swap1\n  pop\n    /* \"#utility.yul\":1656:1964   */\n  swap2\n  swap1\n  pop\n  jump\t// out\n    /* \"#utility.yul\":1970:2277   */\ntag_36:\n    /* \"#utility.yul\":2038:2039   */\n  0x00\n    /* \"#utility.yul\":2048:2161   */\ntag_66:\n    /* \"#utility.yul\":2062:2068   */\n  dup4\n    /* \"#utility.yul\":2059:2060   */\n  dup2\n    /* \"#utility.yul\":2056:2069   */\n  lt\n    /* \"#utility.yul\":2048:2161   */\n  iszero\n  tag_68\n  jumpi\n    /* \"#utility.yul\":2147:2148   */\n  dup1\n    /* \"#utility.yul\":2142:2145   */\n  dup3\n    /* \"#utility.yul\":2138:2149   */\n  add\n    /* \"#utility.yul\":2132:2150   */\n  mload\n    /* \"#utility.yul\":2128:2129   */\n  dup2\n    /* \"#utility.yul\":2123:2126   */\n  dup5\n    /* \"#utility.yul\":2119:2130   */\n  add\n    /* \"#utility.yul\":2112:2151   */\n  mstore\n    /* \"#utility.yul\":2084:2086   */\n  0x20\n    /* \"#utility.yul\":2081:2082   */\n  dup2\n    /* \"#utility.yul\":2077:2087   */\n  add\n    /* \"#utility.yul\":2072:2087   */\n  swap1\n  pop\n    /* \"#utility.yul\":2048:2161   */\n  jump(tag_66)\ntag_68:\n    /* \"#utility.yul\":2179:2185   */\n  dup4\n    /* \"#utility.yul\":2176:2177   */\n  dup2\n    /* \"#utility.yul\":2173:2186   */\n  gt\n    /* \"#utility.yul\":2170:2271   */\n  iszero\n  tag_69\n  jumpi\n    /* \"#utility.yul\":2259:2260   */\n  0x00\n    /* \"#utility.yul\":2250:2256   */\n  dup5\n    /* \"#utility.yul\":2245:2248   */\n  dup5\n    /* \"#utility.yul\":2241:2257   */\n  add\n    /* \"#utility.yul\":2234:2261   */\n  mstore\n    /* \"#utility.yul\":2170:2271   */\ntag_69:\n    /* \"#utility.yul\":2019:2277   */\n  pop\n    /* \"#utility.yul\":1970:2277   */\n  pop\n  pop\n  pop\n  jump\t// out\n    /* \"#utility.yul\":2283:2704   */\ntag_37:\n    /* \"#utility.yul\":2372:2377   */\n  0x00\n    /* \"#utility.yul\":2397:2463   */\n  tag_71\n    /* \"#utility.yul\":2413:2462   */\n  tag_72\n    /* \"#utility.yul\":2455:2461   */\n  dup5\n    /* \"#utility.yul\":2413:2462   */\n  tag_35\n  jump\t// in\ntag_72:\n    /* \"#utility.yul\":2397:2463   */\n  tag_34\n  jump\t// in\ntag_71:\n    /* \"#utility.yul\":2388:2463   */\n  swap1\n  pop\n    /* \"#utility.yul\":2486:2492   */\n  dup3\n    /* \"#utility.yul\":2479:2484   */\n  dup2\n    /* \"#utility.yul\":2472:2493   */\n  mstore\n    /* \"#utility.yul\":2524:2528   */\n  0x20\n    /* \"#utility.yul\":2517:2522   */\n  dup2\n    /* \"#utility.yul\":2513:2529   */\n  add\n    /* \"#utility.yul\":2562:2565   */\n  dup5\n    /* \"#utility.yul\":2553:2559   */\n  dup5\n    /* \"#utility.yul\":2548:2551   */\n  dup5\n    /* \"#utility.yul\":2544:2560   */\n  add\n    /* \"#utility.yul\":2541:2566   */\n  gt\n    /* \"#utility.yul\":2538:2650   */\n  iszero\n  tag_73\n  jumpi\n    /* \"#utility.yul\":2569:2648   */\n  tag_74\n  tag_30\n  jump\t// in\ntag_74:\n    /* \"#utility.yul\":2538:2650   */\ntag_73:\n    /* \"#utility.yul\":2659:2698   */\n  tag_75\n    /* \"#utility.yul\":2691:2697   */\n  dup5\n    /* \"#utility.yul\":2686:2689   */\n  dup3\n    /* \"#utility.yul\":2681:2684   */\n  dup6\n    /* \"#utility.yul\":2659:2698   */\n  tag_36\n  jump\t// in\ntag_75:\n    /* \"#utility.yul\":2378:2704   */\n  pop\n    /* \"#utility.yul\":2283:2704   */\n  swap4\n  swap3\n  pop\n  pop\n  pop\n  jump\t// out\n    /* \"#utility.yul\":2724:3079   */\ntag_38:\n    /* \"#utility.yul\":2791:2796   */\n  0x00\n    /* \"#utility.yul\":2840:2843   */\n  dup3\n    /* \"#utility.yul\":2833:2837   */\n  0x1f\n    /* \"#utility.yul\":2825:2831   */\n  dup4\n    /* \"#utility.yul\":2821:2838   */\n  add\n    /* \"#utility.yul\":2817:2844   */\n  slt\n    /* \"#utility.yul\":2807:2929   */\n  tag_77\n  jumpi\n    /* \"#utility.yul\":2848:2927   */\n  tag_78\n  tag_29\n  jump\t// in\ntag_78:\n    /* \"#utility.yul\":2807:2929   */\ntag_77:\n    /* \"#utility.yul\":2958:2964   */\n  dup2\n    /* \"#utility.yul\":2952:2965   */\n  mload\n    /* \"#utility.yul\":2983:3073   */\n  tag_79\n    /* \"#utility.yul\":3069:3072   */\n  dup5\n    /* \"#utility.yul\":3061:3067   */\n  dup3\n    /* \"#utility.yul\":3054:3058   */\n  0x20\n    /* \"#utility.yul\":3046:3052   */\n  dup7\n    /* \"#utility.yul\":3042:3059   */\n  add\n    /* \"#utility.yul\":2983:3073   */\n  tag_37\n  jump\t// in\ntag_79:\n    /* \"#utility.yul\":2974:3073   */\n  swap2\n  pop\n    /* \"#utility.yul\":2797:3079   */\n  pop\n    /* \"#utility.yul\":2724:3079   */\n  swap3\n  swap2\n  pop\n  pop\n  jump\t// out\n    /* \"#utility.yul\":3085:3921   */\ntag_3:\n    /* \"#utility.yul\":3183:3189   */\n  0x00\n    /* \"#utility.yul\":3191:3197   */\n  dup1\n    /* \"#utility.yul\":3199:3205   */\n  0x00\n    /* \"#utility.yul\":3248:3250   */\n  0x60\n    /* \"#utility.yul\":3236:3245   */\n  dup5\n    /* \"#utility.yul\":3227:3234   */\n  dup7\n    /* \"#utility.yul\":3223:3246   */\n  sub\n    /* \"#utility.yul\":3219:3251   */\n  slt\n    /* \"#utility.yul\":3216:3335   */\n  iszero\n  tag_81\n  jumpi\n    /* \"#utility.yul\":3254:3333   */\n  tag_82\n  tag_24\n  jump\t// in\ntag_82:\n    /* \"#utility.yul\":3216:3335   */\ntag_81:\n    /* \"#utility.yul\":3374:3375   */\n  0x00\n    /* \"#utility.yul\":3399:3463   */\n  tag_83\n    /* \"#utility.yul\":3455:3462   */\n  dup7\n    /* \"#utility.yul\":3446:3452   */\n  dup3\n    /* \"#utility.yul\":3435:3444   */\n  dup8\n    /* \"#utility.yul\":3431:3453   */\n  add\n    /* \"#utility.yul\":3399:3463   */\n  tag_28\n  jump\t// in\ntag_83:\n    /* \"#utility.yul\":3389:3463   */\n  swap4\n  pop\n    /* \"#utility.yul\":3345:3473   */\n  pop\n    /* \"#utility.yul\":3512:3514   */\n  0x20\n    /* \"#utility.yul\":3538:3602   */\n  tag_84\n    /* \"#utility.yul\":3594:3601   */\n  dup7\n    /* \"#utility.yul\":3585:3591   */\n  dup3\n    /* \"#utility.yul\":3574:3583   */\n  dup8\n    /* \"#utility.yul\":3570:3592   */\n  add\n    /* \"#utility.yul\":3538:3602   */\n  tag_28\n  jump\t// in\ntag_84:\n    /* \"#utility.yul\":3528:3602   */\n  swap3\n  pop\n    /* \"#utility.yul\":3483:3612   */\n  pop\n    /* \"#utility.yul\":3672:3674   */\n  0x40\n    /* \"#utility.yul\":3661:3670   */\n  dup5\n    /* \"#utility.yul\":3657:3675   */\n  add\n    /* \"#utility.yul\":3651:3676   */\n  mload\n    /* \"#utility.yul\":3703:3721   */\n  0xffffffffffffffff\n    /* \"#utility.yul\":3695:3701   */\n  dup2\n    /* \"#utility.yul\":3692:3722   */\n  gt\n    /* \"#utility.yul\":3689:3806   */\n  iszero\n  tag_85\n  jumpi\n    /* \"#utility.yul\":3725:3804   */\n  tag_86\n  tag_25\n  jump\t// in\ntag_86:\n    /* \"#utility.yul\":3689:3806   */\ntag_85:\n    /* \"#utility.yul\":3830:3904   */\n  tag_87\n    /* \"#utility.yul\":3896:3903   */\n  dup7\n    /* \"#utility.yul\":3887:3893   */\n  dup3\n    /* \"#utility.yul\":3876:3885   */\n  dup8\n    /* \"#utility.yul\":3872:3894   */\n  add\n    /* \"#utility.yul\":3830:3904   */\n  tag_38\n  jump\t// in\ntag_87:\n    /* \"#utility.yul\":3820:3904   */\n  swap2\n  pop\n    /* \"#utility.yul\":3622:3914   */\n  pop\n    /* \"#utility.yul\":3085:3921   */\n  swap3\n  pop\n  swap3\n  pop\n  swap3\n  jump\t// out\n    /* \"#utility.yul\":3927:4107   */\ntag_10:\n    /* \"#utility.yul\":3975:4052   */\n  0x4e487b7100000000000000000000000000000000000000000000000000000000\n    /* \"#utility.yul\":3972:3973   */\n  0x00\n    /* \"#utility.yul\":3965:4053   */\n  mstore\n    /* \"#utility.yul\":4072:4076   */\n  0x21\n    /* \"#utility.yul\":4069:4070   */\n  0x04\n    /* \"#utility.yul\":4062:4077   */\n  mstore\n    /* \"#utility.yul\":4096:4100   */\n  0x24\n    /* \"#utility.yul\":4093:4094   */\n  0x00\n    /* \"#utility.yul\":4086:4101   */\n  revert\n    /* \"#utility.yul\":4113:4293   */\ntag_39:\n    /* \"#utility.yul\":4161:4238   */\n  0x4e487b7100000000000000000000000000000000000000000000000000000000\n    /* \"#utility.yul\":4158:4159   */\n  0x00\n    /* \"#utility.yul\":4151:4239   */\n  mstore\n    /* \"#utility.yul\":4258:4262   */\n  0x22\n    /* \"#utility.yul\":4255:4256   */\n  0x04\n    /* \"#utility.yul\":4248:4263   */\n  mstore\n    /* \"#utility.yul\":4282:4286   */\n  0x24\n    /* \"#utility.yul\":4279:4280   */\n  0x00\n    /* \"#utility.yul\":4272:4287   */\n  revert\n    /* \"#utility.yul\":4299:4619   */\ntag_13:\n    /* \"#utility.yul\":4343:4349   */\n  0x00\n    /* \"#utility.yul\":4380:4381   */\n  0x02\n    /* \"#utility.yul\":4374:4378   */\n  dup3\n    /* \"#utility.yul\":4370:4382   */\n  div\n    /* \"#utility.yul\":4360:4382   */\n  swap1\n  pop\n    /* \"#utility.yul\":4427:4428   */\n  0x01\n    /* \"#utility.yul\":4421:4425   */\n  dup3\n    /* \"#utility.yul\":4417:4429   */\n  and\n    /* \"#utility.yul\":4448:4466   */\n  dup1\n    /* \"#utility.yul\":4438:4519   */\n  tag_91\n  jumpi\n    /* \"#utility.yul\":4504:4508   */\n  0x7f\n    /* \"#utility.yul\":4496:4502   */\n  dup3\n    /* \"#utility.yul\":4492:4509   */\n  and\n    /* \"#utility.yul\":4482:4509   */\n  swap2\n  pop\n    /* \"#utility.yul\":4438:4519   */\ntag_91:\n    /* \"#utility.yul\":4566:4568   */\n  0x20\n    /* \"#utility.yul\":4558:4564   */\n  dup3\n    /* \"#utility.yul\":4555:4569   */\n  lt\n    /* \"#utility.yul\":4535:4553   */\n  dup2\n    /* \"#utility.yul\":4532:4570   */\n  eq\n    /* \"#utility.yul\":4529:4613   */\n  iszero\n  tag_92\n  jumpi\n    /* \"#utility.yul\":4585:4603   */\n  tag_93\n  tag_39\n  jump\t// in\ntag_93:\n    /* \"#utility.yul\":4529:4613   */\ntag_92:\n    /* \"#utility.yul\":4350:4619   */\n  pop\n    /* \"#utility.yul\":4299:4619   */\n  swap2\n  swap1\n  pop\n  jump\t// out\n    /* \"Vehicle.sol\":168:3240  contract Vehicle {... */\ntag_11:\n  dataSize(sub_0)\n  dup1\n  dataOffset(sub_0)\n  0x00\n  codecopy\n  0x00\n  return\nstop\n\nsub_0: assembly {\n        /* \"Vehicle.sol\":168:3240  contract Vehicle {... */\n      mstore(0x40, 0x80)\n      jumpi(tag_1, lt(calldatasize, 0x04))\n      shr(0xe0, calldataload(0x00))\n      dup1\n      0x99a98dc1\n      gt\n      tag_14\n      jumpi\n      dup1\n      0x99a98dc1\n      eq\n      tag_8\n      jumpi\n      dup1\n      0xa35f8a40\n      eq\n      tag_9\n      jumpi\n      dup1\n      0xb4250922\n      eq\n      tag_10\n      jumpi\n      dup1\n      0xbfd772fc\n      eq\n      tag_11\n      jumpi\n      dup1\n      0xe061646b\n      eq\n      tag_12\n      jumpi\n      dup1\n      0xfa540801\n      eq\n      tag_13\n      jumpi\n      jump(tag_1)\n    tag_14:\n      dup1\n      0x0c638710\n      eq\n      tag_2\n      jumpi\n      dup1\n      0x39074ba2\n      eq\n      tag_3\n      jumpi\n      dup1\n      0x64e15b4c\n      eq\n      tag_4\n      jumpi\n      dup1\n      0x67e404ce\n      eq\n      tag_5\n      jumpi\n      dup1\n      0x6a0f4dd0\n      eq\n      tag_6\n      jumpi\n      dup1\n      0x8b52a81e\n      eq\n      tag_7\n      jumpi\n    tag_1:\n      0x00\n      dup1\n      revert\n        /* \"Vehicle.sol\":2784:3127  function retrieveProviders(Provider[] memory _providers) public {... */\n    tag_2:\n      callvalue\n      dup1\n      iszero\n      tag_15\n      jumpi\n      0x00\n      dup1\n      revert\n    tag_15:\n      pop\n      tag_16\n      0x04\n      dup1\n      calldatasize\n      sub\n      dup2\n      add\n      swap1\n      tag_17\n      swap2\n      swap1\n      tag_18\n      jump\t// in\n    tag_17:\n      tag_19\n      jump\t// in\n    tag_16:\n      stop\n        /* \"Vehicle.sol\":3135:3235  function selectProvider() public view {... */\n    tag_3:\n      callvalue\n      dup1\n      iszero\n      tag_20\n      jumpi\n      0x00\n      dup1\n      revert\n    tag_20:\n      pop\n      tag_21\n      tag_22\n      jump\t// in\n    tag_21:\n      stop\n        /* \"Vehicle.sol\":2164:2776  function getSignatureEvaluation(address[] memory _receivers, uint _amount, string memory _message, uint _nonce, bytes memory signature) public payable returns (address[] memory) {... */\n    tag_4:\n      tag_23\n      0x04\n      dup1\n      calldatasize\n      sub\n      dup2\n      add\n      swap1\n      tag_24\n      swap2\n      swap1\n      tag_25\n      jump\t// in\n    tag_24:\n      tag_26\n      jump\t// in\n    tag_23:\n      mload(0x40)\n      tag_27\n      swap2\n      swap1\n      tag_28\n      jump\t// in\n    tag_27:\n      mload(0x40)\n      dup1\n      swap2\n      sub\n      swap1\n      return\n        /* \"Vehicle.sol\":241:262  address public sender */\n    tag_5:\n      callvalue\n      dup1\n      iszero\n      tag_29\n      jumpi\n      0x00\n      dup1\n      revert\n    tag_29:\n      pop\n      tag_30\n      tag_31\n      jump\t// in\n    tag_30:\n      mload(0x40)\n      tag_32\n      swap2\n      swap1\n      tag_33\n      jump\t// in\n    tag_32:\n      mload(0x40)\n      dup1\n      swap2\n      sub\n      swap1\n      return\n        /* \"Vehicle.sol\":320:372  mapping(address => Provider) public serviceProviders */\n    tag_6:\n      callvalue\n      dup1\n      iszero\n      tag_34\n      jumpi\n      0x00\n      dup1\n      revert\n    tag_34:\n      pop\n      tag_35\n      0x04\n      dup1\n      calldatasize\n      sub\n      dup2\n      add\n      swap1\n      tag_36\n      swap2\n      swap1\n      tag_37\n      jump\t// in\n    tag_36:\n      tag_38\n      jump\t// in\n    tag_35:\n      mload(0x40)\n      tag_39\n      swap2\n      swap1\n      tag_40\n      jump\t// in\n    tag_39:\n      mload(0x40)\n      dup1\n      swap2\n      sub\n      swap1\n      return\n        /* \"Vehicle.sol\":1477:1621  function retrieveLocation(uint256 _longitude, uint256 _latitude) public {... */\n    tag_7:\n      callvalue\n      dup1\n      iszero\n      tag_41\n      jumpi\n      0x00\n      dup1\n      revert\n    tag_41:\n      pop\n      tag_42\n      0x04\n      dup1\n      calldatasize\n      sub\n      dup2\n      add\n      swap1\n      tag_43\n      swap2\n      swap1\n      tag_44\n      jump\t// in\n    tag_43:\n      tag_45\n      jump\t// in\n    tag_42:\n      stop\n        /* \"Vehicle.sol\":412:456  mapping(address => RSU) public connectedRSUs */\n    tag_8:\n      callvalue\n      dup1\n      iszero\n      tag_46\n      jumpi\n      0x00\n      dup1\n      revert\n    tag_46:\n      pop\n      tag_47\n      0x04\n      dup1\n      calldatasize\n      sub\n      dup2\n      add\n      swap1\n      tag_48\n      swap2\n      swap1\n      tag_37\n      jump\t// in\n    tag_48:\n      tag_49\n      jump\t// in\n    tag_47:\n      mload(0x40)\n      tag_50\n      swap2\n      swap1\n      tag_51\n      jump\t// in\n    tag_50:\n      mload(0x40)\n      dup1\n      swap2\n      sub\n      swap1\n      return\n        /* \"Vehicle.sol\":1629:1921  function getMessageHash(address _receiver, uint _amount, string memory _message, uint _nonce) public payable returns (bytes32) {... */\n    tag_9:\n      tag_52\n      0x04\n      dup1\n      calldatasize\n      sub\n      dup2\n      add\n      swap1\n      tag_53\n      swap2\n      swap1\n      tag_54\n      jump\t// in\n    tag_53:\n      tag_55\n      jump\t// in\n    tag_52:\n      mload(0x40)\n      tag_56\n      swap2\n      swap1\n      tag_57\n      jump\t// in\n    tag_56:\n      mload(0x40)\n      dup1\n      swap2\n      sub\n      swap1\n      return\n        /* \"Vehicle.sol\":1358:1465  function setConnectedRSU(address _address, RSU rsu) public {... */\n    tag_10:\n      callvalue\n      dup1\n      iszero\n      tag_58\n      jumpi\n      0x00\n      dup1\n      revert\n    tag_58:\n      pop\n      tag_59\n      0x04\n      dup1\n      calldatasize\n      sub\n      dup2\n      add\n      swap1\n      tag_60\n      swap2\n      swap1\n      tag_61\n      jump\t// in\n    tag_60:\n      tag_62\n      jump\t// in\n    tag_59:\n      stop\n        /* \"Vehicle.sol\":269:295  address[] public receivers */\n    tag_11:\n      callvalue\n      dup1\n      iszero\n      tag_63\n      jumpi\n      0x00\n      dup1\n      revert\n    tag_63:\n      pop\n      tag_64\n      0x04\n      dup1\n      calldatasize\n      sub\n      dup2\n      add\n      swap1\n      tag_65\n      swap2\n      swap1\n      tag_66\n      jump\t// in\n    tag_65:\n      tag_67\n      jump\t// in\n    tag_64:\n      mload(0x40)\n      tag_68\n      swap2\n      swap1\n      tag_33\n      jump\t// in\n    tag_68:\n      mload(0x40)\n      dup1\n      swap2\n      sub\n      swap1\n      return\n        /* \"Vehicle.sol\":1248:1346  function getReceivers() public view returns (address[] memory) {... */\n    tag_12:\n      callvalue\n      dup1\n      iszero\n      tag_69\n      jumpi\n      0x00\n      dup1\n      revert\n    tag_69:\n      pop\n      tag_70\n      tag_71\n      jump\t// in\n    tag_70:\n      mload(0x40)\n      tag_72\n      swap2\n      swap1\n      tag_28\n      jump\t// in\n    tag_72:\n      mload(0x40)\n      dup1\n      swap2\n      sub\n      swap1\n      return\n        /* \"Vehicle.sol\":1929:2156  function getEthSignedMessageHash(bytes32 _messageHash) public payable returns (bytes32) {... */\n    tag_13:\n      tag_73\n      0x04\n      dup1\n      calldatasize\n      sub\n      dup2\n      add\n      swap1\n      tag_74\n      swap2\n      swap1\n      tag_75\n      jump\t// in\n    tag_74:\n      tag_76\n      jump\t// in\n    tag_73:\n      mload(0x40)\n      tag_77\n      swap2\n      swap1\n      tag_57\n      jump\t// in\n    tag_77:\n      mload(0x40)\n      dup1\n      swap2\n      sub\n      swap1\n      return\n        /* \"Vehicle.sol\":2784:3127  function retrieveProviders(Provider[] memory _providers) public {... */\n    tag_19:\n        /* \"Vehicle.sol\":2859:2865  uint i */\n      0x00\n        /* \"Vehicle.sol\":2880:2888  uint len */\n      dup1\n        /* \"Vehicle.sol\":2891:2901  _providers */\n      dup3\n        /* \"Vehicle.sol\":2891:2908  _providers.length */\n      mload\n        /* \"Vehicle.sol\":2880:2908  uint len = _providers.length */\n      swap1\n      pop\n        /* \"Vehicle.sol\":2928:2929  0 */\n      0x00\n        /* \"Vehicle.sol\":2924:2929  i = 0 */\n      swap2\n      pop\n        /* \"Vehicle.sol\":2919:3120  for (i = 0; i < len; i++) {... */\n    tag_79:\n        /* \"Vehicle.sol\":2935:2938  len */\n      dup1\n        /* \"Vehicle.sol\":2931:2932  i */\n      dup3\n        /* \"Vehicle.sol\":2931:2938  i < len */\n      lt\n        /* \"Vehicle.sol\":2919:3120  for (i = 0; i < len; i++) {... */\n      iszero\n      tag_80\n      jumpi\n        /* \"Vehicle.sol\":2960:2977  Provider provider */\n      0x00\n        /* \"Vehicle.sol\":2980:2990  _providers */\n      dup4\n        /* \"Vehicle.sol\":2991:2992  i */\n      dup4\n        /* \"Vehicle.sol\":2980:2993  _providers[i] */\n      dup2\n      mload\n      dup2\n      lt\n      tag_82\n      jumpi\n      tag_83\n      tag_84\n      jump\t// in\n    tag_83:\n    tag_82:\n      0x20\n      mul\n      0x20\n      add\n      add\n      mload\n        /* \"Vehicle.sol\":2960:2993  Provider provider = _providers[i] */\n      swap1\n      pop\n        /* \"Vehicle.sol\":3046:3054  provider */\n      dup1\n        /* \"Vehicle.sol\":3008:3024  serviceProviders */\n      0x03\n        /* \"Vehicle.sol\":3008:3043  serviceProviders[address(provider)] */\n      0x00\n        /* \"Vehicle.sol\":3033:3041  provider */\n      dup4\n        /* \"Vehicle.sol\":3008:3043  serviceProviders[address(provider)] */\n      0xffffffffffffffffffffffffffffffffffffffff\n      and\n      0xffffffffffffffffffffffffffffffffffffffff\n      and\n      dup2\n      mstore\n      0x20\n      add\n      swap1\n      dup2\n      mstore\n      0x20\n      add\n      0x00\n      keccak256\n      0x00\n        /* \"Vehicle.sol\":3008:3054  serviceProviders[address(provider)] = provider */\n      0x0100\n      exp\n      dup2\n      sload\n      dup2\n      0xffffffffffffffffffffffffffffffffffffffff\n      mul\n      not\n      and\n      swap1\n      dup4\n      0xffffffffffffffffffffffffffffffffffffffff\n      and\n      mul\n      or\n      swap1\n      sstore\n      pop\n        /* \"Vehicle.sol\":3099:3107  provider */\n      dup1\n        /* \"Vehicle.sol\":3069:3085  addressProviders */\n      0x04\n        /* \"Vehicle.sol\":3086:3087  i */\n      dup5\n        /* \"Vehicle.sol\":3069:3088  addressProviders[i] */\n      dup2\n      sload\n      dup2\n      lt\n      tag_85\n      jumpi\n      tag_86\n      tag_84\n      jump\t// in\n    tag_86:\n    tag_85:\n      swap1\n      0x00\n      mstore\n      keccak256(0x00, 0x20)\n      add\n      0x00\n        /* \"Vehicle.sol\":3069:3108  addressProviders[i] = address(provider) */\n      0x0100\n      exp\n      dup2\n      sload\n      dup2\n      0xffffffffffffffffffffffffffffffffffffffff\n      mul\n      not\n      and\n      swap1\n      dup4\n      0xffffffffffffffffffffffffffffffffffffffff\n      and\n      mul\n      or\n      swap1\n      sstore\n      pop\n        /* \"Vehicle.sol\":2945:3120  {... */\n      pop\n        /* \"Vehicle.sol\":2940:2943  i++ */\n      dup2\n      dup1\n      tag_88\n      swap1\n      tag_89\n      jump\t// in\n    tag_88:\n      swap3\n      pop\n      pop\n        /* \"Vehicle.sol\":2919:3120  for (i = 0; i < len; i++) {... */\n      jump(tag_79)\n    tag_80:\n        /* \"Vehicle.sol\":2848:3127  {... */\n      pop\n      pop\n        /* \"Vehicle.sol\":2784:3127  function retrieveProviders(Provider[] memory _providers) public {... */\n      pop\n      jump\t// out\n        /* \"Vehicle.sol\":3135:3235  function selectProvider() public view {... */\n    tag_22:\n      jump\t// out\n        /* \"Vehicle.sol\":2164:2776  function getSignatureEvaluation(address[] memory _receivers, uint _amount, string memory _message, uint _nonce, bytes memory signature) public payable returns (address[] memory) {... */\n    tag_26:\n        /* \"Vehicle.sol\":2324:2340  address[] memory */\n      0x60\n        /* \"Vehicle.sol\":2353:2359  uint i */\n      0x00\n        /* \"Vehicle.sol\":2374:2382  uint len */\n      dup1\n        /* \"Vehicle.sol\":2385:2395  _receivers */\n      dup8\n        /* \"Vehicle.sol\":2385:2402  _receivers.length */\n      mload\n        /* \"Vehicle.sol\":2374:2402  uint len = _receivers.length */\n      swap1\n      pop\n        /* \"Vehicle.sol\":2413:2424  bool result */\n      0x00\n        /* \"Vehicle.sol\":2435:2461  address[] memory validRSUs */\n      0x60\n        /* \"Vehicle.sol\":2481:2482  0 */\n      0x00\n        /* \"Vehicle.sol\":2477:2482  i = 0 */\n      swap4\n      pop\n        /* \"Vehicle.sol\":2472:2742  for (i = 0; i < len; i++) {... */\n    tag_92:\n        /* \"Vehicle.sol\":2488:2491  len */\n      dup3\n        /* \"Vehicle.sol\":2484:2485  i */\n      dup5\n        /* \"Vehicle.sol\":2484:2491  i < len */\n      lt\n        /* \"Vehicle.sol\":2472:2742  for (i = 0; i < len; i++) {... */\n      iszero\n      tag_93\n      jumpi\n        /* \"Vehicle.sol\":2513:2520  RSU rsu */\n      0x00\n        /* \"Vehicle.sol\":2523:2536  connectedRSUs */\n      0x05\n        /* \"Vehicle.sol\":2523:2551  connectedRSUs[_receivers[i]] */\n      0x00\n        /* \"Vehicle.sol\":2537:2547  _receivers */\n      dup13\n        /* \"Vehicle.sol\":2548:2549  i */\n      dup8\n        /* \"Vehicle.sol\":2537:2550  _receivers[i] */\n      dup2\n      mload\n      dup2\n      lt\n      tag_95\n      jumpi\n      tag_96\n      tag_84\n      jump\t// in\n    tag_96:\n    tag_95:\n      0x20\n      mul\n      0x20\n      add\n      add\n      mload\n        /* \"Vehicle.sol\":2523:2551  connectedRSUs[_receivers[i]] */\n      0xffffffffffffffffffffffffffffffffffffffff\n      and\n      0xffffffffffffffffffffffffffffffffffffffff\n      and\n      dup2\n      mstore\n      0x20\n      add\n      swap1\n      dup2\n      mstore\n      0x20\n      add\n      0x00\n      keccak256\n      0x00\n      swap1\n      sload\n      swap1\n      0x0100\n      exp\n      swap1\n      div\n      0xffffffffffffffffffffffffffffffffffffffff\n      and\n        /* \"Vehicle.sol\":2513:2551  RSU rsu = connectedRSUs[_receivers[i]] */\n      swap1\n      pop\n        /* \"Vehicle.sol\":2575:2578  rsu */\n      dup1\n        /* \"Vehicle.sol\":2575:2594  rsu.verifySignature */\n      0xffffffffffffffffffffffffffffffffffffffff\n      and\n      0x524f685b\n        /* \"Vehicle.sol\":2595:2605  msg.sender */\n      caller\n        /* \"Vehicle.sol\":2607:2617  _receivers */\n      dup14\n        /* \"Vehicle.sol\":2618:2619  i */\n      dup9\n        /* \"Vehicle.sol\":2607:2620  _receivers[i] */\n      dup2\n      mload\n      dup2\n      lt\n      tag_97\n      jumpi\n      tag_98\n      tag_84\n      jump\t// in\n    tag_98:\n    tag_97:\n      0x20\n      mul\n      0x20\n      add\n      add\n      mload\n        /* \"Vehicle.sol\":2622:2629  _amount */\n      dup14\n        /* \"Vehicle.sol\":2631:2639  _message */\n      dup14\n        /* \"Vehicle.sol\":2641:2647  _nonce */\n      dup14\n        /* \"Vehicle.sol\":2649:2658  signature */\n      dup14\n        /* \"Vehicle.sol\":2575:2659  rsu.verifySignature(msg.sender, _receivers[i], _amount, _message, _nonce, signature) */\n      mload(0x40)\n      dup8\n      0xffffffff\n      and\n      0xe0\n      shl\n      dup2\n      mstore\n      0x04\n      add\n      tag_99\n      swap7\n      swap6\n      swap5\n      swap4\n      swap3\n      swap2\n      swap1\n      tag_100\n      jump\t// in\n    tag_99:\n      0x20\n      mload(0x40)\n      dup1\n      dup4\n      sub\n      dup2\n      0x00\n      dup8\n      dup1\n      extcodesize\n      iszero\n      dup1\n      iszero\n      tag_101\n      jumpi\n      0x00\n      dup1\n      revert\n    tag_101:\n      pop\n      gas\n      call\n      iszero\n      dup1\n      iszero\n      tag_103\n      jumpi\n      returndatasize\n      0x00\n      dup1\n      returndatacopy\n      revert(0x00, returndatasize)\n    tag_103:\n      pop\n      pop\n      pop\n      pop\n      mload(0x40)\n      returndatasize\n      not(0x1f)\n      0x1f\n      dup3\n      add\n      and\n      dup3\n      add\n      dup1\n      0x40\n      mstore\n      pop\n      dup2\n      add\n      swap1\n      tag_104\n      swap2\n      swap1\n      tag_105\n      jump\t// in\n    tag_104:\n        /* \"Vehicle.sol\":2566:2659  result = rsu.verifySignature(msg.sender, _receivers[i], _amount, _message, _nonce, signature) */\n      swap3\n      pop\n        /* \"Vehicle.sol\":2678:2684  result */\n      dup3\n        /* \"Vehicle.sol\":2674:2730  if (result) validRSUs[validRSUs.length-1] = address(rsu) */\n      iszero\n      tag_106\n      jumpi\n        /* \"Vehicle.sol\":2726:2729  rsu */\n      dup1\n        /* \"Vehicle.sol\":2686:2695  validRSUs */\n      dup3\n        /* \"Vehicle.sol\":2713:2714  1 */\n      0x01\n        /* \"Vehicle.sol\":2696:2705  validRSUs */\n      dup5\n        /* \"Vehicle.sol\":2696:2712  validRSUs.length */\n      mload\n        /* \"Vehicle.sol\":2696:2714  validRSUs.length-1 */\n      tag_107\n      swap2\n      swap1\n      tag_108\n      jump\t// in\n    tag_107:\n        /* \"Vehicle.sol\":2686:2715  validRSUs[validRSUs.length-1] */\n      dup2\n      mload\n      dup2\n      lt\n      tag_109\n      jumpi\n      tag_110\n      tag_84\n      jump\t// in\n    tag_110:\n    tag_109:\n      0x20\n      mul\n      0x20\n      add\n      add\n        /* \"Vehicle.sol\":2686:2730  validRSUs[validRSUs.length-1] = address(rsu) */\n      swap1\n      0xffffffffffffffffffffffffffffffffffffffff\n      and\n      swap1\n      dup2\n      0xffffffffffffffffffffffffffffffffffffffff\n      and\n      dup2\n      mstore\n      pop\n      pop\n        /* \"Vehicle.sol\":2674:2730  if (result) validRSUs[validRSUs.length-1] = address(rsu) */\n    tag_106:\n        /* \"Vehicle.sol\":2498:2742  {... */\n      pop\n        /* \"Vehicle.sol\":2493:2496  i++ */\n      dup4\n      dup1\n      tag_111\n      swap1\n      tag_89\n      jump\t// in\n    tag_111:\n      swap5\n      pop\n      pop\n        /* \"Vehicle.sol\":2472:2742  for (i = 0; i < len; i++) {... */\n      jump(tag_92)\n    tag_93:\n        /* \"Vehicle.sol\":2759:2768  validRSUs */\n      dup1\n        /* \"Vehicle.sol\":2752:2768  return validRSUs */\n      swap5\n      pop\n      pop\n      pop\n      pop\n      pop\n        /* \"Vehicle.sol\":2164:2776  function getSignatureEvaluation(address[] memory _receivers, uint _amount, string memory _message, uint _nonce, bytes memory signature) public payable returns (address[] memory) {... */\n      swap6\n      swap5\n      pop\n      pop\n      pop\n      pop\n      pop\n      jump\t// out\n        /* \"Vehicle.sol\":241:262  address public sender */\n    tag_31:\n      0x00\n      dup1\n      sload\n      swap1\n      0x0100\n      exp\n      swap1\n      div\n      0xffffffffffffffffffffffffffffffffffffffff\n      and\n      dup2\n      jump\t// out\n        /* \"Vehicle.sol\":320:372  mapping(address => Provider) public serviceProviders */\n    tag_38:\n      mstore(0x20, 0x03)\n      dup1\n      0x00\n      mstore\n      keccak256(0x00, 0x40)\n      0x00\n      swap2\n      pop\n      sload\n      swap1\n      0x0100\n      exp\n      swap1\n      div\n      0xffffffffffffffffffffffffffffffffffffffff\n      and\n      dup2\n      jump\t// out\n        /* \"Vehicle.sol\":1477:1621  function retrieveLocation(uint256 _longitude, uint256 _latitude) public {... */\n    tag_45:\n        /* \"Vehicle.sol\":1572:1582  _longitude */\n      dup2\n        /* \"Vehicle.sol\":1560:1569  longitude */\n      0x06\n        /* \"Vehicle.sol\":1560:1582  longitude = _longitude */\n      dup2\n      swap1\n      sstore\n      pop\n        /* \"Vehicle.sol\":1604:1613  _latitude */\n      dup1\n        /* \"Vehicle.sol\":1593:1601  latitude */\n      0x07\n        /* \"Vehicle.sol\":1593:1613  latitude = _latitude */\n      dup2\n      swap1\n      sstore\n      pop\n        /* \"Vehicle.sol\":1477:1621  function retrieveLocation(uint256 _longitude, uint256 _latitude) public {... */\n      pop\n      pop\n      jump\t// out\n        /* \"Vehicle.sol\":412:456  mapping(address => RSU) public connectedRSUs */\n    tag_49:\n      mstore(0x20, 0x05)\n      dup1\n      0x00\n      mstore\n      keccak256(0x00, 0x40)\n      0x00\n      swap2\n      pop\n      sload\n      swap1\n      0x0100\n      exp\n      swap1\n      div\n      0xffffffffffffffffffffffffffffffffffffffff\n      and\n      dup2\n      jump\t// out\n        /* \"Vehicle.sol\":1629:1921  function getMessageHash(address _receiver, uint _amount, string memory _message, uint _nonce) public payable returns (bytes32) {... */\n    tag_55:\n        /* \"Vehicle.sol\":1747:1754  bytes32 */\n      0x00\n        /* \"Vehicle.sol\":1793:1802  _receiver */\n      dup5\n        /* \"Vehicle.sol\":1772:1830  Critical(msg.sender, _receiver, _amount, _message, _nonce) */\n      0xffffffffffffffffffffffffffffffffffffffff\n      and\n        /* \"Vehicle.sol\":1781:1791  msg.sender */\n      caller\n        /* \"Vehicle.sol\":1772:1830  Critical(msg.sender, _receiver, _amount, _message, _nonce) */\n      0xffffffffffffffffffffffffffffffffffffffff\n      and\n      0x56f6c977d94bdfab068e6e03119fd3e227698075ff00e1f122fcbb541c219ada\n        /* \"Vehicle.sol\":1804:1811  _amount */\n      dup7\n        /* \"Vehicle.sol\":1813:1821  _message */\n      dup7\n        /* \"Vehicle.sol\":1823:1829  _nonce */\n      dup7\n        /* \"Vehicle.sol\":1772:1830  Critical(msg.sender, _receiver, _amount, _message, _nonce) */\n      mload(0x40)\n      tag_114\n      swap4\n      swap3\n      swap2\n      swap1\n      tag_115\n      jump\t// in\n    tag_114:\n      mload(0x40)\n      dup1\n      swap2\n      sub\n      swap1\n      log3\n        /* \"Vehicle.sol\":1875:1884  _receiver */\n      dup5\n        /* \"Vehicle.sol\":1886:1893  _amount */\n      dup5\n        /* \"Vehicle.sol\":1895:1903  _message */\n      dup5\n        /* \"Vehicle.sol\":1905:1911  _nonce */\n      dup5\n        /* \"Vehicle.sol\":1858:1912  abi.encodePacked(_receiver, _amount, _message, _nonce) */\n      add(0x20, mload(0x40))\n      tag_116\n      swap5\n      swap4\n      swap3\n      swap2\n      swap1\n      tag_117\n      jump\t// in\n    tag_116:\n      mload(0x40)\n      0x20\n      dup2\n      dup4\n      sub\n      sub\n      dup2\n      mstore\n      swap1\n      0x40\n      mstore\n        /* \"Vehicle.sol\":1848:1913  keccak256(abi.encodePacked(_receiver, _amount, _message, _nonce)) */\n      dup1\n      mload\n      swap1\n      0x20\n      add\n      keccak256\n        /* \"Vehicle.sol\":1841:1913  return keccak256(abi.encodePacked(_receiver, _amount, _message, _nonce)) */\n      swap1\n      pop\n        /* \"Vehicle.sol\":1629:1921  function getMessageHash(address _receiver, uint _amount, string memory _message, uint _nonce) public payable returns (bytes32) {... */\n      swap5\n      swap4\n      pop\n      pop\n      pop\n      pop\n      jump\t// out\n        /* \"Vehicle.sol\":1358:1465  function setConnectedRSU(address _address, RSU rsu) public {... */\n    tag_62:\n        /* \"Vehicle.sol\":1454:1457  rsu */\n      dup1\n        /* \"Vehicle.sol\":1428:1441  connectedRSUs */\n      0x05\n        /* \"Vehicle.sol\":1428:1451  connectedRSUs[_address] */\n      0x00\n        /* \"Vehicle.sol\":1442:1450  _address */\n      dup5\n        /* \"Vehicle.sol\":1428:1451  connectedRSUs[_address] */\n      0xffffffffffffffffffffffffffffffffffffffff\n      and\n      0xffffffffffffffffffffffffffffffffffffffff\n      and\n      dup2\n      mstore\n      0x20\n      add\n      swap1\n      dup2\n      mstore\n      0x20\n      add\n      0x00\n      keccak256\n      0x00\n        /* \"Vehicle.sol\":1428:1457  connectedRSUs[_address] = rsu */\n      0x0100\n      exp\n      dup2\n      sload\n      dup2\n      0xffffffffffffffffffffffffffffffffffffffff\n      mul\n      not\n      and\n      swap1\n      dup4\n      0xffffffffffffffffffffffffffffffffffffffff\n      and\n      mul\n      or\n      swap1\n      sstore\n      pop\n        /* \"Vehicle.sol\":1358:1465  function setConnectedRSU(address _address, RSU rsu) public {... */\n      pop\n      pop\n      jump\t// out\n        /* \"Vehicle.sol\":269:295  address[] public receivers */\n    tag_67:\n      0x01\n      dup2\n      dup2\n      sload\n      dup2\n      lt\n      tag_119\n      jumpi\n      0x00\n      dup1\n      revert\n    tag_119:\n      swap1\n      0x00\n      mstore\n      keccak256(0x00, 0x20)\n      add\n      0x00\n      swap2\n      pop\n      sload\n      swap1\n      0x0100\n      exp\n      swap1\n      div\n      0xffffffffffffffffffffffffffffffffffffffff\n      and\n      dup2\n      jump\t// out\n        /* \"Vehicle.sol\":1248:1346  function getReceivers() public view returns (address[] memory) {... */\n    tag_71:\n        /* \"Vehicle.sol\":1293:1309  address[] memory */\n      0x60\n        /* \"Vehicle.sol\":1329:1338  receivers */\n      0x01\n        /* \"Vehicle.sol\":1322:1338  return receivers */\n      dup1\n      sload\n      dup1\n      0x20\n      mul\n      0x20\n      add\n      mload(0x40)\n      swap1\n      dup2\n      add\n      0x40\n      mstore\n      dup1\n      swap3\n      swap2\n      swap1\n      dup2\n      dup2\n      mstore\n      0x20\n      add\n      dup3\n      dup1\n      sload\n      dup1\n      iszero\n      tag_122\n      jumpi\n      0x20\n      mul\n      dup3\n      add\n      swap2\n      swap1\n      0x00\n      mstore\n      keccak256(0x00, 0x20)\n      swap1\n    tag_123:\n      dup2\n      0x00\n      swap1\n      sload\n      swap1\n      0x0100\n      exp\n      swap1\n      div\n      0xffffffffffffffffffffffffffffffffffffffff\n      and\n      0xffffffffffffffffffffffffffffffffffffffff\n      and\n      dup2\n      mstore\n      0x20\n      add\n      swap1\n      0x01\n      add\n      swap1\n      dup1\n      dup4\n      gt\n      tag_123\n      jumpi\n    tag_122:\n      pop\n      pop\n      pop\n      pop\n      pop\n      swap1\n      pop\n        /* \"Vehicle.sol\":1248:1346  function getReceivers() public view returns (address[] memory) {... */\n      swap1\n      jump\t// out\n        /* \"Vehicle.sol\":1929:2156  function getEthSignedMessageHash(bytes32 _messageHash) public payable returns (bytes32) {... */\n    tag_76:\n        /* \"Vehicle.sol\":2008:2015  bytes32 */\n      0x00\n        /* \"Vehicle.sol\":2033:2053  Signed(_messageHash) */\n      0x2563bf12e759147ae41a036dffeece03c4db05da3b738a30dd100821f498c57c\n        /* \"Vehicle.sol\":2040:2052  _messageHash */\n      dup3\n        /* \"Vehicle.sol\":2033:2053  Signed(_messageHash) */\n      mload(0x40)\n      tag_125\n      swap2\n      swap1\n      tag_57\n      jump\t// in\n    tag_125:\n      mload(0x40)\n      dup1\n      swap2\n      sub\n      swap1\n      log1\n        /* \"Vehicle.sol\":2134:2146  _messageHash */\n      dup2\n        /* \"Vehicle.sol\":2081:2147  abi.encodePacked(\"\\x19Ethereum Signed Message:\\n32\", _messageHash) */\n      add(0x20, mload(0x40))\n      tag_126\n      swap2\n      swap1\n      tag_127\n      jump\t// in\n    tag_126:\n      mload(0x40)\n      0x20\n      dup2\n      dup4\n      sub\n      sub\n      dup2\n      mstore\n      swap1\n      0x40\n      mstore\n        /* \"Vehicle.sol\":2071:2148  keccak256(abi.encodePacked(\"\\x19Ethereum Signed Message:\\n32\", _messageHash)) */\n      dup1\n      mload\n      swap1\n      0x20\n      add\n      keccak256\n        /* \"Vehicle.sol\":2064:2148  return keccak256(abi.encodePacked(\"\\x19Ethereum Signed Message:\\n32\", _messageHash)) */\n      swap1\n      pop\n        /* \"Vehicle.sol\":1929:2156  function getEthSignedMessageHash(bytes32 _messageHash) public payable returns (bytes32) {... */\n      swap2\n      swap1\n      pop\n      jump\t// out\n        /* \"#utility.yul\":7:82   */\n    tag_128:\n        /* \"#utility.yul\":40:46   */\n      0x00\n        /* \"#utility.yul\":73:75   */\n      0x40\n        /* \"#utility.yul\":67:76   */\n      mload\n        /* \"#utility.yul\":57:76   */\n      swap1\n      pop\n        /* \"#utility.yul\":7:82   */\n      swap1\n      jump\t// out\n        /* \"#utility.yul\":88:205   */\n    tag_129:\n        /* \"#utility.yul\":197:198   */\n      0x00\n        /* \"#utility.yul\":194:195   */\n      dup1\n        /* \"#utility.yul\":187:199   */\n      revert\n        /* \"#utility.yul\":211:328   */\n    tag_130:\n        /* \"#utility.yul\":320:321   */\n      0x00\n        /* \"#utility.yul\":317:318   */\n      dup1\n        /* \"#utility.yul\":310:322   */\n      revert\n        /* \"#utility.yul\":334:451   */\n    tag_131:\n        /* \"#utility.yul\":443:444   */\n      0x00\n        /* \"#utility.yul\":440:441   */\n      dup1\n        /* \"#utility.yul\":433:445   */\n      revert\n        /* \"#utility.yul\":457:559   */\n    tag_132:\n        /* \"#utility.yul\":498:504   */\n      0x00\n        /* \"#utility.yul\":549:551   */\n      0x1f\n        /* \"#utility.yul\":545:552   */\n      not\n        /* \"#utility.yul\":540:542   */\n      0x1f\n        /* \"#utility.yul\":533:538   */\n      dup4\n        /* \"#utility.yul\":529:543   */\n      add\n        /* \"#utility.yul\":525:553   */\n      and\n        /* \"#utility.yul\":515:553   */\n      swap1\n      pop\n        /* \"#utility.yul\":457:559   */\n      swap2\n      swap1\n      pop\n      jump\t// out\n        /* \"#utility.yul\":565:745   */\n    tag_133:\n        /* \"#utility.yul\":613:690   */\n      0x4e487b7100000000000000000000000000000000000000000000000000000000\n        /* \"#utility.yul\":610:611   */\n      0x00\n        /* \"#utility.yul\":603:691   */\n      mstore\n        /* \"#utility.yul\":710:714   */\n      0x41\n        /* \"#utility.yul\":707:708   */\n      0x04\n        /* \"#utility.yul\":700:715   */\n      mstore\n        /* \"#utility.yul\":734:738   */\n      0x24\n        /* \"#utility.yul\":731:732   */\n      0x00\n        /* \"#utility.yul\":724:739   */\n      revert\n        /* \"#utility.yul\":751:1032   */\n    tag_134:\n        /* \"#utility.yul\":834:861   */\n      tag_215\n        /* \"#utility.yul\":856:860   */\n      dup3\n        /* \"#utility.yul\":834:861   */\n      tag_132\n      jump\t// in\n    tag_215:\n        /* \"#utility.yul\":826:832   */\n      dup2\n        /* \"#utility.yul\":822:862   */\n      add\n        /* \"#utility.yul\":964:970   */\n      dup2\n        /* \"#utility.yul\":952:962   */\n      dup2\n        /* \"#utility.yul\":949:971   */\n      lt\n        /* \"#utility.yul\":928:946   */\n      0xffffffffffffffff\n        /* \"#utility.yul\":916:926   */\n      dup3\n        /* \"#utility.yul\":913:947   */\n      gt\n        /* \"#utility.yul\":910:972   */\n      or\n        /* \"#utility.yul\":907:995   */\n      iszero\n      tag_216\n      jumpi\n        /* \"#utility.yul\":975:993   */\n      tag_217\n      tag_133\n      jump\t// in\n    tag_217:\n        /* \"#utility.yul\":907:995   */\n    tag_216:\n        /* \"#utility.yul\":1015:1025   */\n      dup1\n        /* \"#utility.yul\":1011:1013   */\n      0x40\n        /* \"#utility.yul\":1004:1026   */\n      mstore\n        /* \"#utility.yul\":794:1032   */\n      pop\n        /* \"#utility.yul\":751:1032   */\n      pop\n      pop\n      jump\t// out\n        /* \"#utility.yul\":1038:1167   */\n    tag_135:\n        /* \"#utility.yul\":1072:1078   */\n      0x00\n        /* \"#utility.yul\":1099:1119   */\n      tag_219\n      tag_128\n      jump\t// in\n    tag_219:\n        /* \"#utility.yul\":1089:1119   */\n      swap1\n      pop\n        /* \"#utility.yul\":1128:1161   */\n      tag_220\n        /* \"#utility.yul\":1156:1160   */\n      dup3\n        /* \"#utility.yul\":1148:1154   */\n      dup3\n        /* \"#utility.yul\":1128:1161   */\n      tag_134\n      jump\t// in\n    tag_220:\n        /* \"#utility.yul\":1038:1167   */\n      swap2\n      swap1\n      pop\n      jump\t// out\n        /* \"#utility.yul\":1173:1500   */\n    tag_136:\n        /* \"#utility.yul\":1266:1270   */\n      0x00\n        /* \"#utility.yul\":1356:1374   */\n      0xffffffffffffffff\n        /* \"#utility.yul\":1348:1354   */\n      dup3\n        /* \"#utility.yul\":1345:1375   */\n      gt\n        /* \"#utility.yul\":1342:1398   */\n      iszero\n      tag_222\n      jumpi\n        /* \"#utility.yul\":1378:1396   */\n      tag_223\n      tag_133\n      jump\t// in\n    tag_223:\n        /* \"#utility.yul\":1342:1398   */\n    tag_222:\n        /* \"#utility.yul\":1428:1432   */\n      0x20\n        /* \"#utility.yul\":1420:1426   */\n      dup3\n        /* \"#utility.yul\":1416:1433   */\n      mul\n        /* \"#utility.yul\":1408:1433   */\n      swap1\n      pop\n        /* \"#utility.yul\":1488:1492   */\n      0x20\n        /* \"#utility.yul\":1482:1486   */\n      dup2\n        /* \"#utility.yul\":1478:1493   */\n      add\n        /* \"#utility.yul\":1470:1493   */\n      swap1\n      pop\n        /* \"#utility.yul\":1173:1500   */\n      swap2\n      swap1\n      pop\n      jump\t// out\n        /* \"#utility.yul\":1506:1623   */\n    tag_137:\n        /* \"#utility.yul\":1615:1616   */\n      0x00\n        /* \"#utility.yul\":1612:1613   */\n      dup1\n        /* \"#utility.yul\":1605:1617   */\n      revert\n        /* \"#utility.yul\":1629:1755   */\n    tag_138:\n        /* \"#utility.yul\":1666:1673   */\n      0x00\n        /* \"#utility.yul\":1706:1748   */\n      0xffffffffffffffffffffffffffffffffffffffff\n        /* \"#utility.yul\":1699:1704   */\n      dup3\n        /* \"#utility.yul\":1695:1749   */\n      and\n        /* \"#utility.yul\":1684:1749   */\n      swap1\n      pop\n        /* \"#utility.yul\":1629:1755   */\n      swap2\n      swap1\n      pop\n      jump\t// out\n        /* \"#utility.yul\":1761:1857   */\n    tag_139:\n        /* \"#utility.yul\":1798:1805   */\n      0x00\n        /* \"#utility.yul\":1827:1851   */\n      tag_227\n        /* \"#utility.yul\":1845:1850   */\n      dup3\n        /* \"#utility.yul\":1827:1851   */\n      tag_138\n      jump\t// in\n    tag_227:\n        /* \"#utility.yul\":1816:1851   */\n      swap1\n      pop\n        /* \"#utility.yul\":1761:1857   */\n      swap2\n      swap1\n      pop\n      jump\t// out\n        /* \"#utility.yul\":1863:1975   */\n    tag_140:\n        /* \"#utility.yul\":1916:1923   */\n      0x00\n        /* \"#utility.yul\":1945:1969   */\n      tag_229\n        /* \"#utility.yul\":1963:1968   */\n      dup3\n        /* \"#utility.yul\":1945:1969   */\n      tag_139\n      jump\t// in\n    tag_229:\n        /* \"#utility.yul\":1934:1969   */\n      swap1\n      pop\n        /* \"#utility.yul\":1863:1975   */\n      swap2\n      swap1\n      pop\n      jump\t// out\n        /* \"#utility.yul\":1981:2135   */\n    tag_141:\n        /* \"#utility.yul\":2070:2110   */\n      tag_231\n        /* \"#utility.yul\":2104:2109   */\n      dup2\n        /* \"#utility.yul\":2070:2110   */\n      tag_140\n      jump\t// in\n    tag_231:\n        /* \"#utility.yul\":2063:2068   */\n      dup2\n        /* \"#utility.yul\":2060:2111   */\n      eq\n        /* \"#utility.yul\":2050:2129   */\n      tag_232\n      jumpi\n        /* \"#utility.yul\":2125:2126   */\n      0x00\n        /* \"#utility.yul\":2122:2123   */\n      dup1\n        /* \"#utility.yul\":2115:2127   */\n      revert\n        /* \"#utility.yul\":2050:2129   */\n    tag_232:\n        /* \"#utility.yul\":1981:2135   */\n      pop\n      jump\t// out\n        /* \"#utility.yul\":2141:2312   */\n    tag_142:\n        /* \"#utility.yul\":2203:2208   */\n      0x00\n        /* \"#utility.yul\":2241:2247   */\n      dup2\n        /* \"#utility.yul\":2228:2248   */\n      calldataload\n        /* \"#utility.yul\":2219:2248   */\n      swap1\n      pop\n        /* \"#utility.yul\":2257:2306   */\n      tag_234\n        /* \"#utility.yul\":2300:2305   */\n      dup2\n        /* \"#utility.yul\":2257:2306   */\n      tag_141\n      jump\t// in\n    tag_234:\n        /* \"#utility.yul\":2141:2312   */\n      swap3\n      swap2\n      pop\n      pop\n      jump\t// out\n        /* \"#utility.yul\":2345:3103   */\n    tag_143:\n        /* \"#utility.yul\":2457:2462   */\n      0x00\n        /* \"#utility.yul\":2482:2579   */\n      tag_236\n        /* \"#utility.yul\":2498:2578   */\n      tag_237\n        /* \"#utility.yul\":2571:2577   */\n      dup5\n        /* \"#utility.yul\":2498:2578   */\n      tag_136\n      jump\t// in\n    tag_237:\n        /* \"#utility.yul\":2482:2579   */\n      tag_135\n      jump\t// in\n    tag_236:\n        /* \"#utility.yul\":2473:2579   */\n      swap1\n      pop\n        /* \"#utility.yul\":2599:2604   */\n      dup1\n        /* \"#utility.yul\":2628:2634   */\n      dup4\n        /* \"#utility.yul\":2621:2626   */\n      dup3\n        /* \"#utility.yul\":2614:2635   */\n      mstore\n        /* \"#utility.yul\":2662:2666   */\n      0x20\n        /* \"#utility.yul\":2655:2660   */\n      dup3\n        /* \"#utility.yul\":2651:2667   */\n      add\n        /* \"#utility.yul\":2644:2667   */\n      swap1\n      pop\n        /* \"#utility.yul\":2715:2719   */\n      0x20\n        /* \"#utility.yul\":2707:2713   */\n      dup5\n        /* \"#utility.yul\":2703:2720   */\n      mul\n        /* \"#utility.yul\":2695:2701   */\n      dup4\n        /* \"#utility.yul\":2691:2721   */\n      add\n        /* \"#utility.yul\":2744:2747   */\n      dup6\n        /* \"#utility.yul\":2736:2742   */\n      dup2\n        /* \"#utility.yul\":2733:2748   */\n      gt\n        /* \"#utility.yul\":2730:2852   */\n      iszero\n      tag_238\n      jumpi\n        /* \"#utility.yul\":2763:2842   */\n      tag_239\n      tag_137\n      jump\t// in\n    tag_239:\n        /* \"#utility.yul\":2730:2852   */\n    tag_238:\n        /* \"#utility.yul\":2878:2884   */\n      dup4\n        /* \"#utility.yul\":2861:3097   */\n    tag_240:\n        /* \"#utility.yul\":2895:2901   */\n      dup2\n        /* \"#utility.yul\":2890:2893   */\n      dup2\n        /* \"#utility.yul\":2887:2902   */\n      lt\n        /* \"#utility.yul\":2861:3097   */\n      iszero\n      tag_242\n      jumpi\n        /* \"#utility.yul\":2970:2973   */\n      dup1\n        /* \"#utility.yul\":2999:3052   */\n      tag_243\n        /* \"#utility.yul\":3048:3051   */\n      dup9\n        /* \"#utility.yul\":3036:3046   */\n      dup3\n        /* \"#utility.yul\":2999:3052   */\n      tag_142\n      jump\t// in\n    tag_243:\n        /* \"#utility.yul\":2994:2997   */\n      dup5\n        /* \"#utility.yul\":2987:3053   */\n      mstore\n        /* \"#utility.yul\":3082:3086   */\n      0x20\n        /* \"#utility.yul\":3077:3080   */\n      dup5\n        /* \"#utility.yul\":3073:3087   */\n      add\n        /* \"#utility.yul\":3066:3087   */\n      swap4\n      pop\n        /* \"#utility.yul\":2937:3097   */\n      pop\n        /* \"#utility.yul\":2921:2925   */\n      0x20\n        /* \"#utility.yul\":2916:2919   */\n      dup2\n        /* \"#utility.yul\":2912:2926   */\n      add\n        /* \"#utility.yul\":2905:2926   */\n      swap1\n      pop\n        /* \"#utility.yul\":2861:3097   */\n      jump(tag_240)\n    tag_242:\n        /* \"#utility.yul\":2865:2886   */\n      pop\n        /* \"#utility.yul\":2463:3103   */\n      pop\n      pop\n        /* \"#utility.yul\":2345:3103   */\n      swap4\n      swap3\n      pop\n      pop\n      pop\n      jump\t// out\n        /* \"#utility.yul\":3136:3538   */\n    tag_144:\n        /* \"#utility.yul\":3223:3228   */\n      0x00\n        /* \"#utility.yul\":3272:3275   */\n      dup3\n        /* \"#utility.yul\":3265:3269   */\n      0x1f\n        /* \"#utility.yul\":3257:3263   */\n      dup4\n        /* \"#utility.yul\":3253:3270   */\n      add\n        /* \"#utility.yul\":3249:3276   */\n      slt\n        /* \"#utility.yul\":3239:3361   */\n      tag_245\n      jumpi\n        /* \"#utility.yul\":3280:3359   */\n      tag_246\n      tag_131\n      jump\t// in\n    tag_246:\n        /* \"#utility.yul\":3239:3361   */\n    tag_245:\n        /* \"#utility.yul\":3397:3403   */\n      dup2\n        /* \"#utility.yul\":3384:3404   */\n      calldataload\n        /* \"#utility.yul\":3422:3532   */\n      tag_247\n        /* \"#utility.yul\":3528:3531   */\n      dup5\n        /* \"#utility.yul\":3520:3526   */\n      dup3\n        /* \"#utility.yul\":3513:3517   */\n      0x20\n        /* \"#utility.yul\":3505:3511   */\n      dup7\n        /* \"#utility.yul\":3501:3518   */\n      add\n        /* \"#utility.yul\":3422:3532   */\n      tag_143\n      jump\t// in\n    tag_247:\n        /* \"#utility.yul\":3413:3532   */\n      swap2\n      pop\n        /* \"#utility.yul\":3229:3538   */\n      pop\n        /* \"#utility.yul\":3136:3538   */\n      swap3\n      swap2\n      pop\n      pop\n      jump\t// out\n        /* \"#utility.yul\":3544:4115   */\n    tag_18:\n        /* \"#utility.yul\":3644:3650   */\n      0x00\n        /* \"#utility.yul\":3693:3695   */\n      0x20\n        /* \"#utility.yul\":3681:3690   */\n      dup3\n        /* \"#utility.yul\":3672:3679   */\n      dup5\n        /* \"#utility.yul\":3668:3691   */\n      sub\n        /* \"#utility.yul\":3664:3696   */\n      slt\n        /* \"#utility.yul\":3661:3780   */\n      iszero\n      tag_249\n      jumpi\n        /* \"#utility.yul\":3699:3778   */\n      tag_250\n      tag_129\n      jump\t// in\n    tag_250:\n        /* \"#utility.yul\":3661:3780   */\n    tag_249:\n        /* \"#utility.yul\":3847:3848   */\n      0x00\n        /* \"#utility.yul\":3836:3845   */\n      dup3\n        /* \"#utility.yul\":3832:3849   */\n      add\n        /* \"#utility.yul\":3819:3850   */\n      calldataload\n        /* \"#utility.yul\":3877:3895   */\n      0xffffffffffffffff\n        /* \"#utility.yul\":3869:3875   */\n      dup2\n        /* \"#utility.yul\":3866:3896   */\n      gt\n        /* \"#utility.yul\":3863:3980   */\n      iszero\n      tag_251\n      jumpi\n        /* \"#utility.yul\":3899:3978   */\n      tag_252\n      tag_130\n      jump\t// in\n    tag_252:\n        /* \"#utility.yul\":3863:3980   */\n    tag_251:\n        /* \"#utility.yul\":4004:4098   */\n      tag_253\n        /* \"#utility.yul\":4090:4097   */\n      dup5\n        /* \"#utility.yul\":4081:4087   */\n      dup3\n        /* \"#utility.yul\":4070:4079   */\n      dup6\n        /* \"#utility.yul\":4066:4088   */\n      add\n        /* \"#utility.yul\":4004:4098   */\n      tag_144\n      jump\t// in\n    tag_253:\n        /* \"#utility.yul\":3994:4098   */\n      swap2\n      pop\n        /* \"#utility.yul\":3790:4108   */\n      pop\n        /* \"#utility.yul\":3544:4115   */\n      swap3\n      swap2\n      pop\n      pop\n      jump\t// out\n        /* \"#utility.yul\":4121:4432   */\n    tag_145:\n        /* \"#utility.yul\":4198:4202   */\n      0x00\n        /* \"#utility.yul\":4288:4306   */\n      0xffffffffffffffff\n        /* \"#utility.yul\":4280:4286   */\n      dup3\n        /* \"#utility.yul\":4277:4307   */\n      gt\n        /* \"#utility.yul\":4274:4330   */\n      iszero\n      tag_255\n      jumpi\n        /* \"#utility.yul\":4310:4328   */\n      tag_256\n      tag_133\n      jump\t// in\n    tag_256:\n        /* \"#utility.yul\":4274:4330   */\n    tag_255:\n        /* \"#utility.yul\":4360:4364   */\n      0x20\n        /* \"#utility.yul\":4352:4358   */\n      dup3\n        /* \"#utility.yul\":4348:4365   */\n      mul\n        /* \"#utility.yul\":4340:4365   */\n      swap1\n      pop\n        /* \"#utility.yul\":4420:4424   */\n      0x20\n        /* \"#utility.yul\":4414:4418   */\n      dup2\n        /* \"#utility.yul\":4410:4425   */\n      add\n        /* \"#utility.yul\":4402:4425   */\n      swap1\n      pop\n        /* \"#utility.yul\":4121:4432   */\n      swap2\n      swap1\n      pop\n      jump\t// out\n        /* \"#utility.yul\":4438:4560   */\n    tag_146:\n        /* \"#utility.yul\":4511:4535   */\n      tag_258\n        /* \"#utility.yul\":4529:4534   */\n      dup2\n        /* \"#utility.yul\":4511:4535   */\n      tag_139\n      jump\t// in\n    tag_258:\n        /* \"#utility.yul\":4504:4509   */\n      dup2\n        /* \"#utility.yul\":4501:4536   */\n      eq\n        /* \"#utility.yul\":4491:4554   */\n      tag_259\n      jumpi\n        /* \"#utility.yul\":4550:4551   */\n      0x00\n        /* \"#utility.yul\":4547:4548   */\n      dup1\n        /* \"#utility.yul\":4540:4552   */\n      revert\n        /* \"#utility.yul\":4491:4554   */\n    tag_259:\n        /* \"#utility.yul\":4438:4560   */\n      pop\n      jump\t// out\n        /* \"#utility.yul\":4566:4705   */\n    tag_147:\n        /* \"#utility.yul\":4612:4617   */\n      0x00\n        /* \"#utility.yul\":4650:4656   */\n      dup2\n        /* \"#utility.yul\":4637:4657   */\n      calldataload\n        /* \"#utility.yul\":4628:4657   */\n      swap1\n      pop\n        /* \"#utility.yul\":4666:4699   */\n      tag_261\n        /* \"#utility.yul\":4693:4698   */\n      dup2\n        /* \"#utility.yul\":4666:4699   */\n      tag_146\n      jump\t// in\n    tag_261:\n        /* \"#utility.yul\":4566:4705   */\n      swap3\n      swap2\n      pop\n      pop\n      jump\t// out\n        /* \"#utility.yul\":4728:5438   */\n    tag_148:\n        /* \"#utility.yul\":4824:4829   */\n      0x00\n        /* \"#utility.yul\":4849:4930   */\n      tag_263\n        /* \"#utility.yul\":4865:4929   */\n      tag_264\n        /* \"#utility.yul\":4922:4928   */\n      dup5\n        /* \"#utility.yul\":4865:4929   */\n      tag_145\n      jump\t// in\n    tag_264:\n        /* \"#utility.yul\":4849:4930   */\n      tag_135\n      jump\t// in\n    tag_263:\n        /* \"#utility.yul\":4840:4930   */\n      swap1\n      pop\n        /* \"#utility.yul\":4950:4955   */\n      dup1\n        /* \"#utility.yul\":4979:4985   */\n      dup4\n        /* \"#utility.yul\":4972:4977   */\n      dup3\n        /* \"#utility.yul\":4965:4986   */\n      mstore\n        /* \"#utility.yul\":5013:5017   */\n      0x20\n        /* \"#utility.yul\":5006:5011   */\n      dup3\n        /* \"#utility.yul\":5002:5018   */\n      add\n        /* \"#utility.yul\":4995:5018   */\n      swap1\n      pop\n        /* \"#utility.yul\":5066:5070   */\n      0x20\n        /* \"#utility.yul\":5058:5064   */\n      dup5\n        /* \"#utility.yul\":5054:5071   */\n      mul\n        /* \"#utility.yul\":5046:5052   */\n      dup4\n        /* \"#utility.yul\":5042:5072   */\n      add\n        /* \"#utility.yul\":5095:5098   */\n      dup6\n        /* \"#utility.yul\":5087:5093   */\n      dup2\n        /* \"#utility.yul\":5084:5099   */\n      gt\n        /* \"#utility.yul\":5081:5203   */\n      iszero\n      tag_265\n      jumpi\n        /* \"#utility.yul\":5114:5193   */\n      tag_266\n      tag_137\n      jump\t// in\n    tag_266:\n        /* \"#utility.yul\":5081:5203   */\n    tag_265:\n        /* \"#utility.yul\":5229:5235   */\n      dup4\n        /* \"#utility.yul\":5212:5432   */\n    tag_267:\n        /* \"#utility.yul\":5246:5252   */\n      dup2\n        /* \"#utility.yul\":5241:5244   */\n      dup2\n        /* \"#utility.yul\":5238:5253   */\n      lt\n        /* \"#utility.yul\":5212:5432   */\n      iszero\n      tag_269\n      jumpi\n        /* \"#utility.yul\":5321:5324   */\n      dup1\n        /* \"#utility.yul\":5350:5387   */\n      tag_270\n        /* \"#utility.yul\":5383:5386   */\n      dup9\n        /* \"#utility.yul\":5371:5381   */\n      dup3\n        /* \"#utility.yul\":5350:5387   */\n      tag_147\n      jump\t// in\n    tag_270:\n        /* \"#utility.yul\":5345:5348   */\n      dup5\n        /* \"#utility.yul\":5338:5388   */\n      mstore\n        /* \"#utility.yul\":5417:5421   */\n      0x20\n        /* \"#utility.yul\":5412:5415   */\n      dup5\n        /* \"#utility.yul\":5408:5422   */\n      add\n        /* \"#utility.yul\":5401:5422   */\n      swap4\n      pop\n        /* \"#utility.yul\":5288:5432   */\n      pop\n        /* \"#utility.yul\":5272:5276   */\n      0x20\n        /* \"#utility.yul\":5267:5270   */\n      dup2\n        /* \"#utility.yul\":5263:5277   */\n      add\n        /* \"#utility.yul\":5256:5277   */\n      swap1\n      pop\n        /* \"#utility.yul\":5212:5432   */\n      jump(tag_267)\n    tag_269:\n        /* \"#utility.yul\":5216:5237   */\n      pop\n        /* \"#utility.yul\":4830:5438   */\n      pop\n      pop\n        /* \"#utility.yul\":4728:5438   */\n      swap4\n      swap3\n      pop\n      pop\n      pop\n      jump\t// out\n        /* \"#utility.yul\":5461:5831   */\n    tag_149:\n        /* \"#utility.yul\":5532:5537   */\n      0x00\n        /* \"#utility.yul\":5581:5584   */\n      dup3\n        /* \"#utility.yul\":5574:5578   */\n      0x1f\n        /* \"#utility.yul\":5566:5572   */\n      dup4\n        /* \"#utility.yul\":5562:5579   */\n      add\n        /* \"#utility.yul\":5558:5585   */\n      slt\n        /* \"#utility.yul\":5548:5670   */\n      tag_272\n      jumpi\n        /* \"#utility.yul\":5589:5668   */\n      tag_273\n      tag_131\n      jump\t// in\n    tag_273:\n        /* \"#utility.yul\":5548:5670   */\n    tag_272:\n        /* \"#utility.yul\":5706:5712   */\n      dup2\n        /* \"#utility.yul\":5693:5713   */\n      calldataload\n        /* \"#utility.yul\":5731:5825   */\n      tag_274\n        /* \"#utility.yul\":5821:5824   */\n      dup5\n        /* \"#utility.yul\":5813:5819   */\n      dup3\n        /* \"#utility.yul\":5806:5810   */\n      0x20\n        /* \"#utility.yul\":5798:5804   */\n      dup7\n        /* \"#utility.yul\":5794:5811   */\n      add\n        /* \"#utility.yul\":5731:5825   */\n      tag_148\n      jump\t// in\n    tag_274:\n        /* \"#utility.yul\":5722:5825   */\n      swap2\n      pop\n        /* \"#utility.yul\":5538:5831   */\n      pop\n        /* \"#utility.yul\":5461:5831   */\n      swap3\n      swap2\n      pop\n      pop\n      jump\t// out\n        /* \"#utility.yul\":5837:5914   */\n    tag_150:\n        /* \"#utility.yul\":5874:5881   */\n      0x00\n        /* \"#utility.yul\":5903:5908   */\n      dup2\n        /* \"#utility.yul\":5892:5908   */\n      swap1\n      pop\n        /* \"#utility.yul\":5837:5914   */\n      swap2\n      swap1\n      pop\n      jump\t// out\n        /* \"#utility.yul\":5920:6042   */\n    tag_151:\n        /* \"#utility.yul\":5993:6017   */\n      tag_277\n        /* \"#utility.yul\":6011:6016   */\n      dup2\n        /* \"#utility.yul\":5993:6017   */\n      tag_150\n      jump\t// in\n    tag_277:\n        /* \"#utility.yul\":5986:5991   */\n      dup2\n        /* \"#utility.yul\":5983:6018   */\n      eq\n        /* \"#utility.yul\":5973:6036   */\n      tag_278\n      jumpi\n        /* \"#utility.yul\":6032:6033   */\n      0x00\n        /* \"#utility.yul\":6029:6030   */\n      dup1\n        /* \"#utility.yul\":6022:6034   */\n      revert\n        /* \"#utility.yul\":5973:6036   */\n    tag_278:\n        /* \"#utility.yul\":5920:6042   */\n      pop\n      jump\t// out\n        /* \"#utility.yul\":6048:6187   */\n    tag_152:\n        /* \"#utility.yul\":6094:6099   */\n      0x00\n        /* \"#utility.yul\":6132:6138   */\n      dup2\n        /* \"#utility.yul\":6119:6139   */\n      calldataload\n        /* \"#utility.yul\":6110:6139   */\n      swap1\n      pop\n        /* \"#utility.yul\":6148:6181   */\n      tag_280\n        /* \"#utility.yul\":6175:6180   */\n      dup2\n        /* \"#utility.yul\":6148:6181   */\n      tag_151\n      jump\t// in\n    tag_280:\n        /* \"#utility.yul\":6048:6187   */\n      swap3\n      swap2\n      pop\n      pop\n      jump\t// out\n        /* \"#utility.yul\":6193:6310   */\n    tag_153:\n        /* \"#utility.yul\":6302:6303   */\n      0x00\n        /* \"#utility.yul\":6299:6300   */\n      dup1\n        /* \"#utility.yul\":6292:6304   */\n      revert\n        /* \"#utility.yul\":6316:6624   */\n    tag_154:\n        /* \"#utility.yul\":6378:6382   */\n      0x00\n        /* \"#utility.yul\":6468:6486   */\n      0xffffffffffffffff\n        /* \"#utility.yul\":6460:6466   */\n      dup3\n        /* \"#utility.yul\":6457:6487   */\n      gt\n        /* \"#utility.yul\":6454:6510   */\n      iszero\n      tag_283\n      jumpi\n        /* \"#utility.yul\":6490:6508   */\n      tag_284\n      tag_133\n      jump\t// in\n    tag_284:\n        /* \"#utility.yul\":6454:6510   */\n    tag_283:\n        /* \"#utility.yul\":6528:6557   */\n      tag_285\n        /* \"#utility.yul\":6550:6556   */\n      dup3\n        /* \"#utility.yul\":6528:6557   */\n      tag_132\n      jump\t// in\n    tag_285:\n        /* \"#utility.yul\":6520:6557   */\n      swap1\n      pop\n        /* \"#utility.yul\":6612:6616   */\n      0x20\n        /* \"#utility.yul\":6606:6610   */\n      dup2\n        /* \"#utility.yul\":6602:6617   */\n      add\n        /* \"#utility.yul\":6594:6617   */\n      swap1\n      pop\n        /* \"#utility.yul\":6316:6624   */\n      swap2\n      swap1\n      pop\n      jump\t// out\n        /* \"#utility.yul\":6630:6784   */\n    tag_155:\n        /* \"#utility.yul\":6714:6720   */\n      dup3\n        /* \"#utility.yul\":6709:6712   */\n      dup2\n        /* \"#utility.yul\":6704:6707   */\n      dup4\n        /* \"#utility.yul\":6691:6721   */\n      calldatacopy\n        /* \"#utility.yul\":6776:6777   */\n      0x00\n        /* \"#utility.yul\":6767:6773   */\n      dup4\n        /* \"#utility.yul\":6762:6765   */\n      dup4\n        /* \"#utility.yul\":6758:6774   */\n      add\n        /* \"#utility.yul\":6751:6778   */\n      mstore\n        /* \"#utility.yul\":6630:6784   */\n      pop\n      pop\n      pop\n      jump\t// out\n        /* \"#utility.yul\":6790:7202   */\n    tag_156:\n        /* \"#utility.yul\":6868:6873   */\n      0x00\n        /* \"#utility.yul\":6893:6959   */\n      tag_288\n        /* \"#utility.yul\":6909:6958   */\n      tag_289\n        /* \"#utility.yul\":6951:6957   */\n      dup5\n        /* \"#utility.yul\":6909:6958   */\n      tag_154\n      jump\t// in\n    tag_289:\n        /* \"#utility.yul\":6893:6959   */\n      tag_135\n      jump\t// in\n    tag_288:\n        /* \"#utility.yul\":6884:6959   */\n      swap1\n      pop\n        /* \"#utility.yul\":6982:6988   */\n      dup3\n        /* \"#utility.yul\":6975:6980   */\n      dup2\n        /* \"#utility.yul\":6968:6989   */\n      mstore\n        /* \"#utility.yul\":7020:7024   */\n      0x20\n        /* \"#utility.yul\":7013:7018   */\n      dup2\n        /* \"#utility.yul\":7009:7025   */\n      add\n        /* \"#utility.yul\":7058:7061   */\n      dup5\n        /* \"#utility.yul\":7049:7055   */\n      dup5\n        /* \"#utility.yul\":7044:7047   */\n      dup5\n        /* \"#utility.yul\":7040:7056   */\n      add\n        /* \"#utility.yul\":7037:7062   */\n      gt\n        /* \"#utility.yul\":7034:7146   */\n      iszero\n      tag_290\n      jumpi\n        /* \"#utility.yul\":7065:7144   */\n      tag_291\n      tag_153\n      jump\t// in\n    tag_291:\n        /* \"#utility.yul\":7034:7146   */\n    tag_290:\n        /* \"#utility.yul\":7155:7196   */\n      tag_292\n        /* \"#utility.yul\":7189:7195   */\n      dup5\n        /* \"#utility.yul\":7184:7187   */\n      dup3\n        /* \"#utility.yul\":7179:7182   */\n      dup6\n        /* \"#utility.yul\":7155:7196   */\n      tag_155\n      jump\t// in\n    tag_292:\n        /* \"#utility.yul\":6874:7202   */\n      pop\n        /* \"#utility.yul\":6790:7202   */\n      swap4\n      swap3\n      pop\n      pop\n      pop\n      jump\t// out\n        /* \"#utility.yul\":7222:7562   */\n    tag_157:\n        /* \"#utility.yul\":7278:7283   */\n      0x00\n        /* \"#utility.yul\":7327:7330   */\n      dup3\n        /* \"#utility.yul\":7320:7324   */\n      0x1f\n        /* \"#utility.yul\":7312:7318   */\n      dup4\n        /* \"#utility.yul\":7308:7325   */\n      add\n        /* \"#utility.yul\":7304:7331   */\n      slt\n        /* \"#utility.yul\":7294:7416   */\n      tag_294\n      jumpi\n        /* \"#utility.yul\":7335:7414   */\n      tag_295\n      tag_131\n      jump\t// in\n    tag_295:\n        /* \"#utility.yul\":7294:7416   */\n    tag_294:\n        /* \"#utility.yul\":7452:7458   */\n      dup2\n        /* \"#utility.yul\":7439:7459   */\n      calldataload\n        /* \"#utility.yul\":7477:7556   */\n      tag_296\n        /* \"#utility.yul\":7552:7555   */\n      dup5\n        /* \"#utility.yul\":7544:7550   */\n      dup3\n        /* \"#utility.yul\":7537:7541   */\n      0x20\n        /* \"#utility.yul\":7529:7535   */\n      dup7\n        /* \"#utility.yul\":7525:7542   */\n      add\n        /* \"#utility.yul\":7477:7556   */\n      tag_156\n      jump\t// in\n    tag_296:\n        /* \"#utility.yul\":7468:7556   */\n      swap2\n      pop\n        /* \"#utility.yul\":7284:7562   */\n      pop\n        /* \"#utility.yul\":7222:7562   */\n      swap3\n      swap2\n      pop\n      pop\n      jump\t// out\n        /* \"#utility.yul\":7568:7875   */\n    tag_158:\n        /* \"#utility.yul\":7629:7633   */\n      0x00\n        /* \"#utility.yul\":7719:7737   */\n      0xffffffffffffffff\n        /* \"#utility.yul\":7711:7717   */\n      dup3\n        /* \"#utility.yul\":7708:7738   */\n      gt\n        /* \"#utility.yul\":7705:7761   */\n      iszero\n      tag_298\n      jumpi\n        /* \"#utility.yul\":7741:7759   */\n      tag_299\n      tag_133\n      jump\t// in\n    tag_299:\n        /* \"#utility.yul\":7705:7761   */\n    tag_298:\n        /* \"#utility.yul\":7779:7808   */\n      tag_300\n        /* \"#utility.yul\":7801:7807   */\n      dup3\n        /* \"#utility.yul\":7779:7808   */\n      tag_132\n      jump\t// in\n    tag_300:\n        /* \"#utility.yul\":7771:7808   */\n      swap1\n      pop\n        /* \"#utility.yul\":7863:7867   */\n      0x20\n        /* \"#utility.yul\":7857:7861   */\n      dup2\n        /* \"#utility.yul\":7853:7868   */\n      add\n        /* \"#utility.yul\":7845:7868   */\n      swap1\n      pop\n        /* \"#utility.yul\":7568:7875   */\n      swap2\n      swap1\n      pop\n      jump\t// out\n        /* \"#utility.yul\":7881:8291   */\n    tag_159:\n        /* \"#utility.yul\":7958:7963   */\n      0x00\n        /* \"#utility.yul\":7983:8048   */\n      tag_302\n        /* \"#utility.yul\":7999:8047   */\n      tag_303\n        /* \"#utility.yul\":8040:8046   */\n      dup5\n        /* \"#utility.yul\":7999:8047   */\n      tag_158\n      jump\t// in\n    tag_303:\n        /* \"#utility.yul\":7983:8048   */\n      tag_135\n      jump\t// in\n    tag_302:\n        /* \"#utility.yul\":7974:8048   */\n      swap1\n      pop\n        /* \"#utility.yul\":8071:8077   */\n      dup3\n        /* \"#utility.yul\":8064:8069   */\n      dup2\n        /* \"#utility.yul\":8057:8078   */\n      mstore\n        /* \"#utility.yul\":8109:8113   */\n      0x20\n        /* \"#utility.yul\":8102:8107   */\n      dup2\n        /* \"#utility.yul\":8098:8114   */\n      add\n        /* \"#utility.yul\":8147:8150   */\n      dup5\n        /* \"#utility.yul\":8138:8144   */\n      dup5\n        /* \"#utility.yul\":8133:8136   */\n      dup5\n        /* \"#utility.yul\":8129:8145   */\n      add\n        /* \"#utility.yul\":8126:8151   */\n      gt\n        /* \"#utility.yul\":8123:8235   */\n      iszero\n      tag_304\n      jumpi\n        /* \"#utility.yul\":8154:8233   */\n      tag_305\n      tag_153\n      jump\t// in\n    tag_305:\n        /* \"#utility.yul\":8123:8235   */\n    tag_304:\n        /* \"#utility.yul\":8244:8285   */\n      tag_306\n        /* \"#utility.yul\":8278:8284   */\n      dup5\n        /* \"#utility.yul\":8273:8276   */\n      dup3\n        /* \"#utility.yul\":8268:8271   */\n      dup6\n        /* \"#utility.yul\":8244:8285   */\n      tag_155\n      jump\t// in\n    tag_306:\n        /* \"#utility.yul\":7964:8291   */\n      pop\n        /* \"#utility.yul\":7881:8291   */\n      swap4\n      swap3\n      pop\n      pop\n      pop\n      jump\t// out\n        /* \"#utility.yul\":8310:8648   */\n    tag_160:\n        /* \"#utility.yul\":8365:8370   */\n      0x00\n        /* \"#utility.yul\":8414:8417   */\n      dup3\n        /* \"#utility.yul\":8407:8411   */\n      0x1f\n        /* \"#utility.yul\":8399:8405   */\n      dup4\n        /* \"#utility.yul\":8395:8412   */\n      add\n        /* \"#utility.yul\":8391:8418   */\n      slt\n        /* \"#utility.yul\":8381:8503   */\n      tag_308\n      jumpi\n        /* \"#utility.yul\":8422:8501   */\n      tag_309\n      tag_131\n      jump\t// in\n    tag_309:\n        /* \"#utility.yul\":8381:8503   */\n    tag_308:\n        /* \"#utility.yul\":8539:8545   */\n      dup2\n        /* \"#utility.yul\":8526:8546   */\n      calldataload\n        /* \"#utility.yul\":8564:8642   */\n      tag_310\n        /* \"#utility.yul\":8638:8641   */\n      dup5\n        /* \"#utility.yul\":8630:8636   */\n      dup3\n        /* \"#utility.yul\":8623:8627   */\n      0x20\n        /* \"#utility.yul\":8615:8621   */\n      dup7\n        /* \"#utility.yul\":8611:8628   */\n      add\n        /* \"#utility.yul\":8564:8642   */\n      tag_159\n      jump\t// in\n    tag_310:\n        /* \"#utility.yul\":8555:8642   */\n      swap2\n      pop\n        /* \"#utility.yul\":8371:8648   */\n      pop\n        /* \"#utility.yul\":8310:8648   */\n      swap3\n      swap2\n      pop\n      pop\n      jump\t// out\n        /* \"#utility.yul\":8654:10133   */\n    tag_25:\n        /* \"#utility.yul\":8793:8799   */\n      0x00\n        /* \"#utility.yul\":8801:8807   */\n      dup1\n        /* \"#utility.yul\":8809:8815   */\n      0x00\n        /* \"#utility.yul\":8817:8823   */\n      dup1\n        /* \"#utility.yul\":8825:8831   */\n      0x00\n        /* \"#utility.yul\":8874:8877   */\n      0xa0\n        /* \"#utility.yul\":8862:8871   */\n      dup7\n        /* \"#utility.yul\":8853:8860   */\n      dup9\n        /* \"#utility.yul\":8849:8872   */\n      sub\n        /* \"#utility.yul\":8845:8878   */\n      slt\n        /* \"#utility.yul\":8842:8962   */\n      iszero\n      tag_312\n      jumpi\n        /* \"#utility.yul\":8881:8960   */\n      tag_313\n      tag_129\n      jump\t// in\n    tag_313:\n        /* \"#utility.yul\":8842:8962   */\n    tag_312:\n        /* \"#utility.yul\":9029:9030   */\n      0x00\n        /* \"#utility.yul\":9018:9027   */\n      dup7\n        /* \"#utility.yul\":9014:9031   */\n      add\n        /* \"#utility.yul\":9001:9032   */\n      calldataload\n        /* \"#utility.yul\":9059:9077   */\n      0xffffffffffffffff\n        /* \"#utility.yul\":9051:9057   */\n      dup2\n        /* \"#utility.yul\":9048:9078   */\n      gt\n        /* \"#utility.yul\":9045:9162   */\n      iszero\n      tag_314\n      jumpi\n        /* \"#utility.yul\":9081:9160   */\n      tag_315\n      tag_130\n      jump\t// in\n    tag_315:\n        /* \"#utility.yul\":9045:9162   */\n    tag_314:\n        /* \"#utility.yul\":9186:9264   */\n      tag_316\n        /* \"#utility.yul\":9256:9263   */\n      dup9\n        /* \"#utility.yul\":9247:9253   */\n      dup3\n        /* \"#utility.yul\":9236:9245   */\n      dup10\n        /* \"#utility.yul\":9232:9254   */\n      add\n        /* \"#utility.yul\":9186:9264   */\n      tag_149\n      jump\t// in\n    tag_316:\n        /* \"#utility.yul\":9176:9264   */\n      swap6\n      pop\n        /* \"#utility.yul\":8972:9274   */\n      pop\n        /* \"#utility.yul\":9313:9315   */\n      0x20\n        /* \"#utility.yul\":9339:9392   */\n      tag_317\n        /* \"#utility.yul\":9384:9391   */\n      dup9\n        /* \"#utility.yul\":9375:9381   */\n      dup3\n        /* \"#utility.yul\":9364:9373   */\n      dup10\n        /* \"#utility.yul\":9360:9382   */\n      add\n        /* \"#utility.yul\":9339:9392   */\n      tag_152\n      jump\t// in\n    tag_317:\n        /* \"#utility.yul\":9329:9392   */\n      swap5\n      pop\n        /* \"#utility.yul\":9284:9402   */\n      pop\n        /* \"#utility.yul\":9469:9471   */\n      0x40\n        /* \"#utility.yul\":9458:9467   */\n      dup7\n        /* \"#utility.yul\":9454:9472   */\n      add\n        /* \"#utility.yul\":9441:9473   */\n      calldataload\n        /* \"#utility.yul\":9500:9518   */\n      0xffffffffffffffff\n        /* \"#utility.yul\":9492:9498   */\n      dup2\n        /* \"#utility.yul\":9489:9519   */\n      gt\n        /* \"#utility.yul\":9486:9603   */\n      iszero\n      tag_318\n      jumpi\n        /* \"#utility.yul\":9522:9601   */\n      tag_319\n      tag_130\n      jump\t// in\n    tag_319:\n        /* \"#utility.yul\":9486:9603   */\n    tag_318:\n        /* \"#utility.yul\":9627:9690   */\n      tag_320\n        /* \"#utility.yul\":9682:9689   */\n      dup9\n        /* \"#utility.yul\":9673:9679   */\n      dup3\n        /* \"#utility.yul\":9662:9671   */\n      dup10\n        /* \"#utility.yul\":9658:9680   */\n      add\n        /* \"#utility.yul\":9627:9690   */\n      tag_157\n      jump\t// in\n    tag_320:\n        /* \"#utility.yul\":9617:9690   */\n      swap4\n      pop\n        /* \"#utility.yul\":9412:9700   */\n      pop\n        /* \"#utility.yul\":9739:9741   */\n      0x60\n        /* \"#utility.yul\":9765:9818   */\n      tag_321\n        /* \"#utility.yul\":9810:9817   */\n      dup9\n        /* \"#utility.yul\":9801:9807   */\n      dup3\n        /* \"#utility.yul\":9790:9799   */\n      dup10\n        /* \"#utility.yul\":9786:9808   */\n      add\n        /* \"#utility.yul\":9765:9818   */\n      tag_152\n      jump\t// in\n    tag_321:\n        /* \"#utility.yul\":9755:9818   */\n      swap3\n      pop\n        /* \"#utility.yul\":9710:9828   */\n      pop\n        /* \"#utility.yul\":9895:9898   */\n      0x80\n        /* \"#utility.yul\":9884:9893   */\n      dup7\n        /* \"#utility.yul\":9880:9899   */\n      add\n        /* \"#utility.yul\":9867:9900   */\n      calldataload\n        /* \"#utility.yul\":9927:9945   */\n      0xffffffffffffffff\n        /* \"#utility.yul\":9919:9925   */\n      dup2\n        /* \"#utility.yul\":9916:9946   */\n      gt\n        /* \"#utility.yul\":9913:10030   */\n      iszero\n      tag_322\n      jumpi\n        /* \"#utility.yul\":9949:10028   */\n      tag_323\n      tag_130\n      jump\t// in\n    tag_323:\n        /* \"#utility.yul\":9913:10030   */\n    tag_322:\n        /* \"#utility.yul\":10054:10116   */\n      tag_324\n        /* \"#utility.yul\":10108:10115   */\n      dup9\n        /* \"#utility.yul\":10099:10105   */\n      dup3\n        /* \"#utility.yul\":10088:10097   */\n      dup10\n        /* \"#utility.yul\":10084:10106   */\n      add\n        /* \"#utility.yul\":10054:10116   */\n      tag_160\n      jump\t// in\n    tag_324:\n        /* \"#utility.yul\":10044:10116   */\n      swap2\n      pop\n        /* \"#utility.yul\":9838:10126   */\n      pop\n        /* \"#utility.yul\":8654:10133   */\n      swap3\n      swap6\n      pop\n      swap3\n      swap6\n      swap1\n      swap4\n      pop\n      jump\t// out\n        /* \"#utility.yul\":10139:10253   */\n    tag_161:\n        /* \"#utility.yul\":10206:10212   */\n      0x00\n        /* \"#utility.yul\":10240:10245   */\n      dup2\n        /* \"#utility.yul\":10234:10246   */\n      mload\n        /* \"#utility.yul\":10224:10246   */\n      swap1\n      pop\n        /* \"#utility.yul\":10139:10253   */\n      swap2\n      swap1\n      pop\n      jump\t// out\n        /* \"#utility.yul\":10259:10443   */\n    tag_162:\n        /* \"#utility.yul\":10358:10369   */\n      0x00\n        /* \"#utility.yul\":10392:10398   */\n      dup3\n        /* \"#utility.yul\":10387:10390   */\n      dup3\n        /* \"#utility.yul\":10380:10399   */\n      mstore\n        /* \"#utility.yul\":10432:10436   */\n      0x20\n        /* \"#utility.yul\":10427:10430   */\n      dup3\n        /* \"#utility.yul\":10423:10437   */\n      add\n        /* \"#utility.yul\":10408:10437   */\n      swap1\n      pop\n        /* \"#utility.yul\":10259:10443   */\n      swap3\n      swap2\n      pop\n      pop\n      jump\t// out\n        /* \"#utility.yul\":10449:10581   */\n    tag_163:\n        /* \"#utility.yul\":10516:10520   */\n      0x00\n        /* \"#utility.yul\":10539:10542   */\n      dup2\n        /* \"#utility.yul\":10531:10542   */\n      swap1\n      pop\n        /* \"#utility.yul\":10569:10573   */\n      0x20\n        /* \"#utility.yul\":10564:10567   */\n      dup3\n        /* \"#utility.yul\":10560:10574   */\n      add\n        /* \"#utility.yul\":10552:10574   */\n      swap1\n      pop\n        /* \"#utility.yul\":10449:10581   */\n      swap2\n      swap1\n      pop\n      jump\t// out\n        /* \"#utility.yul\":10587:10695   */\n    tag_164:\n        /* \"#utility.yul\":10664:10688   */\n      tag_329\n        /* \"#utility.yul\":10682:10687   */\n      dup2\n        /* \"#utility.yul\":10664:10688   */\n      tag_139\n      jump\t// in\n    tag_329:\n        /* \"#utility.yul\":10659:10662   */\n      dup3\n        /* \"#utility.yul\":10652:10689   */\n      mstore\n        /* \"#utility.yul\":10587:10695   */\n      pop\n      pop\n      jump\t// out\n        /* \"#utility.yul\":10701:10880   */\n    tag_165:\n        /* \"#utility.yul\":10770:10780   */\n      0x00\n        /* \"#utility.yul\":10791:10837   */\n      tag_331\n        /* \"#utility.yul\":10833:10836   */\n      dup4\n        /* \"#utility.yul\":10825:10831   */\n      dup4\n        /* \"#utility.yul\":10791:10837   */\n      tag_164\n      jump\t// in\n    tag_331:\n        /* \"#utility.yul\":10869:10873   */\n      0x20\n        /* \"#utility.yul\":10864:10867   */\n      dup4\n        /* \"#utility.yul\":10860:10874   */\n      add\n        /* \"#utility.yul\":10846:10874   */\n      swap1\n      pop\n        /* \"#utility.yul\":10701:10880   */\n      swap3\n      swap2\n      pop\n      pop\n      jump\t// out\n        /* \"#utility.yul\":10886:10999   */\n    tag_166:\n        /* \"#utility.yul\":10956:10960   */\n      0x00\n        /* \"#utility.yul\":10988:10992   */\n      0x20\n        /* \"#utility.yul\":10983:10986   */\n      dup3\n        /* \"#utility.yul\":10979:10993   */\n      add\n        /* \"#utility.yul\":10971:10993   */\n      swap1\n      pop\n        /* \"#utility.yul\":10886:10999   */\n      swap2\n      swap1\n      pop\n      jump\t// out\n        /* \"#utility.yul\":11035:11767   */\n    tag_167:\n        /* \"#utility.yul\":11154:11157   */\n      0x00\n        /* \"#utility.yul\":11183:11237   */\n      tag_334\n        /* \"#utility.yul\":11231:11236   */\n      dup3\n        /* \"#utility.yul\":11183:11237   */\n      tag_161\n      jump\t// in\n    tag_334:\n        /* \"#utility.yul\":11253:11339   */\n      tag_335\n        /* \"#utility.yul\":11332:11338   */\n      dup2\n        /* \"#utility.yul\":11327:11330   */\n      dup6\n        /* \"#utility.yul\":11253:11339   */\n      tag_162\n      jump\t// in\n    tag_335:\n        /* \"#utility.yul\":11246:11339   */\n      swap4\n      pop\n        /* \"#utility.yul\":11363:11419   */\n      tag_336\n        /* \"#utility.yul\":11413:11418   */\n      dup4\n        /* \"#utility.yul\":11363:11419   */\n      tag_163\n      jump\t// in\n    tag_336:\n        /* \"#utility.yul\":11442:11449   */\n      dup1\n        /* \"#utility.yul\":11473:11474   */\n      0x00\n        /* \"#utility.yul\":11458:11742   */\n    tag_337:\n        /* \"#utility.yul\":11483:11489   */\n      dup4\n        /* \"#utility.yul\":11480:11481   */\n      dup2\n        /* \"#utility.yul\":11477:11490   */\n      lt\n        /* \"#utility.yul\":11458:11742   */\n      iszero\n      tag_339\n      jumpi\n        /* \"#utility.yul\":11559:11565   */\n      dup2\n        /* \"#utility.yul\":11553:11566   */\n      mload\n        /* \"#utility.yul\":11586:11649   */\n      tag_340\n        /* \"#utility.yul\":11645:11648   */\n      dup9\n        /* \"#utility.yul\":11630:11643   */\n      dup3\n        /* \"#utility.yul\":11586:11649   */\n      tag_165\n      jump\t// in\n    tag_340:\n        /* \"#utility.yul\":11579:11649   */\n      swap8\n      pop\n        /* \"#utility.yul\":11672:11732   */\n      tag_341\n        /* \"#utility.yul\":11725:11731   */\n      dup4\n        /* \"#utility.yul\":11672:11732   */\n      tag_166\n      jump\t// in\n    tag_341:\n        /* \"#utility.yul\":11662:11732   */\n      swap3\n      pop\n        /* \"#utility.yul\":11518:11742   */\n      pop\n        /* \"#utility.yul\":11505:11506   */\n      0x01\n        /* \"#utility.yul\":11502:11503   */\n      dup2\n        /* \"#utility.yul\":11498:11507   */\n      add\n        /* \"#utility.yul\":11493:11507   */\n      swap1\n      pop\n        /* \"#utility.yul\":11458:11742   */\n      jump(tag_337)\n    tag_339:\n        /* \"#utility.yul\":11462:11476   */\n      pop\n        /* \"#utility.yul\":11758:11761   */\n      dup6\n        /* \"#utility.yul\":11751:11761   */\n      swap4\n      pop\n        /* \"#utility.yul\":11159:11767   */\n      pop\n      pop\n      pop\n        /* \"#utility.yul\":11035:11767   */\n      swap3\n      swap2\n      pop\n      pop\n      jump\t// out\n        /* \"#utility.yul\":11773:12146   */\n    tag_28:\n        /* \"#utility.yul\":11916:11920   */\n      0x00\n        /* \"#utility.yul\":11954:11956   */\n      0x20\n        /* \"#utility.yul\":11943:11952   */\n      dup3\n        /* \"#utility.yul\":11939:11957   */\n      add\n        /* \"#utility.yul\":11931:11957   */\n      swap1\n      pop\n        /* \"#utility.yul\":12003:12012   */\n      dup2\n        /* \"#utility.yul\":11997:12001   */\n      dup2\n        /* \"#utility.yul\":11993:12013   */\n      sub\n        /* \"#utility.yul\":11989:11990   */\n      0x00\n        /* \"#utility.yul\":11978:11987   */\n      dup4\n        /* \"#utility.yul\":11974:11991   */\n      add\n        /* \"#utility.yul\":11967:12014   */\n      mstore\n        /* \"#utility.yul\":12031:12139   */\n      tag_343\n        /* \"#utility.yul\":12134:12138   */\n      dup2\n        /* \"#utility.yul\":12125:12131   */\n      dup5\n        /* \"#utility.yul\":12031:12139   */\n      tag_167\n      jump\t// in\n    tag_343:\n        /* \"#utility.yul\":12023:12139   */\n      swap1\n      pop\n        /* \"#utility.yul\":11773:12146   */\n      swap3\n      swap2\n      pop\n      pop\n      jump\t// out\n        /* \"#utility.yul\":12152:12270   */\n    tag_168:\n        /* \"#utility.yul\":12239:12263   */\n      tag_345\n        /* \"#utility.yul\":12257:12262   */\n      dup2\n        /* \"#utility.yul\":12239:12263   */\n      tag_139\n      jump\t// in\n    tag_345:\n        /* \"#utility.yul\":12234:12237   */\n      dup3\n        /* \"#utility.yul\":12227:12264   */\n      mstore\n        /* \"#utility.yul\":12152:12270   */\n      pop\n      pop\n      jump\t// out\n        /* \"#utility.yul\":12276:12498   */\n    tag_33:\n        /* \"#utility.yul\":12369:12373   */\n      0x00\n        /* \"#utility.yul\":12407:12409   */\n      0x20\n        /* \"#utility.yul\":12396:12405   */\n      dup3\n        /* \"#utility.yul\":12392:12410   */\n      add\n        /* \"#utility.yul\":12384:12410   */\n      swap1\n      pop\n        /* \"#utility.yul\":12420:12491   */\n      tag_347\n        /* \"#utility.yul\":12488:12489   */\n      0x00\n        /* \"#utility.yul\":12477:12486   */\n      dup4\n        /* \"#utility.yul\":12473:12490   */\n      add\n        /* \"#utility.yul\":12464:12470   */\n      dup5\n        /* \"#utility.yul\":12420:12491   */\n      tag_168\n      jump\t// in\n    tag_347:\n        /* \"#utility.yul\":12276:12498   */\n      swap3\n      swap2\n      pop\n      pop\n      jump\t// out\n        /* \"#utility.yul\":12504:12833   */\n    tag_37:\n        /* \"#utility.yul\":12563:12569   */\n      0x00\n        /* \"#utility.yul\":12612:12614   */\n      0x20\n        /* \"#utility.yul\":12600:12609   */\n      dup3\n        /* \"#utility.yul\":12591:12598   */\n      dup5\n        /* \"#utility.yul\":12587:12610   */\n      sub\n        /* \"#utility.yul\":12583:12615   */\n      slt\n        /* \"#utility.yul\":12580:12699   */\n      iszero\n      tag_349\n      jumpi\n        /* \"#utility.yul\":12618:12697   */\n      tag_350\n      tag_129\n      jump\t// in\n    tag_350:\n        /* \"#utility.yul\":12580:12699   */\n    tag_349:\n        /* \"#utility.yul\":12738:12739   */\n      0x00\n        /* \"#utility.yul\":12763:12816   */\n      tag_351\n        /* \"#utility.yul\":12808:12815   */\n      dup5\n        /* \"#utility.yul\":12799:12805   */\n      dup3\n        /* \"#utility.yul\":12788:12797   */\n      dup6\n        /* \"#utility.yul\":12784:12806   */\n      add\n        /* \"#utility.yul\":12763:12816   */\n      tag_147\n      jump\t// in\n    tag_351:\n        /* \"#utility.yul\":12753:12816   */\n      swap2\n      pop\n        /* \"#utility.yul\":12709:12826   */\n      pop\n        /* \"#utility.yul\":12504:12833   */\n      swap3\n      swap2\n      pop\n      pop\n      jump\t// out\n        /* \"#utility.yul\":12839:12899   */\n    tag_169:\n        /* \"#utility.yul\":12867:12870   */\n      0x00\n        /* \"#utility.yul\":12888:12893   */\n      dup2\n        /* \"#utility.yul\":12881:12893   */\n      swap1\n      pop\n        /* \"#utility.yul\":12839:12899   */\n      swap2\n      swap1\n      pop\n      jump\t// out\n        /* \"#utility.yul\":12905:13047   */\n    tag_170:\n        /* \"#utility.yul\":12955:12964   */\n      0x00\n        /* \"#utility.yul\":12988:13041   */\n      tag_354\n        /* \"#utility.yul\":13006:13040   */\n      tag_355\n        /* \"#utility.yul\":13015:13039   */\n      tag_356\n        /* \"#utility.yul\":13033:13038   */\n      dup5\n        /* \"#utility.yul\":13015:13039   */\n      tag_138\n      jump\t// in\n    tag_356:\n        /* \"#utility.yul\":13006:13040   */\n      tag_169\n      jump\t// in\n    tag_355:\n        /* \"#utility.yul\":12988:13041   */\n      tag_138\n      jump\t// in\n    tag_354:\n        /* \"#utility.yul\":12975:13041   */\n      swap1\n      pop\n        /* \"#utility.yul\":12905:13047   */\n      swap2\n      swap1\n      pop\n      jump\t// out\n        /* \"#utility.yul\":13053:13179   */\n    tag_171:\n        /* \"#utility.yul\":13103:13112   */\n      0x00\n        /* \"#utility.yul\":13136:13173   */\n      tag_358\n        /* \"#utility.yul\":13167:13172   */\n      dup3\n        /* \"#utility.yul\":13136:13173   */\n      tag_170\n      jump\t// in\n    tag_358:\n        /* \"#utility.yul\":13123:13173   */\n      swap1\n      pop\n        /* \"#utility.yul\":13053:13179   */\n      swap2\n      swap1\n      pop\n      jump\t// out\n        /* \"#utility.yul\":13185:13327   */\n    tag_172:\n        /* \"#utility.yul\":13251:13260   */\n      0x00\n        /* \"#utility.yul\":13284:13321   */\n      tag_360\n        /* \"#utility.yul\":13315:13320   */\n      dup3\n        /* \"#utility.yul\":13284:13321   */\n      tag_171\n      jump\t// in\n    tag_360:\n        /* \"#utility.yul\":13271:13321   */\n      swap1\n      pop\n        /* \"#utility.yul\":13185:13327   */\n      swap2\n      swap1\n      pop\n      jump\t// out\n        /* \"#utility.yul\":13333:13496   */\n    tag_173:\n        /* \"#utility.yul\":13436:13489   */\n      tag_362\n        /* \"#utility.yul\":13483:13488   */\n      dup2\n        /* \"#utility.yul\":13436:13489   */\n      tag_172\n      jump\t// in\n    tag_362:\n        /* \"#utility.yul\":13431:13434   */\n      dup3\n        /* \"#utility.yul\":13424:13490   */\n      mstore\n        /* \"#utility.yul\":13333:13496   */\n      pop\n      pop\n      jump\t// out\n        /* \"#utility.yul\":13502:13756   */\n    tag_40:\n        /* \"#utility.yul\":13611:13615   */\n      0x00\n        /* \"#utility.yul\":13649:13651   */\n      0x20\n        /* \"#utility.yul\":13638:13647   */\n      dup3\n        /* \"#utility.yul\":13634:13652   */\n      add\n        /* \"#utility.yul\":13626:13652   */\n      swap1\n      pop\n        /* \"#utility.yul\":13662:13749   */\n      tag_364\n        /* \"#utility.yul\":13746:13747   */\n      0x00\n        /* \"#utility.yul\":13735:13744   */\n      dup4\n        /* \"#utility.yul\":13731:13748   */\n      add\n        /* \"#utility.yul\":13722:13728   */\n      dup5\n        /* \"#utility.yul\":13662:13749   */\n      tag_173\n      jump\t// in\n    tag_364:\n        /* \"#utility.yul\":13502:13756   */\n      swap3\n      swap2\n      pop\n      pop\n      jump\t// out\n        /* \"#utility.yul\":13762:14236   */\n    tag_44:\n        /* \"#utility.yul\":13830:13836   */\n      0x00\n        /* \"#utility.yul\":13838:13844   */\n      dup1\n        /* \"#utility.yul\":13887:13889   */\n      0x40\n        /* \"#utility.yul\":13875:13884   */\n      dup4\n        /* \"#utility.yul\":13866:13873   */\n      dup6\n        /* \"#utility.yul\":13862:13885   */\n      sub\n        /* \"#utility.yul\":13858:13890   */\n      slt\n        /* \"#utility.yul\":13855:13974   */\n      iszero\n      tag_366\n      jumpi\n        /* \"#utility.yul\":13893:13972   */\n      tag_367\n      tag_129\n      jump\t// in\n    tag_367:\n        /* \"#utility.yul\":13855:13974   */\n    tag_366:\n        /* \"#utility.yul\":14013:14014   */\n      0x00\n        /* \"#utility.yul\":14038:14091   */\n      tag_368\n        /* \"#utility.yul\":14083:14090   */\n      dup6\n        /* \"#utility.yul\":14074:14080   */\n      dup3\n        /* \"#utility.yul\":14063:14072   */\n      dup7\n        /* \"#utility.yul\":14059:14081   */\n      add\n        /* \"#utility.yul\":14038:14091   */\n      tag_152\n      jump\t// in\n    tag_368:\n        /* \"#utility.yul\":14028:14091   */\n      swap3\n      pop\n        /* \"#utility.yul\":13984:14101   */\n      pop\n        /* \"#utility.yul\":14140:14142   */\n      0x20\n        /* \"#utility.yul\":14166:14219   */\n      tag_369\n        /* \"#utility.yul\":14211:14218   */\n      dup6\n        /* \"#utility.yul\":14202:14208   */\n      dup3\n        /* \"#utility.yul\":14191:14200   */\n      dup7\n        /* \"#utility.yul\":14187:14209   */\n      add\n        /* \"#utility.yul\":14166:14219   */\n      tag_152\n      jump\t// in\n    tag_369:\n        /* \"#utility.yul\":14156:14219   */\n      swap2\n      pop\n        /* \"#utility.yul\":14111:14229   */\n      pop\n        /* \"#utility.yul\":13762:14236   */\n      swap3\n      pop\n      swap3\n      swap1\n      pop\n      jump\t// out\n        /* \"#utility.yul\":14242:14379   */\n    tag_174:\n        /* \"#utility.yul\":14303:14312   */\n      0x00\n        /* \"#utility.yul\":14336:14373   */\n      tag_371\n        /* \"#utility.yul\":14367:14372   */\n      dup3\n        /* \"#utility.yul\":14336:14373   */\n      tag_171\n      jump\t// in\n    tag_371:\n        /* \"#utility.yul\":14323:14373   */\n      swap1\n      pop\n        /* \"#utility.yul\":14242:14379   */\n      swap2\n      swap1\n      pop\n      jump\t// out\n        /* \"#utility.yul\":14385:14538   */\n    tag_175:\n        /* \"#utility.yul\":14483:14531   */\n      tag_373\n        /* \"#utility.yul\":14525:14530   */\n      dup2\n        /* \"#utility.yul\":14483:14531   */\n      tag_174\n      jump\t// in\n    tag_373:\n        /* \"#utility.yul\":14478:14481   */\n      dup3\n        /* \"#utility.yul\":14471:14532   */\n      mstore\n        /* \"#utility.yul\":14385:14538   */\n      pop\n      pop\n      jump\t// out\n        /* \"#utility.yul\":14544:14788   */\n    tag_51:\n        /* \"#utility.yul\":14648:14652   */\n      0x00\n        /* \"#utility.yul\":14686:14688   */\n      0x20\n        /* \"#utility.yul\":14675:14684   */\n      dup3\n        /* \"#utility.yul\":14671:14689   */\n      add\n        /* \"#utility.yul\":14663:14689   */\n      swap1\n      pop\n        /* \"#utility.yul\":14699:14781   */\n      tag_375\n        /* \"#utility.yul\":14778:14779   */\n      0x00\n        /* \"#utility.yul\":14767:14776   */\n      dup4\n        /* \"#utility.yul\":14763:14780   */\n      add\n        /* \"#utility.yul\":14754:14760   */\n      dup5\n        /* \"#utility.yul\":14699:14781   */\n      tag_175\n      jump\t// in\n    tag_375:\n        /* \"#utility.yul\":14544:14788   */\n      swap3\n      swap2\n      pop\n      pop\n      jump\t// out\n        /* \"#utility.yul\":14794:15739   */\n    tag_54:\n        /* \"#utility.yul\":14890:14896   */\n      0x00\n        /* \"#utility.yul\":14898:14904   */\n      dup1\n        /* \"#utility.yul\":14906:14912   */\n      0x00\n        /* \"#utility.yul\":14914:14920   */\n      dup1\n        /* \"#utility.yul\":14963:14966   */\n      0x80\n        /* \"#utility.yul\":14951:14960   */\n      dup6\n        /* \"#utility.yul\":14942:14949   */\n      dup8\n        /* \"#utility.yul\":14938:14961   */\n      sub\n        /* \"#utility.yul\":14934:14967   */\n      slt\n        /* \"#utility.yul\":14931:15051   */\n      iszero\n      tag_377\n      jumpi\n        /* \"#utility.yul\":14970:15049   */\n      tag_378\n      tag_129\n      jump\t// in\n    tag_378:\n        /* \"#utility.yul\":14931:15051   */\n    tag_377:\n        /* \"#utility.yul\":15090:15091   */\n      0x00\n        /* \"#utility.yul\":15115:15168   */\n      tag_379\n        /* \"#utility.yul\":15160:15167   */\n      dup8\n        /* \"#utility.yul\":15151:15157   */\n      dup3\n        /* \"#utility.yul\":15140:15149   */\n      dup9\n        /* \"#utility.yul\":15136:15158   */\n      add\n        /* \"#utility.yul\":15115:15168   */\n      tag_147\n      jump\t// in\n    tag_379:\n        /* \"#utility.yul\":15105:15168   */\n      swap5\n      pop\n        /* \"#utility.yul\":15061:15178   */\n      pop\n        /* \"#utility.yul\":15217:15219   */\n      0x20\n        /* \"#utility.yul\":15243:15296   */\n      tag_380\n        /* \"#utility.yul\":15288:15295   */\n      dup8\n        /* \"#utility.yul\":15279:15285   */\n      dup3\n        /* \"#utility.yul\":15268:15277   */\n      dup9\n        /* \"#utility.yul\":15264:15286   */\n      add\n        /* \"#utility.yul\":15243:15296   */\n      tag_152\n      jump\t// in\n    tag_380:\n        /* \"#utility.yul\":15233:15296   */\n      swap4\n      pop\n        /* \"#utility.yul\":15188:15306   */\n      pop\n        /* \"#utility.yul\":15373:15375   */\n      0x40\n        /* \"#utility.yul\":15362:15371   */\n      dup6\n        /* \"#utility.yul\":15358:15376   */\n      add\n        /* \"#utility.yul\":15345:15377   */\n      calldataload\n        /* \"#utility.yul\":15404:15422   */\n      0xffffffffffffffff\n        /* \"#utility.yul\":15396:15402   */\n      dup2\n        /* \"#utility.yul\":15393:15423   */\n      gt\n        /* \"#utility.yul\":15390:15507   */\n      iszero\n      tag_381\n      jumpi\n        /* \"#utility.yul\":15426:15505   */\n      tag_382\n      tag_130\n      jump\t// in\n    tag_382:\n        /* \"#utility.yul\":15390:15507   */\n    tag_381:\n        /* \"#utility.yul\":15531:15594   */\n      tag_383\n        /* \"#utility.yul\":15586:15593   */\n      dup8\n        /* \"#utility.yul\":15577:15583   */\n      dup3\n        /* \"#utility.yul\":15566:15575   */\n      dup9\n        /* \"#utility.yul\":15562:15584   */\n      add\n        /* \"#utility.yul\":15531:15594   */\n      tag_157\n      jump\t// in\n    tag_383:\n        /* \"#utility.yul\":15521:15594   */\n      swap3\n      pop\n        /* \"#utility.yul\":15316:15604   */\n      pop\n        /* \"#utility.yul\":15643:15645   */\n      0x60\n        /* \"#utility.yul\":15669:15722   */\n      tag_384\n        /* \"#utility.yul\":15714:15721   */\n      dup8\n        /* \"#utility.yul\":15705:15711   */\n      dup3\n        /* \"#utility.yul\":15694:15703   */\n      dup9\n        /* \"#utility.yul\":15690:15712   */\n      add\n        /* \"#utility.yul\":15669:15722   */\n      tag_152\n      jump\t// in\n    tag_384:\n        /* \"#utility.yul\":15659:15722   */\n      swap2\n      pop\n        /* \"#utility.yul\":15614:15732   */\n      pop\n        /* \"#utility.yul\":14794:15739   */\n      swap3\n      swap6\n      swap2\n      swap5\n      pop\n      swap3\n      pop\n      jump\t// out\n        /* \"#utility.yul\":15745:15822   */\n    tag_176:\n        /* \"#utility.yul\":15782:15789   */\n      0x00\n        /* \"#utility.yul\":15811:15816   */\n      dup2\n        /* \"#utility.yul\":15800:15816   */\n      swap1\n      pop\n        /* \"#utility.yul\":15745:15822   */\n      swap2\n      swap1\n      pop\n      jump\t// out\n        /* \"#utility.yul\":15828:15946   */\n    tag_177:\n        /* \"#utility.yul\":15915:15939   */\n      tag_387\n        /* \"#utility.yul\":15933:15938   */\n      dup2\n        /* \"#utility.yul\":15915:15939   */\n      tag_176\n      jump\t// in\n    tag_387:\n        /* \"#utility.yul\":15910:15913   */\n      dup3\n        /* \"#utility.yul\":15903:15940   */\n      mstore\n        /* \"#utility.yul\":15828:15946   */\n      pop\n      pop\n      jump\t// out\n        /* \"#utility.yul\":15952:16174   */\n    tag_57:\n        /* \"#utility.yul\":16045:16049   */\n      0x00\n        /* \"#utility.yul\":16083:16085   */\n      0x20\n        /* \"#utility.yul\":16072:16081   */\n      dup3\n        /* \"#utility.yul\":16068:16086   */\n      add\n        /* \"#utility.yul\":16060:16086   */\n      swap1\n      pop\n        /* \"#utility.yul\":16096:16167   */\n      tag_389\n        /* \"#utility.yul\":16164:16165   */\n      0x00\n        /* \"#utility.yul\":16153:16162   */\n      dup4\n        /* \"#utility.yul\":16149:16166   */\n      add\n        /* \"#utility.yul\":16140:16146   */\n      dup5\n        /* \"#utility.yul\":16096:16167   */\n      tag_177\n      jump\t// in\n    tag_389:\n        /* \"#utility.yul\":15952:16174   */\n      swap3\n      swap2\n      pop\n      pop\n      jump\t// out\n        /* \"#utility.yul\":16180:16287   */\n    tag_178:\n        /* \"#utility.yul\":16228:16235   */\n      0x00\n        /* \"#utility.yul\":16257:16281   */\n      tag_391\n        /* \"#utility.yul\":16275:16280   */\n      dup3\n        /* \"#utility.yul\":16257:16281   */\n      tag_139\n      jump\t// in\n    tag_391:\n        /* \"#utility.yul\":16246:16281   */\n      swap1\n      pop\n        /* \"#utility.yul\":16180:16287   */\n      swap2\n      swap1\n      pop\n      jump\t// out\n        /* \"#utility.yul\":16293:16437   */\n    tag_179:\n        /* \"#utility.yul\":16377:16412   */\n      tag_393\n        /* \"#utility.yul\":16406:16411   */\n      dup2\n        /* \"#utility.yul\":16377:16412   */\n      tag_178\n      jump\t// in\n    tag_393:\n        /* \"#utility.yul\":16370:16375   */\n      dup2\n        /* \"#utility.yul\":16367:16413   */\n      eq\n        /* \"#utility.yul\":16357:16431   */\n      tag_394\n      jumpi\n        /* \"#utility.yul\":16427:16428   */\n      0x00\n        /* \"#utility.yul\":16424:16425   */\n      dup1\n        /* \"#utility.yul\":16417:16429   */\n      revert\n        /* \"#utility.yul\":16357:16431   */\n    tag_394:\n        /* \"#utility.yul\":16293:16437   */\n      pop\n      jump\t// out\n        /* \"#utility.yul\":16443:16604   */\n    tag_180:\n        /* \"#utility.yul\":16500:16505   */\n      0x00\n        /* \"#utility.yul\":16538:16544   */\n      dup2\n        /* \"#utility.yul\":16525:16545   */\n      calldataload\n        /* \"#utility.yul\":16516:16545   */\n      swap1\n      pop\n        /* \"#utility.yul\":16554:16598   */\n      tag_396\n        /* \"#utility.yul\":16592:16597   */\n      dup2\n        /* \"#utility.yul\":16554:16598   */\n      tag_179\n      jump\t// in\n    tag_396:\n        /* \"#utility.yul\":16443:16604   */\n      swap3\n      swap2\n      pop\n      pop\n      jump\t// out\n        /* \"#utility.yul\":16610:17106   */\n    tag_61:\n        /* \"#utility.yul\":16689:16695   */\n      0x00\n        /* \"#utility.yul\":16697:16703   */\n      dup1\n        /* \"#utility.yul\":16746:16748   */\n      0x40\n        /* \"#utility.yul\":16734:16743   */\n      dup4\n        /* \"#utility.yul\":16725:16732   */\n      dup6\n        /* \"#utility.yul\":16721:16744   */\n      sub\n        /* \"#utility.yul\":16717:16749   */\n      slt\n        /* \"#utility.yul\":16714:16833   */\n      iszero\n      tag_398\n      jumpi\n        /* \"#utility.yul\":16752:16831   */\n      tag_399\n      tag_129\n      jump\t// in\n    tag_399:\n        /* \"#utility.yul\":16714:16833   */\n    tag_398:\n        /* \"#utility.yul\":16872:16873   */\n      0x00\n        /* \"#utility.yul\":16897:16950   */\n      tag_400\n        /* \"#utility.yul\":16942:16949   */\n      dup6\n        /* \"#utility.yul\":16933:16939   */\n      dup3\n        /* \"#utility.yul\":16922:16931   */\n      dup7\n        /* \"#utility.yul\":16918:16940   */\n      add\n        /* \"#utility.yul\":16897:16950   */\n      tag_147\n      jump\t// in\n    tag_400:\n        /* \"#utility.yul\":16887:16950   */\n      swap3\n      pop\n        /* \"#utility.yul\":16843:16960   */\n      pop\n        /* \"#utility.yul\":16999:17001   */\n      0x20\n        /* \"#utility.yul\":17025:17089   */\n      tag_401\n        /* \"#utility.yul\":17081:17088   */\n      dup6\n        /* \"#utility.yul\":17072:17078   */\n      dup3\n        /* \"#utility.yul\":17061:17070   */\n      dup7\n        /* \"#utility.yul\":17057:17079   */\n      add\n        /* \"#utility.yul\":17025:17089   */\n      tag_180\n      jump\t// in\n    tag_401:\n        /* \"#utility.yul\":17015:17089   */\n      swap2\n      pop\n        /* \"#utility.yul\":16970:17099   */\n      pop\n        /* \"#utility.yul\":16610:17106   */\n      swap3\n      pop\n      swap3\n      swap1\n      pop\n      jump\t// out\n        /* \"#utility.yul\":17112:17441   */\n    tag_66:\n        /* \"#utility.yul\":17171:17177   */\n      0x00\n        /* \"#utility.yul\":17220:17222   */\n      0x20\n        /* \"#utility.yul\":17208:17217   */\n      dup3\n        /* \"#utility.yul\":17199:17206   */\n      dup5\n        /* \"#utility.yul\":17195:17218   */\n      sub\n        /* \"#utility.yul\":17191:17223   */\n      slt\n        /* \"#utility.yul\":17188:17307   */\n      iszero\n      tag_403\n      jumpi\n        /* \"#utility.yul\":17226:17305   */\n      tag_404\n      tag_129\n      jump\t// in\n    tag_404:\n        /* \"#utility.yul\":17188:17307   */\n    tag_403:\n        /* \"#utility.yul\":17346:17347   */\n      0x00\n        /* \"#utility.yul\":17371:17424   */\n      tag_405\n        /* \"#utility.yul\":17416:17423   */\n      dup5\n        /* \"#utility.yul\":17407:17413   */\n      dup3\n        /* \"#utility.yul\":17396:17405   */\n      dup6\n        /* \"#utility.yul\":17392:17414   */\n      add\n        /* \"#utility.yul\":17371:17424   */\n      tag_152\n      jump\t// in\n    tag_405:\n        /* \"#utility.yul\":17361:17424   */\n      swap2\n      pop\n        /* \"#utility.yul\":17317:17434   */\n      pop\n        /* \"#utility.yul\":17112:17441   */\n      swap3\n      swap2\n      pop\n      pop\n      jump\t// out\n        /* \"#utility.yul\":17447:17569   */\n    tag_181:\n        /* \"#utility.yul\":17520:17544   */\n      tag_407\n        /* \"#utility.yul\":17538:17543   */\n      dup2\n        /* \"#utility.yul\":17520:17544   */\n      tag_176\n      jump\t// in\n    tag_407:\n        /* \"#utility.yul\":17513:17518   */\n      dup2\n        /* \"#utility.yul\":17510:17545   */\n      eq\n        /* \"#utility.yul\":17500:17563   */\n      tag_408\n      jumpi\n        /* \"#utility.yul\":17559:17560   */\n      0x00\n        /* \"#utility.yul\":17556:17557   */\n      dup1\n        /* \"#utility.yul\":17549:17561   */\n      revert\n        /* \"#utility.yul\":17500:17563   */\n    tag_408:\n        /* \"#utility.yul\":17447:17569   */\n      pop\n      jump\t// out\n        /* \"#utility.yul\":17575:17714   */\n    tag_182:\n        /* \"#utility.yul\":17621:17626   */\n      0x00\n        /* \"#utility.yul\":17659:17665   */\n      dup2\n        /* \"#utility.yul\":17646:17666   */\n      calldataload\n        /* \"#utility.yul\":17637:17666   */\n      swap1\n      pop\n        /* \"#utility.yul\":17675:17708   */\n      tag_410\n        /* \"#utility.yul\":17702:17707   */\n      dup2\n        /* \"#utility.yul\":17675:17708   */\n      tag_181\n      jump\t// in\n    tag_410:\n        /* \"#utility.yul\":17575:17714   */\n      swap3\n      swap2\n      pop\n      pop\n      jump\t// out\n        /* \"#utility.yul\":17720:18049   */\n    tag_75:\n        /* \"#utility.yul\":17779:17785   */\n      0x00\n        /* \"#utility.yul\":17828:17830   */\n      0x20\n        /* \"#utility.yul\":17816:17825   */\n      dup3\n        /* \"#utility.yul\":17807:17814   */\n      dup5\n        /* \"#utility.yul\":17803:17826   */\n      sub\n        /* \"#utility.yul\":17799:17831   */\n      slt\n        /* \"#utility.yul\":17796:17915   */\n      iszero\n      tag_412\n      jumpi\n        /* \"#utility.yul\":17834:17913   */\n      tag_413\n      tag_129\n      jump\t// in\n    tag_413:\n        /* \"#utility.yul\":17796:17915   */\n    tag_412:\n        /* \"#utility.yul\":17954:17955   */\n      0x00\n        /* \"#utility.yul\":17979:18032   */\n      tag_414\n        /* \"#utility.yul\":18024:18031   */\n      dup5\n        /* \"#utility.yul\":18015:18021   */\n      dup3\n        /* \"#utility.yul\":18004:18013   */\n      dup6\n        /* \"#utility.yul\":18000:18022   */\n      add\n        /* \"#utility.yul\":17979:18032   */\n      tag_182\n      jump\t// in\n    tag_414:\n        /* \"#utility.yul\":17969:18032   */\n      swap2\n      pop\n        /* \"#utility.yul\":17925:18042   */\n      pop\n        /* \"#utility.yul\":17720:18049   */\n      swap3\n      swap2\n      pop\n      pop\n      jump\t// out\n        /* \"#utility.yul\":18055:18235   */\n    tag_84:\n        /* \"#utility.yul\":18103:18180   */\n      0x4e487b7100000000000000000000000000000000000000000000000000000000\n        /* \"#utility.yul\":18100:18101   */\n      0x00\n        /* \"#utility.yul\":18093:18181   */\n      mstore\n        /* \"#utility.yul\":18200:18204   */\n      0x32\n        /* \"#utility.yul\":18197:18198   */\n      0x04\n        /* \"#utility.yul\":18190:18205   */\n      mstore\n        /* \"#utility.yul\":18224:18228   */\n      0x24\n        /* \"#utility.yul\":18221:18222   */\n      0x00\n        /* \"#utility.yul\":18214:18229   */\n      revert\n        /* \"#utility.yul\":18241:18421   */\n    tag_183:\n        /* \"#utility.yul\":18289:18366   */\n      0x4e487b7100000000000000000000000000000000000000000000000000000000\n        /* \"#utility.yul\":18286:18287   */\n      0x00\n        /* \"#utility.yul\":18279:18367   */\n      mstore\n        /* \"#utility.yul\":18386:18390   */\n      0x11\n        /* \"#utility.yul\":18383:18384   */\n      0x04\n        /* \"#utility.yul\":18376:18391   */\n      mstore\n        /* \"#utility.yul\":18410:18414   */\n      0x24\n        /* \"#utility.yul\":18407:18408   */\n      0x00\n        /* \"#utility.yul\":18400:18415   */\n      revert\n        /* \"#utility.yul\":18427:18660   */\n    tag_89:\n        /* \"#utility.yul\":18466:18469   */\n      0x00\n        /* \"#utility.yul\":18489:18513   */\n      tag_418\n        /* \"#utility.yul\":18507:18512   */\n      dup3\n        /* \"#utility.yul\":18489:18513   */\n      tag_150\n      jump\t// in\n    tag_418:\n        /* \"#utility.yul\":18480:18513   */\n      swap2\n      pop\n        /* \"#utility.yul\":18535:18601   */\n      0xffffffffffffffffffffffffffffffffffffffffffffffffffffffffffffffff\n        /* \"#utility.yul\":18528:18533   */\n      dup3\n        /* \"#utility.yul\":18525:18602   */\n      eq\n        /* \"#utility.yul\":18522:18625   */\n      iszero\n      tag_419\n      jumpi\n        /* \"#utility.yul\":18605:18623   */\n      tag_420\n      tag_183\n      jump\t// in\n    tag_420:\n        /* \"#utility.yul\":18522:18625   */\n    tag_419:\n        /* \"#utility.yul\":18652:18653   */\n      0x01\n        /* \"#utility.yul\":18645:18650   */\n      dup3\n        /* \"#utility.yul\":18641:18654   */\n      add\n        /* \"#utility.yul\":18634:18654   */\n      swap1\n      pop\n        /* \"#utility.yul\":18427:18660   */\n      swap2\n      swap1\n      pop\n      jump\t// out\n        /* \"#utility.yul\":18666:18784   */\n    tag_184:\n        /* \"#utility.yul\":18753:18777   */\n      tag_422\n        /* \"#utility.yul\":18771:18776   */\n      dup2\n        /* \"#utility.yul\":18753:18777   */\n      tag_150\n      jump\t// in\n    tag_422:\n        /* \"#utility.yul\":18748:18751   */\n      dup3\n        /* \"#utility.yul\":18741:18778   */\n      mstore\n        /* \"#utility.yul\":18666:18784   */\n      pop\n      pop\n      jump\t// out\n        /* \"#utility.yul\":18790:18889   */\n    tag_185:\n        /* \"#utility.yul\":18842:18848   */\n      0x00\n        /* \"#utility.yul\":18876:18881   */\n      dup2\n        /* \"#utility.yul\":18870:18882   */\n      mload\n        /* \"#utility.yul\":18860:18882   */\n      swap1\n      pop\n        /* \"#utility.yul\":18790:18889   */\n      swap2\n      swap1\n      pop\n      jump\t// out\n        /* \"#utility.yul\":18895:19064   */\n    tag_186:\n        /* \"#utility.yul\":18979:18990   */\n      0x00\n        /* \"#utility.yul\":19013:19019   */\n      dup3\n        /* \"#utility.yul\":19008:19011   */\n      dup3\n        /* \"#utility.yul\":19001:19020   */\n      mstore\n        /* \"#utility.yul\":19053:19057   */\n      0x20\n        /* \"#utility.yul\":19048:19051   */\n      dup3\n        /* \"#utility.yul\":19044:19058   */\n      add\n        /* \"#utility.yul\":19029:19058   */\n      swap1\n      pop\n        /* \"#utility.yul\":18895:19064   */\n      swap3\n      swap2\n      pop\n      pop\n      jump\t// out\n        /* \"#utility.yul\":19070:19377   */\n    tag_187:\n        /* \"#utility.yul\":19138:19139   */\n      0x00\n        /* \"#utility.yul\":19148:19261   */\n    tag_426:\n        /* \"#utility.yul\":19162:19168   */\n      dup4\n        /* \"#utility.yul\":19159:19160   */\n      dup2\n        /* \"#utility.yul\":19156:19169   */\n      lt\n        /* \"#utility.yul\":19148:19261   */\n      iszero\n      tag_428\n      jumpi\n        /* \"#utility.yul\":19247:19248   */\n      dup1\n        /* \"#utility.yul\":19242:19245   */\n      dup3\n        /* \"#utility.yul\":19238:19249   */\n      add\n        /* \"#utility.yul\":19232:19250   */\n      mload\n        /* \"#utility.yul\":19228:19229   */\n      dup2\n        /* \"#utility.yul\":19223:19226   */\n      dup5\n        /* \"#utility.yul\":19219:19230   */\n      add\n        /* \"#utility.yul\":19212:19251   */\n      mstore\n        /* \"#utility.yul\":19184:19186   */\n      0x20\n        /* \"#utility.yul\":19181:19182   */\n      dup2\n        /* \"#utility.yul\":19177:19187   */\n      add\n        /* \"#utility.yul\":19172:19187   */\n      swap1\n      pop\n        /* \"#utility.yul\":19148:19261   */\n      jump(tag_426)\n    tag_428:\n        /* \"#utility.yul\":19279:19285   */\n      dup4\n        /* \"#utility.yul\":19276:19277   */\n      dup2\n        /* \"#utility.yul\":19273:19286   */\n      gt\n        /* \"#utility.yul\":19270:19371   */\n      iszero\n      tag_429\n      jumpi\n        /* \"#utility.yul\":19359:19360   */\n      0x00\n        /* \"#utility.yul\":19350:19356   */\n      dup5\n        /* \"#utility.yul\":19345:19348   */\n      dup5\n        /* \"#utility.yul\":19341:19357   */\n      add\n        /* \"#utility.yul\":19334:19361   */\n      mstore\n        /* \"#utility.yul\":19270:19371   */\n    tag_429:\n        /* \"#utility.yul\":19119:19377   */\n      pop\n        /* \"#utility.yul\":19070:19377   */\n      pop\n      pop\n      pop\n      jump\t// out\n        /* \"#utility.yul\":19383:19747   */\n    tag_188:\n        /* \"#utility.yul\":19471:19474   */\n      0x00\n        /* \"#utility.yul\":19499:19538   */\n      tag_431\n        /* \"#utility.yul\":19532:19537   */\n      dup3\n        /* \"#utility.yul\":19499:19538   */\n      tag_185\n      jump\t// in\n    tag_431:\n        /* \"#utility.yul\":19554:19625   */\n      tag_432\n        /* \"#utility.yul\":19618:19624   */\n      dup2\n        /* \"#utility.yul\":19613:19616   */\n      dup6\n        /* \"#utility.yul\":19554:19625   */\n      tag_186\n      jump\t// in\n    tag_432:\n        /* \"#utility.yul\":19547:19625   */\n      swap4\n      pop\n        /* \"#utility.yul\":19634:19686   */\n      tag_433\n        /* \"#utility.yul\":19679:19685   */\n      dup2\n        /* \"#utility.yul\":19674:19677   */\n      dup6\n        /* \"#utility.yul\":19667:19671   */\n      0x20\n        /* \"#utility.yul\":19660:19665   */\n      dup7\n        /* \"#utility.yul\":19656:19672   */\n      add\n        /* \"#utility.yul\":19634:19686   */\n      tag_187\n      jump\t// in\n    tag_433:\n        /* \"#utility.yul\":19711:19740   */\n      tag_434\n        /* \"#utility.yul\":19733:19739   */\n      dup2\n        /* \"#utility.yul\":19711:19740   */\n      tag_132\n      jump\t// in\n    tag_434:\n        /* \"#utility.yul\":19706:19709   */\n      dup5\n        /* \"#utility.yul\":19702:19741   */\n      add\n        /* \"#utility.yul\":19695:19741   */\n      swap2\n      pop\n        /* \"#utility.yul\":19475:19747   */\n      pop\n        /* \"#utility.yul\":19383:19747   */\n      swap3\n      swap2\n      pop\n      pop\n      jump\t// out\n        /* \"#utility.yul\":19753:19851   */\n    tag_189:\n        /* \"#utility.yul\":19804:19810   */\n      0x00\n        /* \"#utility.yul\":19838:19843   */\n      dup2\n        /* \"#utility.yul\":19832:19844   */\n      mload\n        /* \"#utility.yul\":19822:19844   */\n      swap1\n      pop\n        /* \"#utility.yul\":19753:19851   */\n      swap2\n      swap1\n      pop\n      jump\t// out\n        /* \"#utility.yul\":19857:20025   */\n    tag_190:\n        /* \"#utility.yul\":19940:19951   */\n      0x00\n        /* \"#utility.yul\":19974:19980   */\n      dup3\n        /* \"#utility.yul\":19969:19972   */\n      dup3\n        /* \"#utility.yul\":19962:19981   */\n      mstore\n        /* \"#utility.yul\":20014:20018   */\n      0x20\n        /* \"#utility.yul\":20009:20012   */\n      dup3\n        /* \"#utility.yul\":20005:20019   */\n      add\n        /* \"#utility.yul\":19990:20019   */\n      swap1\n      pop\n        /* \"#utility.yul\":19857:20025   */\n      swap3\n      swap2\n      pop\n      pop\n      jump\t// out\n        /* \"#utility.yul\":20031:20391   */\n    tag_191:\n        /* \"#utility.yul\":20117:20120   */\n      0x00\n        /* \"#utility.yul\":20145:20183   */\n      tag_438\n        /* \"#utility.yul\":20177:20182   */\n      dup3\n        /* \"#utility.yul\":20145:20183   */\n      tag_189\n      jump\t// in\n    tag_438:\n        /* \"#utility.yul\":20199:20269   */\n      tag_439\n        /* \"#utility.yul\":20262:20268   */\n      dup2\n        /* \"#utility.yul\":20257:20260   */\n      dup6\n        /* \"#utility.yul\":20199:20269   */\n      tag_190\n      jump\t// in\n    tag_439:\n        /* \"#utility.yul\":20192:20269   */\n      swap4\n      pop\n        /* \"#utility.yul\":20278:20330   */\n      tag_440\n        /* \"#utility.yul\":20323:20329   */\n      dup2\n        /* \"#utility.yul\":20318:20321   */\n      dup6\n        /* \"#utility.yul\":20311:20315   */\n      0x20\n        /* \"#utility.yul\":20304:20309   */\n      dup7\n        /* \"#utility.yul\":20300:20316   */\n      add\n        /* \"#utility.yul\":20278:20330   */\n      tag_187\n      jump\t// in\n    tag_440:\n        /* \"#utility.yul\":20355:20384   */\n      tag_441\n        /* \"#utility.yul\":20377:20383   */\n      dup2\n        /* \"#utility.yul\":20355:20384   */\n      tag_132\n      jump\t// in\n    tag_441:\n        /* \"#utility.yul\":20350:20353   */\n      dup5\n        /* \"#utility.yul\":20346:20385   */\n      add\n        /* \"#utility.yul\":20339:20385   */\n      swap2\n      pop\n        /* \"#utility.yul\":20121:20391   */\n      pop\n        /* \"#utility.yul\":20031:20391   */\n      swap3\n      swap2\n      pop\n      pop\n      jump\t// out\n        /* \"#utility.yul\":20397:21350   */\n    tag_100:\n        /* \"#utility.yul\":20668:20672   */\n      0x00\n        /* \"#utility.yul\":20706:20709   */\n      0xc0\n        /* \"#utility.yul\":20695:20704   */\n      dup3\n        /* \"#utility.yul\":20691:20710   */\n      add\n        /* \"#utility.yul\":20683:20710   */\n      swap1\n      pop\n        /* \"#utility.yul\":20720:20791   */\n      tag_443\n        /* \"#utility.yul\":20788:20789   */\n      0x00\n        /* \"#utility.yul\":20777:20786   */\n      dup4\n        /* \"#utility.yul\":20773:20790   */\n      add\n        /* \"#utility.yul\":20764:20770   */\n      dup10\n        /* \"#utility.yul\":20720:20791   */\n      tag_168\n      jump\t// in\n    tag_443:\n        /* \"#utility.yul\":20801:20873   */\n      tag_444\n        /* \"#utility.yul\":20869:20871   */\n      0x20\n        /* \"#utility.yul\":20858:20867   */\n      dup4\n        /* \"#utility.yul\":20854:20872   */\n      add\n        /* \"#utility.yul\":20845:20851   */\n      dup9\n        /* \"#utility.yul\":20801:20873   */\n      tag_168\n      jump\t// in\n    tag_444:\n        /* \"#utility.yul\":20883:20955   */\n      tag_445\n        /* \"#utility.yul\":20951:20953   */\n      0x40\n        /* \"#utility.yul\":20940:20949   */\n      dup4\n        /* \"#utility.yul\":20936:20954   */\n      add\n        /* \"#utility.yul\":20927:20933   */\n      dup8\n        /* \"#utility.yul\":20883:20955   */\n      tag_184\n      jump\t// in\n    tag_445:\n        /* \"#utility.yul\":21002:21011   */\n      dup2\n        /* \"#utility.yul\":20996:21000   */\n      dup2\n        /* \"#utility.yul\":20992:21012   */\n      sub\n        /* \"#utility.yul\":20987:20989   */\n      0x60\n        /* \"#utility.yul\":20976:20985   */\n      dup4\n        /* \"#utility.yul\":20972:20990   */\n      add\n        /* \"#utility.yul\":20965:21013   */\n      mstore\n        /* \"#utility.yul\":21030:21108   */\n      tag_446\n        /* \"#utility.yul\":21103:21107   */\n      dup2\n        /* \"#utility.yul\":21094:21100   */\n      dup7\n        /* \"#utility.yul\":21030:21108   */\n      tag_188\n      jump\t// in\n    tag_446:\n        /* \"#utility.yul\":21022:21108   */\n      swap1\n      pop\n        /* \"#utility.yul\":21118:21191   */\n      tag_447\n        /* \"#utility.yul\":21186:21189   */\n      0x80\n        /* \"#utility.yul\":21175:21184   */\n      dup4\n        /* \"#utility.yul\":21171:21190   */\n      add\n        /* \"#utility.yul\":21162:21168   */\n      dup6\n        /* \"#utility.yul\":21118:21191   */\n      tag_184\n      jump\t// in\n    tag_447:\n        /* \"#utility.yul\":21239:21248   */\n      dup2\n        /* \"#utility.yul\":21233:21237   */\n      dup2\n        /* \"#utility.yul\":21229:21249   */\n      sub\n        /* \"#utility.yul\":21223:21226   */\n      0xa0\n        /* \"#utility.yul\":21212:21221   */\n      dup4\n        /* \"#utility.yul\":21208:21227   */\n      add\n        /* \"#utility.yul\":21201:21250   */\n      mstore\n        /* \"#utility.yul\":21267:21343   */\n      tag_448\n        /* \"#utility.yul\":21338:21342   */\n      dup2\n        /* \"#utility.yul\":21329:21335   */\n      dup5\n        /* \"#utility.yul\":21267:21343   */\n      tag_191\n      jump\t// in\n    tag_448:\n        /* \"#utility.yul\":21259:21343   */\n      swap1\n      pop\n        /* \"#utility.yul\":20397:21350   */\n      swap8\n      swap7\n      pop\n      pop\n      pop\n      pop\n      pop\n      pop\n      pop\n      jump\t// out\n        /* \"#utility.yul\":21356:21446   */\n    tag_192:\n        /* \"#utility.yul\":21390:21397   */\n      0x00\n        /* \"#utility.yul\":21433:21438   */\n      dup2\n        /* \"#utility.yul\":21426:21439   */\n      iszero\n        /* \"#utility.yul\":21419:21440   */\n      iszero\n        /* \"#utility.yul\":21408:21440   */\n      swap1\n      pop\n        /* \"#utility.yul\":21356:21446   */\n      swap2\n      swap1\n      pop\n      jump\t// out\n        /* \"#utility.yul\":21452:21568   */\n    tag_193:\n        /* \"#utility.yul\":21522:21543   */\n      tag_451\n        /* \"#utility.yul\":21537:21542   */\n      dup2\n        /* \"#utility.yul\":21522:21543   */\n      tag_192\n      jump\t// in\n    tag_451:\n        /* \"#utility.yul\":21515:21520   */\n      dup2\n        /* \"#utility.yul\":21512:21544   */\n      eq\n        /* \"#utility.yul\":21502:21562   */\n      tag_452\n      jumpi\n        /* \"#utility.yul\":21558:21559   */\n      0x00\n        /* \"#utility.yul\":21555:21556   */\n      dup1\n        /* \"#utility.yul\":21548:21560   */\n      revert\n        /* \"#utility.yul\":21502:21562   */\n    tag_452:\n        /* \"#utility.yul\":21452:21568   */\n      pop\n      jump\t// out\n        /* \"#utility.yul\":21574:21711   */\n    tag_194:\n        /* \"#utility.yul\":21628:21633   */\n      0x00\n        /* \"#utility.yul\":21659:21665   */\n      dup2\n        /* \"#utility.yul\":21653:21666   */\n      mload\n        /* \"#utility.yul\":21644:21666   */\n      swap1\n      pop\n        /* \"#utility.yul\":21675:21705   */\n      tag_454\n        /* \"#utility.yul\":21699:21704   */\n      dup2\n        /* \"#utility.yul\":21675:21705   */\n      tag_193\n      jump\t// in\n    tag_454:\n        /* \"#utility.yul\":21574:21711   */\n      swap3\n      swap2\n      pop\n      pop\n      jump\t// out\n        /* \"#utility.yul\":21717:22062   */\n    tag_105:\n        /* \"#utility.yul\":21784:21790   */\n      0x00\n        /* \"#utility.yul\":21833:21835   */\n      0x20\n        /* \"#utility.yul\":21821:21830   */\n      dup3\n        /* \"#utility.yul\":21812:21819   */\n      dup5\n        /* \"#utility.yul\":21808:21831   */\n      sub\n        /* \"#utility.yul\":21804:21836   */\n      slt\n        /* \"#utility.yul\":21801:21920   */\n      iszero\n      tag_456\n      jumpi\n        /* \"#utility.yul\":21839:21918   */\n      tag_457\n      tag_129\n      jump\t// in\n    tag_457:\n        /* \"#utility.yul\":21801:21920   */\n    tag_456:\n        /* \"#utility.yul\":21959:21960   */\n      0x00\n        /* \"#utility.yul\":21984:22045   */\n      tag_458\n        /* \"#utility.yul\":22037:22044   */\n      dup5\n        /* \"#utility.yul\":22028:22034   */\n      dup3\n        /* \"#utility.yul\":22017:22026   */\n      dup6\n        /* \"#utility.yul\":22013:22035   */\n      add\n        /* \"#utility.yul\":21984:22045   */\n      tag_194\n      jump\t// in\n    tag_458:\n        /* \"#utility.yul\":21974:22045   */\n      swap2\n      pop\n        /* \"#utility.yul\":21930:22055   */\n      pop\n        /* \"#utility.yul\":21717:22062   */\n      swap3\n      swap2\n      pop\n      pop\n      jump\t// out\n        /* \"#utility.yul\":22068:22259   */\n    tag_108:\n        /* \"#utility.yul\":22108:22112   */\n      0x00\n        /* \"#utility.yul\":22128:22148   */\n      tag_460\n        /* \"#utility.yul\":22146:22147   */\n      dup3\n        /* \"#utility.yul\":22128:22148   */\n      tag_150\n      jump\t// in\n    tag_460:\n        /* \"#utility.yul\":22123:22148   */\n      swap2\n      pop\n        /* \"#utility.yul\":22162:22182   */\n      tag_461\n        /* \"#utility.yul\":22180:22181   */\n      dup4\n        /* \"#utility.yul\":22162:22182   */\n      tag_150\n      jump\t// in\n    tag_461:\n        /* \"#utility.yul\":22157:22182   */\n      swap3\n      pop\n        /* \"#utility.yul\":22201:22202   */\n      dup3\n        /* \"#utility.yul\":22198:22199   */\n      dup3\n        /* \"#utility.yul\":22195:22203   */\n      lt\n        /* \"#utility.yul\":22192:22226   */\n      iszero\n      tag_462\n      jumpi\n        /* \"#utility.yul\":22206:22224   */\n      tag_463\n      tag_183\n      jump\t// in\n    tag_463:\n        /* \"#utility.yul\":22192:22226   */\n    tag_462:\n        /* \"#utility.yul\":22251:22252   */\n      dup3\n        /* \"#utility.yul\":22248:22249   */\n      dup3\n        /* \"#utility.yul\":22244:22253   */\n      sub\n        /* \"#utility.yul\":22236:22253   */\n      swap1\n      pop\n        /* \"#utility.yul\":22068:22259   */\n      swap3\n      swap2\n      pop\n      pop\n      jump\t// out\n        /* \"#utility.yul\":22265:22798   */\n    tag_115:\n        /* \"#utility.yul\":22434:22438   */\n      0x00\n        /* \"#utility.yul\":22472:22474   */\n      0x60\n        /* \"#utility.yul\":22461:22470   */\n      dup3\n        /* \"#utility.yul\":22457:22475   */\n      add\n        /* \"#utility.yul\":22449:22475   */\n      swap1\n      pop\n        /* \"#utility.yul\":22485:22556   */\n      tag_465\n        /* \"#utility.yul\":22553:22554   */\n      0x00\n        /* \"#utility.yul\":22542:22551   */\n      dup4\n        /* \"#utility.yul\":22538:22555   */\n      add\n        /* \"#utility.yul\":22529:22535   */\n      dup7\n        /* \"#utility.yul\":22485:22556   */\n      tag_184\n      jump\t// in\n    tag_465:\n        /* \"#utility.yul\":22603:22612   */\n      dup2\n        /* \"#utility.yul\":22597:22601   */\n      dup2\n        /* \"#utility.yul\":22593:22613   */\n      sub\n        /* \"#utility.yul\":22588:22590   */\n      0x20\n        /* \"#utility.yul\":22577:22586   */\n      dup4\n        /* \"#utility.yul\":22573:22591   */\n      add\n        /* \"#utility.yul\":22566:22614   */\n      mstore\n        /* \"#utility.yul\":22631:22709   */\n      tag_466\n        /* \"#utility.yul\":22704:22708   */\n      dup2\n        /* \"#utility.yul\":22695:22701   */\n      dup6\n        /* \"#utility.yul\":22631:22709   */\n      tag_188\n      jump\t// in\n    tag_466:\n        /* \"#utility.yul\":22623:22709   */\n      swap1\n      pop\n        /* \"#utility.yul\":22719:22791   */\n      tag_467\n        /* \"#utility.yul\":22787:22789   */\n      0x40\n        /* \"#utility.yul\":22776:22785   */\n      dup4\n        /* \"#utility.yul\":22772:22790   */\n      add\n        /* \"#utility.yul\":22763:22769   */\n      dup5\n        /* \"#utility.yul\":22719:22791   */\n      tag_184\n      jump\t// in\n    tag_467:\n        /* \"#utility.yul\":22265:22798   */\n      swap5\n      swap4\n      pop\n      pop\n      pop\n      pop\n      jump\t// out\n        /* \"#utility.yul\":22804:22898   */\n    tag_195:\n        /* \"#utility.yul\":22837:22845   */\n      0x00\n        /* \"#utility.yul\":22885:22890   */\n      dup2\n        /* \"#utility.yul\":22881:22883   */\n      0x60\n        /* \"#utility.yul\":22877:22891   */\n      shl\n        /* \"#utility.yul\":22856:22891   */\n      swap1\n      pop\n        /* \"#utility.yul\":22804:22898   */\n      swap2\n      swap1\n      pop\n      jump\t// out\n        /* \"#utility.yul\":22904:22998   */\n    tag_196:\n        /* \"#utility.yul\":22943:22950   */\n      0x00\n        /* \"#utility.yul\":22972:22992   */\n      tag_470\n        /* \"#utility.yul\":22986:22991   */\n      dup3\n        /* \"#utility.yul\":22972:22992   */\n      tag_195\n      jump\t// in\n    tag_470:\n        /* \"#utility.yul\":22961:22992   */\n      swap1\n      pop\n        /* \"#utility.yul\":22904:22998   */\n      swap2\n      swap1\n      pop\n      jump\t// out\n        /* \"#utility.yul\":23004:23104   */\n    tag_197:\n        /* \"#utility.yul\":23043:23050   */\n      0x00\n        /* \"#utility.yul\":23072:23098   */\n      tag_472\n        /* \"#utility.yul\":23092:23097   */\n      dup3\n        /* \"#utility.yul\":23072:23098   */\n      tag_196\n      jump\t// in\n    tag_472:\n        /* \"#utility.yul\":23061:23098   */\n      swap1\n      pop\n        /* \"#utility.yul\":23004:23104   */\n      swap2\n      swap1\n      pop\n      jump\t// out\n        /* \"#utility.yul\":23110:23267   */\n    tag_198:\n        /* \"#utility.yul\":23215:23260   */\n      tag_474\n        /* \"#utility.yul\":23235:23259   */\n      tag_475\n        /* \"#utility.yul\":23253:23258   */\n      dup3\n        /* \"#utility.yul\":23235:23259   */\n      tag_139\n      jump\t// in\n    tag_475:\n        /* \"#utility.yul\":23215:23260   */\n      tag_197\n      jump\t// in\n    tag_474:\n        /* \"#utility.yul\":23210:23213   */\n      dup3\n        /* \"#utility.yul\":23203:23261   */\n      mstore\n        /* \"#utility.yul\":23110:23267   */\n      pop\n      pop\n      jump\t// out\n        /* \"#utility.yul\":23273:23352   */\n    tag_199:\n        /* \"#utility.yul\":23312:23319   */\n      0x00\n        /* \"#utility.yul\":23341:23346   */\n      dup2\n        /* \"#utility.yul\":23330:23346   */\n      swap1\n      pop\n        /* \"#utility.yul\":23273:23352   */\n      swap2\n      swap1\n      pop\n      jump\t// out\n        /* \"#utility.yul\":23358:23515   */\n    tag_200:\n        /* \"#utility.yul\":23463:23508   */\n      tag_478\n        /* \"#utility.yul\":23483:23507   */\n      tag_479\n        /* \"#utility.yul\":23501:23506   */\n      dup3\n        /* \"#utility.yul\":23483:23507   */\n      tag_150\n      jump\t// in\n    tag_479:\n        /* \"#utility.yul\":23463:23508   */\n      tag_199\n      jump\t// in\n    tag_478:\n        /* \"#utility.yul\":23458:23461   */\n      dup3\n        /* \"#utility.yul\":23451:23509   */\n      mstore\n        /* \"#utility.yul\":23358:23515   */\n      pop\n      pop\n      jump\t// out\n        /* \"#utility.yul\":23521:23669   */\n    tag_201:\n        /* \"#utility.yul\":23623:23634   */\n      0x00\n        /* \"#utility.yul\":23660:23663   */\n      dup2\n        /* \"#utility.yul\":23645:23663   */\n      swap1\n      pop\n        /* \"#utility.yul\":23521:23669   */\n      swap3\n      swap2\n      pop\n      pop\n      jump\t// out\n        /* \"#utility.yul\":23675:24052   */\n    tag_202:\n        /* \"#utility.yul\":23781:23784   */\n      0x00\n        /* \"#utility.yul\":23809:23848   */\n      tag_482\n        /* \"#utility.yul\":23842:23847   */\n      dup3\n        /* \"#utility.yul\":23809:23848   */\n      tag_185\n      jump\t// in\n    tag_482:\n        /* \"#utility.yul\":23864:23953   */\n      tag_483\n        /* \"#utility.yul\":23946:23952   */\n      dup2\n        /* \"#utility.yul\":23941:23944   */\n      dup6\n        /* \"#utility.yul\":23864:23953   */\n      tag_201\n      jump\t// in\n    tag_483:\n        /* \"#utility.yul\":23857:23953   */\n      swap4\n      pop\n        /* \"#utility.yul\":23962:24014   */\n      tag_484\n        /* \"#utility.yul\":24007:24013   */\n      dup2\n        /* \"#utility.yul\":24002:24005   */\n      dup6\n        /* \"#utility.yul\":23995:23999   */\n      0x20\n        /* \"#utility.yul\":23988:23993   */\n      dup7\n        /* \"#utility.yul\":23984:24000   */\n      add\n        /* \"#utility.yul\":23962:24014   */\n      tag_187\n      jump\t// in\n    tag_484:\n        /* \"#utility.yul\":24039:24045   */\n      dup1\n        /* \"#utility.yul\":24034:24037   */\n      dup5\n        /* \"#utility.yul\":24030:24046   */\n      add\n        /* \"#utility.yul\":24023:24046   */\n      swap2\n      pop\n        /* \"#utility.yul\":23785:24052   */\n      pop\n        /* \"#utility.yul\":23675:24052   */\n      swap3\n      swap2\n      pop\n      pop\n      jump\t// out\n        /* \"#utility.yul\":24058:24756   */\n    tag_117:\n        /* \"#utility.yul\":24274:24277   */\n      0x00\n        /* \"#utility.yul\":24289:24364   */\n      tag_486\n        /* \"#utility.yul\":24360:24363   */\n      dup3\n        /* \"#utility.yul\":24351:24357   */\n      dup8\n        /* \"#utility.yul\":24289:24364   */\n      tag_198\n      jump\t// in\n    tag_486:\n        /* \"#utility.yul\":24389:24391   */\n      0x14\n        /* \"#utility.yul\":24384:24387   */\n      dup3\n        /* \"#utility.yul\":24380:24392   */\n      add\n        /* \"#utility.yul\":24373:24392   */\n      swap2\n      pop\n        /* \"#utility.yul\":24402:24477   */\n      tag_487\n        /* \"#utility.yul\":24473:24476   */\n      dup3\n        /* \"#utility.yul\":24464:24470   */\n      dup7\n        /* \"#utility.yul\":24402:24477   */\n      tag_200\n      jump\t// in\n    tag_487:\n        /* \"#utility.yul\":24502:24504   */\n      0x20\n        /* \"#utility.yul\":24497:24500   */\n      dup3\n        /* \"#utility.yul\":24493:24505   */\n      add\n        /* \"#utility.yul\":24486:24505   */\n      swap2\n      pop\n        /* \"#utility.yul\":24522:24617   */\n      tag_488\n        /* \"#utility.yul\":24613:24616   */\n      dup3\n        /* \"#utility.yul\":24604:24610   */\n      dup6\n        /* \"#utility.yul\":24522:24617   */\n      tag_202\n      jump\t// in\n    tag_488:\n        /* \"#utility.yul\":24515:24617   */\n      swap2\n      pop\n        /* \"#utility.yul\":24627:24702   */\n      tag_489\n        /* \"#utility.yul\":24698:24701   */\n      dup3\n        /* \"#utility.yul\":24689:24695   */\n      dup5\n        /* \"#utility.yul\":24627:24702   */\n      tag_200\n      jump\t// in\n    tag_489:\n        /* \"#utility.yul\":24727:24729   */\n      0x20\n        /* \"#utility.yul\":24722:24725   */\n      dup3\n        /* \"#utility.yul\":24718:24730   */\n      add\n        /* \"#utility.yul\":24711:24730   */\n      swap2\n      pop\n        /* \"#utility.yul\":24747:24750   */\n      dup2\n        /* \"#utility.yul\":24740:24750   */\n      swap1\n      pop\n        /* \"#utility.yul\":24058:24756   */\n      swap6\n      swap5\n      pop\n      pop\n      pop\n      pop\n      pop\n      jump\t// out\n        /* \"#utility.yul\":24762:24976   */\n    tag_203:\n        /* \"#utility.yul\":24902:24968   */\n      0x19457468657265756d205369676e6564204d6573736167653a0a333200000000\n        /* \"#utility.yul\":24898:24899   */\n      0x00\n        /* \"#utility.yul\":24890:24896   */\n      dup3\n        /* \"#utility.yul\":24886:24900   */\n      add\n        /* \"#utility.yul\":24879:24969   */\n      mstore\n        /* \"#utility.yul\":24762:24976   */\n      pop\n      jump\t// out\n        /* \"#utility.yul\":24982:25384   */\n    tag_204:\n        /* \"#utility.yul\":25142:25145   */\n      0x00\n        /* \"#utility.yul\":25163:25248   */\n      tag_492\n        /* \"#utility.yul\":25245:25247   */\n      0x1c\n        /* \"#utility.yul\":25240:25243   */\n      dup4\n        /* \"#utility.yul\":25163:25248   */\n      tag_201\n      jump\t// in\n    tag_492:\n        /* \"#utility.yul\":25156:25248   */\n      swap2\n      pop\n        /* \"#utility.yul\":25257:25350   */\n      tag_493\n        /* \"#utility.yul\":25346:25349   */\n      dup3\n        /* \"#utility.yul\":25257:25350   */\n      tag_203\n      jump\t// in\n    tag_493:\n        /* \"#utility.yul\":25375:25377   */\n      0x1c\n        /* \"#utility.yul\":25370:25373   */\n      dup3\n        /* \"#utility.yul\":25366:25378   */\n      add\n        /* \"#utility.yul\":25359:25378   */\n      swap1\n      pop\n        /* \"#utility.yul\":24982:25384   */\n      swap2\n      swap1\n      pop\n      jump\t// out\n        /* \"#utility.yul\":25390:25469   */\n    tag_205:\n        /* \"#utility.yul\":25429:25436   */\n      0x00\n        /* \"#utility.yul\":25458:25463   */\n      dup2\n        /* \"#utility.yul\":25447:25463   */\n      swap1\n      pop\n        /* \"#utility.yul\":25390:25469   */\n      swap2\n      swap1\n      pop\n      jump\t// out\n        /* \"#utility.yul\":25475:25632   */\n    tag_206:\n        /* \"#utility.yul\":25580:25625   */\n      tag_496\n        /* \"#utility.yul\":25600:25624   */\n      tag_497\n        /* \"#utility.yul\":25618:25623   */\n      dup3\n        /* \"#utility.yul\":25600:25624   */\n      tag_176\n      jump\t// in\n    tag_497:\n        /* \"#utility.yul\":25580:25625   */\n      tag_205\n      jump\t// in\n    tag_496:\n        /* \"#utility.yul\":25575:25578   */\n      dup3\n        /* \"#utility.yul\":25568:25626   */\n      mstore\n        /* \"#utility.yul\":25475:25632   */\n      pop\n      pop\n      jump\t// out\n        /* \"#utility.yul\":25638:26160   */\n    tag_127:\n        /* \"#utility.yul\":25851:25854   */\n      0x00\n        /* \"#utility.yul\":25873:26021   */\n      tag_499\n        /* \"#utility.yul\":26017:26020   */\n      dup3\n        /* \"#utility.yul\":25873:26021   */\n      tag_204\n      jump\t// in\n    tag_499:\n        /* \"#utility.yul\":25866:26021   */\n      swap2\n      pop\n        /* \"#utility.yul\":26031:26106   */\n      tag_500\n        /* \"#utility.yul\":26102:26105   */\n      dup3\n        /* \"#utility.yul\":26093:26099   */\n      dup5\n        /* \"#utility.yul\":26031:26106   */\n      tag_206\n      jump\t// in\n    tag_500:\n        /* \"#utility.yul\":26131:26133   */\n      0x20\n        /* \"#utility.yul\":26126:26129   */\n      dup3\n        /* \"#utility.yul\":26122:26134   */\n      add\n        /* \"#utility.yul\":26115:26134   */\n      swap2\n      pop\n        /* \"#utility.yul\":26151:26154   */\n      dup2\n        /* \"#utility.yul\":26144:26154   */\n      swap1\n      pop\n        /* \"#utility.yul\":25638:26160   */\n      swap3\n      swap2\n      pop\n      pop\n      jump\t// out\n\n    auxdata: 0xa264697066735822122009b6b62cbae073bca92c588615a600c7df7efada54cce4b33eb7b5d3cf67b36964736f6c63430008090033\n}\n",
    "bytecode": {
      "linkReferences": {},
      "object": "60806040523480156200001157600080fd5b5060405162001b4c38038062001b4c83398181016040528101906200003791906200037d565b336000806101000a81548173ffffffffffffffffffffffffffffffffffffffff021916908373ffffffffffffffffffffffffffffffffffffffff160217905550826008819055508160098190555080600a90805190602001906200009d929190620000f5565b506000600b60006101000a81548160ff02191690836003811115620000c757620000c6620003f8565b5b02179055506000600d819055506000600e819055506000600f8190555060006010819055505050506200048c565b828054620001039062000456565b90600052602060002090601f01602090048101928262000127576000855562000173565b82601f106200014257805160ff191683800117855562000173565b8280016001018555821562000173579182015b828111156200017257825182559160200191906001019062000155565b5b50905062000182919062000186565b5090565b5b80821115620001a157600081600090555060010162000187565b5090565b6000604051905090565b600080fd5b600080fd5b6000819050919050565b620001ce81620001b9565b8114620001da57600080fd5b50565b600081519050620001ee81620001c3565b92915050565b600080fd5b600080fd5b6000601f19601f8301169050919050565b7f4e487b7100000000000000000000000000000000000000000000000000000000600052604160045260246000fd5b6200024982620001fe565b810181811067ffffffffffffffff821117156200026b576200026a6200020f565b5b80604052505050565b600062000280620001a5565b90506200028e82826200023e565b919050565b600067ffffffffffffffff821115620002b157620002b06200020f565b5b620002bc82620001fe565b9050602081019050919050565b60005b83811015620002e9578082015181840152602081019050620002cc565b83811115620002f9576000848401525b50505050565b600062000316620003108462000293565b62000274565b905082815260208101848484011115620003355762000334620001f9565b5b62000342848285620002c9565b509392505050565b600082601f830112620003625762000361620001f4565b5b815162000374848260208601620002ff565b91505092915050565b600080600060608486031215620003995762000398620001af565b5b6000620003a986828701620001dd565b9350506020620003bc86828701620001dd565b925050604084015167ffffffffffffffff811115620003e057620003df620001b4565b5b620003ee868287016200034a565b9150509250925092565b7f4e487b7100000000000000000000000000000000000000000000000000000000600052602160045260246000fd5b7f4e487b7100000000000000000000000000000000000000000000000000000000600052602260045260246000fd5b600060028204905060018216806200046f57607f821691505b6020821081141562000486576200048562000427565b5b50919050565b6116b0806200049c6000396000f3fe6080604052600436106100a75760003560e01c806399a98dc11161006457806399a98dc1146101ad578063a35f8a40146101ea578063b42509221461021a578063bfd772fc14610243578063e061646b14610280578063fa540801146102ab576100a7565b80630c638710146100ac57806339074ba2146100d557806364e15b4c146100ec57806367e404ce1461011c5780636a0f4dd0146101475780638b52a81e14610184575b600080fd5b3480156100b857600080fd5b506100d360048036038101906100ce9190610aa4565b6102db565b005b3480156100e157600080fd5b506100ea610402565b005b61010660048036038101906101019190610d68565b610404565b6040516101139190610ef5565b60405180910390f35b34801561012857600080fd5b506101316105d3565b60405161013e9190610f26565b60405180910390f35b34801561015357600080fd5b5061016e60048036038101906101699190610f41565b6105f7565b60405161017b9190610fcd565b60405180910390f35b34801561019057600080fd5b506101ab60048036038101906101a69190610fe8565b61062a565b005b3480156101b957600080fd5b506101d460048036038101906101cf9190610f41565b61063c565b6040516101e19190611049565b60405180910390f35b61020460048036038101906101ff9190611064565b61066f565b6040516102119190611100565b60405180910390f35b34801561022657600080fd5b50610241600480360381019061023c9190611159565b610711565b005b34801561024f57600080fd5b5061026a60048036038101906102659190611199565b610793565b6040516102779190610f26565b60405180910390f35b34801561028c57600080fd5b506102956107d2565b6040516102a29190610ef5565b60405180910390f35b6102c560048036038101906102c091906111f2565b610860565b6040516102d29190611100565b60405180910390f35b60008082519050600091505b808210156103fd5760008383815181106103045761030361121f565b5b6020026020010151905080600360008373ffffffffffffffffffffffffffffffffffffffff1673ffffffffffffffffffffffffffffffffffffffff16815260200190815260200160002060006101000a81548173ffffffffffffffffffffffffffffffffffffffff021916908373ffffffffffffffffffffffffffffffffffffffff16021790555080600484815481106103a1576103a061121f565b5b9060005260206000200160006101000a81548173ffffffffffffffffffffffffffffffffffffffff021916908373ffffffffffffffffffffffffffffffffffffffff1602179055505081806103f59061127d565b9250506102e7565b505050565b565b60606000808751905060006060600093505b828410156105c3576000600560008c87815181106104375761043661121f565b5b602002602001015173ffffffffffffffffffffffffffffffffffffffff1673ffffffffffffffffffffffffffffffffffffffff16815260200190815260200160002060009054906101000a900473ffffffffffffffffffffffffffffffffffffffff1690508073ffffffffffffffffffffffffffffffffffffffff1663524f685b338d88815181106104cc576104cb61121f565b5b60200260200101518d8d8d8d6040518763ffffffff1660e01b81526004016104f9969594939291906113b2565b602060405180830381600087803b15801561051357600080fd5b505af1158015610527573d6000803e3d6000fd5b505050506040513d601f19601f8201168201806040525081019061054b9190611459565b925082156105af578082600184516105639190611486565b815181106105745761057361121f565b5b602002602001019073ffffffffffffffffffffffffffffffffffffffff16908173ffffffffffffffffffffffffffffffffffffffff16815250505b5083806105bb9061127d565b945050610416565b8094505050505095945050505050565b60008054906101000a900473ffffffffffffffffffffffffffffffffffffffff1681565b60036020528060005260406000206000915054906101000a900473ffffffffffffffffffffffffffffffffffffffff1681565b81600681905550806007819055505050565b60056020528060005260406000206000915054906101000a900473ffffffffffffffffffffffffffffffffffffffff1681565b60008473ffffffffffffffffffffffffffffffffffffffff163373ffffffffffffffffffffffffffffffffffffffff167f56f6c977d94bdfab068e6e03119fd3e227698075ff00e1f122fcbb541c219ada8686866040516106d2939291906114ba565b60405180910390a3848484846040516020016106f1949392919061159d565b604051602081830303815290604052805190602001209050949350505050565b80600560008473ffffffffffffffffffffffffffffffffffffffff1673ffffffffffffffffffffffffffffffffffffffff16815260200190815260200160002060006101000a81548173ffffffffffffffffffffffffffffffffffffffff021916908373ffffffffffffffffffffffffffffffffffffffff1602179055505050565b600181815481106107a357600080fd5b906000526020600020016000915054906101000a900473ffffffffffffffffffffffffffffffffffffffff1681565b6060600180548060200260200160405190810160405280929190818152602001828054801561085657602002820191906000526020600020905b8160009054906101000a900473ffffffffffffffffffffffffffffffffffffffff1673ffffffffffffffffffffffffffffffffffffffff168152602001906001019080831161080c575b5050505050905090565b60007f2563bf12e759147ae41a036dffeece03c4db05da3b738a30dd100821f498c57c826040516108919190611100565b60405180910390a1816040516020016108aa9190611654565b604051602081830303815290604052805190602001209050919050565b6000604051905090565b600080fd5b600080fd5b600080fd5b6000601f19601f8301169050919050565b7f4e487b7100000000000000000000000000000000000000000000000000000000600052604160045260246000fd5b610929826108e0565b810181811067ffffffffffffffff82111715610948576109476108f1565b5b80604052505050565b600061095b6108c7565b90506109678282610920565b919050565b600067ffffffffffffffff821115610987576109866108f1565b5b602082029050602081019050919050565b600080fd5b600073ffffffffffffffffffffffffffffffffffffffff82169050919050565b60006109c88261099d565b9050919050565b60006109da826109bd565b9050919050565b6109ea816109cf565b81146109f557600080fd5b50565b600081359050610a07816109e1565b92915050565b6000610a20610a1b8461096c565b610951565b90508083825260208201905060208402830185811115610a4357610a42610998565b5b835b81811015610a6c5780610a5888826109f8565b845260208401935050602081019050610a45565b5050509392505050565b600082601f830112610a8b57610a8a6108db565b5b8135610a9b848260208601610a0d565b91505092915050565b600060208284031215610aba57610ab96108d1565b5b600082013567ffffffffffffffff811115610ad857610ad76108d6565b5b610ae484828501610a76565b91505092915050565b600067ffffffffffffffff821115610b0857610b076108f1565b5b602082029050602081019050919050565b610b22816109bd565b8114610b2d57600080fd5b50565b600081359050610b3f81610b19565b92915050565b6000610b58610b5384610aed565b610951565b90508083825260208201905060208402830185811115610b7b57610b7a610998565b5b835b81811015610ba45780610b908882610b30565b845260208401935050602081019050610b7d565b5050509392505050565b600082601f830112610bc357610bc26108db565b5b8135610bd3848260208601610b45565b91505092915050565b6000819050919050565b610bef81610bdc565b8114610bfa57600080fd5b50565b600081359050610c0c81610be6565b92915050565b600080fd5b600067ffffffffffffffff821115610c3257610c316108f1565b5b610c3b826108e0565b9050602081019050919050565b82818337600083830152505050565b6000610c6a610c6584610c17565b610951565b905082815260208101848484011115610c8657610c85610c12565b5b610c91848285610c48565b509392505050565b600082601f830112610cae57610cad6108db565b5b8135610cbe848260208601610c57565b91505092915050565b600067ffffffffffffffff821115610ce257610ce16108f1565b5b610ceb826108e0565b9050602081019050919050565b6000610d0b610d0684610cc7565b610951565b905082815260208101848484011115610d2757610d26610c12565b5b610d32848285610c48565b509392505050565b600082601f830112610d4f57610d4e6108db565b5b8135610d5f848260208601610cf8565b91505092915050565b600080600080600060a08688031215610d8457610d836108d1565b5b600086013567ffffffffffffffff811115610da257610da16108d6565b5b610dae88828901610bae565b9550506020610dbf88828901610bfd565b945050604086013567ffffffffffffffff811115610de057610ddf6108d6565b5b610dec88828901610c99565b9350506060610dfd88828901610bfd565b925050608086013567ffffffffffffffff811115610e1e57610e1d6108d6565b5b610e2a88828901610d3a565b9150509295509295909350565b600081519050919050565b600082825260208201905092915050565b6000819050602082019050919050565b610e6c816109bd565b82525050565b6000610e7e8383610e63565b60208301905092915050565b6000602082019050919050565b6000610ea282610e37565b610eac8185610e42565b9350610eb783610e53565b8060005b83811015610ee8578151610ecf8882610e72565b9750610eda83610e8a565b925050600181019050610ebb565b5085935050505092915050565b60006020820190508181036000830152610f0f8184610e97565b905092915050565b610f20816109bd565b82525050565b6000602082019050610f3b6000830184610f17565b92915050565b600060208284031215610f5757610f566108d1565b5b6000610f6584828501610b30565b91505092915050565b6000819050919050565b6000610f93610f8e610f898461099d565b610f6e565b61099d565b9050919050565b6000610fa582610f78565b9050919050565b6000610fb782610f9a565b9050919050565b610fc781610fac565b82525050565b6000602082019050610fe26000830184610fbe565b92915050565b60008060408385031215610fff57610ffe6108d1565b5b600061100d85828601610bfd565b925050602061101e85828601610bfd565b9150509250929050565b600061103382610f9a565b9050919050565b61104381611028565b82525050565b600060208201905061105e600083018461103a565b92915050565b6000806000806080858703121561107e5761107d6108d1565b5b600061108c87828801610b30565b945050602061109d87828801610bfd565b935050604085013567ffffffffffffffff8111156110be576110bd6108d6565b5b6110ca87828801610c99565b92505060606110db87828801610bfd565b91505092959194509250565b6000819050919050565b6110fa816110e7565b82525050565b600060208201905061111560008301846110f1565b92915050565b6000611126826109bd565b9050919050565b6111368161111b565b811461114157600080fd5b50565b6000813590506111538161112d565b92915050565b600080604083850312156111705761116f6108d1565b5b600061117e85828601610b30565b925050602061118f85828601611144565b9150509250929050565b6000602082840312156111af576111ae6108d1565b5b60006111bd84828501610bfd565b91505092915050565b6111cf816110e7565b81146111da57600080fd5b50565b6000813590506111ec816111c6565b92915050565b600060208284031215611208576112076108d1565b5b6000611216848285016111dd565b91505092915050565b7f4e487b7100000000000000000000000000000000000000000000000000000000600052603260045260246000fd5b7f4e487b7100000000000000000000000000000000000000000000000000000000600052601160045260246000fd5b600061128882610bdc565b91507fffffffffffffffffffffffffffffffffffffffffffffffffffffffffffffffff8214156112bb576112ba61124e565b5b600182019050919050565b6112cf81610bdc565b82525050565b600081519050919050565b600082825260208201905092915050565b60005b8381101561130f5780820151818401526020810190506112f4565b8381111561131e576000848401525b50505050565b600061132f826112d5565b61133981856112e0565b93506113498185602086016112f1565b611352816108e0565b840191505092915050565b600081519050919050565b600082825260208201905092915050565b60006113848261135d565b61138e8185611368565b935061139e8185602086016112f1565b6113a7816108e0565b840191505092915050565b600060c0820190506113c76000830189610f17565b6113d46020830188610f17565b6113e160408301876112c6565b81810360608301526113f38186611324565b905061140260808301856112c6565b81810360a08301526114148184611379565b9050979650505050505050565b60008115159050919050565b61143681611421565b811461144157600080fd5b50565b6000815190506114538161142d565b92915050565b60006020828403121561146f5761146e6108d1565b5b600061147d84828501611444565b91505092915050565b600061149182610bdc565b915061149c83610bdc565b9250828210156114af576114ae61124e565b5b828203905092915050565b60006060820190506114cf60008301866112c6565b81810360208301526114e18185611324565b90506114f060408301846112c6565b949350505050565b60008160601b9050919050565b6000611510826114f8565b9050919050565b600061152282611505565b9050919050565b61153a611535826109bd565b611517565b82525050565b6000819050919050565b61155b61155682610bdc565b611540565b82525050565b600081905092915050565b6000611577826112d5565b6115818185611561565b93506115918185602086016112f1565b80840191505092915050565b60006115a98287611529565b6014820191506115b9828661154a565b6020820191506115c9828561156c565b91506115d5828461154a565b60208201915081905095945050505050565b7f19457468657265756d205369676e6564204d6573736167653a0a333200000000600082015250565b600061161d601c83611561565b9150611628826115e7565b601c82019050919050565b6000819050919050565b61164e611649826110e7565b611633565b82525050565b600061165f82611610565b915061166b828461163d565b6020820191508190509291505056fea264697066735822122009b6b62cbae073bca92c588615a600c7df7efada54cce4b33eb7b5d3cf67b36964736f6c63430008090033",
      "opcodes": "PUSH1 0x80 PUSH1 0x40 MSTORE CALLVALUE DUP1 ISZERO PUSH3 0x11 JUMPI PUSH1 0x0 DUP1 REVERT JUMPDEST POP PUSH1 0x40 MLOAD PUSH3 0x1B4C CODESIZE SUB DUP1 PUSH3 0x1B4C DUP4 CODECOPY DUP2 DUP2 ADD PUSH1 0x40 MSTORE DUP2 ADD SWAP1 PUSH3 0x37 SWAP2 SWAP1 PUSH3 0x37D JUMP JUMPDEST CALLER PUSH1 0x0 DUP1 PUSH2 0x100 EXP DUP2 SLOAD DUP2 PUSH20 0xFFFFFFFFFFFFFFFFFFFFFFFFFFFFFFFFFFFFFFFF MUL NOT AND SWAP1 DUP4 PUSH20 0xFFFFFFFFFFFFFFFFFFFFFFFFFFFFFFFFFFFFFFFF AND MUL OR SWAP1 SSTORE POP DUP3 PUSH1 0x8 DUP2 SWAP1 SSTORE POP DUP2 PUSH1 0x9 DUP2 SWAP1 SSTORE POP DUP1 PUSH1 0xA SWAP1 DUP1 MLOAD SWAP1 PUSH1 0x20 ADD SWAP1 PUSH3 0x9D SWAP3 SWAP2 SWAP1 PUSH3 0xF5 JUMP JUMPDEST POP PUSH1 0x0 PUSH1 0xB PUSH1 0x0 PUSH2 0x100 EXP DUP2 SLOAD DUP2 PUSH1 0xFF MUL NOT AND SWAP1 DUP4 PUSH1 0x3 DUP2 GT ISZERO PUSH3 0xC7 JUMPI PUSH3 0xC6 PUSH3 0x3F8 JUMP JUMPDEST JUMPDEST MUL OR SWAP1 SSTORE POP PUSH1 0x0 PUSH1 0xD DUP2 SWAP1 SSTORE POP PUSH1 0x0 PUSH1 0xE DUP2 SWAP1 SSTORE POP PUSH1 0x0 PUSH1 0xF DUP2 SWAP1 SSTORE POP PUSH1 0x0 PUSH1 0x10 DUP2 SWAP1 SSTORE POP POP POP POP PUSH3 0x48C JUMP JUMPDEST DUP3 DUP1 SLOAD PUSH3 0x103 SWAP1 PUSH3 0x456 JUMP JUMPDEST SWAP1 PUSH1 0x0 MSTORE PUSH1 0x20 PUSH1 0x0 KECCAK256 SWAP1 PUSH1 0x1F ADD PUSH1 0x20 SWAP1 DIV DUP2 ADD SWAP3 DUP3 PUSH3 0x127 JUMPI PUSH1 0x0 DUP6 SSTORE PUSH3 0x173 JUMP JUMPDEST DUP3 PUSH1 0x1F LT PUSH3 0x142 JUMPI DUP1 MLOAD PUSH1 0xFF NOT AND DUP4 DUP1 ADD OR DUP6 SSTORE PUSH3 0x173 JUMP JUMPDEST DUP3 DUP1 ADD PUSH1 0x1 ADD DUP6 SSTORE DUP3 ISZERO PUSH3 0x173 JUMPI SWAP2 DUP3 ADD JUMPDEST DUP3 DUP2 GT ISZERO PUSH3 0x172 JUMPI DUP3 MLOAD DUP3 SSTORE SWAP2 PUSH1 0x20 ADD SWAP2 SWAP1 PUSH1 0x1 ADD SWAP1 PUSH3 0x155 JUMP JUMPDEST JUMPDEST POP SWAP1 POP PUSH3 0x182 SWAP2 SWAP1 PUSH3 0x186 JUMP JUMPDEST POP SWAP1 JUMP JUMPDEST JUMPDEST DUP1 DUP3 GT ISZERO PUSH3 0x1A1 JUMPI PUSH1 0x0 DUP2 PUSH1 0x0 SWAP1 SSTORE POP PUSH1 0x1 ADD PUSH3 0x187 JUMP JUMPDEST POP SWAP1 JUMP JUMPDEST PUSH1 0x0 PUSH1 0x40 MLOAD SWAP1 POP SWAP1 JUMP JUMPDEST PUSH1 0x0 DUP1 REVERT JUMPDEST PUSH1 0x0 DUP1 REVERT JUMPDEST PUSH1 0x0 DUP2 SWAP1 POP SWAP2 SWAP1 POP JUMP JUMPDEST PUSH3 0x1CE DUP2 PUSH3 0x1B9 JUMP JUMPDEST DUP2 EQ PUSH3 0x1DA JUMPI PUSH1 0x0 DUP1 REVERT JUMPDEST POP JUMP JUMPDEST PUSH1 0x0 DUP2 MLOAD SWAP1 POP PUSH3 0x1EE DUP2 PUSH3 0x1C3 JUMP JUMPDEST SWAP3 SWAP2 POP POP JUMP JUMPDEST PUSH1 0x0 DUP1 REVERT JUMPDEST PUSH1 0x0 DUP1 REVERT JUMPDEST PUSH1 0x0 PUSH1 0x1F NOT PUSH1 0x1F DUP4 ADD AND SWAP1 POP SWAP2 SWAP1 POP JUMP JUMPDEST PUSH32 0x4E487B7100000000000000000000000000000000000000000000000000000000 PUSH1 0x0 MSTORE PUSH1 0x41 PUSH1 0x4 MSTORE PUSH1 0x24 PUSH1 0x0 REVERT JUMPDEST PUSH3 0x249 DUP3 PUSH3 0x1FE JUMP JUMPDEST DUP2 ADD DUP2 DUP2 LT PUSH8 0xFFFFFFFFFFFFFFFF DUP3 GT OR ISZERO PUSH3 0x26B JUMPI PUSH3 0x26A PUSH3 0x20F JUMP JUMPDEST JUMPDEST DUP1 PUSH1 0x40 MSTORE POP POP POP JUMP JUMPDEST PUSH1 0x0 PUSH3 0x280 PUSH3 0x1A5 JUMP JUMPDEST SWAP1 POP PUSH3 0x28E DUP3 DUP3 PUSH3 0x23E JUMP JUMPDEST SWAP2 SWAP1 POP JUMP JUMPDEST PUSH1 0x0 PUSH8 0xFFFFFFFFFFFFFFFF DUP3 GT ISZERO PUSH3 0x2B1 JUMPI PUSH3 0x2B0 PUSH3 0x20F JUMP JUMPDEST JUMPDEST PUSH3 0x2BC DUP3 PUSH3 0x1FE JUMP JUMPDEST SWAP1 POP PUSH1 0x20 DUP2 ADD SWAP1 POP SWAP2 SWAP1 POP JUMP JUMPDEST PUSH1 0x0 JUMPDEST DUP4 DUP2 LT ISZERO PUSH3 0x2E9 JUMPI DUP1 DUP3 ADD MLOAD DUP2 DUP5 ADD MSTORE PUSH1 0x20 DUP2 ADD SWAP1 POP PUSH3 0x2CC JUMP JUMPDEST DUP4 DUP2 GT ISZERO PUSH3 0x2F9 JUMPI PUSH1 0x0 DUP5 DUP5 ADD MSTORE JUMPDEST POP POP POP POP JUMP JUMPDEST PUSH1 0x0 PUSH3 0x316 PUSH3 0x310 DUP5 PUSH3 0x293 JUMP JUMPDEST PUSH3 0x274 JUMP JUMPDEST SWAP1 POP DUP3 DUP2 MSTORE PUSH1 0x20 DUP2 ADD DUP5 DUP5 DUP5 ADD GT ISZERO PUSH3 0x335 JUMPI PUSH3 0x334 PUSH3 0x1F9 JUMP JUMPDEST JUMPDEST PUSH3 0x342 DUP5 DUP3 DUP6 PUSH3 0x2C9 JUMP JUMPDEST POP SWAP4 SWAP3 POP POP POP JUMP JUMPDEST PUSH1 0x0 DUP3 PUSH1 0x1F DUP4 ADD SLT PUSH3 0x362 JUMPI PUSH3 0x361 PUSH3 0x1F4 JUMP JUMPDEST JUMPDEST DUP2 MLOAD PUSH3 0x374 DUP5 DUP3 PUSH1 0x20 DUP7 ADD PUSH3 0x2FF JUMP JUMPDEST SWAP2 POP POP SWAP3 SWAP2 POP POP JUMP JUMPDEST PUSH1 0x0 DUP1 PUSH1 0x0 PUSH1 0x60 DUP5 DUP7 SUB SLT ISZERO PUSH3 0x399 JUMPI PUSH3 0x398 PUSH3 0x1AF JUMP JUMPDEST JUMPDEST PUSH1 0x0 PUSH3 0x3A9 DUP7 DUP3 DUP8 ADD PUSH3 0x1DD JUMP JUMPDEST SWAP4 POP POP PUSH1 0x20 PUSH3 0x3BC DUP7 DUP3 DUP8 ADD PUSH3 0x1DD JUMP JUMPDEST SWAP3 POP POP PUSH1 0x40 DUP5 ADD MLOAD PUSH8 0xFFFFFFFFFFFFFFFF DUP2 GT ISZERO PUSH3 0x3E0 JUMPI PUSH3 0x3DF PUSH3 0x1B4 JUMP JUMPDEST JUMPDEST PUSH3 0x3EE DUP7 DUP3 DUP8 ADD PUSH3 0x34A JUMP JUMPDEST SWAP2 POP POP SWAP3 POP SWAP3 POP SWAP3 JUMP JUMPDEST PUSH32 0x4E487B7100000000000000000000000000000000000000000000000000000000 PUSH1 0x0 MSTORE PUSH1 0x21 PUSH1 0x4 MSTORE PUSH1 0x24 PUSH1 0x0 REVERT JUMPDEST PUSH32 0x4E487B7100000000000000000000000000000000000000000000000000000000 PUSH1 0x0 MSTORE PUSH1 0x22 PUSH1 0x4 MSTORE PUSH1 0x24 PUSH1 0x0 REVERT JUMPDEST PUSH1 0x0 PUSH1 0x2 DUP3 DIV SWAP1 POP PUSH1 0x1 DUP3 AND DUP1 PUSH3 0x46F JUMPI PUSH1 0x7F DUP3 AND SWAP2 POP JUMPDEST PUSH1 0x20 DUP3 LT DUP2 EQ ISZERO PUSH3 0x486 JUMPI PUSH3 0x485 PUSH3 0x427 JUMP JUMPDEST JUMPDEST POP SWAP2 SWAP1 POP JUMP JUMPDEST PUSH2 0x16B0 DUP1 PUSH3 0x49C PUSH1 0x0 CODECOPY PUSH1 0x0 RETURN INVALID PUSH1 0x80 PUSH1 0x40 MSTORE PUSH1 0x4 CALLDATASIZE LT PUSH2 0xA7 JUMPI PUSH1 0x0 CALLDATALOAD PUSH1 0xE0 SHR DUP1 PUSH4 0x99A98DC1 GT PUSH2 0x64 JUMPI DUP1 PUSH4 0x99A98DC1 EQ PUSH2 0x1AD JUMPI DUP1 PUSH4 0xA35F8A40 EQ PUSH2 0x1EA JUMPI DUP1 PUSH4 0xB4250922 EQ PUSH2 0x21A JUMPI DUP1 PUSH4 0xBFD772FC EQ PUSH2 0x243 JUMPI DUP1 PUSH4 0xE061646B EQ PUSH2 0x280 JUMPI DUP1 PUSH4 0xFA540801 EQ PUSH2 0x2AB JUMPI PUSH2 0xA7 JUMP JUMPDEST DUP1 PUSH4 0xC638710 EQ PUSH2 0xAC JUMPI DUP1 PUSH4 0x39074BA2 EQ PUSH2 0xD5 JUMPI DUP1 PUSH4 0x64E15B4C EQ PUSH2 0xEC JUMPI DUP1 PUSH4 0x67E404CE EQ PUSH2 0x11C JUMPI DUP1 PUSH4 0x6A0F4DD0 EQ PUSH2 0x147 JUMPI DUP1 PUSH4 0x8B52A81E EQ PUSH2 0x184 JUMPI JUMPDEST PUSH1 0x0 DUP1 REVERT JUMPDEST CALLVALUE DUP1 ISZERO PUSH2 0xB8 JUMPI PUSH1 0x0 DUP1 REVERT JUMPDEST POP PUSH2 0xD3 PUSH1 0x4 DUP1 CALLDATASIZE SUB DUP2 ADD SWAP1 PUSH2 0xCE SWAP2 SWAP1 PUSH2 0xAA4 JUMP JUMPDEST PUSH2 0x2DB JUMP JUMPDEST STOP JUMPDEST CALLVALUE DUP1 ISZERO PUSH2 0xE1 JUMPI PUSH1 0x0 DUP1 REVERT JUMPDEST POP PUSH2 0xEA PUSH2 0x402 JUMP JUMPDEST STOP JUMPDEST PUSH2 0x106 PUSH1 0x4 DUP1 CALLDATASIZE SUB DUP2 ADD SWAP1 PUSH2 0x101 SWAP2 SWAP1 PUSH2 0xD68 JUMP JUMPDEST PUSH2 0x404 JUMP JUMPDEST PUSH1 0x40 MLOAD PUSH2 0x113 SWAP2 SWAP1 PUSH2 0xEF5 JUMP JUMPDEST PUSH1 0x40 MLOAD DUP1 SWAP2 SUB SWAP1 RETURN JUMPDEST CALLVALUE DUP1 ISZERO PUSH2 0x128 JUMPI PUSH1 0x0 DUP1 REVERT JUMPDEST POP PUSH2 0x131 PUSH2 0x5D3 JUMP JUMPDEST PUSH1 0x40 MLOAD PUSH2 0x13E SWAP2 SWAP1 PUSH2 0xF26 JUMP JUMPDEST PUSH1 0x40 MLOAD DUP1 SWAP2 SUB SWAP1 RETURN JUMPDEST CALLVALUE DUP1 ISZERO PUSH2 0x153 JUMPI PUSH1 0x0 DUP1 REVERT JUMPDEST POP PUSH2 0x16E PUSH1 0x4 DUP1 CALLDATASIZE SUB DUP2 ADD SWAP1 PUSH2 0x169 SWAP2 SWAP1 PUSH2 0xF41 JUMP JUMPDEST PUSH2 0x5F7 JUMP JUMPDEST PUSH1 0x40 MLOAD PUSH2 0x17B SWAP2 SWAP1 PUSH2 0xFCD JUMP JUMPDEST PUSH1 0x40 MLOAD DUP1 SWAP2 SUB SWAP1 RETURN JUMPDEST CALLVALUE DUP1 ISZERO PUSH2 0x190 JUMPI PUSH1 0x0 DUP1 REVERT JUMPDEST POP PUSH2 0x1AB PUSH1 0x4 DUP1 CALLDATASIZE SUB DUP2 ADD SWAP1 PUSH2 0x1A6 SWAP2 SWAP1 PUSH2 0xFE8 JUMP JUMPDEST PUSH2 0x62A JUMP JUMPDEST STOP JUMPDEST CALLVALUE DUP1 ISZERO PUSH2 0x1B9 JUMPI PUSH1 0x0 DUP1 REVERT JUMPDEST POP PUSH2 0x1D4 PUSH1 0x4 DUP1 CALLDATASIZE SUB DUP2 ADD SWAP1 PUSH2 0x1CF SWAP2 SWAP1 PUSH2 0xF41 JUMP JUMPDEST PUSH2 0x63C JUMP JUMPDEST PUSH1 0x40 MLOAD PUSH2 0x1E1 SWAP2 SWAP1 PUSH2 0x1049 JUMP JUMPDEST PUSH1 0x40 MLOAD DUP1 SWAP2 SUB SWAP1 RETURN JUMPDEST PUSH2 0x204 PUSH1 0x4 DUP1 CALLDATASIZE SUB DUP2 ADD SWAP1 PUSH2 0x1FF SWAP2 SWAP1 PUSH2 0x1064 JUMP JUMPDEST PUSH2 0x66F JUMP JUMPDEST PUSH1 0x40 MLOAD PUSH2 0x211 SWAP2 SWAP1 PUSH2 0x1100 JUMP JUMPDEST PUSH1 0x40 MLOAD DUP1 SWAP2 SUB SWAP1 RETURN JUMPDEST CALLVALUE DUP1 ISZERO PUSH2 0x226 JUMPI PUSH1 0x0 DUP1 REVERT JUMPDEST POP PUSH2 0x241 PUSH1 0x4 DUP1 CALLDATASIZE SUB DUP2 ADD SWAP1 PUSH2 0x23C SWAP2 SWAP1 PUSH2 0x1159 JUMP JUMPDEST PUSH2 0x711 JUMP JUMPDEST STOP JUMPDEST CALLVALUE DUP1 ISZERO PUSH2 0x24F JUMPI PUSH1 0x0 DUP1 REVERT JUMPDEST POP PUSH2 0x26A PUSH1 0x4 DUP1 CALLDATASIZE SUB DUP2 ADD SWAP1 PUSH2 0x265 SWAP2 SWAP1 PUSH2 0x1199 JUMP JUMPDEST PUSH2 0x793 JUMP JUMPDEST PUSH1 0x40 MLOAD PUSH2 0x277 SWAP2 SWAP1 PUSH2 0xF26 JUMP JUMPDEST PUSH1 0x40 MLOAD DUP1 SWAP2 SUB SWAP1 RETURN JUMPDEST CALLVALUE DUP1 ISZERO PUSH2 0x28C JUMPI PUSH1 0x0 DUP1 REVERT JUMPDEST POP PUSH2 0x295 PUSH2 0x7D2 JUMP JUMPDEST PUSH1 0x40 MLOAD PUSH2 0x2A2 SWAP2 SWAP1 PUSH2 0xEF5 JUMP JUMPDEST PUSH1 0x40 MLOAD DUP1 SWAP2 SUB SWAP1 RETURN JUMPDEST PUSH2 0x2C5 PUSH1 0x4 DUP1 CALLDATASIZE SUB DUP2 ADD SWAP1 PUSH2 0x2C0 SWAP2 SWAP1 PUSH2 0x11F2 JUMP JUMPDEST PUSH2 0x860 JUMP JUMPDEST PUSH1 0x40 MLOAD PUSH2 0x2D2 SWAP2 SWAP1 PUSH2 0x1100 JUMP JUMPDEST PUSH1 0x40 MLOAD DUP1 SWAP2 SUB SWAP1 RETURN JUMPDEST PUSH1 0x0 DUP1 DUP3 MLOAD SWAP1 POP PUSH1 0x0 SWAP2 POP JUMPDEST DUP1 DUP3 LT ISZERO PUSH2 0x3FD JUMPI PUSH1 0x0 DUP4 DUP4 DUP2 MLOAD DUP2 LT PUSH2 0x304 JUMPI PUSH2 0x303 PUSH2 0x121F JUMP JUMPDEST JUMPDEST PUSH1 0x20 MUL PUSH1 0x20 ADD ADD MLOAD SWAP1 POP DUP1 PUSH1 0x3 PUSH1 0x0 DUP4 PUSH20 0xFFFFFFFFFFFFFFFFFFFFFFFFFFFFFFFFFFFFFFFF AND PUSH20 0xFFFFFFFFFFFFFFFFFFFFFFFFFFFFFFFFFFFFFFFF AND DUP2 MSTORE PUSH1 0x20 ADD SWAP1 DUP2 MSTORE PUSH1 0x20 ADD PUSH1 0x0 KECCAK256 PUSH1 0x0 PUSH2 0x100 EXP DUP2 SLOAD DUP2 PUSH20 0xFFFFFFFFFFFFFFFFFFFFFFFFFFFFFFFFFFFFFFFF MUL NOT AND SWAP1 DUP4 PUSH20 0xFFFFFFFFFFFFFFFFFFFFFFFFFFFFFFFFFFFFFFFF AND MUL OR SWAP1 SSTORE POP DUP1 PUSH1 0x4 DUP5 DUP2 SLOAD DUP2 LT PUSH2 0x3A1 JUMPI PUSH2 0x3A0 PUSH2 0x121F JUMP JUMPDEST JUMPDEST SWAP1 PUSH1 0x0 MSTORE PUSH1 0x20 PUSH1 0x0 KECCAK256 ADD PUSH1 0x0 PUSH2 0x100 EXP DUP2 SLOAD DUP2 PUSH20 0xFFFFFFFFFFFFFFFFFFFFFFFFFFFFFFFFFFFFFFFF MUL NOT AND SWAP1 DUP4 PUSH20 0xFFFFFFFFFFFFFFFFFFFFFFFFFFFFFFFFFFFFFFFF AND MUL OR SWAP1 SSTORE POP POP DUP2 DUP1 PUSH2 0x3F5 SWAP1 PUSH2 0x127D JUMP JUMPDEST SWAP3 POP POP PUSH2 0x2E7 JUMP JUMPDEST POP POP POP JUMP JUMPDEST JUMP JUMPDEST PUSH1 0x60 PUSH1 0x0 DUP1 DUP8 MLOAD SWAP1 POP PUSH1 0x0 PUSH1 0x60 PUSH1 0x0 SWAP4 POP JUMPDEST DUP3 DUP5 LT ISZERO PUSH2 0x5C3 JUMPI PUSH1 0x0 PUSH1 0x5 PUSH1 0x0 DUP13 DUP8 DUP2 MLOAD DUP2 LT PUSH2 0x437 JUMPI PUSH2 0x436 PUSH2 0x121F JUMP JUMPDEST JUMPDEST PUSH1 0x20 MUL PUSH1 0x20 ADD ADD MLOAD PUSH20 0xFFFFFFFFFFFFFFFFFFFFFFFFFFFFFFFFFFFFFFFF AND PUSH20 0xFFFFFFFFFFFFFFFFFFFFFFFFFFFFFFFFFFFFFFFF AND DUP2 MSTORE PUSH1 0x20 ADD SWAP1 DUP2 MSTORE PUSH1 0x20 ADD PUSH1 0x0 KECCAK256 PUSH1 0x0 SWAP1 SLOAD SWAP1 PUSH2 0x100 EXP SWAP1 DIV PUSH20 0xFFFFFFFFFFFFFFFFFFFFFFFFFFFFFFFFFFFFFFFF AND SWAP1 POP DUP1 PUSH20 0xFFFFFFFFFFFFFFFFFFFFFFFFFFFFFFFFFFFFFFFF AND PUSH4 0x524F685B CALLER DUP14 DUP9 DUP2 MLOAD DUP2 LT PUSH2 0x4CC JUMPI PUSH2 0x4CB PUSH2 0x121F JUMP JUMPDEST JUMPDEST PUSH1 0x20 MUL PUSH1 0x20 ADD ADD MLOAD DUP14 DUP14 DUP14 DUP14 PUSH1 0x40 MLOAD DUP8 PUSH4 0xFFFFFFFF AND PUSH1 0xE0 SHL DUP2 MSTORE PUSH1 0x4 ADD PUSH2 0x4F9 SWAP7 SWAP6 SWAP5 SWAP4 SWAP3 SWAP2 SWAP1 PUSH2 0x13B2 JUMP JUMPDEST PUSH1 0x20 PUSH1 0x40 MLOAD DUP1 DUP4 SUB DUP2 PUSH1 0x0 DUP8 DUP1 EXTCODESIZE ISZERO DUP1 ISZERO PUSH2 0x513 JUMPI PUSH1 0x0 DUP1 REVERT JUMPDEST POP GAS CALL ISZERO DUP1 ISZERO PUSH2 0x527 JUMPI RETURNDATASIZE PUSH1 0x0 DUP1 RETURNDATACOPY RETURNDATASIZE PUSH1 0x0 REVERT JUMPDEST POP POP POP POP PUSH1 0x40 MLOAD RETURNDATASIZE PUSH1 0x1F NOT PUSH1 0x1F DUP3 ADD AND DUP3 ADD DUP1 PUSH1 0x40 MSTORE POP DUP2 ADD SWAP1 PUSH2 0x54B SWAP2 SWAP1 PUSH2 0x1459 JUMP JUMPDEST SWAP3 POP DUP3 ISZERO PUSH2 0x5AF JUMPI DUP1 DUP3 PUSH1 0x1 DUP5 MLOAD PUSH2 0x563 SWAP2 SWAP1 PUSH2 0x1486 JUMP JUMPDEST DUP2 MLOAD DUP2 LT PUSH2 0x574 JUMPI PUSH2 0x573 PUSH2 0x121F JUMP JUMPDEST JUMPDEST PUSH1 0x20 MUL PUSH1 0x20 ADD ADD SWAP1 PUSH20 0xFFFFFFFFFFFFFFFFFFFFFFFFFFFFFFFFFFFFFFFF AND SWAP1 DUP2 PUSH20 0xFFFFFFFFFFFFFFFFFFFFFFFFFFFFFFFFFFFFFFFF AND DUP2 MSTORE POP POP JUMPDEST POP DUP4 DUP1 PUSH2 0x5BB SWAP1 PUSH2 0x127D JUMP JUMPDEST SWAP5 POP POP PUSH2 0x416 JUMP JUMPDEST DUP1 SWAP5 POP POP POP POP POP SWAP6 SWAP5 POP POP POP POP POP JUMP JUMPDEST PUSH1 0x0 DUP1 SLOAD SWAP1 PUSH2 0x100 EXP SWAP1 DIV PUSH20 0xFFFFFFFFFFFFFFFFFFFFFFFFFFFFFFFFFFFFFFFF AND DUP2 JUMP JUMPDEST PUSH1 0x3 PUSH1 0x20 MSTORE DUP1 PUSH1 0x0 MSTORE PUSH1 0x40 PUSH1 0x0 KECCAK256 PUSH1 0x0 SWAP2 POP SLOAD SWAP1 PUSH2 0x100 EXP SWAP1 DIV PUSH20 0xFFFFFFFFFFFFFFFFFFFFFFFFFFFFFFFFFFFFFFFF AND DUP2 JUMP JUMPDEST DUP2 PUSH1 0x6 DUP2 SWAP1 SSTORE POP DUP1 PUSH1 0x7 DUP2 SWAP1 SSTORE POP POP POP JUMP JUMPDEST PUSH1 0x5 PUSH1 0x20 MSTORE DUP1 PUSH1 0x0 MSTORE PUSH1 0x40 PUSH1 0x0 KECCAK256 PUSH1 0x0 SWAP2 POP SLOAD SWAP1 PUSH2 0x100 EXP SWAP1 DIV PUSH20 0xFFFFFFFFFFFFFFFFFFFFFFFFFFFFFFFFFFFFFFFF AND DUP2 JUMP JUMPDEST PUSH1 0x0 DUP5 PUSH20 0xFFFFFFFFFFFFFFFFFFFFFFFFFFFFFFFFFFFFFFFF AND CALLER PUSH20 0xFFFFFFFFFFFFFFFFFFFFFFFFFFFFFFFFFFFFFFFF AND PUSH32 0x56F6C977D94BDFAB068E6E03119FD3E227698075FF00E1F122FCBB541C219ADA DUP7 DUP7 DUP7 PUSH1 0x40 MLOAD PUSH2 0x6D2 SWAP4 SWAP3 SWAP2 SWAP1 PUSH2 0x14BA JUMP JUMPDEST PUSH1 0x40 MLOAD DUP1 SWAP2 SUB SWAP1 LOG3 DUP5 DUP5 DUP5 DUP5 PUSH1 0x40 MLOAD PUSH1 0x20 ADD PUSH2 0x6F1 SWAP5 SWAP4 SWAP3 SWAP2 SWAP1 PUSH2 0x159D JUMP JUMPDEST PUSH1 0x40 MLOAD PUSH1 0x20 DUP2 DUP4 SUB SUB DUP2 MSTORE SWAP1 PUSH1 0x40 MSTORE DUP1 MLOAD SWAP1 PUSH1 0x20 ADD KECCAK256 SWAP1 POP SWAP5 SWAP4 POP POP POP POP JUMP JUMPDEST DUP1 PUSH1 0x5 PUSH1 0x0 DUP5 PUSH20 0xFFFFFFFFFFFFFFFFFFFFFFFFFFFFFFFFFFFFFFFF AND PUSH20 0xFFFFFFFFFFFFFFFFFFFFFFFFFFFFFFFFFFFFFFFF AND DUP2 MSTORE PUSH1 0x20 ADD SWAP1 DUP2 MSTORE PUSH1 0x20 ADD PUSH1 0x0 KECCAK256 PUSH1 0x0 PUSH2 0x100 EXP DUP2 SLOAD DUP2 PUSH20 0xFFFFFFFFFFFFFFFFFFFFFFFFFFFFFFFFFFFFFFFF MUL NOT AND SWAP1 DUP4 PUSH20 0xFFFFFFFFFFFFFFFFFFFFFFFFFFFFFFFFFFFFFFFF AND MUL OR SWAP1 SSTORE POP POP POP JUMP JUMPDEST PUSH1 0x1 DUP2 DUP2 SLOAD DUP2 LT PUSH2 0x7A3 JUMPI PUSH1 0x0 DUP1 REVERT JUMPDEST SWAP1 PUSH1 0x0 MSTORE PUSH1 0x20 PUSH1 0x0 KECCAK256 ADD PUSH1 0x0 SWAP2 POP SLOAD SWAP1 PUSH2 0x100 EXP SWAP1 DIV PUSH20 0xFFFFFFFFFFFFFFFFFFFFFFFFFFFFFFFFFFFFFFFF AND DUP2 JUMP JUMPDEST PUSH1 0x60 PUSH1 0x1 DUP1 SLOAD DUP1 PUSH1 0x20 MUL PUSH1 0x20 ADD PUSH1 0x40 MLOAD SWAP1 DUP2 ADD PUSH1 0x40 MSTORE DUP1 SWAP3 SWAP2 SWAP1 DUP2 DUP2 MSTORE PUSH1 0x20 ADD DUP3 DUP1 SLOAD DUP1 ISZERO PUSH2 0x856 JUMPI PUSH1 0x20 MUL DUP3 ADD SWAP2 SWAP1 PUSH1 0x0 MSTORE PUSH1 0x20 PUSH1 0x0 KECCAK256 SWAP1 JUMPDEST DUP2 PUSH1 0x0 SWAP1 SLOAD SWAP1 PUSH2 0x100 EXP SWAP1 DIV PUSH20 0xFFFFFFFFFFFFFFFFFFFFFFFFFFFFFFFFFFFFFFFF AND PUSH20 0xFFFFFFFFFFFFFFFFFFFFFFFFFFFFFFFFFFFFFFFF AND DUP2 MSTORE PUSH1 0x20 ADD SWAP1 PUSH1 0x1 ADD SWAP1 DUP1 DUP4 GT PUSH2 0x80C JUMPI JUMPDEST POP POP POP POP POP SWAP1 POP SWAP1 JUMP JUMPDEST PUSH1 0x0 PUSH32 0x2563BF12E759147AE41A036DFFEECE03C4DB05DA3B738A30DD100821F498C57C DUP3 PUSH1 0x40 MLOAD PUSH2 0x891 SWAP2 SWAP1 PUSH2 0x1100 JUMP JUMPDEST PUSH1 0x40 MLOAD DUP1 SWAP2 SUB SWAP1 LOG1 DUP2 PUSH1 0x40 MLOAD PUSH1 0x20 ADD PUSH2 0x8AA SWAP2 SWAP1 PUSH2 0x1654 JUMP JUMPDEST PUSH1 0x40 MLOAD PUSH1 0x20 DUP2 DUP4 SUB SUB DUP2 MSTORE SWAP1 PUSH1 0x40 MSTORE DUP1 MLOAD SWAP1 PUSH1 0x20 ADD KECCAK256 SWAP1 POP SWAP2 SWAP1 POP JUMP JUMPDEST PUSH1 0x0 PUSH1 0x40 MLOAD SWAP1 POP SWAP1 JUMP JUMPDEST PUSH1 0x0 DUP1 REVERT JUMPDEST PUSH1 0x0 DUP1 REVERT JUMPDEST PUSH1 0x0 DUP1 REVERT JUMPDEST PUSH1 0x0 PUSH1 0x1F NOT PUSH1 0x1F DUP4 ADD AND SWAP1 POP SWAP2 SWAP1 POP JUMP JUMPDEST PUSH32 0x4E487B7100000000000000000000000000000000000000000000000000000000 PUSH1 0x0 MSTORE PUSH1 0x41 PUSH1 0x4 MSTORE PUSH1 0x24 PUSH1 0x0 REVERT JUMPDEST PUSH2 0x929 DUP3 PUSH2 0x8E0 JUMP JUMPDEST DUP2 ADD DUP2 DUP2 LT PUSH8 0xFFFFFFFFFFFFFFFF DUP3 GT OR ISZERO PUSH2 0x948 JUMPI PUSH2 0x947 PUSH2 0x8F1 JUMP JUMPDEST JUMPDEST DUP1 PUSH1 0x40 MSTORE POP POP POP JUMP JUMPDEST PUSH1 0x0 PUSH2 0x95B PUSH2 0x8C7 JUMP JUMPDEST SWAP1 POP PUSH2 0x967 DUP3 DUP3 PUSH2 0x920 JUMP JUMPDEST SWAP2 SWAP1 POP JUMP JUMPDEST PUSH1 0x0 PUSH8 0xFFFFFFFFFFFFFFFF DUP3 GT ISZERO PUSH2 0x987 JUMPI PUSH2 0x986 PUSH2 0x8F1 JUMP JUMPDEST JUMPDEST PUSH1 0x20 DUP3 MUL SWAP1 POP PUSH1 0x20 DUP2 ADD SWAP1 POP SWAP2 SWAP1 POP JUMP JUMPDEST PUSH1 0x0 DUP1 REVERT JUMPDEST PUSH1 0x0 PUSH20 0xFFFFFFFFFFFFFFFFFFFFFFFFFFFFFFFFFFFFFFFF DUP3 AND SWAP1 POP SWAP2 SWAP1 POP JUMP JUMPDEST PUSH1 0x0 PUSH2 0x9C8 DUP3 PUSH2 0x99D JUMP JUMPDEST SWAP1 POP SWAP2 SWAP1 POP JUMP JUMPDEST PUSH1 0x0 PUSH2 0x9DA DUP3 PUSH2 0x9BD JUMP JUMPDEST SWAP1 POP SWAP2 SWAP1 POP JUMP JUMPDEST PUSH2 0x9EA DUP2 PUSH2 0x9CF JUMP JUMPDEST DUP2 EQ PUSH2 0x9F5 JUMPI PUSH1 0x0 DUP1 REVERT JUMPDEST POP JUMP JUMPDEST PUSH1 0x0 DUP2 CALLDATALOAD SWAP1 POP PUSH2 0xA07 DUP2 PUSH2 0x9E1 JUMP JUMPDEST SWAP3 SWAP2 POP POP JUMP JUMPDEST PUSH1 0x0 PUSH2 0xA20 PUSH2 0xA1B DUP5 PUSH2 0x96C JUMP JUMPDEST PUSH2 0x951 JUMP JUMPDEST SWAP1 POP DUP1 DUP4 DUP3 MSTORE PUSH1 0x20 DUP3 ADD SWAP1 POP PUSH1 0x20 DUP5 MUL DUP4 ADD DUP6 DUP2 GT ISZERO PUSH2 0xA43 JUMPI PUSH2 0xA42 PUSH2 0x998 JUMP JUMPDEST JUMPDEST DUP4 JUMPDEST DUP2 DUP2 LT ISZERO PUSH2 0xA6C JUMPI DUP1 PUSH2 0xA58 DUP9 DUP3 PUSH2 0x9F8 JUMP JUMPDEST DUP5 MSTORE PUSH1 0x20 DUP5 ADD SWAP4 POP POP PUSH1 0x20 DUP2 ADD SWAP1 POP PUSH2 0xA45 JUMP JUMPDEST POP POP POP SWAP4 SWAP3 POP POP POP JUMP JUMPDEST PUSH1 0x0 DUP3 PUSH1 0x1F DUP4 ADD SLT PUSH2 0xA8B JUMPI PUSH2 0xA8A PUSH2 0x8DB JUMP JUMPDEST JUMPDEST DUP2 CALLDATALOAD PUSH2 0xA9B DUP5 DUP3 PUSH1 0x20 DUP7 ADD PUSH2 0xA0D JUMP JUMPDEST SWAP2 POP POP SWAP3 SWAP2 POP POP JUMP JUMPDEST PUSH1 0x0 PUSH1 0x20 DUP3 DUP5 SUB SLT ISZERO PUSH2 0xABA JUMPI PUSH2 0xAB9 PUSH2 0x8D1 JUMP JUMPDEST JUMPDEST PUSH1 0x0 DUP3 ADD CALLDATALOAD PUSH8 0xFFFFFFFFFFFFFFFF DUP2 GT ISZERO PUSH2 0xAD8 JUMPI PUSH2 0xAD7 PUSH2 0x8D6 JUMP JUMPDEST JUMPDEST PUSH2 0xAE4 DUP5 DUP3 DUP6 ADD PUSH2 0xA76 JUMP JUMPDEST SWAP2 POP POP SWAP3 SWAP2 POP POP JUMP JUMPDEST PUSH1 0x0 PUSH8 0xFFFFFFFFFFFFFFFF DUP3 GT ISZERO PUSH2 0xB08 JUMPI PUSH2 0xB07 PUSH2 0x8F1 JUMP JUMPDEST JUMPDEST PUSH1 0x20 DUP3 MUL SWAP1 POP PUSH1 0x20 DUP2 ADD SWAP1 POP SWAP2 SWAP1 POP JUMP JUMPDEST PUSH2 0xB22 DUP2 PUSH2 0x9BD JUMP JUMPDEST DUP2 EQ PUSH2 0xB2D JUMPI PUSH1 0x0 DUP1 REVERT JUMPDEST POP JUMP JUMPDEST PUSH1 0x0 DUP2 CALLDATALOAD SWAP1 POP PUSH2 0xB3F DUP2 PUSH2 0xB19 JUMP JUMPDEST SWAP3 SWAP2 POP POP JUMP JUMPDEST PUSH1 0x0 PUSH2 0xB58 PUSH2 0xB53 DUP5 PUSH2 0xAED JUMP JUMPDEST PUSH2 0x951 JUMP JUMPDEST SWAP1 POP DUP1 DUP4 DUP3 MSTORE PUSH1 0x20 DUP3 ADD SWAP1 POP PUSH1 0x20 DUP5 MUL DUP4 ADD DUP6 DUP2 GT ISZERO PUSH2 0xB7B JUMPI PUSH2 0xB7A PUSH2 0x998 JUMP JUMPDEST JUMPDEST DUP4 JUMPDEST DUP2 DUP2 LT ISZERO PUSH2 0xBA4 JUMPI DUP1 PUSH2 0xB90 DUP9 DUP3 PUSH2 0xB30 JUMP JUMPDEST DUP5 MSTORE PUSH1 0x20 DUP5 ADD SWAP4 POP POP PUSH1 0x20 DUP2 ADD SWAP1 POP PUSH2 0xB7D JUMP JUMPDEST POP POP POP SWAP4 SWAP3 POP POP POP JUMP JUMPDEST PUSH1 0x0 DUP3 PUSH1 0x1F DUP4 ADD SLT PUSH2 0xBC3 JUMPI PUSH2 0xBC2 PUSH2 0x8DB JUMP JUMPDEST JUMPDEST DUP2 CALLDATALOAD PUSH2 0xBD3 DUP5 DUP3 PUSH1 0x20 DUP7 ADD PUSH2 0xB45 JUMP JUMPDEST SWAP2 POP POP SWAP3 SWAP2 POP POP JUMP JUMPDEST PUSH1 0x0 DUP2 SWAP1 POP SWAP2 SWAP1 POP JUMP JUMPDEST PUSH2 0xBEF DUP2 PUSH2 0xBDC JUMP JUMPDEST DUP2 EQ PUSH2 0xBFA JUMPI PUSH1 0x0 DUP1 REVERT JUMPDEST POP JUMP JUMPDEST PUSH1 0x0 DUP2 CALLDATALOAD SWAP1 POP PUSH2 0xC0C DUP2 PUSH2 0xBE6 JUMP JUMPDEST SWAP3 SWAP2 POP POP JUMP JUMPDEST PUSH1 0x0 DUP1 REVERT JUMPDEST PUSH1 0x0 PUSH8 0xFFFFFFFFFFFFFFFF DUP3 GT ISZERO PUSH2 0xC32 JUMPI PUSH2 0xC31 PUSH2 0x8F1 JUMP JUMPDEST JUMPDEST PUSH2 0xC3B DUP3 PUSH2 0x8E0 JUMP JUMPDEST SWAP1 POP PUSH1 0x20 DUP2 ADD SWAP1 POP SWAP2 SWAP1 POP JUMP JUMPDEST DUP3 DUP2 DUP4 CALLDATACOPY PUSH1 0x0 DUP4 DUP4 ADD MSTORE POP POP POP JUMP JUMPDEST PUSH1 0x0 PUSH2 0xC6A PUSH2 0xC65 DUP5 PUSH2 0xC17 JUMP JUMPDEST PUSH2 0x951 JUMP JUMPDEST SWAP1 POP DUP3 DUP2 MSTORE PUSH1 0x20 DUP2 ADD DUP5 DUP5 DUP5 ADD GT ISZERO PUSH2 0xC86 JUMPI PUSH2 0xC85 PUSH2 0xC12 JUMP JUMPDEST JUMPDEST PUSH2 0xC91 DUP5 DUP3 DUP6 PUSH2 0xC48 JUMP JUMPDEST POP SWAP4 SWAP3 POP POP POP JUMP JUMPDEST PUSH1 0x0 DUP3 PUSH1 0x1F DUP4 ADD SLT PUSH2 0xCAE JUMPI PUSH2 0xCAD PUSH2 0x8DB JUMP JUMPDEST JUMPDEST DUP2 CALLDATALOAD PUSH2 0xCBE DUP5 DUP3 PUSH1 0x20 DUP7 ADD PUSH2 0xC57 JUMP JUMPDEST SWAP2 POP POP SWAP3 SWAP2 POP POP JUMP JUMPDEST PUSH1 0x0 PUSH8 0xFFFFFFFFFFFFFFFF DUP3 GT ISZERO PUSH2 0xCE2 JUMPI PUSH2 0xCE1 PUSH2 0x8F1 JUMP JUMPDEST JUMPDEST PUSH2 0xCEB DUP3 PUSH2 0x8E0 JUMP JUMPDEST SWAP1 POP PUSH1 0x20 DUP2 ADD SWAP1 POP SWAP2 SWAP1 POP JUMP JUMPDEST PUSH1 0x0 PUSH2 0xD0B PUSH2 0xD06 DUP5 PUSH2 0xCC7 JUMP JUMPDEST PUSH2 0x951 JUMP JUMPDEST SWAP1 POP DUP3 DUP2 MSTORE PUSH1 0x20 DUP2 ADD DUP5 DUP5 DUP5 ADD GT ISZERO PUSH2 0xD27 JUMPI PUSH2 0xD26 PUSH2 0xC12 JUMP JUMPDEST JUMPDEST PUSH2 0xD32 DUP5 DUP3 DUP6 PUSH2 0xC48 JUMP JUMPDEST POP SWAP4 SWAP3 POP POP POP JUMP JUMPDEST PUSH1 0x0 DUP3 PUSH1 0x1F DUP4 ADD SLT PUSH2 0xD4F JUMPI PUSH2 0xD4E PUSH2 0x8DB JUMP JUMPDEST JUMPDEST DUP2 CALLDATALOAD PUSH2 0xD5F DUP5 DUP3 PUSH1 0x20 DUP7 ADD PUSH2 0xCF8 JUMP JUMPDEST SWAP2 POP POP SWAP3 SWAP2 POP POP JUMP JUMPDEST PUSH1 0x0 DUP1 PUSH1 0x0 DUP1 PUSH1 0x0 PUSH1 0xA0 DUP7 DUP9 SUB SLT ISZERO PUSH2 0xD84 JUMPI PUSH2 0xD83 PUSH2 0x8D1 JUMP JUMPDEST JUMPDEST PUSH1 0x0 DUP7 ADD CALLDATALOAD PUSH8 0xFFFFFFFFFFFFFFFF DUP2 GT ISZERO PUSH2 0xDA2 JUMPI PUSH2 0xDA1 PUSH2 0x8D6 JUMP JUMPDEST JUMPDEST PUSH2 0xDAE DUP9 DUP3 DUP10 ADD PUSH2 0xBAE JUMP JUMPDEST SWAP6 POP POP PUSH1 0x20 PUSH2 0xDBF DUP9 DUP3 DUP10 ADD PUSH2 0xBFD JUMP JUMPDEST SWAP5 POP POP PUSH1 0x40 DUP7 ADD CALLDATALOAD PUSH8 0xFFFFFFFFFFFFFFFF DUP2 GT ISZERO PUSH2 0xDE0 JUMPI PUSH2 0xDDF PUSH2 0x8D6 JUMP JUMPDEST JUMPDEST PUSH2 0xDEC DUP9 DUP3 DUP10 ADD PUSH2 0xC99 JUMP JUMPDEST SWAP4 POP POP PUSH1 0x60 PUSH2 0xDFD DUP9 DUP3 DUP10 ADD PUSH2 0xBFD JUMP JUMPDEST SWAP3 POP POP PUSH1 0x80 DUP7 ADD CALLDATALOAD PUSH8 0xFFFFFFFFFFFFFFFF DUP2 GT ISZERO PUSH2 0xE1E JUMPI PUSH2 0xE1D PUSH2 0x8D6 JUMP JUMPDEST JUMPDEST PUSH2 0xE2A DUP9 DUP3 DUP10 ADD PUSH2 0xD3A JUMP JUMPDEST SWAP2 POP POP SWAP3 SWAP6 POP SWAP3 SWAP6 SWAP1 SWAP4 POP JUMP JUMPDEST PUSH1 0x0 DUP2 MLOAD SWAP1 POP SWAP2 SWAP1 POP JUMP JUMPDEST PUSH1 0x0 DUP3 DUP3 MSTORE PUSH1 0x20 DUP3 ADD SWAP1 POP SWAP3 SWAP2 POP POP JUMP JUMPDEST PUSH1 0x0 DUP2 SWAP1 POP PUSH1 0x20 DUP3 ADD SWAP1 POP SWAP2 SWAP1 POP JUMP JUMPDEST PUSH2 0xE6C DUP2 PUSH2 0x9BD JUMP JUMPDEST DUP3 MSTORE POP POP JUMP JUMPDEST PUSH1 0x0 PUSH2 0xE7E DUP4 DUP4 PUSH2 0xE63 JUMP JUMPDEST PUSH1 0x20 DUP4 ADD SWAP1 POP SWAP3 SWAP2 POP POP JUMP JUMPDEST PUSH1 0x0 PUSH1 0x20 DUP3 ADD SWAP1 POP SWAP2 SWAP1 POP JUMP JUMPDEST PUSH1 0x0 PUSH2 0xEA2 DUP3 PUSH2 0xE37 JUMP JUMPDEST PUSH2 0xEAC DUP2 DUP6 PUSH2 0xE42 JUMP JUMPDEST SWAP4 POP PUSH2 0xEB7 DUP4 PUSH2 0xE53 JUMP JUMPDEST DUP1 PUSH1 0x0 JUMPDEST DUP4 DUP2 LT ISZERO PUSH2 0xEE8 JUMPI DUP2 MLOAD PUSH2 0xECF DUP9 DUP3 PUSH2 0xE72 JUMP JUMPDEST SWAP8 POP PUSH2 0xEDA DUP4 PUSH2 0xE8A JUMP JUMPDEST SWAP3 POP POP PUSH1 0x1 DUP2 ADD SWAP1 POP PUSH2 0xEBB JUMP JUMPDEST POP DUP6 SWAP4 POP POP POP POP SWAP3 SWAP2 POP POP JUMP JUMPDEST PUSH1 0x0 PUSH1 0x20 DUP3 ADD SWAP1 POP DUP2 DUP2 SUB PUSH1 0x0 DUP4 ADD MSTORE PUSH2 0xF0F DUP2 DUP5 PUSH2 0xE97 JUMP JUMPDEST SWAP1 POP SWAP3 SWAP2 POP POP JUMP JUMPDEST PUSH2 0xF20 DUP2 PUSH2 0x9BD JUMP JUMPDEST DUP3 MSTORE POP POP JUMP JUMPDEST PUSH1 0x0 PUSH1 0x20 DUP3 ADD SWAP1 POP PUSH2 0xF3B PUSH1 0x0 DUP4 ADD DUP5 PUSH2 0xF17 JUMP JUMPDEST SWAP3 SWAP2 POP POP JUMP JUMPDEST PUSH1 0x0 PUSH1 0x20 DUP3 DUP5 SUB SLT ISZERO PUSH2 0xF57 JUMPI PUSH2 0xF56 PUSH2 0x8D1 JUMP JUMPDEST JUMPDEST PUSH1 0x0 PUSH2 0xF65 DUP5 DUP3 DUP6 ADD PUSH2 0xB30 JUMP JUMPDEST SWAP2 POP POP SWAP3 SWAP2 POP POP JUMP JUMPDEST PUSH1 0x0 DUP2 SWAP1 POP SWAP2 SWAP1 POP JUMP JUMPDEST PUSH1 0x0 PUSH2 0xF93 PUSH2 0xF8E PUSH2 0xF89 DUP5 PUSH2 0x99D JUMP JUMPDEST PUSH2 0xF6E JUMP JUMPDEST PUSH2 0x99D JUMP JUMPDEST SWAP1 POP SWAP2 SWAP1 POP JUMP JUMPDEST PUSH1 0x0 PUSH2 0xFA5 DUP3 PUSH2 0xF78 JUMP JUMPDEST SWAP1 POP SWAP2 SWAP1 POP JUMP JUMPDEST PUSH1 0x0 PUSH2 0xFB7 DUP3 PUSH2 0xF9A JUMP JUMPDEST SWAP1 POP SWAP2 SWAP1 POP JUMP JUMPDEST PUSH2 0xFC7 DUP2 PUSH2 0xFAC JUMP JUMPDEST DUP3 MSTORE POP POP JUMP JUMPDEST PUSH1 0x0 PUSH1 0x20 DUP3 ADD SWAP1 POP PUSH2 0xFE2 PUSH1 0x0 DUP4 ADD DUP5 PUSH2 0xFBE JUMP JUMPDEST SWAP3 SWAP2 POP POP JUMP JUMPDEST PUSH1 0x0 DUP1 PUSH1 0x40 DUP4 DUP6 SUB SLT ISZERO PUSH2 0xFFF JUMPI PUSH2 0xFFE PUSH2 0x8D1 JUMP JUMPDEST JUMPDEST PUSH1 0x0 PUSH2 0x100D DUP6 DUP3 DUP7 ADD PUSH2 0xBFD JUMP JUMPDEST SWAP3 POP POP PUSH1 0x20 PUSH2 0x101E DUP6 DUP3 DUP7 ADD PUSH2 0xBFD JUMP JUMPDEST SWAP2 POP POP SWAP3 POP SWAP3 SWAP1 POP JUMP JUMPDEST PUSH1 0x0 PUSH2 0x1033 DUP3 PUSH2 0xF9A JUMP JUMPDEST SWAP1 POP SWAP2 SWAP1 POP JUMP JUMPDEST PUSH2 0x1043 DUP2 PUSH2 0x1028 JUMP JUMPDEST DUP3 MSTORE POP POP JUMP JUMPDEST PUSH1 0x0 PUSH1 0x20 DUP3 ADD SWAP1 POP PUSH2 0x105E PUSH1 0x0 DUP4 ADD DUP5 PUSH2 0x103A JUMP JUMPDEST SWAP3 SWAP2 POP POP JUMP JUMPDEST PUSH1 0x0 DUP1 PUSH1 0x0 DUP1 PUSH1 0x80 DUP6 DUP8 SUB SLT ISZERO PUSH2 0x107E JUMPI PUSH2 0x107D PUSH2 0x8D1 JUMP JUMPDEST JUMPDEST PUSH1 0x0 PUSH2 0x108C DUP8 DUP3 DUP9 ADD PUSH2 0xB30 JUMP JUMPDEST SWAP5 POP POP PUSH1 0x20 PUSH2 0x109D DUP8 DUP3 DUP9 ADD PUSH2 0xBFD JUMP JUMPDEST SWAP4 POP POP PUSH1 0x40 DUP6 ADD CALLDATALOAD PUSH8 0xFFFFFFFFFFFFFFFF DUP2 GT ISZERO PUSH2 0x10BE JUMPI PUSH2 0x10BD PUSH2 0x8D6 JUMP JUMPDEST JUMPDEST PUSH2 0x10CA DUP8 DUP3 DUP9 ADD PUSH2 0xC99 JUMP JUMPDEST SWAP3 POP POP PUSH1 0x60 PUSH2 0x10DB DUP8 DUP3 DUP9 ADD PUSH2 0xBFD JUMP JUMPDEST SWAP2 POP POP SWAP3 SWAP6 SWAP2 SWAP5 POP SWAP3 POP JUMP JUMPDEST PUSH1 0x0 DUP2 SWAP1 POP SWAP2 SWAP1 POP JUMP JUMPDEST PUSH2 0x10FA DUP2 PUSH2 0x10E7 JUMP JUMPDEST DUP3 MSTORE POP POP JUMP JUMPDEST PUSH1 0x0 PUSH1 0x20 DUP3 ADD SWAP1 POP PUSH2 0x1115 PUSH1 0x0 DUP4 ADD DUP5 PUSH2 0x10F1 JUMP JUMPDEST SWAP3 SWAP2 POP POP JUMP JUMPDEST PUSH1 0x0 PUSH2 0x1126 DUP3 PUSH2 0x9BD JUMP JUMPDEST SWAP1 POP SWAP2 SWAP1 POP JUMP JUMPDEST PUSH2 0x1136 DUP2 PUSH2 0x111B JUMP JUMPDEST DUP2 EQ PUSH2 0x1141 JUMPI PUSH1 0x0 DUP1 REVERT JUMPDEST POP JUMP JUMPDEST PUSH1 0x0 DUP2 CALLDATALOAD SWAP1 POP PUSH2 0x1153 DUP2 PUSH2 0x112D JUMP JUMPDEST SWAP3 SWAP2 POP POP JUMP JUMPDEST PUSH1 0x0 DUP1 PUSH1 0x40 DUP4 DUP6 SUB SLT ISZERO PUSH2 0x1170 JUMPI PUSH2 0x116F PUSH2 0x8D1 JUMP JUMPDEST JUMPDEST PUSH1 0x0 PUSH2 0x117E DUP6 DUP3 DUP7 ADD PUSH2 0xB30 JUMP JUMPDEST SWAP3 POP POP PUSH1 0x20 PUSH2 0x118F DUP6 DUP3 DUP7 ADD PUSH2 0x1144 JUMP JUMPDEST SWAP2 POP POP SWAP3 POP SWAP3 SWAP1 POP JUMP JUMPDEST PUSH1 0x0 PUSH1 0x20 DUP3 DUP5 SUB SLT ISZERO PUSH2 0x11AF JUMPI PUSH2 0x11AE PUSH2 0x8D1 JUMP JUMPDEST JUMPDEST PUSH1 0x0 PUSH2 0x11BD DUP5 DUP3 DUP6 ADD PUSH2 0xBFD JUMP JUMPDEST SWAP2 POP POP SWAP3 SWAP2 POP POP JUMP JUMPDEST PUSH2 0x11CF DUP2 PUSH2 0x10E7 JUMP JUMPDEST DUP2 EQ PUSH2 0x11DA JUMPI PUSH1 0x0 DUP1 REVERT JUMPDEST POP JUMP JUMPDEST PUSH1 0x0 DUP2 CALLDATALOAD SWAP1 POP PUSH2 0x11EC DUP2 PUSH2 0x11C6 JUMP JUMPDEST SWAP3 SWAP2 POP POP JUMP JUMPDEST PUSH1 0x0 PUSH1 0x20 DUP3 DUP5 SUB SLT ISZERO PUSH2 0x1208 JUMPI PUSH2 0x1207 PUSH2 0x8D1 JUMP JUMPDEST JUMPDEST PUSH1 0x0 PUSH2 0x1216 DUP5 DUP3 DUP6 ADD PUSH2 0x11DD JUMP JUMPDEST SWAP2 POP POP SWAP3 SWAP2 POP POP JUMP JUMPDEST PUSH32 0x4E487B7100000000000000000000000000000000000000000000000000000000 PUSH1 0x0 MSTORE PUSH1 0x32 PUSH1 0x4 MSTORE PUSH1 0x24 PUSH1 0x0 REVERT JUMPDEST PUSH32 0x4E487B7100000000000000000000000000000000000000000000000000000000 PUSH1 0x0 MSTORE PUSH1 0x11 PUSH1 0x4 MSTORE PUSH1 0x24 PUSH1 0x0 REVERT JUMPDEST PUSH1 0x0 PUSH2 0x1288 DUP3 PUSH2 0xBDC JUMP JUMPDEST SWAP2 POP PUSH32 0xFFFFFFFFFFFFFFFFFFFFFFFFFFFFFFFFFFFFFFFFFFFFFFFFFFFFFFFFFFFFFFFF DUP3 EQ ISZERO PUSH2 0x12BB JUMPI PUSH2 0x12BA PUSH2 0x124E JUMP JUMPDEST JUMPDEST PUSH1 0x1 DUP3 ADD SWAP1 POP SWAP2 SWAP1 POP JUMP JUMPDEST PUSH2 0x12CF DUP2 PUSH2 0xBDC JUMP JUMPDEST DUP3 MSTORE POP POP JUMP JUMPDEST PUSH1 0x0 DUP2 MLOAD SWAP1 POP SWAP2 SWAP1 POP JUMP JUMPDEST PUSH1 0x0 DUP3 DUP3 MSTORE PUSH1 0x20 DUP3 ADD SWAP1 POP SWAP3 SWAP2 POP POP JUMP JUMPDEST PUSH1 0x0 JUMPDEST DUP4 DUP2 LT ISZERO PUSH2 0x130F JUMPI DUP1 DUP3 ADD MLOAD DUP2 DUP5 ADD MSTORE PUSH1 0x20 DUP2 ADD SWAP1 POP PUSH2 0x12F4 JUMP JUMPDEST DUP4 DUP2 GT ISZERO PUSH2 0x131E JUMPI PUSH1 0x0 DUP5 DUP5 ADD MSTORE JUMPDEST POP POP POP POP JUMP JUMPDEST PUSH1 0x0 PUSH2 0x132F DUP3 PUSH2 0x12D5 JUMP JUMPDEST PUSH2 0x1339 DUP2 DUP6 PUSH2 0x12E0 JUMP JUMPDEST SWAP4 POP PUSH2 0x1349 DUP2 DUP6 PUSH1 0x20 DUP7 ADD PUSH2 0x12F1 JUMP JUMPDEST PUSH2 0x1352 DUP2 PUSH2 0x8E0 JUMP JUMPDEST DUP5 ADD SWAP2 POP POP SWAP3 SWAP2 POP POP JUMP JUMPDEST PUSH1 0x0 DUP2 MLOAD SWAP1 POP SWAP2 SWAP1 POP JUMP JUMPDEST PUSH1 0x0 DUP3 DUP3 MSTORE PUSH1 0x20 DUP3 ADD SWAP1 POP SWAP3 SWAP2 POP POP JUMP JUMPDEST PUSH1 0x0 PUSH2 0x1384 DUP3 PUSH2 0x135D JUMP JUMPDEST PUSH2 0x138E DUP2 DUP6 PUSH2 0x1368 JUMP JUMPDEST SWAP4 POP PUSH2 0x139E DUP2 DUP6 PUSH1 0x20 DUP7 ADD PUSH2 0x12F1 JUMP JUMPDEST PUSH2 0x13A7 DUP2 PUSH2 0x8E0 JUMP JUMPDEST DUP5 ADD SWAP2 POP POP SWAP3 SWAP2 POP POP JUMP JUMPDEST PUSH1 0x0 PUSH1 0xC0 DUP3 ADD SWAP1 POP PUSH2 0x13C7 PUSH1 0x0 DUP4 ADD DUP10 PUSH2 0xF17 JUMP JUMPDEST PUSH2 0x13D4 PUSH1 0x20 DUP4 ADD DUP9 PUSH2 0xF17 JUMP JUMPDEST PUSH2 0x13E1 PUSH1 0x40 DUP4 ADD DUP8 PUSH2 0x12C6 JUMP JUMPDEST DUP2 DUP2 SUB PUSH1 0x60 DUP4 ADD MSTORE PUSH2 0x13F3 DUP2 DUP7 PUSH2 0x1324 JUMP JUMPDEST SWAP1 POP PUSH2 0x1402 PUSH1 0x80 DUP4 ADD DUP6 PUSH2 0x12C6 JUMP JUMPDEST DUP2 DUP2 SUB PUSH1 0xA0 DUP4 ADD MSTORE PUSH2 0x1414 DUP2 DUP5 PUSH2 0x1379 JUMP JUMPDEST SWAP1 POP SWAP8 SWAP7 POP POP POP POP POP POP POP JUMP JUMPDEST PUSH1 0x0 DUP2 ISZERO ISZERO SWAP1 POP SWAP2 SWAP1 POP JUMP JUMPDEST PUSH2 0x1436 DUP2 PUSH2 0x1421 JUMP JUMPDEST DUP2 EQ PUSH2 0x1441 JUMPI PUSH1 0x0 DUP1 REVERT JUMPDEST POP JUMP JUMPDEST PUSH1 0x0 DUP2 MLOAD SWAP1 POP PUSH2 0x1453 DUP2 PUSH2 0x142D JUMP JUMPDEST SWAP3 SWAP2 POP POP JUMP JUMPDEST PUSH1 0x0 PUSH1 0x20 DUP3 DUP5 SUB SLT ISZERO PUSH2 0x146F JUMPI PUSH2 0x146E PUSH2 0x8D1 JUMP JUMPDEST JUMPDEST PUSH1 0x0 PUSH2 0x147D DUP5 DUP3 DUP6 ADD PUSH2 0x1444 JUMP JUMPDEST SWAP2 POP POP SWAP3 SWAP2 POP POP JUMP JUMPDEST PUSH1 0x0 PUSH2 0x1491 DUP3 PUSH2 0xBDC JUMP JUMPDEST SWAP2 POP PUSH2 0x149C DUP4 PUSH2 0xBDC JUMP JUMPDEST SWAP3 POP DUP3 DUP3 LT ISZERO PUSH2 0x14AF JUMPI PUSH2 0x14AE PUSH2 0x124E JUMP JUMPDEST JUMPDEST DUP3 DUP3 SUB SWAP1 POP SWAP3 SWAP2 POP POP JUMP JUMPDEST PUSH1 0x0 PUSH1 0x60 DUP3 ADD SWAP1 POP PUSH2 0x14CF PUSH1 0x0 DUP4 ADD DUP7 PUSH2 0x12C6 JUMP JUMPDEST DUP2 DUP2 SUB PUSH1 0x20 DUP4 ADD MSTORE PUSH2 0x14E1 DUP2 DUP6 PUSH2 0x1324 JUMP JUMPDEST SWAP1 POP PUSH2 0x14F0 PUSH1 0x40 DUP4 ADD DUP5 PUSH2 0x12C6 JUMP JUMPDEST SWAP5 SWAP4 POP POP POP POP JUMP JUMPDEST PUSH1 0x0 DUP2 PUSH1 0x60 SHL SWAP1 POP SWAP2 SWAP1 POP JUMP JUMPDEST PUSH1 0x0 PUSH2 0x1510 DUP3 PUSH2 0x14F8 JUMP JUMPDEST SWAP1 POP SWAP2 SWAP1 POP JUMP JUMPDEST PUSH1 0x0 PUSH2 0x1522 DUP3 PUSH2 0x1505 JUMP JUMPDEST SWAP1 POP SWAP2 SWAP1 POP JUMP JUMPDEST PUSH2 0x153A PUSH2 0x1535 DUP3 PUSH2 0x9BD JUMP JUMPDEST PUSH2 0x1517 JUMP JUMPDEST DUP3 MSTORE POP POP JUMP JUMPDEST PUSH1 0x0 DUP2 SWAP1 POP SWAP2 SWAP1 POP JUMP JUMPDEST PUSH2 0x155B PUSH2 0x1556 DUP3 PUSH2 0xBDC JUMP JUMPDEST PUSH2 0x1540 JUMP JUMPDEST DUP3 MSTORE POP POP JUMP JUMPDEST PUSH1 0x0 DUP2 SWAP1 POP SWAP3 SWAP2 POP POP JUMP JUMPDEST PUSH1 0x0 PUSH2 0x1577 DUP3 PUSH2 0x12D5 JUMP JUMPDEST PUSH2 0x1581 DUP2 DUP6 PUSH2 0x1561 JUMP JUMPDEST SWAP4 POP PUSH2 0x1591 DUP2 DUP6 PUSH1 0x20 DUP7 ADD PUSH2 0x12F1 JUMP JUMPDEST DUP1 DUP5 ADD SWAP2 POP POP SWAP3 SWAP2 POP POP JUMP JUMPDEST PUSH1 0x0 PUSH2 0x15A9 DUP3 DUP8 PUSH2 0x1529 JUMP JUMPDEST PUSH1 0x14 DUP3 ADD SWAP2 POP PUSH2 0x15B9 DUP3 DUP7 PUSH2 0x154A JUMP JUMPDEST PUSH1 0x20 DUP3 ADD SWAP2 POP PUSH2 0x15C9 DUP3 DUP6 PUSH2 0x156C JUMP JUMPDEST SWAP2 POP PUSH2 0x15D5 DUP3 DUP5 PUSH2 0x154A JUMP JUMPDEST PUSH1 0x20 DUP3 ADD SWAP2 POP DUP2 SWAP1 POP SWAP6 SWAP5 POP POP POP POP POP JUMP JUMPDEST PUSH32 0x19457468657265756D205369676E6564204D6573736167653A0A333200000000 PUSH1 0x0 DUP3 ADD MSTORE POP JUMP JUMPDEST PUSH1 0x0 PUSH2 0x161D PUSH1 0x1C DUP4 PUSH2 0x1561 JUMP JUMPDEST SWAP2 POP PUSH2 0x1628 DUP3 PUSH2 0x15E7 JUMP JUMPDEST PUSH1 0x1C DUP3 ADD SWAP1 POP SWAP2 SWAP1 POP JUMP JUMPDEST PUSH1 0x0 DUP2 SWAP1 POP SWAP2 SWAP1 POP JUMP JUMPDEST PUSH2 0x164E PUSH2 0x1649 DUP3 PUSH2 0x10E7 JUMP JUMPDEST PUSH2 0x1633 JUMP JUMPDEST DUP3 MSTORE POP POP JUMP JUMPDEST PUSH1 0x0 PUSH2 0x165F DUP3 PUSH2 0x1610 JUMP JUMPDEST SWAP2 POP PUSH2 0x166B DUP3 DUP5 PUSH2 0x163D JUMP JUMPDEST PUSH1 0x20 DUP3 ADD SWAP2 POP DUP2 SWAP1 POP SWAP3 SWAP2 POP POP JUMP INVALID LOG2 PUSH5 0x6970667358 0x22 SLT KECCAK256 MULMOD 0xB6 0xB6 0x2C 0xBA 0xE0 PUSH20 0xBCA92C588615A600C7DF7EFADA54CCE4B33EB7B5 0xD3 0xCF PUSH8 0xB36964736F6C6343 STOP ADDMOD MULMOD STOP CALLER "
    },
    "gasEstimates": {
      "creation": {
        "codeDepositCost": "1161600",
        "executionCost": "infinite",
        "totalCost": "infinite"
      },
      "external": {
        "connectedRSUs(address)": "infinite",
        "getEthSignedMessageHash(bytes32)": "infinite",
        "getMessageHash(address,uint256,string,uint256)": "infinite",
        "getReceivers()": "infinite",
        "getSignatureEvaluation(address[],uint256,string,uint256,bytes)": "infinite",
        "receivers(uint256)": "5022",
        "retrieveLocation(uint256,uint256)": "infinite",
        "retrieveProviders(address[])": "infinite",
        "selectProvider()": "167",
        "sender()": "2578",
        "serviceProviders(address)": "infinite",
        "setConnectedRSU(address,address)": "infinite"
      }
    },
    "methodIdentifiers": {
      "connectedRSUs(address)": "99a98dc1",
      "getEthSignedMessageHash(bytes32)": "fa540801",
      "getMessageHash(address,uint256,string,uint256)": "a35f8a40",
      "getReceivers()": "e061646b",
      "getSignatureEvaluation(address[],uint256,string,uint256,bytes)": "64e15b4c",
      "receivers(uint256)": "bfd772fc",
      "retrieveLocation(uint256,uint256)": "8b52a81e",
      "retrieveProviders(address[])": "0c638710",
      "selectProvider()": "39074ba2",
      "sender()": "67e404ce",
      "serviceProviders(address)": "6a0f4dd0",
      "setConnectedRSU(address,address)": "b4250922"
    }
  },
  "storageLayout": {
    "storage": [
      {
        "astId": 532,
        "contract": "Vehicle.sol:Vehicle",
        "label": "sender",
        "offset": 0,
        "slot": "0",
        "type": "t_address"
      },
      {
        "astId": 535,
        "contract": "Vehicle.sol:Vehicle",
        "label": "receivers",
        "offset": 0,
        "slot": "1",
        "type": "t_array(t_address)dyn_storage"
      },
      {
        "astId": 538,
        "contract": "Vehicle.sol:Vehicle",
        "label": "media",
        "offset": 0,
        "slot": "2",
        "type": "t_contract(Media)77"
      },
      {
        "astId": 543,
        "contract": "Vehicle.sol:Vehicle",
        "label": "serviceProviders",
        "offset": 0,
        "slot": "3",
        "type": "t_mapping(t_address,t_contract(Provider)166)"
      },
      {
        "astId": 546,
        "contract": "Vehicle.sol:Vehicle",
        "label": "addressProviders",
        "offset": 0,
        "slot": "4",
        "type": "t_array(t_address)dyn_storage"
      },
      {
        "astId": 551,
        "contract": "Vehicle.sol:Vehicle",
        "label": "connectedRSUs",
        "offset": 0,
        "slot": "5",
        "type": "t_mapping(t_address,t_contract(RSU)477)"
      },
      {
        "astId": 553,
        "contract": "Vehicle.sol:Vehicle",
        "label": "longitude",
        "offset": 0,
        "slot": "6",
        "type": "t_uint256"
      },
      {
        "astId": 555,
        "contract": "Vehicle.sol:Vehicle",
        "label": "latitude",
        "offset": 0,
        "slot": "7",
        "type": "t_uint256"
      },
      {
        "astId": 557,
        "contract": "Vehicle.sol:Vehicle",
        "label": "VIN",
        "offset": 0,
        "slot": "8",
        "type": "t_uint256"
      },
      {
        "astId": 559,
        "contract": "Vehicle.sol:Vehicle",
        "label": "vID",
        "offset": 0,
        "slot": "9",
        "type": "t_uint256"
      },
      {
        "astId": 561,
        "contract": "Vehicle.sol:Vehicle",
        "label": "vName",
        "offset": 0,
        "slot": "10",
        "type": "t_string_storage"
      },
      {
        "astId": 564,
        "contract": "Vehicle.sol:Vehicle",
        "label": "status",
        "offset": 0,
        "slot": "11",
        "type": "t_enum(State)579"
      },
      {
        "astId": 566,
        "contract": "Vehicle.sol:Vehicle",
        "label": "speed",
        "offset": 0,
        "slot": "12",
        "type": "t_uint256"
      },
      {
        "astId": 568,
        "contract": "Vehicle.sol:Vehicle",
        "label": "txNum",
        "offset": 0,
        "slot": "13",
        "type": "t_int256"
      },
      {
        "astId": 570,
        "contract": "Vehicle.sol:Vehicle",
        "label": "endorsed",
        "offset": 0,
        "slot": "14",
        "type": "t_int256"
      },
      {
        "astId": 572,
        "contract": "Vehicle.sol:Vehicle",
        "label": "flagged",
        "offset": 0,
        "slot": "15",
        "type": "t_int256"
      },
      {
        "astId": 574,
        "contract": "Vehicle.sol:Vehicle",
        "label": "validNum",
        "offset": 0,
        "slot": "16",
        "type": "t_int256"
      },
      {
        "astId": 600,
        "contract": "Vehicle.sol:Vehicle",
        "label": "registeredRSUs",
        "offset": 0,
        "slot": "17",
        "type": "t_mapping(t_address,t_contract(RSU)477)"
      }
    ],
    "types": {
      "t_address": {
        "encoding": "inplace",
        "label": "address",
        "numberOfBytes": "20"
      },
      "t_array(t_address)dyn_storage": {
        "base": "t_address",
        "encoding": "dynamic_array",
        "label": "address[]",
        "numberOfBytes": "32"
      },
      "t_contract(Media)77": {
        "encoding": "inplace",
        "label": "contract Media",
        "numberOfBytes": "20"
      },
      "t_contract(Provider)166": {
        "encoding": "inplace",
        "label": "contract Provider",
        "numberOfBytes": "20"
      },
      "t_contract(RSU)477": {
        "encoding": "inplace",
        "label": "contract RSU",
        "numberOfBytes": "20"
      },
      "t_enum(State)579": {
        "encoding": "inplace",
        "label": "enum Vehicle.State",
        "numberOfBytes": "1"
      },
      "t_int256": {
        "encoding": "inplace",
        "label": "int256",
        "numberOfBytes": "32"
      },
      "t_mapping(t_address,t_contract(Provider)166)": {
        "encoding": "mapping",
        "key": "t_address",
        "label": "mapping(address => contract Provider)",
        "numberOfBytes": "32",
        "value": "t_contract(Provider)166"
      },
      "t_mapping(t_address,t_contract(RSU)477)": {
        "encoding": "mapping",
        "key": "t_address",
        "label": "mapping(address => contract RSU)",
        "numberOfBytes": "32",
        "value": "t_contract(RSU)477"
      },
      "t_string_storage": {
        "encoding": "bytes",
        "label": "string",
        "numberOfBytes": "32"
      },
      "t_uint256": {
        "encoding": "inplace",
        "label": "uint256",
        "numberOfBytes": "32"
      }
    }
  },
  "userdoc": {
    "kind": "user",
    "methods": {},
    "version": 1
  }
}